:1000030000000000000000000000000000000404E5
:10001300040404040004000000140A0A00000000A1
:1000230000000000000014143F140A3F0A0A0000F5
:1000330000041E1505060C14150F0400000012150C
:100043000D0A142C2A1200000000040A0A1E1515BA
:100053000936000000020201000000000000000059
:1000630000201008080808080810200000020408EF
:10007300080808080804020000000004150E0E1505
:100083000400000000000404041F04040400000032
:100093000000000000000000000202010000000058
:1000A300001F00000000000000000000000000002E
:1000B3000002000000100808080404020202010004
:1000C30000000E1111111111110E000000000406A1
:1000D30004040404040E000000000E1111080402BD
:1000E300011F000000000E11100C1010110E000073
:1000F3000000080C0A0A091E0818000000001F016E
:10010300010F1010110E000000000E09010F111154
:10011300110E000000001F09080404040404000079
:1001230000000E11110E1111110E000000000E112E
:1001330011111E10120E0000000000000400000048
:10014300000400000000000000040000000404009C
:100153000020100804020408102000000000000022
:100163001F00001F000000000002040810201008F8
:100173000402000000000E11110804040004000032
:1001830000000E111915151D011E000000000404C6
:100193000C0A0A1E1233000000000F12120E121274
:1001A300120F000000001E1101010101110E0000D9
:1001B30000000F1212121212120F000000001F1281
:1001C3000A0E0A02121F000000001F120A0E0A0282
:1001D3000207000000001C1201013911120C00007B
:1001E30000003312121E12121233000000001F040B
:1001F30004040404041F000000003E080808080863
:1002030008090700000037120A060A0A123700001D
:100213000000070202020202223F000000001B1B33
:100223001B1B15151515000000003B1216161A1A94
:100233001217000000000E1111111111110E000010
:1002430000000F12120E02020207000000000E113E
:1002530011111117190E180000000F12120E0A12B5
:100263001237000000001E1101060810110F0000D4
:1002730000001F1504040404040E000000003312E0
:1002830012121212120C000000003312120A0A0C8E
:100293000404000000001515150E0A0A0A0A0000DE
:1002A30000001B0A0A04040A0A1B000000001B0AC0
:1002B3000A040404040E000000001F0908040402D9
:1002C300121F0000001C04040404040404041C00A2
:1002D300000202020404080808100000000E0808C7
:1002E3000808080808080E0000040A0000000000BF
:1002F3000000000000000000000000000000003FBC
:1003030000040000000000000000000000000000E6
:10031300000C121C123C000000000302020E121219
:10032300120E000000000000001C1202021C00005C
:1003330000001810101C1212123C000000000000F4
:10034300000C121E021C000000003804041E0404EA
:10035300041E000000000000003C120C021E221CC0
:1003630000000302020E1212123700000000040004
:1003730000060404040E000000000800000C080836
:100383000808080700000302023A0A0E12370000A9
:100393000000070404040404041F0000000000001C
:1003A300000F15151515000000000000000F1212B4
:1003B3001237000000000000000C1212120C0000A3
:1003C30000000000000F1212120E020700000000CE
:1003D300001C1212121C103800000000001B060241
:1003E3000207000000000000001E020C101E0000A7
:1003F30000000004040E04040418000000000000C0
:10040300001B1212123C0000000000000037120A09
:100413000C040000000000000015150E0A0A00007D
:1004230000000000001B0A040A1B0000000000007B
:100433000037120A0C04040300000000001E080425
:10044300041E00000018080808040808080818001B
:10045300080808080808080808080808000604042B
:100463000408040404040600022518000000000028
:100473000000000000000000000000000000000079
:100483000000000000000008080808080808000031
:100493001818000000486C2412000000000000003F
:1004A300000000000000002424247F1212127F1297
:1004B300121200000000081C2A2A0A0C1828282AF5
:1004C3002A1C080800000022251515152A58545423
:1004D300542200000000000C1212120A7625291182
:1004E300916E0000000606040300000000000000F7
:1004F3000000000000402010100808080808081039
:1005030010204000000204080810101010101008FA
:10051300080402000000000008086B1C1C6B08089C
:100523000000000000000000080808087F08080811
:1005330008000000000000000000000000000000B0
:10054300060604030000000000000000FE00000097
:100553000000000000000000000000000000000098
:100563000606000000008040402020101008080408
:100573000402020000000018244242424242424266
:1005830024180000000000080E08080808080808DE
:10059300083E00000000003C4242422020100804B4
:1005A300427E00000000003C4242201820404042AE
:1005B300221C0000000000203028242422227E2058
:1005C300207800000000007E0202021A264040420A
:1005D300221C0000000000382402021A2642424274
:1005E300241800000000007E2222101008080808CA
:1005F300080800000000003C424242241824424202
:10060300423C00000000001824424242645840402B
:10061300241C000000000000000018180000000067
:10062300181800000000000000000008000000008F
:100633000008080400000040201008040204081009
:10064300204000000000000000007F0000007F0049
:1006530000000000000000020408102040201008E1
:10066300040200000000003C4242464020101000FB
:10067300181800000000001C225A555555552D42EC
:10068300221C00000000000808181414243C224215
:1006930042E700000000001F2222221E22424242A3
:1006A300221F00000000007C4242010101010142BF
:1006B300221C00000000001F2242424242424242EA
:1006C300221F00000000003F4212121E12120242BB
:1006D300423F00000000003F4212121E12120202AB
:1006E300020700000000003C2222010101712122C7
:1006F300221C0000000000E7424242427E42424286
:1007030042E700000000003E08080808080808083F
:10071300083E00000000007C101010101010101094
:100723001010110F0000007722120A0E0A12122273
:100733002277000000000007020202020202020206
:10074300427F000000000077363636362A2A2A2AEE
:100753002A6B0000000000E346464A4A52525262A6
:10076300624700000000001C2241414141414141D8
:10077300221C00000000003F424242423E020202AD
:10078300020700000000001C2241414141414D533A
:10079300321C60000000003F4242423E12122222FD
:1007A30042C700000000007C42420204182040427D
:1007B300423E00000000007F4908080808080808B6
:1007C300081C0000000000E742424242424242420B
:1007D300423C0000000000E7424222242414141883
:1007E300080800000000006B494949495555362265
:1007F30022220000000000E74224241818182424B1
:1008030042E70000000000772222141408080808B9
:10081300081C00000000007E212010100804044280
:10082300423F00000078080808080808080808087C
:1008330008087800000002020404080808101020C9
:1008430020204040001E1010101010101010101027
:1008530010101E00003844000000000000000000DB
:100863000000000000000000000000000000000085
:10087300000000FF00060800000000000000000068
:1008830000000000000000000000003C42784442E9
:1008930042FC0000000000030202021A2642424208
:1008A300261A000000000000000000384402020283
:1008B3004438000000000060404040784442424217
:1008C30064D80000000000000000003C427E0202E9
:1008D300423C0000000000F08808087E0808080871
:1008E300083E0000000000000000007C22221C02E1
:1008F3003C42423C000000030202023A46424242AA
:1009030042E700000000000C0C00000E0808080875
:10091300083E000000000030300000382020202076
:100923002020221E0000000302020272120A161285
:10093300227700000000000E0808080808080808CD
:10094300083E0000000000000000007F9292929297
:1009530092B70000000000000000003B4642424204
:1009630042E70000000000000000003C4242424217
:10097300423C0000000000000000001B26424242EF
:10098300221E020700000000000000784442424299
:10099300447840E000000000000000774C040404A9
:1009A300041F0000000000000000007C42023C40E5
:1009B300423E0000000000000008083E0808080846
:1009C3000830000000000000000000634242424281
:1009D30062DC000000000000000000E74224241451
:1009E3000808000000000000000000EB49495555CD
:1009F30022220000000000000000007624181818CE
:100A0300246E000000000000000000E742242414CC
:100A130018080807000000000000007E22100808E4
:100A2300447E000000C02020202020102020202011
:100A33002020C000101010101010101010101010F3
:100A43001010101000060808080808100808080805
:100A5300080806000C32C20000000000000000007D
:100A630000000000C9EE000027FC140414A4811048
:100A730042084040104017FC2040E0E0215022484B
:100A83002C4620400040DBDA1104112411241124E8
:100A93001124FD24112411241124112411241D24B3
:100AA300E124422402040404CAD00200010000002D
:100AB3007FFC0100010001003FF821082108210803
:100AC30021082128211001000100C8AB000000000B
:100AD300018002400430180860061FF9010001007C
:100AE30001003FF80100010001007FFEB6AF0000E6
:100AF300000000203E20007C002200227F221022E2
:100B0300102212221222224223423D82009CB5E788
:100B13000000010001001FF0610C410441047FFC4F
:100B23004104410441047FFC01000102010201FC74
:100B3300D7D3000000003FF80010006000800100E0
:100B430000807FFE0040004000200020002018406D
:100B53000780BCBC00000000104013FE10407C4026
:100B6300104013FC1104190830885050106010D045
:100B730013087C06CAF500000100013001080100DA
:100B83007FFE018003400540052009101108210460
:100B9300410201000100D3D00000010002007FFEEA
:100BA300040008001FFC700490041FFC10041004D0
:100BB3001FFC10041004103CCFDE000000007BFC7F
:100BC3004A044A044BFC52044A044BFC4A404A443C
:100BD3007A2842304210420843C6B9AB00000000F5
:100BE30004400420081010101008210442020220BF
:100BF30004100810080810081FFC0004CBBE0000F6
:100C030000003FFC000400043FF400043FE4202400
:100C130020242024202420241FC40004007CBBB6ED
:100C23000000000000807EFC02A202A222A4152480
:100C330014240C300C300C481248228442840102E4
:100C4300D3AD000000002398246414440444644496
:100C5300144414441444144415C4125C1040284032
:100C630047FEC4FA00000000120013FE24222522CE
:100C7300652862242224242020E0050814842444C7
:100C8300241A47F2B4BF00000020102013FE2020D6
:100C930026244A247A241224222423FC7C200022A2
:100CA30004227822003CC9AB0000000004000FF0CE
:100CB300102020207FFC20842084208420843FF87F
:100CC3002000200220021FFECCEE00000000204086
:100CD30023FE204079FC220423FC220423FC22046B
:100CE30023FC3A0465FA01980204B3E4000001000E
:100CF30001007FFE02200410040808043FFC0442A4
:100D030004400440044208421042607EBED8000002
:100D13000000207E3E804880488048FE48827F82D3
:100D230008820C8214FA12842280218040FED0CEE5
:100D3300000000007F842208223022C02202220405
:100D43007FC8223022C222022204220822304040DD
:100D5300BBAD000000007FFE00000FF0111011106A
:100D6300111051125FF25112511251124FF24002FF
:100D73007FFCD4B2000000007FFE47E24812481215
:100D830047E24FF2501250125112511242924472E2
:100D9300580A3FFCC800000000007FFC0000000070
:100DA300000000003FF80000000000000000000009
:100DB300FFFE00000000BDC7080008001FE0202060
:100DC3004040BFF8210821083FF8210821083FF8D7
:100DD3002108410841288010CDBC000000003FFEDF
:100DE300440247F24C225362408243625E1A4182BC
:100DF3004062430240C240223FFCC6AC00000040B8
:100E03002040204020403FFE2000200020003FE003
:100E1300201020102010201040104010CFD40000CC
:100E230000003FFC200420043FFC200420041FF8A2
:100E330024441448144814480C5004407FFECABE8E
:100E4300000000003FFC0000000000007FFE008067
:100E530008900888108810842084208240820780AC
:100E6300B2CB0000002008207FFE002000783F88DE
:100E73001108089009207FFE018003400D30310CDA
:100E83004002B5A500000010081004203FF821041B
:100E930021043FFC210421043FF801007FFE0100EF
:100EA30001000100D6D000000100010001003FFC59
:100EB3002104210421042104210421043FFC010015
:100EC300010001000100D3A20000000008207FFE02
:100ED3000820092001003FF82108210821081FF4F8
:100EE300014002200C10700ECEC40000010001006E
:100EF30000803F7C081008100410042002200240E8
:100F03000180018002601C18E006D7DB00000000AE
:100F1300102011FE2202220249FC5800300013FE69
:100F23002528792401240D24722202A2BACF0000BD
:100F33000000018002400430180860061FF800001A
:100F43001FF8200420042004200420041FF8C1C13A
:100F53000000010001007FFE00003FF820083FF879
:100F63003FF8400647C24824082008221022603E6A
:100F7300B6C80000000000803FFE44105FFC441030
:100F8300441043F040005FF84408423041C04360DE
:100F9300BC1EB2E20000000067C2145205520552A3
:100FA300C55225520552055215521752228222422A
:100FB3004442483ECAD4000000002014101417FE17
:100FC30000120010601013F0109010901090149203
:100FD30014EA1F0A0006B3CC0000000019FE7202D7
:100FE300120212027DFC18001BFE3420502053FE17
:100FF30010201020102013FED0F20000000000800B
:101003003FFE400047FC4208413040C05FFE404283
:1010130040424044404840404440B5F7000000008F
:1010230023FE122202FA0222E22212FE1272128A14
:10103300128A128A16BA1A421202040EB9E2000088
:101043000100010411080908091009207FFE04406A
:10105300044004400440084208421042607CB0E669
:101063000000000048FE4900490049007EFE41821D
:101073004144794445284528451045284644038280
:10108300C8A800001000100013FC7D04110419040B
:10109300188434885048505010201050108813047E
:1010A3001402CBF9000000003F7C204020403E406A
:1010B300227E2244224422443E842084208440848D
:1010C30041044204C6C100003FF8200820083FF84D
:1010D300241022202FF8222022203FFC222042200D
:1010E300442084200820C4BB04407FFC04401FF03C
:1010F30010101FF010101FF00400FFFE11103FF836
:10110300D116115011200100D0002080108010FE54
:101113000100FE0021FC20243C2424A024A024BCA4
:1011230024A024A04560553E8A00D7AA2020202071
:101133002020FDFC4020504093FEFC40108011FC19
:101143001C04F0885050102010101010BFAA00008B
:101153007FFC08200820082008200820FFFE082024
:101163000820082008201020102020204020D4B47C
:10117300000027FE1420144085FC450445FC15049B
:1011830015FC2524E42024A829242A2230A0004089
:10119300D2BA0080204017FE11208120423C4244F5
:1011A300166412942348E2482230222022502288D7
:1011B3000306BEA70FE0082008200FE00820082040
:1011C3000FE000007EFC428442847EFC4284428421
:1011D3007EFC4284CDF800007FFC400440044214AE
:1011E30052944A54442444244A544A545294610421
:1011F300400440144008D5BE1020082008207E205B
:10120300003E04204420442025FC290429040F0423
:10121300F104410401FC0104B0B41040102010207B
:1012230013FEFA02144410401BFE3088D0881108C4
:1012330010D01020105050882304BCFC2010201024
:101243003B7C211441FE7A14A27C2710F97C2510E3
:1012530025FE22102A10350028FE0000D0A31040DE
:101263001020102011FEFC00108831043A0254882B
:101273005088905010501020105010881306D7BC7F
:1012830001404120212023FE022016201BFC1220B6
:10129300222023FCE2202220222023FE220002001F
:1012A300B4A520202020782049FC91247D245524B6
:1012B30055247DFC552454207C28542457FE450294
:1012C3008C00C3FE1110111017FC1110FC0013F851
:1012D300120817F81A0833F8D04017FC10A01110A1
:1012E30052082406C9EE00000000000010000008A8
:1012F30000080C7FFC04401001C8A00218604230B3
:101303001832231812C30014030004030C047FF0E3
:10131300080F80080B4078136018332018631818DF
:10132300831C190308180300000300000000DBDA24
:1013330000000000000004100C04180C04108C04BE
:10134300108C04108C04108C04D08C3F108C04106F
:101353008C04108C04108C04108C04108C04108CDE
:1013630005F08C0E208C78208C20408C00808C0122
:10137300000C02000C000000CAD0000000000000B6
:1013830000300000180000180800001C1FFFE000D8
:10139300180000182007FFF0041820041820041870
:1013A30020041820041820041820041820041820EE
:1013B3000418200418E00418400018000018000066
:1013C3000000D6D000000000000000000000000074
:1013D3000018000018000018000018003FFFFE303E
:1013E30018063018063018063018063018063FFF66
:1013F300FE3018060018000018000018000018003E
:10140300001800000000000000000000CEC400002F
:1014130000000000000000003800001C000006006F
:10142300FFFFFF0600300600300300600300600189
:1014330080C000C18000E300003600001C0000777C
:101443000003C1E01E003C60000700000000000034
:10145300000000000000B2E20000000000000000F5
:101463000000000040000321FF333983331183332D
:10147300019B33C19B33719B33199B33019B330115
:101483009B33119B3319B333303033306C0330C685
:10149300036383032E01BE00000000000000000070
:1014A300CAD400000000000000000000000040005B
:1014B300D83000CE1800C21C00C001FFFF0000C0DE
:1014C300F800C01800C019FFC01818401818601998
:1014D30018601B18611E18311C1FB139F019100058
:1014E3000F000000000000000000D7D6000000003D
:1014F30000060000000300000000C0000001C0C09F
:10150300000107C00001FF00021FFE0007F01C00DE
:1015130007C070000F00E0000E03F0001C0FF00086
:101523003C0F70003C00E0001800C0000000C00049
:101533000000C00000006000000020000000370031
:101543000001FF00007FF80007F830001F80300023
:101553000080300000C03000006060000018E00030
:10156300000FC0000006000000000000CCE50000F2
:10157300000000000000000000C0000000E00020A8
:1015830001B800703FF80061FFC000C3030001C64B
:101593000600038C060003080C0006080C000E1856
:1015A300183F1E101BF31F903F0700803C1C019047
:1015B300707C019060FE01A0C3F801A00FD803A0C6
:1015C3000818036000180340001803C000180380C4
:1015D30000180300001800000018000000100000AD
:1015E3000030000000300000000000000000B2E204
:1015F30000000000000000000000000000000000E8
:10160300020C1008071FF80403BFF00201BC3003EB
:1016130003EC3003015C600300D8600300D860036F
:101623008098620361B8430771B1430631324306C0
:101633003376C3063A64C7063EECC0063E78C0065E
:101643003C3040067C70000678E060067BFFF006C5
:10165300F7C00006E4000006400000060000000694
:101663000000007C00008FF000007C000000000000
:10167300CAD40000000000000000000000000000C9
:101683003F0000007F8000000180000000C00000D8
:1016930000C0000000CE038000CFFFC000DD41800A
:1016A3000FFE0007FFFC000C00F000180FC03E19EE
:1016B300FF40F311BC6083307FE003B1FE200333AE
:1016C300802003700030036000100360001807C01F
:1016D300000C07C0000407800002010000030000A3
:1016E30000010000000000000000000000000000F6
:0216F3000000F5
:105A3400900017FEE0FCA3E0FD900016E02DFD9021
:0D5A44000015E03CFC90001BE0FAA3E0FB25
:105A510090001DEAF0A3EBF0125B2B90001DE0FE1D
:065A6100A3E0FF025B7DE3
:104D5600900011E0FCA3E0FD90000FE0FAA3E0FB59
:104D6600A3E0FFA3E090002FCFF0A3EFF09000495F
:104D7600E0FFA3E0900031CFF0A3EFF090000DE04C
:044D8600FEA3E0FFA9
:0E4D8A00900029EEF0A3EFF0A3ECF0A3EDF003
:104D9800900029E0FEA3E0FFC3EB9FFFEA9ECF242B
:104DA80001CF3400900037F0A3EFF090002BE0FE25
:104DB800A3E0FFC3900030E09FFF90002FE09ECF5C
:104DC8002401CF3400900039F0A3EFF090002BE0DD
:104DD800FCA3E0FD90002FE0FFA3E0900047CFF098
:104DE800A3EFF0900029E0FEA3E0FF1258E8E4905A
:104DF8000033F0A3F0900039E0FEA3E0FFC3900079
:104E080034E09F900033E09E5047E4900035F0A3D3
:104E1800F0900037E0FEA3E0FFC3900036E09F90DB
:104E28000035E09E501B900031E0FEA3E0FF125BCE
:104E38007D900036E004F070D8900035E004F080F2
:104E4800D0900034E004F070AC900033E004F080BF
:104E5800A490004EE024FFFB90004DE034FFFA9050
:104E68000050E024FFFE90004FE034FF900047F030
:0B4E7800A3CEF0E4FDFCFFFE0258E8B2
:0E44B90090000DEEF0A3EFF0A3ECF0A3EDF0F9
:1044C700E4900017F0A3F0A3F0A3F090000DE0FE36
:1044D700A3E0FFC3EB9FFFEA9E90001BF0A3EFF062
:1044E70090000FE0FAA3E0FBC3900014E09BFE905E
:1044F7000013E09A90001DF0A3CEF090000DE0FFAE
:10450700A3E0900025CFF0A3EFF0A3EAF0A3EBF030
:1045170090001BE0FEA3E0FFD39400EE648094803C
:10452700400A900021E4F0A304F08021EF4E7008C8
:10453700900021F0A3F0801574FF900021F0A3F004
:10454700C3E49FFFE49E90001BF0A3EFF090001DD3
:10455700E0FEA3E0FFD39400EE64809480400A90CD
:104567000023E4F0A304F08021EF4E7008900023AD
:10457700F0A3F0801574FF900023F0A3F0C3E49F2D
:10458700FFE49E90001DF0A3EFF090001DE0FEA356
:10459700E0FF90001BE0FCA3E0FDD39FEE6480F8F2
:1045A700EC64809890001F4007ECF0A3EDF08005C5
:1045B700EEF0A3EFF0E4900015F0A3F0900020E0F8
:1045C7002401FF90001FE03400FED3900016E09F07
:1045D700900015E09E40030246A3900025E0FEA34D
:1045E700E0FFA3E0FCA3E0FD125A6790001BE0FE8A
:1045F700A3E0FF900018E02FF0900017E03EF09046
:10460700001DE0FEA3E0FF90001AE02FF0900019D4
:10461700E03EF090001FE0FEA3E0FF900017E0FCF3
:10462700A3E0FDD39FEE6480F8EC6480984020ED12
:104637009FFFEC9E900017F0A3EFF0900021E0FEA3
:10464700A3E0FF900026E02FF0900025E03EF090D9
:10465700001FE0FEA3E0FF900019E0FCA3E0FDD3FC
:104667009FEE6480F8EC6480984020ED9FFFEC9EFD
:10467700900019F0A3EFF0900023E0FEA3E0FF9075
:104687000028E02FF0900027E03EF0900016E004AD
:0C469700F07006900015E004F00245C32E
:0146A30022F4
:10550200900005EAF0A3EBF0900001EEF0A3EFF0BB
:10551200A3ECF0A3EDF0C007A3E0FAA3E0FB900038
:1055220003E0FFA3E0900013CFF0A3EFF0D0071247
:1055320044B9900001E0FAA3E0FBFFAE02C007A36A
:10554200E0FCA3E0FD900007E0FFA3E0900013CF92
:10555200F0A3EFF0D0071244B9900007E0FCA3E0FB
:10556200FD900005E0FAA3E0FBA3E0FFA3E09000BA
:1055720013CFF0A3EFF0900001E0FEA3E0FF12448E
:10558200B9900005E0FAA3E0FBFFAE02C00790006D
:1055920003E0FCA3E0FD900007E0FFA3E09000130E
:0A55A200CFF0A3EFF0D0070244B9E8
:105B0600C007900007E0FFA3E090002FCFF0A3EFBF
:105B1600F0900049E0FFA3E0900031CFF0A3EFF052
:055B2600D007024D8ACA
:104AE600900019F0A3EFF0900005E0FFA3E090001E
:0E4AF6001BCFF0A3EFF0900001E0FEA3E0FF65
:104B0400900015ECF0A3EDF0900013EEF0A3EFF09D
:104B1400900017EAF0A3EBF02FFFEE3AA3125A37F6
:104B2400900017E0FEA3E0FFC3900014E09FFF9005
:104B34000013E09EFE900019125A38900017E0FE10
:104B4400A3E0FF900014E02FFF900013E03EFE90DE
:104B54000019E0FCA3E0FDC3900016E09DFD900069
:104B640015E09C125A48900017E0FEA3E0FFC390A2
:104B74000014E09FFF900013E09EFE900019E0FCFB
:104B8400A3E0FDC3900016E09DFD900015E09C128B
:104B94005A48900019E0FEA3E0FF900014E02FFFB4
:104BA400900013E03E125A34900019E0FEA3E0FF97
:104BB400C3900014E09FFF900013E09E125A3490BB
:104BC4000019E0FEA3E0FF900014E02FFF90001313
:104BD400E03EFE900017E0FCA3E0FDC3900016E069
:104BE4009DFD900015E09C125A48900019E0FEA328
:104BF400E0FFC3900014E09FFF900013E09EFE903E
:104C04000017E0FCA3E0FDC3900016E09DFD9000BA
:0F4C140015E09CFC90001BE0FAA3E0FB025A5154
:1040CF00900001EEF0A3EFF0A3ECF0A3EDF0A3EA64
:0440DF00F0A3EBF06F
:1040E300E490000BF0A3F0900007E0FEA3E0FF9044
:1040F300000DEEF0A3EFF025E0FFEE33FEC37403F3
:104103009F900012F0E49E900011F0900009E0707F
:1041130002A3E0700302421290000DE0FEA3E0FF51
:1041230090000BE0FCA3E0FDD39FEE6480F8EC6409
:10413300809840030242C490000FECF0A3EDF0908E
:10414300000DE0FEA3E0FFD3900010E09FEE64803B
:10415300F890000FE0648098502B900003E0FCA3DC
:10416300E0FD90000BE0FAA3E0FB90000FE0FFA35B
:10417300E0CF124AE6900010E004F070C290000F06
:10418300E004F080BA900011E0FCA3E0FDC3EC640E
:10419300809480502390000BE0FEA3E07802C333A9
:1041A300CE33CED8F92DFFEC3ECF2406CF3400908A
:1041B3000011F0A3EFF0804390000DE0FEA3E0FFB9
:1041C300C390000CE09FFF90000BE09EFEEF78028F
:1041D300C333CE33CED8F9FF900012E02FFF900007
:1041E30011E03ECF240ACF3400F0A3EFF090000E8D
:1041F300E024FFF090000DE034FFF090000CE004A9
:10420300F0600302411B90000BE004F002411B909D
:10421300000DE0FEA3E0FF90000BE0FAA3E0FBD368
:104223009FEE6480F8EA64809840030242C49000E1
:1042330003E0FCA3E0FDEE124AE6900011E0FCA3CC
:10424300E0FDC3EC64809480502390000BE0FEA358
:10425300E07802C333CE33CED8F92DFFEC3ECF2422
:1042630006CF3400900011F0A3EFF0804390000DCF
:10427300E0FEA3E0FFC390000CE09FFF90000BE083
:104283009EFEEF7802C333CE33CED8F9FF900012EF
:10429300E02FFF900011E03ECF240ACF3400F0A3BB
:1042A300EFF090000EE024FFF090000DE034FFF0FB
:1042B30090000CE004F0700690000BE004F0024262
:0142C30012E8
:0142C40022D7
:1057FD00900001EEF0A3EFF0A3ECF0A3EDF0A3EA1F
:10580D00F0A3EBF0C007A3E0FFA3E0900013CFF0EF
:10581D00A3EFF0D0071244B9900007E0FCA3E0FD20
:10582D00A3E0FAA3E0FBA3E0FFA3E0900013CFF009
:10583D00A3EFF0900005E0FEA3E0FF1244B9900045
:10584D000BE0FCA3E0FD900001E0FAA3E0FBA3E078
:10585D00FFA3E0900013CFF0A3EFF0900009E0FE5E
:06586D00A3E0FF0244B9B4
:1059500090002C7401F0A37400F0A37407F07B0195
:045960007A0079034D
:0B596400900029EBF0A3EAF0A3E9F0AB
:10596F00122EC4FFAEF090002CE0FBA3E0FAA3E0F0
:10597F00F9122EC4FD900029E0FBA3E0FAA3E0F991
:10598F00E5F08DF0122EEF90002CE0FBA3E0FAA3D0
:08599F00E0F9EE8FF0022EEF9B
:10253B00900001EEF0A3EFF0A3ECF0A3EDF0A3EA13
:04254B00F0A3EBF01E
:10254F009000211230370000000090002512303724
:10255F0000000000900007E0FEA3E0FF900003E002
:10256F00FCA3E0D39FEC9E401A12595090002C749C
:10257F0001F0A37400F0A37405F07B017A007901D8
:10258F0012596490000BE0FEA3E0FF900007E0FCFF
:10259F00A3E0D39FEC9E402E90002C7401F0A37407
:1025AF0000F0A37407F07B017A00790B1259649045
:1025BF00002C7401F0A37400F0A37405F07B017A72
:1025CF00007909125964900007E0FEA3E0FF900024
:1025DF0003E0FCA3E0D39FEC9E401A1259509000E9
:1025EF002C7401F0A37400F0A37405F07B017A0042
:1025FF00790112596490000BE0FEA3E0FF900003F5
:10260F00E0FCA3E0FD6F7002EC6E60030226E39026
:10261F000001E0FEA3E0FF90000FEEF0A3EFF090BB
:10262F00000DEEF0A3EFF090000DE0FEA3E0FF90A1
:10263F000005E0FAA3E0FBC39FEA9E500A90000D4D
:10264F00EAF0A3EBF0801E90000FE0FEA3E0FFD3B3
:10265F00EB9FEA9E400F900005E0FFA3E090000F74
:10266F00CFF0A3EFF090000DE0FEA3E0FF90000984
:10267F00E0FAA3E0FBC39FEA9E500A90000DEAF038
:10268F00A3EBF0801E90000FE0FEA3E0FFD3EB9FC3
:10269F00EA9E400F900009E0FFA3E090000FCFF0FB
:1026AF00A3EFF090000FE0FAA3E0FB900003E0FF30
:1026BF00A3E090002FCFF0A3EFF0900049E0FFA32D
:1026CF00E0900031CFF0A3EFF090000DE0FEA3E01B
:1026DF00FF024D8A900001E0FAA3E0FB900005E0B5
:1026EF00FEA3E0C39BFFEE9A900015F0A3EFF090CE
:1026FF000003E0FEA3E0FF900007E0FCA3E0C39F10
:10270F00FFEC9E900017F0A3EFF0900009E0FEA3FE
:10271F00E0C39BFFEE9A900019F0A3EFF090000337
:10272F00E0FEA3E0FF90000BE0FCA3E0C39FFFECF3
:10273F009E90001BF0A3EFF0900005E0FEA3E0FFDA
:10274F00900009E0FCA3E0C39FFFEC9E90001DF0FA
:10275F00A3EFF0900007E0FAA3E0FB90000BE0FC82
:10276F00A3E0FDC39BFEEC9A90001FF0A3CEF0EB0D
:10277F00B50510EAB5040C900007FFA3E090001315
:10278F00CF8010900007E0FEA3E024FFFFEE34FFA0
:10279F00900013F0A3EFF0900003E0FFA3E0900090
:1027AF0011CFF0A3EFF0900013E0FEA3E0FF900035
:1027BF0011E0FCA3E0D39FEC9E40030228CF9000D2
:1027CF0017E0FEA3E0FBAA06EA3395E0F9F89000C4
:1027DF0021E0FCA3E0FDA3E0FEA3E0FF1259F0907F
:1027EF000001E0FCA3E02FFFEC3E90000DF0A3EF03
:1027FF00F090001BE0FEA3E0FBAA06EA3395E0F998
:10280F00F8900025E0FCA3E0FDA3E0FEA3E0FF129B
:10281F0059F0900001E0FCA3E02FFFEC3E90000F79
:10282F00F0A3EFF0900021E0F8A3E0F9A3E0FAA302
:10283F00E0FB900015E0FEA3E0FFEE3395E0FDFC1A
:10284F00EB2FFFEA3EFEE93DFDE83CFC9000211234
:10285F00302B900025E0F8A3E0F9A3E0FAA3E0FB0A
:10286F00900019E0FEA3E0FFEE3395E0FDFCEB2FA7
:10287F00FFEA3EFEE93DFDE83CFC90002512302BBF
:10288F0090000FE0FEA3E0FF90000DE0FCA3E0D36B
:10289F009FEC9E401790002C7401F0A37400F0A3DE
:1028AF00740FF07B017A00790D125964124D569016
:1028BF000012E004F07006900011E004F00227B55A
:1028CF00900007E0FEA3E0FF900011E0FAA3E0FB09
:1028DF00C39FFFEA9EFE90001DE0FCA3E0FD122EB9
:1028EF009CE4FCFD90002112302B900003E0FEA32E
:1028FF00E0FFC3EB9FFFEA9EFE900019E0FCA3E010
:10290F00FD122E9CE4FCFD90002512302B90000B45
:10291F00E0FEA3E0FF900011E0FCA3E0D39FEC9E4C
:10292F004003022A3490001FE0FEA3E0FBAA06EA50
:10293F003395E0F9F8A3E0FCA3E0FDA3E0FEA3E0EC
:10294F00FF1259F0900005E0FCA3E02FFFEC3E9042
:10295F00000DF0A3EFF090001BE0FEA3E0FBAA0632
:10296F00EA3395E0F9F8900025E0FCA3E0FDA3E041
:10297F00FEA3E0FF1259F0900001E0FCA3E02FFF4F
:10298F00EC3E90000FF0A3EFF0900021E0F8A3E0F1
:10299F00F9A3E0FAA3E0FB90001DE0FEA3E0FFEE39
:1029AF003395E0FDFCEB2FFFEA3EFEE93DFDE83CF1
:1029BF00FC90002112302B900025E0F8A3E0F9A342
:1029CF00E0FAA3E0FB900019E0FEA3E0FFEE3395E1
:1029DF00E0FDFCEB2FFFEA3EFEE93DFDE83CFC90FD
:1029EF00002512302B90000FE0FEA3E0FF90000DAA
:1029FF00E0FCA3E0D39FEC9E401790002C7401F0F5
:102A0F00A37400F0A3740FF07B017A00790D1259B3
:102A1F0064124D56900012E004F07006900011E021
:052A2F0004F002291C67
:012A3400227F
:103EB700F0900029E0900037F0900021E0FAA3E0AD
:013EC700FBFF
:103EC80090002DEEF0A3EFF0900031EAF0A3EBF0B4
:083ED80090002FECF0A3EDF0C7
:103EE000900049E0FFA3E090003BCFF0A3EFF090FB
:103EF0000035E024E0F0A3E0F9C313FF7E0090005A
:103F00002DE0FAA3E02FFFEE3ACF24FFFBEF34FFC2
:103F1000FAE9FFA3E0F8A3E02FFFEE38CF24FFCFAC
:103F200034FF900047F0A3EFF090002DE0FEA3E0F7
:103F3000FF1258E8900037E06003023FD790003945
:103F4000F0900036E0FF900039E0FEC39F4003028E
:103F50004096EFB40C17900035E075F00CA42403E4
:103F6000F582E5F03400F583E5822E801A90003961
:103F7000E0FF900035E075F010A42477F582E5F0BD
:103F80003404F583E5822FF582E43583F583E493E9
:103F9000900038F0E490003AF0900036E0C313FF50
:103FA00090003AE0C39F5026900038E030E0059042
:103FB00000318003900033E0FEA3E0FF125B7D90B0
:103FC0000038E0C313F090003AE004F080CB90009A
:103FD00039E004F0023F41E4900039F0900036E00F
:103FE000FF900039E0FEC39F4003024096EFB40CFF
:103FF00017900035E075F00CA42403F582E5F03449
:1040000000F583E5822E801A900039E0FF9000359C
:10401000E075F010A42477F582E5F03404F583E52B
:10402000822FF582E43583F583E493900038F0E441
:1040300090003AF0900036E0C313FF90003AE0FEA3
:10404000C39F5049900031E0FDA3E0900049CDF0BE
:10405000A3EDF0900038E030E024EEFF90002EE079
:104060002FFF90002DE03400FE900039E0FD90001D
:1040700030E02DFD90002FE03400FC125A679000D4
:1040800038E0C313F090003AE004F080A7900039C4
:10409000E004F0023FDC90003BE0FFA3E090004929
:1040A000CFF0A3EFF090004EE024FFFB90004DE036
:1040B00034FFFA900050E024FFFE90004FE034FF00
:0F40C000900047F0A3CEF0E4FDFCFFFE0258E8AD
:10538800900073EEF0A3EFF0A3ECF0A3EDF0A3EB25
:10539800F0900078E0FBA3E0FAA3E0F9122E56FFA4
:1053A800D3947E4003025446EFC394205003025422
:1053B8004690004EE024FFFD90004DE034FFFC9045
:1053C8000073E0FEA3E0FFD39DEE9C507190005067
:1053D800E024FFFB90004FE034FFFA900075E0FCFA
:1053E800A3E0FDD39BEC9A505590004BE0FBA3E063
:1053F800900033CBF0A3EBF0900078E0FBA3E0FA49
:10540800122E56900035F0900077E0900036F0901C
:10541800007BE0900037F0900049123EC39000777F
:10542800E0C313FF900074E02FF0900073E03400A5
:0F543800F0900079E475F001122EAE0253992224
:0859A70090007CEFF0A3EDF08D
:1059AF00A31230370000000190007DE0FF14F0EFEC
:1059BF006020A3E0F8A3E0F9A3E0FAA3E0FB9000D6
:1059CF007CE0FFE4FCFDFE122F0E90007E12302BC8
:1059DF0080D690007EE0FCA3E0FDA3E0FEA3E0FFF5
:0159EF002295
:0E4E830090005CEEF0A3EFF0A3ECF0A3EDF0D6
:104E9100E4900068F0900066F0900064E0FF9000FC
:104EA10066E0FEC39F4003024F93C3EF9E14FD7F54
:104EB1000A1259A7A804A905AA06AB07900060E049
:104EC100FCA3E0FDA3E0FEA3E0FF122F99E47B0A1F
:104ED100FAF9F8122F99900067EBF0A3E070579060
:104EE1000064E014FF900066E0FEC39F5048A3E019
:104EF100703E900065E0F9C3138EF0A4FF90005D51
:104F0100E02FFF90005CE035F0FEC00790005EE00E
:104F1100FCA3E0FD900049E0FAA3E0FB90004BE028
:104F2100FFA3E0900033CFF0A3EFF0A37420804DF6
:104F31009000687401F0900065E0F9C313FFA3E0ED
:104F4100FEEF8EF0A4FF90005DE02FFF90005CE08B
:104F510035F0FEC00790005EE0FCA3E0FD90004943
:104F6100E0FAA3E0FB90004BE0FFA3E0900033CF19
:104F7100F0A3EFF0900067E02430900035F0A3E952
:104F8100F0E4A3F0D007123EC8900066E004F002FE
:024F91004E9A36
:014F930022FB
:1037EE0090002FECF0A3EDF0A3EAF0A3EBF0900025
:0637FE002DEEF0A3EFF038
:1038040090003FEEF0A3EFF090003DE4F0A374408D
:10381400F0E490003BF0A3F090003DE0FEA3E0FF55
:1038240090003BE0FCA3E0FDC39FEC9E4003023A02
:1038340007900035E0FBA3E0FAA3E0F9122E56FF4F
:10384400900A6775F022ED123068EC75F022A42519
:1038540083F583E4936F60030239F6900001122E1E
:103864006FFF90003BA3E0900A6875F02212306865
:10387400EC75F022A42583F583E4936F6003023989
:10388400F690002DE0FAA3E0FBFFAE02C006C007ED
:10389400A3E0FCA3E0FDEB240FFBE43AFA90002F35
:1038A400E0FEA3E0240FFFE43E900047F0A3EFF016
:1038B400D007D0061258E8E4900039F0E490003ABA
:1038C400F090003AE0FFC3940840030239E7900007
:1038D40038E0705AA3E0FE90003BE0FCA3E0900ABD
:1038E4006975F022123068EC75F022A42583F58303
:1038F400E5822EF582E43583F583E493FD3395E088
:10390400FC7E007480A807088006CEA2E713CE13BD
:10391400D8F8FFEE5CFEEF5D4E6005900031800349
:10392400900033E0FEA3E0FF125B7D0239DE9000DD
:1039340031E0FFA3E0900049CFF0A3EFF09000390D
:10394400E0FF90003BE0FCA3E0900A6975F02212CE
:103954003068EC75F022A42583F583E5822FF58287
:10396400E43583F583E493FD3395E0FC90003AE07D
:10397400FF7E007480A807088006CEA2E713CE134A
:10398400D8F8FFEE5CFEEF5D4E601190002DE0FE76
:10399400A3E0FFA3E0FCA3E0FD125A6790002EE031
:1039A40004F0700690002DE004F090003FE0FEA3C8
:1039B400E0FFC390002EE09FFD90002DE09EFCED03
:1039C40064104C7015EEF0A3EFF0900030E004F0BA
:1039D400701190002FE004F0800990003AE004F0A8
:1039E4000238C5900039E004F0E0C394205003028B
:1039F40038C090003CE004F0700690003BE004F016
:103A040002381C90004EE024FFFB90004DE034FF90
:103A1400FA900050E024FFFE90004FE034FF900045
:0D3A240047F0A3CEF0E4FDFCFFFE0258E8E1
:103A310090002FECF0A3EDF0A3EAF0A3EBF09000DF
:063A41002DEEF0A3EFF0F2
:103A470090003FEEF0A3EFF090003DE4F0A3740781
:103A5700F0E490003BF0A3F090003DE0FEA3E0FF10
:103A670090003BE0FCA3E0FDC39FEC9E4003023CBB
:103A77004A900035E0FBA3E0FAA3E0F9122E56FFC7
:103A87009012E775F04AED123068EC75F04AA425FC
:103A970083F583E4936F6003023C39900001122E93
:103AA7006FFF90003BA3E09012E875F04A12306870
:103AB700EC75F04AA42583F583E4936F6003023C19
:103AC7003990002DE0FAA3E0FBFFAE02C006C00765
:103AD700A3E0FCA3E0FDEB2417FBE43AFA90002FE8
:103AE700E0FEA3E02417FFE43E900047F0A3EFF0C9
:103AF700D007D0061258E8E4900039F0E490003A75
:103B0700F090003AE0FFC394084003023C2A90007B
:103B170038E0705AA3E0FE90003BE0FCA3E090126F
:103B2700E975F04A123068EC75F04AA42583F583ED
:103B3700E5822EF582E43583F583E493FD3395E042
:103B4700FC7E007480A807088006CEA2E713CE1378
:103B5700D8F8FFEE5CFEEF5D4E6005900031800304
:103B6700900033E0FEA3E0FF125B7D023C21900052
:103B770031E0FFA3E0900049CFF0A3EFF0900039C8
:103B8700E0FF90003BE0FCA3E09012E975F04A12D9
:103B97003068EC75F04AA42583F583E5822FF5821A
:103BA700E43583F583E493FD3395E0FC90003AE038
:103BB700FF7E007480A807088006CEA2E713CE1305
:103BC700D8F8FFEE5CFEEF5D4E601190002DE0FE31
:103BD700A3E0FFA3E0FCA3E0FD125A6790002EE0EC
:103BE70004F0700690002DE004F090003FE0FEA383
:103BF700E0FFC390002EE09FFD90002DE09EFCEDBE
:103C070064184C7015EEF0A3EFF0900030E004F06C
:103C1700701190002FE004F0800990003AE004F062
:103C2700023B08900039E004F0E0C39448500302D7
:103C37003B0390003CE004F0700690003BE004F08A
:103C4700023A5F90004EE024FFFB90004DE034FF06
:103C5700FA900050E024FFFE90004FE034FF900000
:0D3C670047F0A3CEF0E4FDFCFFFE0258E89C
:103C740090002FECF0A3EDF0A3EAF0A3EBF090009A
:063C84002DEEF0A3EFF0AD
:103C8A0090003FEEF0A3EFF090003DE4F0A374043F
:103C9A00F0E490003BF0A3F090003DE0FEA3E0FFCB
:103CAA0090003BE0FCA3E0FDC39FEC9E4003023E74
:103CBA008D900035E0FBA3E0FAA3E0F9122E56FF3F
:103CCA009014ED75F082ED123068EC75F082A4253F
:103CDA0083F583E4936F6003023E7C900001122E09
:103CEA006FFF90003BA3E09014EE75F082123068EB
:103CFA00EC75F082A42583F583E4936F6003023E9A
:103D0A007C90002DE0FAA3E0FBFFAE02C006C007DC
:103D1A00A3E0FCA3E0FDEB241FFBE43AFA90002F9A
:103D2A00E0FEA3E0241FFFE43E900047F0A3EFF07B
:103D3A00D007D0061258E8E4900039F0E490003A2F
:103D4A00F090003AE0FFC394084003023E6D9000F1
:103D5A0038E0705AA3E0FE90003BE0FCA3E0901428
:103D6A00EF75F082123068EC75F082A42583F58332
:103D7A00E5822EF582E43583F583E493FD3395E0FD
:103D8A00FC7E007480A807088006CEA2E713CE1333
:103D9A00D8F8FFEE5CFEEF5D4E60059000318003BF
:103DAA00900033E0FEA3E0FF125B7D023E649000C8
:103DBA0031E0FFA3E0900049CFF0A3EFF090003983
:103DCA00E0FF90003BE0FCA3E09014EF75F0821254
:103DDA003068EC75F082A42583F583E5822FF5829D
:103DEA00E43583F583E493FD3395E0FC90003AE0F3
:103DFA00FF7E007480A807088006CEA2E713CE13C0
:103E0A00D8F8FFEE5CFEEF5D4E601190002DE0FEEB
:103E1A00A3E0FFA3E0FCA3E0FD125A6790002EE0A6
:103E2A0004F0700690002DE004F090003FE0FEA33D
:103E3A00E0FFC390002EE09FFD90002DE09EFCED78
:103E4A0064204C7015EEF0A3EFF0900030E004F01F
:103E5A00701190002FE004F0800990003AE004F01D
:103E6A00023D4B900039E004F0E0C3948050030215
:103E7A003D4690003CE004F0700690003BE004F000
:103E8A00023CA290004EE024FFFB90004DE034FF7C
:103E9A00FA900050E024FFFE90004FE034FF9000BB
:0D3EAA0047F0A3CEF0E4FDFCFFFE0258E857
:1030740090001FECF0A3EDF0A3EAF0A3EBF09000B6
:063084001DEEF0A3EFF0C9
:10308A0090002AEEF0A3EFF0E4A3F0900025E0FB15
:10309A00A3E0FAA3E0F9122E567003023309900056
:1030AA002CE060030231CB900028E0FFC313FDC37C
:1030BA0090004EE09DFD90004DE09400FCD39000FE
:1030CA001EE09D90001DE09C4003023309C390005E
:1030DA0050E09FFF90004FE09400FE90001FE0FC3C
:1030EA00A3E0FDD39FEC9E4003023309122E56FF44
:1030FA00D39480400890002C7401F0808EEFB40DB8
:10310A002E900028E0FF900020E02FF090001FE0B2
:10311A003400F090002AE0FFA3E090001DCFF0A356
:10312A00EFF0900026E475F001122EAE0231BE9047
:10313A000028E0D3941090001DE0FEA3E0FF402F8A
:10314A00900023E0FBA3E0900033CBF0A3EBF090D8
:10315A000025E0FBA3E0FAA3E0F9122E5690003511
:10316A00F0A37410123EB790001EE02408803DA31D
:10317A00E0FCA3E0FD900023E0FBA3E0900033CB4A
:10318A00F0A3EBF0900025E0FBA3E0FAA3E0F9122C
:10319A002E56900035F0900028E0900036123EB787
:1031AA00900028E0C313FF90001EE02FF090001D4E
:1031BA00E03400F0900026E475F001122EAE0230E1
:1031CA0095900028E0F9FF7E00C390004EE09FFD35
:1031DA0090004DE09EFCD390001EE09D90001DE003
:1031EA009C4003023309C3900050E09FFF90004FB8
:1031FA00E09EFE90001FE0FCA3E0FDD39FEC9E4002
:10320A0003023309E490002CF0E9B4204290001D37
:10321A00E0FEA3E0FF900023E0FBA3E0900033CBA5
:10322A00F0A3EBF0900025E0F9A3E0FAA3E0900008
:10323A0035C9F0A3EAF0A3E9F0900029E09000383C
:10324A00F0900021E0FAA3E0FB123C740232EA900B
:10325A000028E0641890001D7044E0FEA3E0FFA37C
:10326A00E0FCA3E0FD900023E0FBA3E0900033CB59
:10327A00F0A3EBF0900025E0F9A3E0FAA3E09000B8
:10328A0035C9F0A3EAF0A3E9F0900029E0900038EC
:10329A00F0900021E0FAA3E0FB123A318042E0FE0E
:1032AA00A3E0FFA3E0FCA3E0FD900023E0FBA3E082
:1032BA00900033CBF0A3EBF0900025E0F9A3E0FAFD
:1032CA00A3E0900035C9F0A3EAF0A3E9F090002941
:1032DA00E0900038F0900021E0FAA3E0FB1237EE0C
:1032EA00900026E475F002122EAE900028E0FF90BE
:0F32FA00001EE02FF090001DE03400F002309530
:0133090022A1
:1056DF00900010EEF0A3EFF0A3ECF0A3EDF0A3EA2F
:0456EF00F0A3EBF049
:1056F300900018E0FBA3E0FAA3E0F9125B92EF78C5
:1057030003C333CE33CED8F9FFC390004EE09FFFDF
:1057130090004DE09EC313FEEF13FF900011E02FA6
:10572300FF900010E03EFE900012E0FCA3E0FD902D
:105733000016E0FBA3E0900023CBF0A3EBF0900076
:1057430018E0F9A3E0FAA3E0900025C9F0A3EAF07A
:10575300A3E9F090001BE0900028F090001CE0907B
:0E5763000029F0900014E0FAA3E0FB0230747D
:1051A500900011EAF0A3EBF090000DEEF0A3EFF004
:0651B500A3ECF0A3EDF0F5
:1051BB00C006C007A3E0FEA3E0FF90000DE0FAA33A
:1051CB00E02FFFEA3ECF24FFFBEF34FFFA900013F2
:1051DB00E0FEA3E0FF90000FE0F8A3E02FFFE83E16
:1051EB00CF24FFCF34FF900047F0A3EFF0D007D0D0
:1051FB00061258E8E4900018F0A3F0900013E0FCBE
:10520B00A3E0FD900011E0FEA3E0FF122E9CC390E3
:10521B000019E09F900018E09E504AA3E025E0FFA4
:10522B00900018E033FE900015E0FBA3E0FAA3E03A
:10523B00F98F828E83122E6F90001BF0E92FF9EA03
:10524B003EFA900001122E6F90001AF0FEA3E0FDC3
:10525B00EDFF125B7D900019E004F0709E9000183A
:10526B00E004F0809690004EE024FFFB90004DE0B0
:10527B0034FFFA900050E024FFFE90004FE034FF23
:0F528B00900047F0A3CEF0E4FDFCFFFE0258E8D0
:105A910053B1FB43B204124C2312529A12481F1203
:105AA10035961242C51246A412330A124F94125669
:095AB1004C1250A212544780E08F
:1016F5007777772E6C636477696B692E636F6D00FE
:10170500CDBCD0CECFD4CABEB2E2CAD400B4BFC914
:10171500ABCCEEB3E4B2E2CAD400D6D0CEC4CFD4BB
:10172500CABEB2E2CAD400CDBCC6ACCFD4CABEB222
:10173500E2CAD400D7DBBACFB2E2CAD4B3CCD0F276
:1017450000C8ABB6AFB5E7D7D300302E3936222067
:1017550053543737393648320032343058313938F6
:1017650000323032332D30392D3039005748495445
:101775004500424C41434B005245440047524545C4
:101785004E00424C5545004752415900475549BE08
:10179500D8D0CECCEEB3E4B2E2CAD400475549BBAB
:1017A500ADD4B2CCEEB3E4B2E2CAD400D3A2CEC477
:1017B500CFD4CABEB2E2CAD400365831323A6162D9
:1017C50063646566676830313233343536370036E1
:1017D5005831323A41424344454647483031323325
:1017E5003435363700365831323A7E2140232425A8
:1017F5005E262A28295F2B7B7D3A00385831363AF8
:101805006162636465303132333400385831363AB9
:101815004142434445303132333400385831363A49
:101825007E21402324255E262A2829004755492064
:10183500547269CCEEB3E4B2E2CAD4003136583101
:10184500363AC8ABB6AFB5E7D7D3BBB6D3AD0032E2
:10185500345832343AD6D0CEC4B2E2CAD400333288
:101865005833323AD7D6CCE5B2E2CAD4005151004A
:10187500526F746174696F6E3A3000526F7461749F
:10188500696F6E3A393000526F746174696F6E3AE0
:1018950031383000526F746174696F6E3A32373087
:1018A50000C6C1C4BBBDC7B6C800FFFFFFFFFFFF31
:1018B500FFFFFFFFFFFFFFFFFFFFFFFFFFFFFFFF33
:1018C500FFFFFFFFFFFFFFFFBEF7FFFFDEFF38C68D
:1018D500928C8E6B6E6B107C96AD3CE7FFFFFFFF25
:1018E500FFFFFFFFFFFFFFFFFFFFFFFFFFFFFFFF03
:1018F500FFFFFFFFFFFFFFFFFFFFFFFFFFFFFFFFF3
:10190500FFFFFFFFFFFFFFFFFFFFFFFFFFFFFFFFE2
:10191500FFFFFFFFFFFFFFFF5DEF159D4F636C426C
:101925000A328829461925194521E8318E6B38C6B2
:10193500FFFFFFFFFFFFFFFFFFFFFFFFFFFFFFFFB2
:10194500FFFFFFFFFFFFFFFFFFFFFFFFFFFFFFFFA2
:10195500FFFFFFFFFFFFFFFFFFFFFFFFFFFFFFFF92
:10196500FFFFFFFFFFFF36A51053104B51530F4BE1
:101975006C3AE93167212519E410A3086200830850
:10198500CB529AD6FFFFFFFFFFFFFFFFFFFFFFFFD1
:10199500FFFFFFFFFFFFFFFFFFFFFFFFFFFFFFFF52
:1019A500FFFFFFFFFFFFFFFFFFFFFFFFFFFFFFFF42
:1019B500FFFF3CE77063B363B87CF56311434D32B9
:1019C500EA29882126190519051904110411E410BD
:1019D5008300A308728CFFFFFFFFFFFFFFFFFFFFE0
:1019E500FFFFFFFFFFFFFFFFFFFFFFFFFFFFFFFF02
:1019F500FFFFFFFFFFFFFFFFFFFFFFFFFFFFFFFFF2
:101A0500DBDE4B3AF042356C544BB1322E2AEB21DA
:101A1500A9216719051904110411041104110411F0
:101A25000519E4104200AF73FFFFFFFFFFFFFFFF43
:101A3500FFFFFFFFFFFFFFFFFFFFFFFFFFFFFFFFB1
:101A4500FFFFFFFFFFFFFFFFFFFFFFFFFFFF5DEF53
:101A550009324C32104B8F324F2A2E2ACC19891954
:101A650089214719051904110411C410C410041162
:101A750004110411E41042003184FFFFFFFFFFFF52
:101A8500FFFFFFFFFFFFFFFFFFFFFFFFFFFFFFFF61
:101A9500FFFFFFFFFFFFFFFFFFFFFFFFFFFFEC5211
:101AA50047194C320B2AEC21EC210C22915BEE4AB2
:101AB500061126190419E410E410A7296621A308C4
:101AC500051904110411E4108200F7BDFFFFFFFFA3
:101AD500FFFFFFFFFFFFFFFFFFFFFFFFFFFFFFFF11
:101AE500FFFFFFFFFFFFFFFFFFFFFFFF35A5830898
:101AF500882188218921AA218A216B42718CFFFFC7
:101B0500728C83080411C4082942FBDE5DEFEC5A90
:101B150083080411041104118308E831DFFFFFFF76
:101B2500FFFFFFFFFFFFFFFFFFFFFFFFFFFFFFFFC0
:101B3500FFFFFFFFFFFFFFFFFFFFBEF7C731C41029
:101B45002519261947194719A8298A52284A55AD32
:101B5500FFFFE831A30805194D6B4D6BFFFF7DEFC6
:101B65004521C410041104110411620076ADFFFF74
:101B7500FFFFFFFFFFFFFFFFFFFFFFFFFFFFFFFF70
:101B8500FFFFFFFFFFFFFFFFFFFF96B56200041198
:101B9500041905110519C4088B4AB6B55DEFF7BDE3
:101BA500FFFF8E6B62002942AA5A0842FFFFFFFF22
:101BB500CC528308041104110411A308AD52FFFF90
:101BC500FFFFFFFFFFFFFFFFFFFFFFFFFFFFFFFF20
:101BD5001CE7FFFFFFFFFFFFFFFF4E6362000411DD
:101BE50004110411E41062008E63FFFFFFFFFFFF85
:101BF500FFFFCF730100F39C2C6396B5FFFFFFFF3A
:101C05002D5B8300041104110411E41067213DEFDD
:101C1500FFFFFFFFFFFFFFFFFFFFF8BDB7B59EEF1B
:101C2500CB52B394FFFFFFFFDFFFE831A308041198
:101C3500041104110411A3084942FFF7FFF7FFFF40
:101C4500FFFF6A4A01007284FFFFFFFFFFF7DFEF26
:101C5500093AA3080411041104110411051118BE51
:101C6500FFFFFFFFFFFFFFFFFFFFF07B6200E83193
:101C7500C731410035A5FFFF5DEF4621C4100411B2
:101C8500041104110411E410A308769DFFF7FFFF6A
:101C9500B7ADA308A308C7319EE7FFF7FFF776A501
:101CA500A308E4100411041104110511051135A54B
:101CB500FFFFFFFFFFFFFFFFFFFFDBDEA72983001D
:101CC500C410C410C4101CE79EEF0511E4100411E4
:101CD5000411041104110419C408E510D16BD16B6A
:101CE500C5086400A50843002B32779DB3842519E8
:101CF500C410041104110411041125192609359D78
:101D0500FFFFFFFFFFFFFFFFFFFFFFFFAF73620056
:101D15000419051982000D5B8E9B621005110411D3
:101D250004110419E41085000511C439815A407B5A
:101D3500229C43AC03A4839B82728249C218A400EF
:101D4500C500E41004190411051947196711EC5A67
:101D5500BEFFFFFFFFFFFFFFFFFFDFFFDBDEC4105E
:101D6500E41004110511A41801C08388E4000519C5
:101D75000419C5084421438323D542FEE4FE27FF09
:101D850007FFA4FE64FE03FEA3FDE2FC42EC83B361
:101D95002462E510C40804192619A81987210090A2
:101DA500D3BCFFFFFFFFFFFFFFFFDFFFFFFF107C3F
:101DB500420005190511832801D044F8A348E40021
:101DC500C508445A02EDE2FD02FE66FE74FFB8FF47
:101DD50073FFE7F6A6F645F6A4F5C3FC62FCC2FC64
:101DE500C2FCE3CBC449061188198701A49001F808
:101DF500EC9AFFFFFFFFFFFFFFFFFFFFFFFFBEF7AF
:101E0500E83183000509824001C023F885F0A34825
:101E1500A400445A02FD23CCC2DC04FE28FE48F689
:101E250046F624F6E4F564FDE3FC62FCC2FC02E43C
:101E350002DCE2FCA47A48016701C47824F802F8C0
:101E450084B07DE7FFFFFFFFFFFFFFFFFFFFFFFF01
:101E5500DBDE2519A300C43802E022D844F8A6F831
:101E6500A4786300432183728339829B21F561FD48
:101E750022FDE2FCA2FC42FC42FC42FC22AB834177
:101E8500C392045226012519A49844F823F802F8B0
:101E9500A4D09EEFFFFFFFFFFFFFFFFFFFFFFFFF48
:101EA500FFFF9AD68729A50043B822F823E065F8F5
:101EB500E8F807C983484200A30084006329A27A91
:101EC50062B3A2CB62D302BB828A8339A400E50048
:101ED500E500E508C46064D844F824F823F802F85E
:101EE5008388DBC6FFFFFFFFFFFFFFFFFFFFFFFF4D
:101EF500FFFFFFFF3DE7505B083123E843F844F05F
:101F050065F809F9ABF989D10689A3484218020099
:101F1500420061008200620062008300A320C45079
:101F2500A58885D865F844F844F823F823F803D044
:101F35008210C7295DEFFFFFFFFFFFFFFFFFFFFFD8
:101F4500FFFFFFFFFFFFFFFF6C32A53802D823F824
:101F550065F866F8A7F84AF90CFA4DFA4CEA0BD27F
:101F6500A9B968B147A927B107B907D1E7E8C7F803
:101F7500A7F865F865F844F823F803F802D0A32814
:101F85000509C408EC5AFFFFFFFFFFFFFFFFFFFF36
:101F9500FFFFFFFFFFFFFBDE0519C400A741E6C0F9
:101FA50003F886F8A7F887F886F8C7F829F98AF9B3
:101FB500ABF9ABF98BF96AF929F908F9C7F8A6F86D
:101FC50086F865F864F823F802F006B12529E400DF
:101FD500E41025192519149DFFFFFFFFFFFFFFFFE3
:101FE500FFFFFFFFFFFF96AD620082083595BACE71
:101FF5008BA244D025F887F8A7F8C7F8A7F887F883
:1020050086F886F886F887F8A7F8A7F8A6F885F879
:1020150065F864F824F064B80D93BBB6CF63830804
:102025000411E4106621493A5DEFFFFFFFFFFFFF52
:10203500FFFFFFFFFFFFD3944200E410BBCEFFFF7D
:10204500BEE776B5CCAA07C145E045F846F866F87F
:1020550086F886F886F886F865F845F865F865E83F
:1020650044D043A8018882903CD7FFEF559583085B
:102075000411041105194619B394FFFFFFFFFFFF73
:10208500FFFFFFFFFFFFB394410086215DDFFFFFE8
:10209500FFFFFFFFDFE77AC6D3B44EB32AC268D18C
:1020A500E6E0A6E8A5E8A5E8E6D888C906A922A835
:1020B50002A800A000C800D8F7E5FFE7F8ADC410F6
:1020C500E4100411E41005118B4AFFFFFFFFFFFF29
:1020D500FFFFFFFFFFFF55A54100A7295DDFFFF7C4
:1020E500FFFFFFFFFFFFFFFFFFFFFFEF7DDFDBCE02
:1020F50059CEF8CDD7CDF7C579CEFBBEABA203F04F
:1021050045F842D043E800F072D4FFDF39AEE41061
:10211500E4100411E41005118729FFFFFFFFFFFFFD
:10212500FFFFFFFFFFFF59CE830846211CD7FFF7AE
:10213500FFFFFFFFFFFFFFFFFFFFFFFFFFFFFFFFAA
:10214500FFFFFFFFFFFFFFFFFFFFFFEF8BBA04F865
:1021550045F862E044F000F88EDBFFDFF8A5C41017
:10216500E410E4100411E4102519FFFFFFFFFFFF41
:10217500FFFFFFFFFFFFBEF78729830839B6FFF78B
:10218500DFF7FFFFFFFFFFFFFFFFFFFFFFFFFFFF82
:10219500FFFFFFFFFFFFFFFFFFFFBEE74ABA03F8A0
:1021A50045F864F844F800F86EE3FFD7F48C83082B
:1021B5000411E410E410E4100519FFFFFFFFFFFF11
:1021C500FFFFFFFFFFFFFFFFEF7300007284FFEFCC
:1021D500BEEFDFFFFFFFFFFFFFFFFFFFFFFFFFFF7B
:1021E500FFFFFFFFFFFFFFFFFFFFDFE78BBA03F8EE
:1021F50045F845F823F800F8D3D4FFD74E5B210006
:10220500293A55A58308C4102519FFFFFFFFFFFFD5
:10221500FFFFFFFFFFFFFFFFFBDEA308E8319EDFA7
:102225009EE7BFEFFFFFFFFFFFFFFFFFFFFFFFFF82
:10223500FFFFFFFFFFFFFFFFFFFFFFF751BC02E0BE
:1022450003F803F043E0ECC27ECFFCBE462121003B
:10225500D394FFFF518400008729FFFFFFFFFFFF95
:10226500FFFFFFFFFFFFFFFFFFFF51840000F48C1E
:10227500FFEF9EE7BFEFDFFFFFFFFFFFFFFFFFFF62
:10228500FFFFFFFFFFFFFFFFFFFFFFFF3DDF55BD27
:1022950052BC72BCB7B55DC7FFDFF06B0000093AF1
:1022A500BFF7FFFFFFFF149D55A5FFFFFFFFFFFFD2
:1022B500FFFFFFFFFFFFFFFFFFFFFFFFAC4AA40883
:1022C500BBBEDFE77EE7BEEFDFF7DFFFFFFFFFFF08
:1022D500FFFFFFFFFFFFFFFFFFFFDFFFDFF7FFEF61
:1022E500DFDFBFD79ED7DFDFD8A583082611DBD672
:1022F500FFFFFFFFFFFFFFFFFFFFFFFFFFFFFFFFE9
:10230500FFFFFFFFFFFFFFFFFFFF79EE8BDC2131B2
:10231500A9213DCFBFDF7EDF9EE7BEEFBFEFDFF731
:10232500DFF7DFF7DFF7DFF7BFEFBEEF9EE77EDF13
:102335005ED75ED7DFDF9AB626194208EDA3BFFF49
:10234500FFFFFFFFFFFFFFFFFFFFFFFFFFFFFFFF98
:10235500FFFFFFFFFFFFFFFF74DDC0DB00FE42EE66
:10236500024289217BB6DFDF7ED77EDF7EDF9EE7F7
:102375009EE79EE79EE79EE77EDF7EDF5DD75DD722
:102385009EDFFFE7F8A50711E31802C560FDE6D358
:10239500DBEEFFFFFFFFFFFFFFFFFFFFFFFFFFFF7D
:1023A500FFFFFFFFFFFF9EF784BAC1FC42FE82FEDE
:1023B500A2FE8183452174745EC7DFDF7ED75ED7B9
:1023C5005DD75ED75ED75DD75DD75ED79EDFFFE76A
:1023D5003DC7F1638408425226E629FF86FEE0F3F5
:1023E5006AC3FFFFFFFFFFFFFFFFFFFFFFFFFFFFC9
:1023F500FFFFFFFFFFFF18DEC1D2A2FD22FE42FE56
:1024050042FE62FEE2D4416A494253743BA63EC78E
:10241500BFD7BFD7BFD7BFDFBFD73EC71AA6F263A7
:10242500A729824122B462FE83FEAAFE0FFF67FD43
:1024350063BA3CEFFFFFFFFFFFFFFFFFFFFFFFFF5B
:10244500FFFFFFFFFFFF9AE680D221FDC2FDE2F507
:10245500C2F582F582FD62FD61DC219B846AE96A31
:102465002C63AF6311746E632C63895A0452817AAD
:10247500C2CBE2FC62FD82FDC2FDC2FDE4FD24FD8E
:1024850062CA1CE7FFFFFFFFFFFFFFFFFFFFFFFF24
:10249500FFFFFFFFFFFFFFFFB1CC81D2C0F3C1FCFF
:1024A50002FD02FDE2FCC2FCC2FC81FC80FBC0C94E
:1024B500A48135AD59CE719C218100DAA1FB82FC46
:1024C500A2FC82FCA2FC02FD22FDE2FC00FC60DA1B
:1024D50090CCFFFFFFFFFFFFFFFFFFFFFFFFFFFFA9
:1024E500FFFFFFFFFFFFFFFFFFFF59DE0DC406CB18
:1024F500E4D203DB03DBE3DAC3D2A4C209B3D2BC63
:102505009EF7FFFFFFFFFFFFFBE60EB4A6BA83D2DF
:10251500E3E202EB22EB22E303DBE4D26AC3B6D5A6
:10252500FFFFFFFFFFFFFFFFFFFFFF1875FF18808D
:06253500FF188CFF18994D
:0D5B65004A0069F80007E0001FFFE0F81F8C
:102A350090000DEBF0A3EAF0A3E9F074FFFFFE129E
:102A45005873900053E06003022AEF90004EE02493
:102A5500FFFB90004DE034FFFA90002FE4F0A374E3
:102A65001CF0A3E4F0A3741FF0E4FDFCFFFE124D7F
:102A75008A900050E024F0FD90004FE034FFFC9078
:102A8500004EE024FFFB90004DE034FFFA9000502B
:102A9500E024FFFE90004FE034FF90002FF0A3CE1E
:102AA500F0A3E4F0A3741FF0E4FFFE124D8A90003A
:102AB50016E4F0A3741FF090000DE0F9A3E0FAA36B
:102AC500E0900018C9F0A3EAF0A3E9F0A37410F0B0
:102AD500E4A3F074FFFBFA7D0C7C00E4FFFE1256C4
:102AE500DF900050E024F0022B94900053E0640244
:102AF5006003022BC190004EE024FFFB90004DE0E7
:102B050034FFFA90002FE4F0A37410F0A3E4F0A3CF
:102B1500741FF0E4FDFCFFFE124D8A900050E02486
:102B2500E2FD90004FE034FFFC90004EE024FFFBF7
:102B350090004DE034FFFA900050E024FFFE900035
:102B45004FE034FF90002FF0A3CEF0A3E4F0A37480
:102B55001FF0E4FFFE124D8A900016E4F0A3741FE7
:102B6500F090000DE0F9A3E0FAA3E0900018C9F099
:102B7500A3EAF0A3E9F0A37410F0E4A3F074FFFB5B
:102B8500FAE4FDFCFFFE1256DF900050E024E2FD62
:102B950090004FE034FFFC900016E4F0A3741FF0A2
:102BA500A374FFF0A37416F0A374F5F0A37410F0EA
:102BB500E4A3F074FFFBFAE4FF022D5B900053E001
:102BC500640190004E6003022C98E024FFFB900006
:102BD5004DE034FFFA90002FE4F0A3741CF0A3E459
:102BE500F0A3741FF0E4FDFCFFFE124D8A90005027
:102BF500E024E0FD90004FE034FFFC90004EE0241F
:102C0500FFFB90004DE034FFFA900050E024FFFEFA
:102C150090004FE034FF90002FF0A3CEF0A3E4F036
:102C2500A3741FF0E4FFFE124D8A900016E4F0A392
:102C3500741FF090000DE0F9A3E0FAA3E0900018EE
:102C4500C9F0A3EAF0A3E9F0A37410F0E4A3F074CB
:102C5500FFFBFA7D0C7C007F157E001256DF90008D
:102C650050E024E0FD90004FE034FFFC900016E4B6
:102C7500F0A3741FF0A374FFF0A37416F0A374F50A
:102C8500F0A37410F0E4A3F074FFFBFA7F157E0047
:102C9500022D5CE024FFFB90004DE034FFFA90002C
:102CA5002FE4F0A3741CF0A3E4F0A3741FF0E4FD7B
:102CB500FCFFFE124D8A900050E024E0FD90004F8D
:102CC500E034FFFC90004EE024FFFB90004DE03423
:102CD500FFFA900050E024FFFE90004FE034FF9093
:102CE500002FF0A3CEF0A3E4F0A3741FF0E4FFFEE1
:102CF500124D8A900016E4F0A3741FF090000DE0C9
:102D0500F9A3E0FAA3E0900018C9F0A3EAF0A3E95B
:102D1500F0A37410F0E4A3F074FFFBFA7D0C7C00C3
:102D25007FEBFE1256DF900050E024E0FD90004F4F
:102D3500E034FFFC900016E4F0A3741FF0A374FFC9
:102D4500F0A37416F0A374F5F0A37410F0E4A3F0E7
:0B2D550074FFFBFA7FEBFE1256DF223A
:10499400900004EAF0A3EBF0900000EEF0A3EFF037
:1049A400A3ECF0A3EDF074FF900049F0A3F0C0076E
:1049B400900004E0FAA3E0FB900002E0FFA3E09083
:1049C4000013CFF0A3EFF0D0071244B9900000E039
:1049D400FAA3E0FBFFAE02C007A3E0FCA3E0FD9056
:1049E4000006E0FFA3E0900013CFF0A3EFF0D007A0
:1049F4001244B99000497484F0A37410F09000013B
:104A0400E02401FF900000E03400FEC006C00790DF
:104A14000007E024FFFD900006E034FFFC90000452
:104A2400E0FAA3E0FBA3E0FEA3E024FFFFEE34FFE3
:104A3400900013F0A3EFF0D007D0061244B9900011
:104A4400497442F0A37408F0900006E0FCA3E0FD72
:104A5400900004E0FAA3E0FBA3E0FFA3E0900013BE
:104A6400CFF0A3EFF0900000E0FEA3E0FF1244B902
:104A74009000497484F0A37410F0900005E024FFC2
:104A8400FB900004E034FFFAAF03FEC0079000037C
:104A9400E02401FD900002E03400FC900006E0FFF9
:104AA400A3E0900013CFF0A3EFF0D0071244B99025
:104AB40000497442F0A37408F0900004E0FAA3E003
:104AC400FBFFAE02C007900002E0FCA3E0FD9000F3
:104AD40006E0FFA3E0900013CFF0A3EFF0D00702AD
:024AE40044B9D3
:10481F007F7D7EEF12587390004EE0249EFF900034
:10482F004DE034FFC313FEEF13FFC0062462FBE419
:10483F003EFA900006E4F0A37455F0D0067D417C5B
:10484F0000124994900016E4F0A3741FF0A374FFB4
:10485F00F0A37417F0A37405F0A37410F0A3740100
:10486F00F07B1F7AF87D437C00E4FFFE1256DF9049
:10487F00004EE0249EFF90004DE034FFC313FEEF87
:10488F0013FFC0062462FBE43EFA900006E4F0A397
:10489F007473F0D0067D5F7C0012499490001674FB
:1048AF00EFF0A3747DF0A374FFF0A37417F0A3745B
:1048BF0012F0A37410F0A37401F0E4FBFA7D61FC15
:1048CF00FFFE1256DF90004EE0249EFF90004DE059
:1048DF0034FFC313FEEF13FFC0062462FBE43EFA5E
:1048EF00900006E4F0A37491F0D0067D7D7C001259
:1048FF00499490001674EFF0A3747DF0A374FFF049
:10490F00A37417F0A3741FF0A37410F0A37401F035
:10491F007B1F7A007D7F7C00E4FFFE1256DF900044
:10492F004EE0249EFF90004DE034FFC313FEEF13C3
:10493F00FFC0062462FBE43EFA900006E4F0A37485
:10494F00AFF0D0067D9B7C0012499490001674EF57
:10495F00F0A3747DF0A374FFF0A37417F0A3742C6D
:10496F00F0A37410F0A37401F07B007AF87D9D7CA6
:10497F0000E4FFFE1256DF7FDC7E05125ABA7FF489
:05498F007E01025ABA8E
:10529A007BFF7A177939122A35900016E4F0A37445
:1052AA001FF0A374FFF0A37417F0A37446F0A3745D
:1052BA0010F0A37401F07B007AF87D4E7C00E4FFC5
:1052CA00FE1256DF900016E4F0A3741FF0A374FFD9
:1052DA00F0A37417F0A37439F0A37410F0A3740147
:1052EA00F07B007AF87D5F7C00E4FFFE1256DF90C7
:1052FA000016E4F0A3741FF0A374FFF0A37417F070
:10530A00A3744FF0A37410F0A37401F07BE07A0742
:10531A007D707C00E4FFFE1256DF900016E4F0A3D5
:10532A00741FF0A374FFF0A37417F0A3745EF0A3C4
:10533A007410F0A37401F07BE07A077D817C00E4AD
:10534A00FFFE1256DF900016E4F0A3741FF0A37458
:10535A00FFF0A37417F0A37466F0A37410F0A3749B
:10536A0001F07B1F7A007D927C00E4FFFE1256DF7B
:0E537A007FDC7E05125ABA7FDC7E05025ABA2D
:1035960090004EE024FFFB90004DE034FFFA9000CF
:1035A60050E024FFFE90004FE034FF90002FF0A380
:1035B600CEF074FFA3F0A3F0E4FDFCFFFE124D8AEB
:1035C60090002374FFF0A374E0F0A374FFF0A374DB
:1035D60017F0A37471F0A37410F0A37401F0E4FB68
:1035E600FA7D1EFC7F28FE1230747FE87E03125A95
:1035F600BA90004EE024FFFB90004DE034FFFA90B5
:103606000050E024FFFE90004FE034FF90002FF0C2
:10361600A3CEF0E4A3F0A3F0FDFCFFFE124D8A90CA
:10362600002374FFF0A374E0F0A374FFF0A37417F3
:10363600F0A37477F0A37410F0A37401F074FFFB89
:10364600FA7D1E7C007F287E001230747FE87E03A0
:10365600125ABA90004EE024FFFB90004DE034FF72
:10366600FA900050E024FFFE90004FE034FF9000F7
:103676002FF0A3CEF0A374F8F0A3E4F0FDFCFFFE58
:10368600124D8A90002374FFF0A374E0F0A374FF38
:10369600F0A37417F0A3747DF0A37410F0A3740163
:1036A600F07B1F7A007D1E7C007F287E001230741E
:1036B6007F207E03125ABA90004EE024FFFB900052
:1036C6004DE034FFFA900050E024FFFE90004FE0FA
:1036D60034FF90002FF0A3CEF0A37407F0A374E09C
:1036E600F0E4FDFCFFFE124D8A90002374FFF0A368
:1036F60074E0F0A374FFF0A37417F0A37481F0A331
:103706007410F0A37401F07B1F7A007D1E7C007F8D
:10371600287E001230747F207E03125ABA90004E23
:10372600E024FFFB90004DE034FFFA900050E024C7
:10373600FFFE90004FE034FF90002FF0A3CEF0A3E1
:10374600E4F0A3741FF0E4FDFCFFFE124D8A900026
:103756002374FFF0A374E0F0A374FFF0A37417F0D2
:10376600A37487F0A37410F0A37401F07B007AF8B9
:103776007D1E7C007F287E001230747F207E03121F
:103786005ABA90004EE024FFFB90004DE034FFFA59
:10379600900050E024FFFE90004FE034FF90002F91
:1037A600F0A3CEF0A37484F0A37430F0E4FDFCFF24
:1037B600FE124D8A90002374FFF0A374E0F0A37408
:1037C600FFF0A37417F0A3748CF0A37410F0A37425
:1037D60001F07B007AF87D1E7C007F287E00123087
:0837E600747FE87E03025ABA69
:1042C500E4900000F07BFF7A177991122A3590006F
:1042D5004EE024FFFB90004DE034FFFA900050E0E3
:1042E50024E0FE90004FE034FF90002FF0A3CEF0C5
:1042F50074FFA3F0A3F07D1E7C00E4FFFE124D8A3F
:10430500E4900000F0900000E0FD25E02469F582CE
:10431500E43400F583E0FFA3E0900049CFF0A3EF7C
:10432500F090004DE0C313FEA3E01324D8FBEE3458
:10433500FFFAED75F010A42BFFE5F03AFEC006C0BC
:1043450007A3E0C313FEA3E01324D8FDEE34FFFC5E
:10435500900000E0F975F00DA42DFDE5F03CFCC0E2
:1043650004C00590004DE0C313FCA3E013FDE975FF
:10437500F010A42DFFE5F03CCF24F6FBEF34FFFA57
:10438500A3E0C313FCA3E013FDE975F00DA42DFF15
:10439500E5F03CCF24F6CF34FF900007F0A3EFF013
:1043A500D005D004D007D006125502900000E004D5
:1043B500F0E0C39405500302430A7FDC7E05125AE0
:1043C500BA90004EE024FFFB90004DE034FFFA90D8
:1043D5000050E024E0FE90004FE034FF90002FF005
:1043E500A3CEF074FFA3F0A3F07D1E7C00E4FFFED6
:1043F500124D8AE4900000F0900000E0FD25E024D5
:1044050069F582E43400F583E0FFA3E0900049CF2D
:10441500F0A3EFF090004DE0C313FEA3E01324D802
:10442500FBEE34FFFAED75F010A42BFFE5F03AFE34
:10443500C006C007A3E0C313FEA3E01324D8FDEE16
:1044450034FFFC900000E0F975F00DA42DFDE5F0BA
:104455003CFCC004C00590004DE0C313FCA3E01371
:10446500FDE975F010A42DFFE5F03CCF24F6FBEF38
:1044750034FFFAA3E0C313FCA3E013FDE975F00DC7
:10448500A42DFFE5F03CCF24F6CF34FF900007F0D4
:10449500A3EFF0D005D004D007D006125B0690003C
:1044A50000E004F0E0C3940550030243FD7FDC7E89
:0444B50005025ABAE8
:1046A400E4900000F07BFF7A1779A1122A3590007C
:1046B4004EE024FFFB90004DE034FFFA900050E000
:1046C40024E0FE90004FE034FF90002FF0A3CEF0E2
:1046D40074FFA3F0A3F07D1E7C00E4FFFE124D8A5C
:1046E400E4900000F0900000E0FBC39405506E904D
:1046F400004DE0C313FEA3E01324D8FDEE34FFFC09
:10470400900000E0FA75F00FA42DFFE5F03CFEC028
:1047140006C00790004FE0C313FEA3E01324E7FD97
:10472400EE34FFFCEA75F00DA42DFDE5F03CFCEB46
:1047340025E02469F582E43400F583E0FAA3E0FB84
:10474400900007E4F0A3740FF0E4A3F0A3F0D00703
:10475400D0061240CF900000E004F080887FDC7E19
:1047640005125ABA90004EE024FFFB90004DE0344D
:10477400FFFA900050E024E0FE90004FE034FF90F8
:10478400002FF0A3CEF074FFA3F0A3F07D1E7C00F5
:10479400E4FFFE124D8AE4900000F0900000E0FB7C
:1047A400C39405506F90004DE0C313FEA3E013249F
:1047B400D8FDEE34FFFC900000E0FA75F00FA42D54
:1047C400FFE5F03CFEC006C00790004FE0C313FEB7
:1047D400A3E01324E7FDEE34FFFCEA75F00DA42DED
:1047E400FDE5F03CFCEB25E02469F582E43400F5BA
:1047F40083E0FAA3E0FB900007E4F0A3740FF0A3B6
:10480400E4F0A304F0D007D0061240CF900000E0FB
:0B48140004F080877FDC7E05025ABAAA
:104F94007BFF7A1779B1122A3590002374FFF0A3AE
:104FA40074E0F0A374FFF0A37417F0A374BEF0A32D
:104FB400740CF0E4A3F07B1FFA7D4DFC7F32FE12EB
:104FC400307490002374FFF0A374E0F0A374FFF036
:104FD400A37417F0A374D4F0A3740CF0A37401F0B9
:104FE4007B1F7A007D597C007F327E0012307490E2
:104FF400002374FFF0A374E0F0A374FFF0A374170C
:10500400F0A374EAF0A3740CF0E4A3F07B1FFA7D20
:1050140065FC7F32FE12307490002374FFF0A37499
:10502400E0F0A374FFF0A37418F0A37400F0A37469
:1050340010F0E4A3F07B1FFA7D72FC7F32FE123085
:105044007490002374FFF0A374E0F0A374FFF0A342
:105054007418F0A37410F0A37410F0A37401F07B1F
:105064001F7A007D827C007F327E001230749000B3
:105074002374FFF0A374E0F0A374FFF0A37418F09A
:10508400A37420F0A37410F0E4A3F07B1FFA7D92C4
:0E509400FC7F32FE1230747FB07E04025ABAE6
:10330A00E4900000F07BFF7A187931122A35900098
:10331A004EE024FFFB90004DE034FFFA900050E0AD
:10332A0024E0FE90004FE034FF90002FF0A3CEF08F
:10333A0074FFA3F0A3F07D1E7C00E4FFFE124D8A09
:10334A00E4900000F0900000E0F9C3940540030205
:10335A003450E925E02469F582E43400F583E0FF7E
:10336A00A3E0900049CFF0A3EFF090004DE0C31323
:10337A00FAA3E013FB24D8FDEA34FFFCE975F00F49
:10338A00A42DFFE5F03CFEC006C007A3E0C313FE70
:10339A00A3E01324F4FDEE34FFFCE975F00BA42D31
:1033AA00FDE5F03CFCC004C005EB24E6FDEA34FF71
:1033BA00FCE975F00FA42DFBE5F03CFAC002C0034E
:1033CA0090004FE0C313FEA3E01324D9FDEE34FFAF
:1033DA00FCE975F00BA42DFDE5F03CFCC005C0042A
:1033EA0090004DE0C313FEA3E01324F5FDEE34FF75
:1033FA00FCE975F00FA42DFDE5F03CFCA3E0C31336
:10340A00FEA3E01324F4FBEE34FFFAE975F00BA4F3
:10341A002BFEE5F03A90000BF0A3CEF0900009ECF9
:10342A00F0A3EDF0900007D0E0F0A3D0E0F0D003D5
:10343A00D002D005D004D007D0061257FD90000064
:10344A00E004F002334F7FDC7E05125ABA90004E38
:10345A00E024FFFB90004DE034FFFA900050E02496
:10346A00E0FE90004FE034FF90002FF0A3CEF074FE
:10347A00FFA3F0A3F07D1E7C00E4FFFE124D8AE458
:10348A00900000F0900000E0F9C394054003023573
:10349A008FE925E02469F582E43400F583E0FFA38F
:1034AA00E0900049CFF0A3EFF090004DE0C313FA8B
:1034BA00A3E013FB24D8FDEA34FFFCE975F00FA45E
:1034CA002DFFE5F03CFEC006C007A3E0C313FEA330
:1034DA00E01324F4FDEE34FFFCE975F00BA42DFD96
:1034EA00E5F03CFCC004C005EB24E6FDEA34FFFC31
:1034FA00E975F00FA42DFBE5F03CFAC002C0039079
:10350A00004FE0C313FEA3E01324D9FDEE34FFFC01
:10351A00E975F00BA42DFDE5F03CFCC005C0049054
:10352A00004DE0C313FEA3E01324F5FDEE34FFFCC7
:10353A00E975F00FA42DFDE5F03CFCA3E0C313FEF2
:10354A00A3E01324F4FBEE34FFFAE975F00BA42B85
:10355A00FEE5F03A90000BF0A3CEF0900009ECF0F3
:10356A00A3EDF0900007D0E0F0A3D0E0F0D003D0B4
:10357A0002D005D004D007D00612253B900000E007
:0C358A0004F002348E7FDC7E05025ABA89
:10564C007BFF7A17791F122A3590002374FFF0A381
:10565C0074E0F0A374FFF0A37418F0A37441F0A3EA
:10566C007410F0E4A3F07B1FFA7D52FC7F2DFE1228
:10567C00307490002374FFF0A374E0F0A374FFF077
:10568C00A37418F0A37454F0A37418F0A37401F06D
:10569C007B1F7A007D667C007F2D7E00123074901B
:1056AC00002374FFF0A374E0F0A374FFF0A374184C
:1056BC00F0A37463F0A37420F0A37401F07B1F7A41
:1056CC00007D7F7C007F2D7E001230747FB07E04C5
:0356DC00025ABAB5
:1050A2007BFF7A17792C122A35900013E4F0A3744F
:1050B20028F0A374FFF0A37418F0A374AFF07B2858
:1050C2007A007D5A7C007F327E001251A590002327
:1050D20074FFF0A374E0F0A374FFF0A37418F0A3BC
:1050E2007472F0A37410F0A37401F07B1F7A007D38
:1050F200877C007F3E7E00123074900013E4F0A3A0
:105102007428F0A374FFF0A37418F0A374AFF07BBB
:10511200287A007D5A7C007F647E001251A590009F
:105122002374FFF0A374E0F0A374FFF0A37418F0EB
:10513200A37472F0A37410F0A37401F07B1F7A00C1
:105142007D877C007F707E00123074900013E4F043
:10515200A37428F0A374FFF0A37418F0A374AFF043
:105162007B287A007D5A7C007F967E001251A590A2
:10517200002374FFF0A374E0F0A374FFF0A374188B
:10518200F0A37472F0A37410F0A37401F07B1F7A81
:10519200007D877C007FA27E001230747FB07E0487
:0351A200025ABAF4
:10544700E4900000F078017C007D017BFF7A2579EC
:105457002FFE7F0C122E30E4900000F0900000E049
:10546700FFC3940440030254FD1255AC7BFF7A1826
:1054770079A6122A35900000E075F003A42401F5FF
:1054870082E43400F583E0F9A3E0FAA3E090002575
:10549700C9F0A3EAF0A3E9F090002374FFF0A37426
:1054A700E0F09000287410F0A37401F07B1F7A00DD
:1054B7007D237C007F287E00123074900013E4F077
:1054C700A37428F0A374FFF0A37418F0A374AFF0CB
:1054D7007B287A007D377C007F287E001251A57FCC
:1054E700E87E03125ABA7FE87E03125ABA90000088
:0B54F700E004F0025463E4FF0255AC37
:105ABA00E4FDFCC3ED9FEE6480F8EC648098501519
:105ACA00E4FBFA0BBB00010ABA03F8BBE8F50DBD0B
:055ADA0000010C80DE5C
:015ADF0022A4
:105AE000E4FDFCC3ED9FEE6480F8EC6480985015F3
:105AF000E4FBFA0BBB00010AEB64014A70F50DBD33
:055B000000010C80DE35
:015B0500227D
:0A5B7200420049000042004BFFFF13
:0F5BB9007D597C03ED1D70011C144C70F7DFF15A
:015BC80022BA
:045BEF0075CEDD2270
:0B5BC9008FCFE5CD30E7FB75CDC0228B
:0A5BD400C293C292125BC9D2932261
:105B4A002FE03400FF125B5BA3E090005BFFE02FC5
:015B5A00FF4B
:0A5B5B00C293D292125BC9D29322CA
:105B7D00AD07AC06C293D292ECFF125BC9AF051212
:055B8D005BC9D2932268
:085BE700125BD4AF05025B5B09
:095BDE00900054A3E0FF025BD427
:08587300900010EEF0A3EFF02D
:10587B0090004EE024FFFB90004DE034FFFA9000C7
:10588B0050E024FFFE90004FE034FF900047F0A360
:10589B00CEF0E4FDFCFFFE1258E8C293D292E4FD79
:1058AB00FCD390004EE09D90004DE09C402CE4FB1F
:1058BB00FAD3900050E09B90004FE09A4015900077
:1058CB0010E0FF125BC9A3E0FF125BC90BBB000129
:0C58DB000A80DE0DBD00010C80C7D293D6
:0158E700229E
:105A6700AB07AA068D828C83C006C007AE83AF82C0
:105A7700900047EEF0A3EFF0D007D0061258E89059
:0A5A87000049E0FEA3E0FF025B7D92
:105BA700C2B37F147E00125ABAD2B37F147E0002AA
:025BB7005ABAD8
:104C2300125BEF125BA77F36125BD4E4FF125B5B70
:104C33007F3A125BD47F05125B5B7FB2125BD47F3A
:104C43000C125B5B125B5BE4FF125B5B7F33125BFB
:104C53005B125B5B7FB7125BD47F35125B5B7FBB01
:104C6300125BD47F17125B5B7FC0125BD47F2C1265
:104C73005B5B7FC2125BD47F01125B5B7FC3125B02
:104C8300D47F12125B5B7FC4125BD47F20125B5B09
:104C93007FC6125BD47F0F125B5B7FD0125BD47F26
:104CA300A4125B5B7FA1125B5B7FE0125BD47FD0BE
:104CB300125B5B7F04125B5B7F0D125B5B7F1112E8
:104CC3005B5B7F13125B5B7F2B125B5B7F3F125B34
:104CD3005B7F54125B5B7F4C125B5B7F18125B5BE9
:104CE3007F0D125B5B7F0B125B5B7F1F125B5B7F36
:104CF30023125B5B7FE1125BD47FD0125B5B7F048B
:104D0300125B5B7F0C125B5B7F11125B5B7F131289
:104D13005B5B7F2C125B5B7F3F125B5B7F44125BB1
:104D23005B7F51125B5B7F2F125B5B7F1F125B5BB1
:104D3300125B5B0F125B5B7F23125B5B7F21125B5A
:104D4300D47F11125BD47F29125BD4E4FF1255ACDC
:034D5300D2B222B7
:1058E800900041EEF0A3EFF0A3ECF0A3EDF09000F0
:1058F80056A3E0FF125BD490005AE0FF900042E00C
:105908002F900041E03400FF125B5BA3E090005A47
:10591800125B57E02BE43AFF125B5BE02BFF125B54
:105928005B900058A3E0FF125BD490005BE0FF900F
:105938000044E0900043125B4AE0FF900048E0908A
:085948000047125B4A025BDE1E
:105B2B00AB07AA068D828C83C006C007AE83AF82FB
:0F5B3B00900047EEF0A3EFF0D007D0060258E835
:1055AC00900056E4F0A3742AF0A3E4F0A3742BF05B
:1055BC00900054E4F0A3742CF0EF5403900053F0DB
:1055CC0014602414603C1460562403707290004DD7
:1055DC00E4F0A374F0F0A3E4F0A374C6F0E490003C
:1055EC005AF0A3F0FD805390004DE4F0A374C6F084
:1055FC00A3E4F0A374F0F0E490005AF0A3F07D6003
:10560C00803890004DE4F0A374F0F0A3E4F0A374A0
:10561C00C6F0E490005AF0A3747AF07DC0801B9021
:10562C00004DE4F0A374C6F0A3E4F0A374F0F09082
:10563C00005A747AF0E4A3F07DA07F36125BE72267
:0300000002577133
:0C577100787FE4F6D8FD7581070257B878
:102D6000E709F608DFFA8046E709F208DFFA803E55
:102D700088828C83E709F0A3DFFA8032E309F60842
:102D8000DFFA8078E309F208DFFA807088828C83AA
:102D9000E309F0A3DFFA806489828A83E0A3F6085E
:102DA000DFFA805889828A83E0A3F208DFFA804C38
:102DB00080D280FA80C680D4806980F2803380100F
:102DC00080A680EA809A80A880DA80E280CA803378
:102DD00089828A83ECFAE493A3C8C582C8CCC583F0
:102DE000CCF0A3C8C582C8CCC583CCDFE9DEE780C0
:102DF0000D89828A83E493A3F608DFF9ECFAA9F03F
:102E0000EDFB2289828A83ECFAE0A3C8C582C8CC94
:102E1000C583CCF0A3C8C582C8CCC583CCDFEADEAD
:102E2000E880DB89828A83E493A3F208DFF980CC0F
:102E300088F0EF60010E4E60C388F0ED2402B40408
:102E40000050B9F582EB2402B4040050AF232345AF
:062E50008223902DB073F7
:102E5600BB010689828A83E0225002E722BBFE027A
:092E6600E32289828A83E49322AD
:102E6F00BB010CE58229F582E5833AF583E0225018
:102E7F0006E92582F8E622BBFE06E92582F8E22262
:0D2E8F00E58229F582E5833AF583E493227C
:102E9C00EF8DF0A4A8F0CF8CF0A428CE8DF0A42E4A
:022EAC00FE2204
:102EAE00C5F0F8A3E028F0C5F0F8E58215827002AF
:062EBE001583E038F0224C
:102EC400BB010A89828A83E0F5F0A3E022500687D9
:102ED400F009E71922BBFE07E3F5F009E31922899B
:0B2EE400828A83E493F5F074019322CE
:102EEF00BB010A89828A83F0E5F0A3F0225006F72E
:0F2EFF0009A7F01922BBFE06F3E5F009F319222B
:102F0E00E88FF0A4CC8BF0A42CFCE98EF0A42CFC62
:102F1E008AF0EDA42CFCEA8EF0A4CDA8F08BF0A4E0
:102F2E002DCC3825F0FDE98FF0A42CCD35F0FCEB3F
:102F3E008EF0A4FEA9F0EB8FF0A4CFC5F02ECD3904
:0F2F4E00FEE43CFCEAA42DCE35F0FDE43CFC2271
:102F5D0075F008758200EF2FFFEE33FECD33CDCC2B
