:020000040800F2
:10000000E02E0020CD0100089516000853110008CD
:1000100091160008D10200086919000800000000CC
:100020000000000000000000000000005D19000852
:10003000D502000800000000971600085F190008AC
:10004000E7010008E7010008E7010008E7010008F0
:10005000E7010008E7010008E7010008E7010008E0
:10006000E7010008E7010008E7010008E7010008D0
:10007000E7010008E7010008E7010008E7010008C0
:10008000E7010008E7010008E7010008E7010008B0
:10009000E7010008E7010008E7010008E7010008A0
:1000A000E7010008E7010008E7010008E701000890
:1000B000E7010008E7010008E7010008E701000880
:1000C000E7010008E7010008E7010008E701000870
:1000D000E7010008E7010008E7010008E701000860
:1000E000E7010008E7010008E7010008E701000850
:1000F000E7010008E7010008E7010008E701000840
:10010000E7010008E7010008E7010008E70100082F
:10011000E7010008E7010008E7010008E70100081F
:10012000E7010008E7010008E7010008E70100080F
:1001300000F002F800F03AF80AA090E8000C8244BF
:100140008344AAF10107DA4501D100F02FF8AFF29C
:10015000090EBAE80F0013F0010F18BFFB1A43F0A5
:1001600001031847345F0000545F0000103A24BFB9
:1001700078C878C1FAD8520724BF30C830C144BF0C
:1001800004680C607047000000230024002500264E
:10019000103A28BF78C1FBD8520728BF30C148BFEA
:1001A0000B6070471FB51FBD10B510BD00F058F8AB
:1001B0001146FFF7F7FF01F029FC00F076F803B4D1
:1001C000FFF7F2FF03BC00F07DF80000094880470C
:1001D00009480047FEE7FEE7FEE7FEE7FEE7FEE729
:1001E000FEE7FEE7FEE7FEE704480549054A064B41
:1001F000704700006719000831010008E02800205E
:10020000E02E0020E02A0020E02A00204FF000022B
:1002100000B5134694469646203922BFA0E80C50FC
:10022000A0E80C50B1F12001BFF4F7AF090728BFD7
:10023000A0E80C5048BF0CC05DF804EB890028BF53
:1002400040F8042B08BF704748BF20F8022B11F07C
:10025000804F18BF00F8012B7047704770477047F8
:10026000754600F029F8AE4605006946534620F071
:100270000700854618B020B5FFF7B6FFBDE820405F
:100280004FF000064FF000074FF000084FF0000B52
:1002900021F00701AC46ACE8C009ACE8C009ACE805
:1002A000C009ACE8C0098D4670470446AFF3008032
:1002B0002046FFF784FF0000004870477C2800209C
:1002C0007047000001491820ABBEFEE7260002007F
:1002D00000BFFEE770472DE9F04106460F46144681
:1002E0001D46DDF818807819401E83B23019401E73
:1002F00082B23946304601F0DBF804FB05F04100DC
:10030000404601F057F9BDE8F08100002DE9F847BB
:10031000024600239C467BE14FF0010808FA03F4F3
:10032000D1F8008008EA0400A0427DD1DFF8F4A2F1
:10033000D1F80480A8EB0A09D0453AD014DCB8F112
:10034000030F50D009DCB8F1000F31D0B8F1010F24
:100350001CD0B8F1020F49D120E0B8F1110F18D02C
:10036000B8F1120F42D11EE0B9F5881F25D006DC86
:10037000B9F5803F20D0B9F5801F37D11AE0B9F523
:10038000001F18D0B9F5041F30D117E0D1F80CC008
:100390002DE0D1F80C8008F1040C28E0D1F80C8095
:1003A00008F1080C23E0D1F80C8008F10C0C1EE0D9
:1003B00000BF00BF00BF00BF00BF00BFD1F8088072
:1003C000B8F1000F02D14FF0040C0BE0D1F8088017
:1003D000B8F1010F03D14FF0080C146102E04FF0A7
:1003E000080C546103E04FF0000C00E000BF00BFB8
:1003F000FF2801D8904601E002F104084646FF2894
:1004000002D84FEA830803E0A3F108084FEA8808FE
:100410004746D6F800804FF00F0909FA07F928EA95
:1004200009080CFA07F900E07AE048EA0908C6F87A
:100430000080D1F8048008F08058B8F1805F6FD157
:1004400000BFDFF8E481D8F8188048F00108DFF831
:10045000D891C9F81880C846D8F8188008F0010863
:10046000CDF8008000BF00BF4FEAB9384FEA9309CA
:1004700058F829504FEA83784FEA18794FF00F085F
:1004800008FA09F825EA0805DFF8A081424502D1FB
:100490004FF0000824E0DFF89881424502D14FF088
:1004A00001081DE0DFF88C81424502D14FF00208BF
:1004B00016E0DFF88481424502D14FF003080FE0D7
:1004C000DFF87881424502D14FF0040808E0DFF8F8
:1004D0007081424502D14FF0050801E04FF0060857
:1004E0004FEA83794FEA197908FA09F848EA0505CD
:1004F000DFF850814FEA930948F82950D1F8048079
:1005000008F48038B8F5803F0BD1DFF83C81D8F88B
:10051000008048EA0008DFF83091C9F800800AE05E
:1005200075E0DFF82481D8F8008028EA0008DFF8B9
:100530001891C9F80080D1F8048008F40038B8F5A3
:10054000003F0ED1DFF8008108F10408D8F80080E0
:1005500048EA0008DFF8F09009F10409C9F80080C2
:100560000DE0DFF8E48008F10408D8F8008028EAFC
:100570000008DFF8D49009F10409C9F80080D1F827
:10058000048008F48018B8F5801F0ED1DFF8B88019
:1005900008F10808D8F8008048EA0008DFF8A890B9
:1005A00009F10809C9F800800DE0DFF89C8008F126
:1005B0000808D8F8008028EA0008DFF88C9009F1D4
:1005C0000809C9F80080D1F8048008F40018B8F5CB
:1005D000001F0ED1DFF8708008F10C08D8F80080F9
:1005E00048EA0008DFF8609009F10C09C9F80080BA
:1005F0000DE0DFF8548008F10C08D8F8008028EAF4
:100600000008DFF8449009F10C09C9F800805B1C70
:10061000D1F8008028FA03F8B8F1000F7FF47CAE1F
:10062000BDE8F887000011100010024000080140EA
:10063000000C01400010014000140140001801406E
:10064000001C01400800014000040140014800680E
:10065000704700000800002003480068034909783B
:10066000084401490860704708000020100000207D
:1006700010B50848006840F01000064908600520E1
:1006800000F070F80F2000F007F800F02BF80020C1
:1006900010BD00000020024070B504460E480078EE
:1006A0004FF47A71B1FBF0F00C490968B1FBF0F539
:1006B000284600F034FD08B1012070BD102C07D28F
:1006C00000222146501E00F00EF80548046001E0AB
:1006D0000120F2E70020F0E71000002000000020D9
:1006E0000C00002070472DE9F05F80460D4616464D
:1006F000002701F03BF9074639462A46334601F008
:100700000700C0F1070ABAF1040F02D94FF0040A3A
:1007100001E0C0F1070AD14600F1040ABAF1070F5F
:1007200002D24FF0000A01E0A0F1030AD4464FF0D4
:10073000010A0AFA09FAAAF1010A0AEA020A0AFAFD
:100740000CFA4FF0010B0BFA0CFBABF1010B0BEAAF
:10075000030B4AEA0B042146404601F00FF9BDE8BD
:10076000F09F000000BF00F00702064B19684FF62B
:10077000FF031940044B0B4343EA0221014B19606C
:1007800000BF70470CED00E00000FA0570B50446AC
:100790000D460CB9012070BD5A48006800F00700F2
:1007A000A8420ED25748006820F007002843554958
:1007B00008600846006800F00700A84201D0012048
:1007C000E9E7207800F0020002281DD1207800F02F
:1007D0000400042805D14C48406840F4E0604A49D0
:1007E0004860207800F00800082805D14648406895
:1007F00040F46050444948604348406820F0F000AD
:10080000A168084340494860207800F0010078B3AF
:100810006068012806D13C48006800F4003090B9B7
:100820000120B8E76068022806D13748006800F068
:10083000007040B90120AEE73348006800F00200C4
:1008400008B90120A7E73048406820F0030061683C
:1008500008432D494860FFF7F9FE064609E0FFF717
:10086000F5FE801B41F28831884202D9032092E7CD
:1008700007E02548406800F00C006168B0EB810F8C
:10088000EDD12048006800F00700A8420ED91D48AD
:10089000006820F0070028431A49086008460068ED
:1008A00000F00700A84201D0012074E7207800F092
:1008B0000400042807D11448406820F4E060E1688F
:1008C000084311494860207800F00800082808D142
:1008D0000D48406820F46050216940EAC1000A498F
:1008E000486000F019F808494968C1F30311074A44
:1008F000515CC8400649086006480068FFF7CCFE16
:10090000002048E70020024000100240901A000832
:10091000000000200C000020F0B585B00FF26C0C38
:100920009CE8E01001A8A0E8E0101CA52D68009547
:1009300000210022002300240020194D696801F0E5
:100940000C05F5B1042D02D0082D19D101E0154890
:1009500019E001ADC1F38346AC5D01F4803555B1BA
:100960000F4D6D68C5F340451DF805200D4D6543DD
:10097000B5FBF2F302E00C4D04FB05F3184602E070
:1009800000BF084800BF00BF05B0F0BD020304056A
:10099000060708090A0B0C0D0E0F101001020000CB
:1009A0000010024000127A0000093D00F8B504462C
:1009B0000CB90120F8BD207800F00100002878D0A3
:1009C000F848406800F00C0004280CD0F548406856
:1009D00000F00C00082811D1F248406800F4803083
:1009E000B0F5803F0AD1EF48006800F400300028DD
:1009F0005FD0606800285CD10120DBE700BF606841
:100A0000B0F5803F06D1E748006840F48030E54902
:100A1000086028E0606858B9E248006820F4803037
:100A2000E04908600846006820F4802008601AE069
:100A30006068B0F5A02F0BD1DA48006840F4802040
:100A4000D84908600846006840F4803008600AE031
:100A5000D448006820F48030D24908600846006815
:100A600020F48020086000BF606888B1FFF7EEFDC9
:100A7000054606E0FFF7EAFD401B642801D9032084
:100A800098E7C848006800F400300028F2D010E071
:100A9000FFF7DCFD054606E0FFF7D8FD401B6428A4
:100AA00001D9032086E7BF48006800F40030002821
:100AB000F2D1207800F00200022857D1B9484068EE
:100AC00000F00C0050B1B748406800F00C00082856
:100AD00018D1B448406800F4803098B9B148006833
:100AE00000F0020020B12069012801D0012061E757
:100AF000AC48006820F0F800616940EAC100A949EB
:100B0000086033E02069E8B10120A7490860FFF7D9
:100B10009DFD054606E0FFF799FD401B022801D91F
:100B2000032047E79F48006800F002000028F2D049
:100B30009C48006820F0F800616940EAC1009949CA
:100B4000086013E0002098490860FFF77FFD054624
:100B500006E0FFF77BFD401B022801D9032029E7AF
:100B60009048006800F002000028F2D1207800F0E0
:100B7000080008282DD1A069B8B101208B49086070
:100B8000FFF764FD054606E0FFF760FD401B022805
:100B900001D903200EE78348406A00F002000028D4
:100BA000F2D0012000F094FD13E000207F4908609E
:100BB000FFF74CFD054606E0FFF748FD401B022805
:100BC00001D90320F6E67748406A00F002000028C9
:100BD000F2D1207800F00400042873D10027714876
:100BE000C06900F0805070B900BF6E48C06940F025
:100BF00080506C49C8610846C06900F08050009080
:100C000000BF00BF01276A48006800F48070B0B9D7
:100C10006748006840F4807065490860FFF716FD7A
:100C2000054606E0FFF712FD401B642801D90320AA
:100C3000C0E65F48006800F480700028F2D000BF72
:100C4000E068012806D15748006A40F00100554984
:100C5000086227E0E06858B95248006A20F00100B5
:100C6000504908620846006A20F00400086219E052
:100C7000E06805280BD14B48006A40F00400494960
:100C800008620846006A40F0010008620AE0454830
:100C9000006A20F00100434908620846006A20F01B
:100CA0000400086200BFE068A0B1FFF7CFFC054672
:100CB00009E0FFF7CBFC401B41F28831884202D9A2
:100CC000032077E622E03748006A00F0020000289F
:100CD000EFD012E0FFF7BAFC054608E0FFF7B6FCDC
:100CE000401B41F28831884201D9032062E62D4839
:100CF000006A00F002000028F0D1012F05D1294838
:100D0000C06920F080502749C86100BFE069C8B3BE
:100D10002448406800F00C00082860D0E0690228F0
:100D200048D1002020490866FFF790FC054606E000
:100D3000FFF78CFC401B022801D903203AE6194832
:100D4000006800F000700028F2D1206AB0F5803F02
:100D500007D11448406820F40030A16808431149C5
:100D60004860D4E9080108430E49496821F4741128
:100D700008430C49486001200B490866FFF766FCF0
:100D8000054607E03DE0FFF761FC401B022801D962
:100D900003200FE60348006800F000700028F2D03E
:100DA0002FE0000000100240000042428004424256
:100DB00000700040002014490866FFF747FC054614
:100DC00006E0FFF743FC401B022801D90320F1E5B0
:100DD0000E48006800F000700028F2D111E0E069D0
:100DE000012800D1E6E50948466806F48031206A0A
:100DF000814204D106F47011606A814201D0012061
:100E0000D8E50020D6E50000000042420010024074
:100E100010B504460CB9012010BD606A38B960688D
:100E2000B0F5827F00D105E00021E16102E0002100
:100E300021616161A06AB0F5005F00D100BF94F844
:100E4000510028B9002084F85000204600F04AF8EC
:100E5000022084F851002068006820F040002168DA
:100E60000860A08800F48270218901F404410843DD
:100E7000A18901F400610843217C01F002010843CB
:100E8000217D01F001010843218B01F40071084329
:100E9000217F01F0380108432021095D01F0800124
:100EA0000843218D01F400510843216808600421A2
:100EB000A06901EA104021684860A06AB0F5005FAF
:100EC00003D1A08D80B2216808612068C06920F438
:100ED00000602168C86100206065012084F851002D
:100EE000002099E710B586B0044610492068884272
:100EF00019D100BF0E48806940F004000C49886198
:100F00000846806900F00400019000BF00BFE020A7
:100F1000029002200390012004900320059002A972
:100F20000448FFF7F3F906B010BD0000003001409F
:100F300000100240000801402DE9F84F04468846A1
:100F400016461D464FF0000A00BF94F850000128D5
:100F500002D10220BDE8F88F012084F8500000BFC4
:100F6000FFF774FB0746B14694F85100012802D000
:100F70004FF0020AC9E0B8F1000F00D016B94FF0E7
:100F8000010AC2E0032084F8510000206065C4F823
:100F90003080A686E686A063A087E0876064206430
:100FA000A068B0F5004F0BD12068006820F0400029
:100FB000216808602068006840F48040216808606B
:100FC000A06AB0F5005F0DD100BF2068006820F472
:100FD0000050216808602068006840F400502168D3
:100FE000086000BF2068006800F04000402805D07D
:100FF0002068006840F0400021680860E068B0F5B3
:10100000006F2FD1606810B1B9F1010F09D1206BC9
:1010100000882168C860206B801C2063E08E401E21
:10102000E0861BE02068806800F0020002280AD1F8
:10103000206B00882168C860206B801C2063E08ED4
:10104000401EE0860AE0FFF701FBC01BA84201D367
:10105000681C00B915B94FF0030A56E0E08E00286D
:10106000E0D12EE0606810B1B9F1010F09D1206B19
:10107000007821680873206B401C2063E08E401EBE
:10108000E0861BE02068806800F0020002280AD198
:10109000206B007821680873206B401C2063E08E71
:1010A000401EE0860AE0FFF7D1FAC01BA84201D338
:1010B000681C00B915B94FF0030A26E0E08E00283D
:1010C000E0D1A06AB0F5005F05D12068006840F467
:1010D0008050216808603A462946204600F046FBC9
:1010E00008B120206065A06850B900BF00200090C2
:1010F0002068C068009020688068009000BF00BF32
:10110000606D08B14FF0010A00BF012084F8510062
:1011100000BF002084F8500000BF50461AE770B5A9
:1011200004462546681EB0F1807F01D301200FE000
:10113000681E4FF0E02148610F214FF0FF3000F0B2
:101140001DFC00204FF0E02188610720086100208D
:1011500070BD00BFFEE7000001B582B0012002A90A
:10116000CDE9001006484088401E83B2044800883C
:10117000401E82B20021084600F016F80EBD0000A5
:10118000142800202DE9FC4104460D4616461F4652
:10119000012008A93B463246CDE9001029462046E9
:1011A00000F002F8BDE8FC812DE9FF5F07468846A4
:1011B0009146DDF838A00025AB460024A9EB0701D5
:1011C000002901DB0A4600E04A42521C039BA3EBC4
:1011D0000800002801DB034600E043425B1C02FBE1
:1011E00003F64A4641463846039B00F061F94FF446
:1011F00000701F4908608020091F08602EE0B6F5C6
:10120000A05F02D94FF4A05000E0304685B20F989D
:1012100001280BD1002406E0BAF80000154921F896
:101220001400601C84B2AC42F6DB0EE000240AE03D
:101230000BEB8B000AEBC02030F814000D4921F8AD
:101240001400601C84B2AC42F2DB2946094800F06D
:1012500073FB761B0BF101001FFA80FB002ECED131
:101260004FF400700249091F0860BDE8FF9F0000AD
:10127000140C01401400002000B585B000BF1C48CC
:10128000806940F008001A4988610846806900F0CA
:101290000800009000BF00BF0320049001200290CE
:1012A00003904020019001A91248FFF72FF84FF456
:1012B0000070019001A90F48FFF728F880200190E5
:1012C00001A90C48FFF722F84FF48070019001A9A2
:1012D0000848FFF71BF84020064910310860C0009D
:1012E0000860802008604000086005B000BD000074
:1012F00000100240000C014010B500F0FDF9FFF7AE
:10130000BBFF00F0C1F8362000F02EF9002000F0FD
:1013100017F93A2000F028F9052000F011F9B22061
:1013200000F022F90C2000F00BF90C2000F008F975
:10133000002000F005F9332000F002F9332000F01E
:10134000FFF8B72000F010F9352000F0F9F8BB20C5
:1013500000F00AF9172000F0F3F8C02000F004F9BB
:101360002C2000F0EDF8C22000F0FEF8012000F083
:10137000E7F8C32000F0F8F8122000F0E1F8C420EC
:1013800000F0F2F8202000F0DBF8C62000F0ECF8C6
:101390000F2000F0D5F8D02000F0E6F8A42000F0EF
:1013A000CFF8A12000F0CCF8E02000F0DDF8D0204C
:1013B00000F0C6F8042000F0C3F80D2000F0C0F8DB
:1013C000112000F0BDF8132000F0BAF82B2000F037
:1013D000B7F83F2000F0B4F8542000F0B1F84C20EA
:1013E00000F0AEF8182000F0ABF80D2000F0A8F8DF
:1013F0000B2000F0A5F81F2000F0A2F8232000F039
:101400009FF8E12000F0B0F8D02000F099F8042017
:1014100000F096F80C2000F093F8112000F090F8FE
:10142000132000F08DF82C2000F08AF83F2000F007
:1014300087F8442000F084F8512000F081F82F2034
:1014400000F07EF81F2000F07BF81F2000F078F8F5
:10145000202000F075F8232000F072F8212000F021
:1014600083F8112000F080F8292000F07DF800209A
:1014700000F0B6F84020034908604FF6FF70FFF710
:101480006BFE10BD100C014010B54FF48070074981
:101490000860142000F08CFA4FF480700349091F93
:1014A0000860142000F084FA10BD0000140C014004
:1014B0002DE9F04104460D4616461F461F49887A1D
:1014C00000F052F81D49897B2144C1F3072000F048
:1014D00037F81A49897B2144C8B200F031F817491E
:1014E000897B3144C1F3072000F02AF81349897B36
:1014F0003144C8B200F024F81049087B00F034F8F9
:101500000E49C97B2944C1F3072000F019F80B49A3
:10151000C97B2944C8B200F013F80849C97B394493
:10152000C1F3072000F00CF80449C97B3944C8B264
:1015300000F006F800F02CF8BDE8F0811428002037
:1015400010B504464FF40070064908608020091F5A
:101550000860204600F0C6F94FF400700149091FE9
:10156000086010BD140C014010B504464FF4007023
:101570000649086080200860204600F0B3F94FF467
:1015800000700249091F086010BD0000140C0140E2
:1015900010B50249087AFFF7E7FF10BD14280020B4
:1015A00070B505460C462846FFF7DEFFE0B2FFF7B0
:1015B000C7FF70BD70B504460D464FF40070074973
:1015C00008608020091F08602946204600F0A6F91F
:1015D0004FF400700149091F086070BD140C0140F0
:1015E00010B504462A20294948812B2088812C20C7
:1015F00008812046E11704EB91718910A4EB810169
:10160000224A91711046807930B1012811D0022808
:101610001CD0032836D127E0F0201C490880C620C2
:10162000488000208873C87300213620FFF7B8FF78
:1016300029E0C62015490880F020488000208873E2
:10164000C87360213620FFF7ABFF1CE0F0200F4984
:101650000880C6204880002088737A20C873C02183
:101660003620FFF79DFF0EE0C62008490880F020D5
:1016700048807A2088730020C873A0213620FFF7A5
:101680008FFF00E000BF00BF10BD00001428002045
:1016900000BFFEE77047704708B5002000900A4879
:1016A0004388028800210846FFF76CFD07484D2358
:1016B0005F225A2100903220FEF70DFE4FF4966013
:1016C00000F076F908BD0000142800202827000843
:1016D00008B508490968C9084FF47A72B1FBF2F1FC
:1016E0004143009100BF00BF00994A1E00920029AB
:1016F000F9D108BD0000002008B500BF1848806976
:1017000040F48050164988610846806900F4805092
:10171000009000BF00BF1348134908604FF4827067
:101720004860002110488160C160022101610121EF
:101730004161490281610021C161016241628162AE
:101740000721C162FFF764FB07480068006840F0AA
:101750004000054909680860FF2000F0C3F808BD93
:10176000001002400030014024280020F8B5044653
:101770000D4616462B46002280212046009600F09A
:1017800045F828B1606D40F0200060650320F8BD89
:101790000020FCE74FF400610C48C160006800685D
:1017A00020F040000949096808600848006800689E
:1017B00040F4006005490968086004480068006852
:1017C00040F0400001490968086070472428002063
:1017D00000210D48C1600068006820F040000A49FF
:1017E0000968086008480068006820F4006006493D
:1017F0000968086004480068006840F04000024939
:101800000968086070470000242800202DE9F84F7F
:1018100004460D4690461E46DDF82890FEF716FF5A
:10182000A0EB0900371AFEF711FF82462C4800682A
:10183000C0F3CB307843009045E0701C002842D0C4
:10184000FEF704FFA0EB0A00B84200D2A7BB206855
:10185000406820F0E000216848606068B0F5827F51
:101860000DD1A068B0F5004F03D0A068B0F5806F2F
:1018700005D12068006820F0400021680860A06A57
:10188000B0F5005F0DD100BF2068006820F4005063
:10189000216808602068006840F4005021680860F2
:1018A00000BF012084F8510000BF002084F85000E0
:1018B00000BF0320BDE8F88FFFE7009800B90027BC
:1018C0000098401E0090206880682840A84201D1FE
:1018D000012000E000204045AFD10020EAE70000F1
:1018E00000000020014600BF0B480068806800F03F
:1018F00002000028F8D008480068C16000BF064810
:101900000068806800F001000028F8D002480068F4
:10191000C068C0B2704700002428002070B504469B
:101920000D46AAB24FF47A7321460248FFF704FB32
:1019300070BD00002428002070B504460D46FFF756
:1019400029FFAAB24FF47A7321460348FFF7F4FA4D
:10195000FFF73EFF70BD000024280020704710B53F
:10196000FEF77AFE10BD704700BFFEE70248006830
:10197000C0F30220704700000CED00E010B5002815
:1019800004DB0A07130E054A135406E00A07140E77
:10199000034A00F00F031B1FD45410BD00E400E005
:1019A00018ED00E0014908607047000004000020C5
:1019B00010B504464FF47A7104FB01F000F002F810
:1019C00010BD000070B5034600224FF0E026756997
:1019D0000D4E366803FB06F44FF0E026B16910E0C7
:1019E0004FF0E026B06988420BD0884202D20E1A2E
:1019F000324402E02E1A0E4432440146A24200D381
:101A000000E0EDE700BF70BD04000020FEF730FEEF
:101A10004FF4E01000F009F84820FFF7C3FFFFF78C
:101A20006BFC01E0FFF738FEFCE730B58FB00546F0
:101A30000124282105A8FEF7E9FB14216846FEF7DA
:101A4000E5FB01200590000406900020079002208D
:101A50000C90C1030D910E9505A8FEF7A7FF044653
:101A60000CB100BFFEE70F20009002200190002083
:101A700002904FF480600390002004900221684699
:101A8000FEF784FE04460CB100BFFEE70FB030BD88
:101A9000000000000000000001020304060708091E
:101AA0000000000001020304FFFFFFFFFFFFFFFF34
:101AB000FFFFFFFFFFFFFFFFFFFFFFFFFFFFFFFF36
:101AC000FFFFFFFFFFFFFFFFFFFFFFDEC6388C9227
:101AD0006B8E6B6E7C10AD96E73CFFFFFFFFFFFF48
:101AE000FFFFFFFFFFFFFFFFFFFFFFFFFFFFFFFF06
:101AF000FFFFFFFFFFFFFFFFFFFFFFFFFFFFFFFFF6
:101B0000FFFFFFFFFFFFFFFFFFFFFFFFFFFFFFFFE5
:101B1000FFFFFFFFFFFFEF5D9D15634F426C320A31
:101B2000298819461925214531E86B8EBE18FFFF1B
:101B3000FFFFFFFFFFFFFFFFFFFFFFFFFFFFFFFFB5
:101B4000FFFFFFFFFFFFFFFFFFFFFFFFFFFFFFFFA5
:101B5000FFFFFFFFFFFFFFFFFFFFFFFFFFFFFFFF95
:101B6000FFFFFFDF9CF5530F4B1053514B0F3A6CA7
:101B700031E92167192510E408A3006208834A8A25
:101B8000C659FFFFFFFFFFFFFFFFFFFFFFFFFFFF44
:101B9000FFFFFFFFFFFFFFFFFFFFFFFFFFFFFFFF55
:101BA000FFFFFFFFFFFFFFFFFFFFFFFFFFFFFFFF45
:101BB000E71C5B4F63B37CB863F54311324D29EAF0
:101BC00021881926190519051104110410E4008350
:101BD00008A38C72FFFFFFFFFFFFFFFFFFFFFFFF68
:101BE000FFFFFFFFFFFFFFFFFFFFFFFFFFFFFFFF05
:101BF000FFFFFFFFFFFFFFFFFFFFFFFFFFFFDEDB3A
:101C00003A4B42F06C354B5432B12A2E21EB21A9CC
:101C1000196719051104110411041104110419059F
:101C200010E4004273AFFFFFFFFFFFFFFFFFFFFF66
:101C3000FFFFFFFFFFFFFFFFFFFFFFFFFFFFFFFFB4
:101C4000FFFFFFFFFFFFFFFFFFFFFFFFEF5D320919
:101C5000324C4B10328F2A4F2A2E19CC19892189E8
:101C6000194719051104110410C410C411041104FA
:101C7000110410E400428431FFFFFFFFFFFFFFFF6C
:101C8000FFFFFFFFFFFFFFFFFFFFFFFFFFFFFFFF64
:101C9000FFFFFFFFFFFFFFFFFFFFFFFF52EC1947B2
:101CA000324C2A0B21EC21EC220C5B914AEE1106FE
:101CB0001926190410E410E429A7216608A31905C0
:101CC0001104110410E40082BDF7FFFFFFFFFFFFC6
:101CD000FFFFFFFFFFFFFFFFFFFFFFFFFFFFFFFF14
:101CE000FFFFFFFFFFFFFFFFFFFFA53508832188F0
:101CF0002188218921AA218A426B8C71FFFF8C7275
:101D00000883110408C44229DEFBEF5D5AEC088306
:101D1000110411041104088331E8FFDFFFFFFFFF06
:101D2000FFFFFFFFFFFFFFFFFFFFFFFFFFFFFFFFC3
:101D3000FFFFFFFFFFFFFFFFF7BE31C710C41925EC
:101D400019261947194729A8528A4A28AD55FFFF75
:101D500031E808A319056B4D6B4DFFFFEF7D214561
:101D600010C41104110411040062AD76FFFFFFFFDF
:101D7000FFFFFFFFFFFFFFFFFFFFFFFFFFFFFFFF73
:101D8000FFFFFFFFFFFFFFFFB5960062110419047C
:101D90001105190508C44A8BB5B6EF5DBDF7FFFF05
:101DA0006B8E006242295AAA4208FFFFFFFF52CC05
:101DB000088311041104110408A352ADFFFFFFFFB3
:101DC000FFFFFFFFFFFFFFFFF7BEFFFFFFDFDEDBD1
:101DD000FFFFFFFFFFFFFFFF634E006211041104CE
:101DE000110410E40062638EFFFFFFFFFFFFFFFF9F
:101DF00073CF00019CF3632CB596FFFFFFFF5B2DB3
:101E0000008311041104110410E42167EF3DFFFF6A
:101E1000FFFFFFFFFFFFFFFFB5B7AD76EF7D52CBB2
:101E200094B3FFFFFFFFFFDF31E808A311041104A3
:101E30001104110408A34249F7FFF7FFFFFFFFFF5A
:101E40004A6A00018472FFFFFFFFF7FFEFDF3A09E4
:101E500008A311041104110411041105BE18FFFF99
:101E6000FFFFFFFFFFFFFFFF7BF0006231E831C79C
:101E70000041A535FFFFEF5D214610C41104110498
:101E80001104110410E408A39D76F7FFFFFFADB71E
:101E900008A308A331C7E79EF7FFF7FFA57608A3BD
:101EA00010E411041104110411051105A535FFFFFB
:101EB000FFFFFFFFFFFFFFFFDEDB29A7008310C44A
:101EC00010C410C4E71CEF9E110510E411041104A6
:101ED00011041104190408C410E56BD16BD108C5B5
:101EE000006408A50043322B9D7784B3192510C4E4
:101EF0001104110411041104192509269D35FFFF51
:101F0000FFFFFFFFFFFFFFFFFFFF73AF006219043A
:101F1000190500825B0D9B8E1062110511041104DE
:101F2000190410E40085110539C45A817B409C22B4
:101F3000AC43A4039B837282498218C200A400C5EB
:101F400010E4190411041905194711675AECFFBE72
:101F5000FFFFFFFFFFFFFFFFFFDFD6DB10C410E432
:101F60001104110518A4C001888300E4190519049F
:101F700008C521448343D523FE42FEE4FF27FF0723
:101F8000FEA4FE64FE03FDA3FCE2EC42B3836224E4
:101F900010E508C41904192619A821879000BCD39C
:101FA000FFFFFFFFFFFFFFFFFFFFFFFF7BF0004290
:101FB000190511052883D001F84448A300E408C599
:101FC0005A44ED02FDE2FE02FE66FF74FFB8FF73A5
:101FD000F6E7F6A6F645F5A4FCC3FC62FCC2FCC21B
:101FE000CBE349C411061988018790A4F8019AEC43
:101FF000FFFFFFFFFFFFFFFFFFFFFFFFF79E31E83F
:10200000008309054082C001F823F08548A300A49D
:102010005A44FD02CC23DCC2FE04FE28F648F646F4
:10202000F624F5E4FD64FCE3FC62FCC2E402DC029D
:10203000FCE27AA40148016778C4F824F802B0846D
:10204000E77DFFFFFFFFFFFFFFFFFFFFFFFFDEDB7F
:10205000192500A338C4E002D822F844F8A678A4D1
:1020600000632143728339839B82F521FD61FD2248
:10207000FCE2FCA2FC42FC42FC42AB22418392C344
:1020800052040126192598A4F844F823F802D0A494
:10209000EF9EFFFFFFFFFFFFFFFFFFFFFFFFFFFFC1
:1020A000D69A298700A5B843F822E023F865F8E816
:1020B000C9074883004200A3008429637AA2B3625F
:1020C000CBA2D362BB028A82398300A400E500E57B
:1020D00008E560C4D864F844F824F823F80288833B
:1020E000C6DBFFFFFFFFFFFFFFFFFFFFFFFFFFFF5D
:1020F000FFFFE73D5B503108E823F843F044F86503
:10210000F909F9ABD189890648A3184200020042B7
:102110000061008200620062008320A350C488A591
:10212000D885F865F844F844F823F823D0031082E2
:1021300029C7EF5DFFFFFFFFFFFFFFFFFFFFFFFF6F
:10214000FFFFFFFFFFFF326C38A5D802F823F865C8
:10215000F866F8A7F94AFA0CFA4DEA4CD20BB9A97D
:10216000B168A947B127B907D107E8E7F8C7F8A7C9
:10217000F865F865F844F823F803D00228A30905A8
:1021800008C45AECFFFFFFFFFFFFFFFFFFFFFFFF49
:10219000FFFFFFFFDEFB190500C441A7C0E6F803FF
:1021A000F886F8A7F887F886F8C7F929F98AF9AB0D
:1021B000F9ABF98BF96AF929F908F8C7F8A6F88696
:1021C000F865F864F823F002B106292500E410E46C
:1021D000192519259D14FFFFFFFFFFFFFFFFFFFFDC
:1021E000FFFFFFFFAD96006208829535CEBAA28B45
:1021F000D044F825F887F8A7F8C7F8A7F887F88635
:10220000F886F886F887F8A7F8A7F8A6F885F8659D
:10221000F864F024B864930DB6BB63CF088311044F
:1022200010E421663A49EF5DFFFFFFFFFFFFFFFF6C
:10223000FFFFFFFF94D3004210E4CEBBFFFFE7BED9
:10224000B576AACCC107E045F845F846F866F886A9
:10225000F886F886F886F865F845F865E865D044AC
:10226000A84388019082D73CEFFF9555088311045D
:1022700011041905194694B3FFFFFFFFFFFFFFFF8D
:10228000FFFFFFFF94B300412186DF5DFFFFFFFFEB
:10229000FFFFE7DFC67AB4D3B34EC22AD168E0E6C7
:1022A000E8A6E8A5E8A5D8E6C988A906A822A80254
:1022B000A000C800D800E5F7E7FFADF810C410E4AF
:1022C000110410E411054A8BFFFFFFFFFFFFFFFF22
:1022D000FFFFFFFFA555004129A7DF5DF7FFFFFFC7
:1022E000FFFFFFFFFFFFFFFFEFFFDF7DCEDBCE59DC
:1022F000CDF8CDD7C5F7CE79BEFBA2ABF003F8453C
:10230000D042E843F000D472DFFFAE3910E410E4AD
:10231000110410E411052987FFFFFFFFFFFFFFFFF6
:10232000FFFFFFFFCE5908832146D71CF7FFFFFFB1
:10233000FFFFFFFFFFFFFFFFFFFFFFFFFFFFFFFFAD
:10234000FFFFFFFFFFFFFFFFEFFFBA8BF804F84529
:10235000E062F044F800DB8EDFFFA5F810C410E463
:1023600010E4110410E41925FFFFFFFFFFFFFFFF3A
:10237000FFFFFFFFF7BE29870883B639F7FFF7DFB6
:10238000FFFFFFFFFFFFFFFFFFFFFFFFFFFFFFFF5D
:10239000FFFFFFFFFFFFFFFFE7BEBA4AF803F84564
:1023A000F864F844F800E36ED7FF8CF40883110456
:1023B00010E410E410E41905FFFFFFFFFFFFFFFF2B
:1023C000FFFFFFFFFFFF73EF00008472EFFFEFBE20
:1023D000FFDFFFFFFFFFFFFFFFFFFFFFFFFFFFFF2D
:1023E000FFFFFFFFFFFFFFFFE7DFBA8BF803F845B2
:1023F000F845F823F800D4D3D7FF5B4E00213A29E3
:10240000A555088310C41925FFFFFFFFFFFFFFFF3D
:10241000FFFFFFFFFFFFDEFB08A331E8DF9EE79E23
:10242000EFBFFFFFFFFFFFFFFFFFFFFFFFFFFFFF0C
:10243000FFFFFFFFFFFFFFFFF7FFBC51E002F803C4
:10244000F003E043C2ECCF7EBEFC2146002194D3D2
:10245000FFFF845100002987FFFFFFFFFFFFFFFF01
:10246000FFFFFFFFFFFFFFFF845100008CF4EFFF31
:10247000E79EEFBFFFDFFFFFFFFFFFFFFFFFFFFF55
:10248000FFFFFFFFFFFFFFFFFFFFDF3DBD55BC521A
:10249000BC72B5B7C75DDFFF6BF000003A09F7BF4C
:1024A000FFFFFFFF9D14A555FFFFFFFFFFFFFFFF8D
:1024B000FFFFFFFFFFFFFFFFFFFF4AAC08A4BEBB0B
:1024C000E7DFE77EEFBEF7DFFFDFFFFFFFFFFFFF86
:1024D000FFFFFFFFFFFFFFFFFFDFF7DFEFFFDFDFA4
:1024E000D7BFD79EDFDFA5D808831126D6DBFFFF35
:1024F000FFFFFFFFFFFFFFFFFFFFFFFFFFFFFFFFEC
:10250000FFFFFFFFFFFFFFFFEE79DC8B312121A9E9
:10251000CF3DDFBFDF7EE79EEFBEEFBFF7DFF7DF28
:10252000F7DFF7DFF7DFEFBFEFBEE79EDF7ED75EB7
:10253000D75EDFDFB69A19260842A3EDFFBFFFFF83
:10254000FFFFFFFFFFFFFFFFFFFFFFFFFFFFFFFF9B
:10255000FFFFFFFFFFFFDD74DBC0FE00EE42420223
:102560002189B67BDFDFD77EDF7EDF7EE79EE79EB9
:10257000E79EE79EE79EDF7EDF7ED75DD75DDF9E2D
:10258000E7FFA5F8110718E3C502FD60D3E6EEDB0F
:10259000FFFFFFFFFFFFFFFFFFFFFFFFFFFFFFFF4B
:1025A000FFFFFFFFF79EBA84FCC1FE42FE82FEA23F
:1025B000838121457474C75EDFDFD77ED75ED75D28
:1025C000D75ED75ED75DD75DD75EDF9EE7FFC73D9D
:1025D00063F108845242E626FF29FE86F3E0C36ACF
:1025E000FFFFFFFFFFFFFFFFFFFFFFFFFFFFFFFFFB
:1025F000FFFFFFFFDE18D2C1FDA2FE22FE42FE4217
:10260000FE62D4E26A4142497453A63BC73ED7BF3B
:10261000D7BFD7BFDFBFD7BFC73EA61A63F229A770
:102620004182B422FE62FE83FEAAFF0FFD67BA63F9
:10263000EF3CFFFFFFFFFFFFFFFFFFFFFFFFFFFF7D
:10264000FFFFFFFFE69AD280FD21FDC2F5E2F5C251
:10265000F582FD82FD62DC619B216A846AE9632C5C
:1026600063AF7411636E632C5A8952047A81CBC2B2
:10267000FCE2FD62FD82FDC2FDC2FDE4FD24CA62F2
:10268000E71CFFFFFFFFFFFFFFFFFFFFFFFFFFFF55
:10269000FFFFFFFFFFFFCCB1D281F3C0FCC1FD0201
:1026A000FD02FCE2FCC2FCC2FC81FB80C9C081A42B
:1026B000AD35CE599C718121DA00FBA1FC82FCA2D0
:1026C000FC82FCA2FD02FD22FCE2FC00DA60CC9060
:1026D000FFFFFFFFFFFFFFFFFFFFFFFFFFFFFFFF0A
:1026E000FFFFFFFFFFFFFFFFDE59C40DCB06D2E463
:1026F000DB03DB03DAE3D2C3C2A4B309BCD2F79E87
:10270000FFFFFFFFFFFFE6FBB40EBAA6D283E2E3B2
:10271000EB02EB22E322DB03D2E4C36AD5B6FFFF70
:10272000FFFFFFFFFFFFFFFF74E374E374E374E355
:1027300074E374E374E374E374E374E374E374E3E1
:1027400074E374E374E374E374E374E374E374E3D1
:1027500074E374E374E374E374E374E374E374E3C1
:1027600074E374E374E374E374E374E374E374E3B1
:1027700074E374E374E374E374E374E374E374E3A1
:1027800074E374E374E374E374E374E374E374E391
:1027900074E374E374E374E374E374E374E374E381
:1027A00074E374E374E374E374E374E374E374E371
:1027B00074E374E374E374E374E374E374E374E361
:1027C00074E374E374E374E374E374E374E374E351
:1027D00074E374E374E374E374E374E374E374E341
:1027E00074E374E374E374E374E374E374E374E331
:1027F00074E374E374E374E374E374E374E374E321
:1028000074E374E374E374E374E374E374E374E310
:1028100074E374E374E374E374E374E374E374E300
:1028200074E374E374E374E374E374E374E374E3F0
:1028300074E374E374E374E374E374E374E374E3E0
:1028400074E374E374E374E374E374E374E374E3D0
:1028500074E374E374E374E374E374E374E374E3C0
:1028600074E374E374E374E374E374E374E374E3B0
:1028700074E374E374E374E374E374E374E374E3A0
:1028800074E374E374E374E374E374E374E374E390
:1028900074E374E374E374E374E374E374E374E380
:1028A00074E374E374E374E374E374E374E374E370
:1028B00074E374E374E374E374E374E374E374E360
:1028C00074E374E374E374E374E354EB74EB74E360
:1028D00074E374E374E374E374E374E374E374E340
:1028E00074E374E374E374E374E374E374E374E330
:1028F00074E374E374E374E374E374E374E374E320
:1029000074E374E374E374E374E374E374E374E30F
:1029100074E374E374E374E374E374E374E374E3FF
:1029200074E374E374E374E374E374E374E374E3EF
:1029300074E374E374E374E374E374E374E374E3DF
:1029400074E374E374E374E374E374E374E374E3CF
:1029500074E374E374E374E374E374E374E374E3BF
:1029600074E374E374E374E374E374E374E374E3AF
:1029700074E374E374E374E374E374E374E374E39F
:1029800074E374E374E374E354EB54EB54E354E3FF
:1029900054E354E374E374E374E374E374E374E3BF
:1029A00074E374E374E374E374E374E374E374E36F
:1029B00074E374E374E374E374E374E374E374E35F
:1029C00074E374E374E374E374E374E374E374E34F
:1029D00074E374E374E374E374E374E374E374E33F
:1029E00074E374E374E374E374E374E374E374E32F
:1029F00074E374E374E374E374E374E374E374E31F
:102A000074E374E374E374E374E374E374E374E30E
:102A100074E374E374E374E374E374E374E374E3FE
:102A200074E374E374E374E374E374E374E374E3EE
:102A300074E374E374E374E374E374E354EB74E3F6
:102A400054EB54EB54E354E354EB54E354E354E3B6
:102A500054E354EB54EB74E374E374E374E374E30E
:102A600074E374E374E374E374E374E374E374E3AE
:102A700074E374E374E374E374E374E374E374E39E
:102A800074E374E374E374E374E374E374E374E38E
:102A900074E374E374E374E374E374E374E374E37E
:102AA00074E374E374E374E374E374E374E374E36E
:102AB00074E374E374E374E374E374E374E374E35E
:102AC00074E374E374E374E374E374E374E374E34E
:102AD00074E374E374E374E374E374E374E374E33E
:102AE00074E374E374E374E374E374E374E374E32E
:102AF00074E374E374E354EB74E374E374E354E356
:102B000013E313E333E374E3B4E3B5E394E374E36F
:102B100013E313E334E354E374E374E374E374E31F
:102B200074E374E374E374E374E374E374E374E3ED
:102B300074E374E374E374E374E374E374E374E3DD
:102B400074E374E374E374E374E374E374E374E3CD
:102B500074E374E374E374E374E374E374E374E3BD
:102B600074E374E374E374E374E374E374E374E3AD
:102B700074E374E374E374E374E374E374E374E39D
:102B800074E374E374E374E374E374E374E374E38D
:102B900074E374E374E374E374E374E374E374E37D
:102BA00074E374E374E374E374E374E374E374E36D
:102BB00074E374E374E354E333E3F2E253E315E4C0
:102BC000F8ECBAED3BF67CF69CF65BF6FAED59EDC7
:102BD00056E474E3F3E213E354E374E374E374E35D
:102BE00074E374E374E374E374E374E374E374E32D
:102BF00074E374E374E374E374E374E374E374E31D
:102C000074E374E374E374E374E374E374E374E30C
:102C100074E374E374E374E374E374E374E374E3FC
:102C200074E374E374E374E374EB54EB33E313E39E
:102C300013E313E313E313E333EB54EB74EB74E3A9
:102C400074E374E374E374E374E374E374E374E3CC
:102C500074E374E374E374E374E374E374E374E3BC
:102C600074E374E374E374E354EB74E374E374E3C4
:102C700074E354E333E374E336EC58ED5BF63EFF64
:102C8000DFFFFFFFFFFFFFFFFFFFFFFF9EFFBCF621
:102C90009AEDB7E4B4E333E354E374E374EB54E341
:102CA00074E374E374E374E374E374E374E374E36C
:102CB00074E374E374E374E374E374E374E374E35C
:102CC00074E374E374E374E374E374E374E374E34C
:102CD00074E374E374E374E374E374E374E374EB34
:102CE00074EB54EB34E333E333E374E3B5E3D5E35C
:102CF000D5E3B5E394E354E313E333E354E374EB34
:102D000074E374E374E374E374E374E374E374E30B
:102D100074E374E374E374E374E374E374E374E3FB
:102D200074E374E374E354EB74E374E374E354E323
:102D300033E3B5E338EDDCF6FFFFFFFFFFFFFFFFF6
:102D4000FFFFFFFFFFFFFFFFFFFFFFFFFFFFFFFF93
:102D50007EF7BAEDF5E313E354E354EB54EB74E37D
:102D600074E374E374E374E374E374E374E374E3AB
:102D700074E374E374E374E374E374E374E374E39B
:102D800074E374E374E374E374E374E374E374E38B
:102D900074E374E374E374E374E374E354EB54E3B3
:102DA00054EB74E3B5E356E418EDBAEDFBEDFAED40
:102DB000DAED79EDB7E4D5E374E354E334EB54E3AF
:102DC00074E374E374E374E374E374E374E374E34B
:102DD00074E374E374E374E374E374E374E374E33B
:102DE00074E374E374E374E354EB54EBF3E274E3DD
:102DF00099EDDFFFFFFFFFFFFFFFFFFFFFFFFFFF7B
:102E0000FFFFFFFFFFFFFFFFFFFFFFFFFFFFFFFFD2
:102E1000DFFF1AF6B4E313E354E374E374E374E3FB
:102E200074E374E374E374E374E374E374E374E3EA
:102E300074E374E374E374E374E374E374E374E3DA
:102E400074E374E374E374E374E374E374E374E3CA
:102E500074E374E374E374E374E354E313E333E37C
:102E600097E45BEE5EFFDFFFDFFFDFFFDFFFDFFFEB
:102E7000DFFF9FFFBCF679EDD5E313E333E354EBBB
:102E800074EB74E374E374E374E374E374E374E382
:102E900074E374E374E374E374E374E374E374E37A
:102EA00074E374E374EB54EB33E3D5E3DAF57EFFBC
:102EB000FFFFFFFFFFFFFFFFFFFFFFFFFFFFFFFF22
:102EC000FFFFFFFFFFFFFFFFFFFFFFFFFFFFFFFF12
:102ED000BFFF3BF635E453E333E374EB74EB74E389
:102EE00074E374E374E374E374E374E374E374E32A
:102EF00074E374E374E374E374E374E374E374E31A
:102F000074E374E374E374E374E374E374E374E309
:102F100074E374E374EB33E353E396ECDAF51DF7F3
:102F2000BFFFFFFFFFFFFFFFFFFFFFFFFFFFFFFFF1
:102F3000FFFFDFFF7EFFBCF658EDD4E3F2E254E37F
:102F400074E374E374E374E374E374E374E374E3C9
:102F500074E374E374E374E374E374E374E374E3B9
:102F600074EB54EB33E3B4E31AEE9FFFFFFFFFFF74
:102F7000FFFFFFFFFFFFFFFFFFFFFFFFFFFFFFFF61
:102F8000FFFFFFFFFFFFFFFFFFFFFFFFFFFFFFFF51
:102F9000DFFF9BF615E413E354EB74EB74E374E387
:102FA00074E374E374E374E374E374E374E374E369
:102FB00074E374E374E374E374E374E374E374E359
:102FC00074E374E374E374E374E374E374E374E349
:102FD00074E313E354E3F7ECFCF6DFFFFFFFFFFFBE
:102FE000FFFFFFFFFFFFFFFFFFFFFFFFFFFFFFFFF1
:102FF000FFFFFFFFFFFF7EFF1AEE15E433E333E32D
:1030000074E374E374E374E374E374E374E374E308
:1030100074E374E374E374E374E374E374E374E3F8
:1030200033E394E338EDBFFFFFFFFFFFFFFFFFFF38
:10303000FFFFFFFFFFFFFFFFFFFFFFFFFFFFFFFFA0
:10304000FFFFFFFFFFFFFFFFFFFFFFFFFFFFFFFF90
:10305000FFFF99ED94E313E374E374E374E374E323
:1030600074E374E374E374E374E374E374E374E3A8
:1030700074E374E374E374E374E374E374E374E398
:1030800074E374E374E374E374E374E374E354E3A8
:1030900054E3D7E41DF7FFFFFFFFFFFFFFFFFFFF34
:1030A000FFFFFFFFFFFFFFFFFFFFFFFFFFFFFFFF30
:1030B000FFFFFFFFFFFFFFFF5BEE56E454E334E347
:1030C00074E374E374E374E374E374E374E374E348
:1030D00074E374E374E354EB54EB74E354E354E3A8
:1030E000B7E43EF7FFFFFFFFFFFFFFFFFFFFFFFF1C
:1030F000FFFFFFFFFFFFFFFFFFFFFFFFFFFFFFFFE0
:10310000FFFFFFFFFFFFFFFFFFFFFFFFFFFFFFFFCF
:103110003EFFD8EC13E354E374E374E374E374E325
:1031200074E374E374E374E374E374E374E374E3E7
:1031300074E374E374E374E374E374E374E374E3D7
:1031400074E374E374E374E374E354E333E3D7E4C4
:103150001DF7FFFFFFFFFFFFFFFFFFFFFFFFFFFF69
:10316000FFFFFFFFFFFFFFFFFFFFFFFFFFFFFFFF6F
:10317000FFFFFFFFFFFFFFFFBCF656EC13E354E336
:1031800054EB74E374E374E374E374E374E374E39F
:1031900074E374E374E374E374EBF3E256E49CF6D3
:1031A000FFFFFFFFFFFFFFFFFFFFFFFFFFFFFFFF2F
:1031B000FFFFFFFFFFFFFFEF5ECF1DB71DAF5EBF3D
:1031C000BFE7FFFFFFFFFFFFFFFFFFFFFFFFFFFF67
:1031D0005BF616E413E354E374E374E354EB74E333
:1031E00074E374E374E374E374E374E374E374E327
:1031F00074E374E374E374E374E374E374E374E317
:1032000074E374E374E334E333E3F5E3BCF6FFFF04
:10321000FFFFFFFFFFFFFFFFFFFFFFFFFFFFFFFFBE
:10322000FFFFFFFFFFFFFFFFFFFFFFFFFFFFFFFFAE
:10323000FFFFFFFFFFFFDFFF3BF6F5E3F3E274E381
:1032400054EB54EB74E374E374E374E374E374EBEE
:1032500074E374E374E353EB53E399EDDFFFFFFF93
:10326000FFFFFFFFFFFFFFFFFFFFFFFFFFFFFFFF6E
:103270007ECFDD961C5E9C457C357C359C3DFC55A7
:103280009D863EC7FFF7FFFFFFFFFFFFFFFFBFFF6A
:1032900079ED33E354E374E374E374E374E374E3C8
:1032A00074E374E374E374E374E374E374E374E366
:1032B00074E374E374E374E374E374E374E374EB4E
:1032C00074E374E313E374E3B9EDBFFFFFFFFFFFA3
:1032D000FFFFFFFFFFFFFFFFFFFFFFFFFFFFFFFFFE
:1032E000FFFFFFFFFFFFFFFFFFFFFFFFFFFFFFFFEE
:1032F000FFFFFFFFFFFFBFFFB9ED73E354E354E3AC
:1033000074E374E374E374E374E374E374EB74E3FD
:1033100074EB54EB13E355E4DCF6FFFFFFFFFFFF14
:10332000FFFFFFFFFFFFFFFFFFFF9FDFBD9EFD557C
:103330003C1DBC04BC04BC04BC049C04BB04FC0CCD
:103340009D459D867ED7FFFFFFFFFFFFFFFFBCF679
:10335000D4E353E354E374EB74E374E374E374E38E
:1033600074E374E374E374E374E374E374E374E3A5
:1033700074E374E374E374E374E374E374EB74E38D
:1033800033E373E3B7EC5EFFFFFFFFFFFFFFFFFFD9
:10339000FFFFFFFF9FDF3EC71EB7FEA6FEA61DB7BD
:1033A0005EC7BFDFFFFFFFFFFFFFFFFFFFFFFFFF66
:1033B000FFFFFFFFFFFF5EF718ED54E354E354E314
:1033C00074E374E374E374E374E374E374E374EB3D
:1033D00054EB33E378ED9EFFFFFFFFFFFFFFFFFF9E
:1033E000FFFFFFFFFFFF9FD73C6EDB049C04BD0483
:1033F000FD041D051C051D051D05FD04DD04BC04A3
:10340000DC041D5E9FDFFFFFFFFFFFFF5EF7D7E4D9
:1034100053E333EB74EB74E374E374E374E374E346
:1034200074E374E374E374E374E374E374E374E3E4
:1034300074E374E374E374E374E374E374E313E335
:1034400035E49CF6FFFFFFFFFFFFFFFFFFFFDFEF0D
:103450001EB71C665B2D3C15FC0C1C0D3B1D7B3DFB
:103460005D765EC7DFF7FFFFFFFFFFFFFFFFFFFF98
:10347000FFFFFFFFFFFFFDF6F5E333E354EB74E3DB
:1034800074E374E374E374E374E374E374E354E3A4
:1034900094E37BF6FFFFFFFFFFFFFFFFFFFFFFFF50
:1034A000FFFFFFFF3D76FB0CDC04FD04FD04FD0483
:1034B000FD04FD04FD04FD04FD04FD04FD04DD0424
:1034C000FC0C1C5EBFE7FFFFFFFF9EFFB9ED74E33E
:1034D00033E374E374E374E374E374E374E374E375
:1034E00074E374E374E374E374E374E374E374E324
:1034F00074E374E374E374E374E374E333E318EDA7
:10350000BFFFFFFFFFFFFFFFFFFF7ED73D763C259C
:10351000DC0CFC04FC04FD04FC04FC04DC04DC0CFA
:103520007C2D9D86BFE7FFFFFFFFFFFFFFFFFFFF33
:10353000FFFFFFFF7EFFF7EC73E333E374EB74E30D
:1035400074E374E374E374E374E333E354E3B7E4E0
:103550003DFFFFFFFFFFFFFFFFFFFFFFFFFFDFEF6D
:103560005D7E3C1DBC04FD041D051D051D051D05DE
:10357000FD04FD04FD04FD04FD04FD041D05DC0443
:103580001C153D669FE7FFFFFFFFDCF615E433E304
:1035900054EB74E374E374E374E374E374E374E38B
:1035A00074E374E374E374E374E374E374E374E363
:1035B00074E374E374E374E333E3B4E3FAF5FFFF15
:1035C000FFFFFFFFFFFF1EAFBC451C15DC04FD0421
:1035D000FC04FD04FD04FD04FD04FD04DC04DC0426
:1035E0001C1DDC553EBFFFFFFFFFFFFFFFFFFFFF7E
:1035F000FFFFDFFFBCF615DC13E354EB74E374E369
:1036000074E374E374E374E313E394E3FAF5BFFF44
:10361000FFFFFFFFFFFFFFFFFFFFDFEFBE8E1C1D61
:10362000DC04FD041D051D051D051D051D05FD040E
:10363000FD04FD04FD04FD04FC041C05FD04BD04A3
:10364000FC0C1EAFFFFFFFFF9EFFB7E454E334EB1B
:1036500074EB74E374E374E374E374E374E374E3AA
:1036600074E374E374E374E374E374E374E374E3A2
:1036700074E374E374E3F3E256ECBCF6FFFFFFFF80
:10368000FFFF1EB79D3DDD04DC04FD041D051D0587
:103690001D05FD04FD041D051D051D05DD04BD04FE
:1036A000DC04BC453EB7FFFFFFFFFFFFFFFFFFFF4E
:1036B000FFFFFFFF38ED53E333E374E374E374E398
:1036C00074E374E354E333E315E4FDF6FFFFFFFF17
:1036D000FFFFFFFFFFFFFFFF3EBF5C2DDC04FD048B
:1036E0001D051D051D051D051D051D05FD04FD040C
:1036F000FD04FD04FD04FD041C051D05FD04BD04C1
:103700003D669FD7FFFFDFFF79ED94E313EB74EB8A
:1037100074E374E374E374E374E374E374E374E3F1
:1037200074E374E374E374E374E374E374E374E3E1
:1037300074E374E313E318ED5EFFFFFFFFFF5ECF5A
:10374000BC4D9C04FE041D051D051D051D05FD0445
:10375000FD04FD04FD04FD041D051D05FD04FD041F
:103760009B04DC4D5ECFFFFFFFFFFFFFFFFFFFFF6E
:10377000FFFF5BF615ECF3E274E374E374E374E3C8
:1037800074E353E353E397EC7EFFFFFFFFFFFFFF7C
:10379000FFFFFFFFFFF79D86BB04FD041D051D0510
:1037A000FD041D051D05FD04FD04FD04FD04FD04CF
:1037B000FD04FD04FD04FD041D05FD04FD043C1D88
:1037C000FEA6FFFFDFFF1BF6F5EB13E374EB74E3DC
:1037D00074E374E374E374E374E374E374E374E331
:1037E00074E374E374E374E374E374E374E354E341
:1037F00054E353E3DAEDFFFFFFFFFFF71D66DC0440
:10380000FD041D051D05FD04FC04FD041D05FD044E
:10381000FD04FD04FD04FD04FD04FD04FD04DD04C0
:10382000DC043C6EFFFFFFFFFFFFFFFFFFFFFFFF1A
:103830007EFFF8EC13E374E354EB74E374E374E396
:1038400033E374E338EDDFFFFFFFFFFFFFFFFFFF10
:10385000FFFF7EC7DC45BC04FD041D05FD04FD041F
:10386000FD04FD04FD04FD04FD04FD04FD04FD0450
:10387000FD04FD04FD04FD041D051D05BC043D768D
:10388000FFEFFFFFBDF636EC13E374EB74E374E374
:1038900074E374E374E374E374E374E374E374E370
:1038A00074E374E374E374E374E374E354E354E3A0
:1038B000B4E35BF6FFFFFFFF5EBF7D35BC041D0573
:1038C0001D05FD04FD04FD04FD04FD04FD04FD04CF
:1038D000FD04FD04FD04FD04FD04FD04FD04BC0421
:1038E0007C2D1EAFFFFFFFFFFFFFFFFFFFFFFFFF6E
:1038F000BAF553E354E354E374E374E374EB13E372
:10390000B4E3BAF5FFFFFFFFFFFFFFFFFFFFFFFF7D
:10391000BD8E3C15DD04FD041D051D05FD04FD04E3
:10392000FD04FD04FD04FD04FD04FD04FD04FD048F
:10393000FD04FD04FD041D051D059C04BC457EC75A
:10394000FFFF3EF797EC13E374EB74E374E374E367
:1039500074E374E374E374E374E374E374E374E3AF
:1039600074E374E374E374E374E354E334E316E45C
:10397000DDF6FFFFDFEF5D6E1C0DDC041D051D0590
:10398000FD04FD04FD04FD04FD04FD04FD04FD042F
:10399000FD04FD04FD04FD04FD041D05DD04FD0C16
:1039A000DC4D9FDFFFFFFFFFFFFFFFFFFFFF5BF629
:1039B000D5EB33E354E374E374E374EBF3E2F5E340
:1039C0003BF6FFFFFFFFFFFFFFFFFFFFDFEF1D568F
:1039D000DC04FD04FD04FD041D05FD04FD04FD04DF
:1039E000FD04FD04FD04FD04FD04FD04FD04FD04CF
:1039F000FD04FD041D051D05DC045C25DD96FFFFAF
:103A00007EFFB7EC13E374EB74E374E374E374E3E5
:103A100074E374E374E374E374E374E374E374E3EE
:103A200074E374E374E374E333E333E397EC1DFF6F
:103A3000FFFF5EC75C25DC04FD041D051D05FD04BC
:103A4000FD04FD04FD04FD04FD04FD04FD04FD046E
:103A5000FD04FD04FD04FD04FD041D05DD041C152D
:103A6000DD9EDFF7FFFFFFFFFFFFFFFFBCF656EC19
:103A700013EB54EB74E374E374E3F3E215E47BF6C5
:103A8000FFFFFFFFFFFFFFFFFFFF3EBF9C35BC04B2
:103A90001D05FD04FD04FD04FD04FD04FD04FD04FD
:103AA000FD04FD04FD04FD04FD04FD04FD04FD040E
:103AB000FD041D051D05FD041C0D7D7EFFFF7EFF21
:103AC000B7EC13E374EB74E374E374E374E374E34B
:103AD00074E374E374E374E374E374E374E374E32E
:103AE00074E374E374E333E333E318ED7EFFFFEF35
:103AF0009D96FC0CDD041D05FD041D051D05FD0442
:103B0000FD04FD04FD04FD04FD04FD04FD04FD04AD
:103B1000FD04FD04FD04FD041D05DD04FC04DC4D75
:103B20007ED7FFFFFFFFFFFFFFFFFDF6B7EC13EBB4
:103B300054EB74E374E374EBF3E216E49CF6FFFFDA
:103B4000FFFFFFFFFFFFFFFFDE9E5C25BC04FD04BF
:103B5000FD04FD04FD04FD04FD04FD04FD04FD045D
:103B6000FD04FD04FD04FD04FD04FD04FD04FD044D
:103B7000FD041D05FD04FC043D6EFFFF9FFFD7EC17
:103B800033E354EB74E374E374E374E374E374E3D6
:103B900074E374E374E374E374E374E374E374E36D
:103BA00074E374E333E353E359ED9EFFBFDF1D6617
:103BB000FC04DD041D05FD04FD04FD04FD04FD04FD
:103BC000FD04FD04FD04FD04FD04FD04FD04FD04ED
:103BD000FD04FD04FD04FD04FD04FC043C253EBF82
:103BE000FFFFFFFFFFFFFFFF3DFFF7EC33E374EB49
:103BF00074E374E374EBF3E236ECBCF6FFFFFFFF13
:103C0000FFFFFFFFFFFF3D761C15DD04FD04FD04F3
:103C1000FD04FD04FD04FD04FD04FD04FD04FD049C
:103C2000FD04FD04FD04FD04FD04FD04FD041D056B
:103C30001D05FD04DC041D5EFFFF9EFFD7EC13E3B2
:103C400074EB74E374E374E374E374E374E374E3B4
:103C500074E374E374E374E374E374E374E374E3AC
:103C600074E333E354E379F5BEFF9FC7BC35FD042D
:103C7000DD04FD04FD04FD04FD04FD04FD04FD045C
:103C8000FD04FD04FD04FD04FD04FD04FD04FD042C
:103C9000FD04FD041D05FD04FC04FC04DE9EFFFF85
:103CA000FFFFFFFFFFFF7EFF58ED33DB54EB74E3B4
:103CB00074E374EBF3E236ECBCF6FFFFFFFFFFFFAB
:103CC000FFFFFFF7FD5DFC04FD04FD04FD04FD04A2
:103CD000FD04FD04FD04FD04FD04FD04FD04FD04DC
:103CE000FD04FD04FD04FD04FD04FD041D051D058A
:103CF000FD04DC041D56FFF77EFFB7EC13E374EB05
:103D000074E374E374E374E374E374E374E374E3FB
:103D100074E374E374E374E374E374E374E374E3EB
:103D200033E354E399F5BFFF5FB75C1DFD04FD0469
:103D3000FD04FD04FD04FD04FD04FD04FD04FD047B
:103D4000FD04FD04FD04FD04FD04FD04FD04FD046B
:103D5000FD041D05FD04FC04DC049E86FFFFFFFF3F
:103D6000FFFFFFFF9FFFB9ED33E354EB74E374E310
:103D700074E3F3E236ECBCF6FFFFFFFFFFFFFFFF4B
:103D8000DFEFDD55FC04DD04FD04FD04FD04FD044E
:103D9000FD04FD04FD04FD04FD04FD04FD04FD041B
:103DA000FD04FD04FD04FD04FD041D051D05FD04C9
:103DB000DC041D5EFFF75EFF97EC13E374EB74E326
:103DC00074E374E374E374E374E374E374E374E33B
:103DD00074E374E374E374E374E374E374E333E36C
:103DE00054E399F5DFFF3FA7FC0CFD04FD04FD043F
:103DF000FD04FD04FD04FD04FD04FD04FD04FD04BB
:103E0000FD04FD04FD04FD04FD04FD04FD04FD04AA
:103E1000FD04FD04FD04BD047E76DFEFFFFFFFFF20
:103E2000FFFFBFFFBAED33E354EB74E374E374E3D5
:103E3000F3E216EC9CF6FFFFFFFFFFFFFFFFDFEF53
:103E4000FD4DFC04DD04FD04FD04FD04FD04FD0442
:103E5000FD04FD04FD04FD04FD04FD04FD04FD045A
:103E6000FD04FD04FD04FD041D051D05FD04DC0429
:103E70003D66FFFF1DFF76ECF3E274EB74E374E341
:103E800074E374E374E374E374E374E374E374E37A
:103E900074E374E374E374E374E374E333E354E3CB
:103EA00079F5BEFF3F9FFC0CFD04FD04FD04FD04FD
:103EB000FD04FD04FD04FD04FD04FD04FD04FD04FA
:103EC000FD04FD04FD04FD04FD04FD04FD04FD04EA
:103ED0001D05FD04BC045E76BFE7FFFFFFFFFFFF8B
:103EE000BFFFBAED33E354E374E374E374E3F3E246
:103EF000F5EB5BF6FFFFFFFFFFFFFFFFDFEFFD4D81
:103F0000FC04DD04FD04FD04FD04FD04FD04FD04CA
:103F1000FD04FD04FD04FD04FD04FD04FD04FD0499
:103F2000FD04FD04FD041D051D05FD04FC045D6E7E
:103F3000FFFF7BF615ECF3E274EB74E374E374E3D8
:103F400074E374E374E374E374E374E374E374E3B9
:103F500074E374E374E374E374E333E333E318F575
:103F60009EFF3F9FFC0CFD04FD04FD04FD04FD04C9
:103F7000FD04FD04FD04FD04FD04FD04FD04FD0439
:103F8000FD04FD04FD04FD04FD04FD041D051D05E7
:103F9000FD04BC043D6EBFE7FFFFFFFFFFFFBFFF57
:103FA000BAED33E354EB74E374E374E3F3E2D5EB7B
:103FB000FAF5FFFFFFFFFFFFFFFFDFF7FC55FC04F3
:103FC000DD04FD04FD04FD04FD04FD04FD04FD0409
:103FD000FD04FD04FD04FD04FD04FD04FD04FD04D9
:103FE000FD04FD041D051D05FC041C0D9E7EFFFF48
:103FF000DAF5B4E3F3E274EB74E374E374E374E3CB
:1040000074E374E374E374E374E374E374E374E3F8
:1040100074E374E374E374E333E333E397EC5DFF39
:104020005FA71B0DFD04FD04FD04FD04FD04FD045C
:10403000FD04FD04FD04FD04FD04FD04FD04FD0478
:10404000FD04FD04FD04FD04FD041D051D05FD0426
:10405000BC043D6EBFE7FFFFFFFFFFFFBFFFB9EDF1
:1040600033E354EB74E374E374E313E394EB79ED1B
:10407000DFFFFFFFFFFFFFFFFFF71C66FC0CDD0407
:10408000FD04FD04FD04FD04FD04FD04FD04FD0428
:10409000FD04FD04FD04FD04FD04FD04FD04FD0418
:1040A000FD041D051D05DC047C2D1EA7DFFFF8F4B3
:1040B00074E333E374EB74E374E374E374E374E381
:1040C00074E374E374E374E374E374E374E374E338
:1040D00074E374E374E354E353E315E41DFF9FB703
:1040E0005C1DFC04FD04FD04FD04FD04FD04FD0451
:1040F000FD04FD04FD04FD04FD04FD04FD04FD04B8
:10410000FD04FD04FD04FD041D051D05FD04BC04A6
:104110005D6EBFE7FFFFFFFFFFFF9EFF99ED33E3FB
:1041200054E374E374E374E333E353E3D7EC9FFFA6
:10413000FFFFFFFFFFFFFFFF7D7E1C1DBD04FD0491
:10414000FD04FD04FD04FD04FD04FD04FD04FD0467
:10415000FD04FD04FD04FD04FD04FD04FD04FD0457
:104160001D051D05BC04DC4D9ECF7EFF36EC33E300
:1041700054E374E374E374E374E374E374E374E3A7
:1041800074E374E374E374E374E374E374E374E377
:1041900074E374E354E354E394E39BFE9FC7BC359C
:1041A000FC04FC04FD04FD04FD04FD04FD04FD0409
:1041B000FD04FD04FD04FD04FD04FD04FD04FD04F7
:1041C000FD04FD04FD04FD041D05FD04BC045D7635
:1041D000DFEFFFFFFFFFFFFF7EF758ED33E354EB08
:1041E00074E374E374E354E333E356EC3EFFFFFF00
:1041F000FFFFFFFFFFFFDD9E5C2DBC041D051D05BD
:10420000FD04FD04FD04FD04FD04FD04FD04FD04A6
:10421000FD04FD04FD04FD04FD04FD041D051D0554
:104220001D05BC047D6EFFF7BCFED5E333E354E30C
:1042300074EB74E374E374E374E374E374E374E3BE
:1042400074E374E374E374E374E374E374E374E3B6
:1042500074E374E354EB33E31AFE9FD71D56FC045A
:10426000DD041D05FD041D05FD04FD04FD04FD0424
:10427000FD04FD04FD04FD04FD04FD04FD04FD0436
:10428000FD04FD04FD041D051C05DC047E7EFFF716
:10429000FFFFFFFFFFFF3DF718E513E354EB74E367
:1042A00074E374E354E313E3B5EB5BF6BFFFFFFF86
:1042B000FFFFFFFF7ED7BD45BC041D051D05FD04A6
:1042C000FD04FD04FD04FD04FD04FD04FD04FD04E6
:1042D000FD04FD04FD04FD04FD041D05FD04DD04D5
:1042E0005C1D5EA7BEFF58F574E333E374E374E32B
:1042F00074E374E374E374E374E374E374E374E306
:1043000074E374E374E374E374E374E374E374E3F5
:1043100074E354EB13E338FD5DEFFE8EFC0CDD041B
:104320001D05FD04FD04FD04FD04FD04FD04FD0464
:10433000FD04FD04FD04FD04FD04FD04FD04FD0475
:10434000FD04FD04FD04FC04DC04BE96FFFFFFFF3A
:10435000FFFFFFFFFDF697E413E354EB74E374E310
:1043600074E374EB13E354E318ED5EFFFFFFFFFF0C
:10437000FFFFFFFF5D76FC04FD041D051D051D0507
:10438000FD04FD04FD04FD04FD04FD04FD04FD0425
:10439000FD04FD04FD04FD041D05FD04DC043D6673
:1043A000FFDF3DFF36E434EB54EB74E374E374E376
:1043B00074E374E374E374E374E374E374E374E345
:1043C00074E374E374E374E374E374E374E374E335
:1043D00054EBF3E256F4DCFEBFC75C1DDC04FD04C5
:1043E000FD04FD04FD04FD04FD04FD04FD04FD04C5
:1043F000FD04FD04FD04FD04FD04FD04FD04FD04B5
:104400001D05FD04FD043C151EB7FFFFFFFFFFFF68
:10441000FFFF9CF616EC13E354EB74E374E374E3D0
:1044200074E354E354E3F5E3BCF6FFFFFFFFFFFF43
:10443000FFFF1EAF7C2DBD04FD041D051D05FD0401
:10444000FD04FD04FD04FD04FD04FD04FD04FD0464
:10445000FD04FD04FD04FD04FD041C0D1EA7FFFF6B
:104460007CFE74E354EB74E394E374E374E374E369
:1044700074E374E374E374E374E374E374E374E384
:1044800074E374E374E374E374E374E374EB54EB84
:1044900013E3B5EB3BFEFFE71C561C0DDD041D05C9
:1044A000FD04FD04FD04FD04FD04FD04FD04FD0404
:1044B000FD04FD04FD04FD04FD04FD04FD041D05D3
:1044C000FD04FC0CDC4D7ED7FFFFFFFFFFFFFFFF6D
:1044D0003BF6B5EB33E354EB74E374E374E374E35A
:1044E00074EB54E353E399ED9EFFFFFFFFFFFFFFE3
:1044F000BEE73D6EBC04FD04FD04FD04FD04FD04A7
:10450000FD04FD04FD04FD04FD04FD04FD04FD04A3
:10451000FD041D05DD04FC0CDC4DDFDF7EFF18ED26
:1045200013E354E374E374E374E374E374E374E354
:1045300074E374E374E374E374E374E374E374E3C3
:1045400074E374E374E374E374E374E374E354E3D3
:1045500033E359F5FFF73EAF7D25BC041D051D056E
:10456000FD04FD04FD04FD04FD04FD04FD04FD0443
:10457000FD04FD04FD04FD041D05FD041D05DC0412
:104580001C15DD96DFEFFFFFFFFFFFFFDFFF59ED9B
:1045900033E354E354EB74E374E374E374E374E3DC
:1045A00054EB13E396E4FDF6FFFFFFFFFFFFFFFF71
:1045B000FEAE1B1DBC04FC041D051D051D05FD04F0
:1045C000FD04FD04FD04FD04FD04FD04FD041D05C2
:1045D000FC04BC047C2D5EBFFFFF5BF6B5E334E357
:1045E00054E374E374E374E374E374E374E374E333
:1045F00074E374E374E374E374E374E374E374E303
:1046000074E374E374E374E374E374E374E3F3E274
:1046100036ECDDFEFFEFFD4DBC04FD041D051D0560
:10462000FD04FD04FD04FD04FD04FD04FD04FD0482
:10463000FD04FD04FD041D051D05DC04DC049C4592
:104640009FDFFFFFFFFFFFFFFFFF1DFF97ECF3E280
:1046500074E374E374E374E374E354E374E354EBDA
:1046600034EB74E3DAEDDFFFFFFFFFFFFFFFBFE78F
:104670007D863B1DDC04FD041D051D051D05FD0497
:10468000FD04FD04FD04FD041D05FD04DD04BC0462
:104690005C2DFE9EFFFF3DFFB7EC13E354EB74EB84
:1046A00074E374E374E374E374E374E374E374E352
:1046B00074E374E374E374E374E374E374E374E342
:1046C00074E374E374E374E374E374E313E374E393
:1046D00018EDDFFF1EA77C2DBC04FD041D05FD04A5
:1046E000FD04FD04FD04FD04FD04FD04FD04FD04C2
:1046F000FD04FD041D051D05BC045C25FEA6FFFF91
:10470000FFFFFFFFFFFFFFFFBAEDB5E313E374E325
:1047100074E374E374E374E354EB74EB74E374EBE9
:1047200013E356E49CF6FFFFFFFFFFFFFFFFDFEF01
:104730007D865C25DC04FD04FD041D05FD04FD04EF
:10474000FD04FD04FD04FD04FC04DC043C25DE9EA8
:10475000FFFFDFFF38ED74E333E374EB74EB74E3D6
:1047600074E374E374E374E374E374E374E374E391
:1047700074E374E374E374E374E374E374E374E381
:1047800074E374E374E374E354E354EB13E3B4E3CA
:104790005BF6DFFFDE961C15DC04FD04FD04FD0462
:1047A000FD04FD04FD04FD04FD04FD04FD04FD0401
:1047B0001D051D05DC04FC0C5D76FFF7FFFFFFFF08
:1047C000FFFFFFFF3EF776E413E354EB74E374E37B
:1047D00074E374E374E374E374E374E374EB34EB51
:1047E00033E3B7E47EFFFFFFFFFFFFFFFFFFFFFFA5
:1047F0007D7EFC14BC04FD04FD041D05FD04FD04C8
:10480000FD04DD04DC04FC047B35DDA6FFF7DFFFDF
:104810007CF615E433E374EB74EB74E374E374E354
:1048200074E374E374E374E374E374E374E374E3D0
:1048300074E374E374E374E374E374E374E374E3C0
:1048400074E374E374E354EB74E353E353E396E4E7
:104850005DFFFFEF7D7EDB04BC04FD041D05FD0450
:10486000FD04FD04FD04FD04FD04FD04FD04FD0440
:10487000FC049B04DC4D7ECFFFFFFFFFFFFFFFFF2B
:104880009EFFB9ED94E313E374E374E374E374E31C
:1048900074E374E374E374E374E374E374EB13E3B9
:1048A00094E359ED9FFFFFFFFFFFFFFFFFFFBFE70F
:1048B000DE9EBC4D3D1DDC04BC04BC04BC04DC0419
:1048C0001C057C353D765EC7FFF7FFFF7BF656E49F
:1048D00074E354EB74EB74E374E374E374E374E330
:1048E00074E374E374E374E374E374E374E374E310
:1048F00074E374E374E374E374E374E374E374E300
:1049000074E374E374E374E354EB53E374E3FBF58F
:10491000FFFFBFDF3D6E3C1DBC04BD04FD041D0553
:104920001D051D051D051D05FD04DD04BC04DC047D
:10493000DC553EC7FFFFFFFFFFFFFFFFFFFF3DF717
:1049400056E453E333E374E374E374E374E374E32E
:1049500074E374E374E374E374E374E354EB34EBEF
:10496000B5E379ED7EFFFFFFFFFFFFFFFFFFFFF7DE
:104970005ECFFEA69D863C66FC55FC5D5D76DE96B0
:104980003EB7BFE7FFFFFFFF5BF635E433E354EBD1
:1049900074EB74EB74EB74E374E374E374E374E347
:1049A00074E374E374E374E374E374E374E374E34F
:1049B00074E374E374E374E374E374E374E374E33F
:1049C00074E374E374E374EB54E333E3F5E35BF60D
:1049D000FFFFBFDFFEA6DC55FC14BC04BC04BC0416
:1049E000BC04BD04BD049C04DC047C357D7E5ECF2C
:1049F000FFFFFFFFFFFFFFFFFFFF7EFF58ED53E3C9
:104A000053EB74E374E374E374E374E374E374E307
:104A100074E374E374E374E374E374EB54EB34E32E
:104A200074E379ED5EFFFFFFFFFFFFFFFFFFFFFF76
:104A3000FFFFFFFFBEE79ED79EDFFFF7FFFFFFFFF1
:104A4000FFFF9EFF3BF635E4F2E234EB74EB74EBD0
:104A500074E374EB74E374E374E374E374E374E396
:104A600074E374E374E374E374E374E374E374E38E
:104A700074E374E374E374E374E374E374E374E37E
:104A800074E374E374E374E354EBD2E236E4BCF60B
:104A9000FFFFFFFF7ED75C7EBC455C2D3C251C1DC7
:104AA0003D1D3D257C351D661DAFFFF7FFFFFFFF58
:104AB000FFFFFFFFFFFFBFFFD9ED73E333EB54EBC5
:104AC00074EB74E374E374E374E374E374E374E326
:104AD00074E374E374E374EB74EB74E374EB33E347
:104AE00074E3F8ECFDF6BFFFDFFFFFFFFFFFFFFF02
:104AF000FFFFFFFFFFFFFFFFFFFFFFFFBFFF1DF7F0
:104B000099EDD4E333E354EB74EB74EB74EB74EB97
:104B100074E374E374E374E374E374E374E374E3DD
:104B200074E374E374E374E374E374E374E374E3CD
:104B300074E374E374E374E374E374E374E374E3BD
:104B400074E374E374E374E333EB33E376E4FDF688
:104B5000DFFFFFFFFFFFBEDF1EAFBE967D8E9D967F
:104B6000DE9E5EC7FFF7FFFFFFFFFFFFFFFFFFFFB8
:104B7000FFFFDFFF1AEEF5E313E354EB54EB54EBC6
:104B800074E374E374E374E374E374E374E374E36D
:104B900074E374E354EB74EB74EB74EB74EB54EB6D
:104BA00074E315E4F7EC7CF69FFFFFFFFFFFFFFFC8
:104BB000FFFFFFFFFFFFDFFFDCF679ED35E474E375
:104BC00054E354EB74EB74EB54EB54EB74EB74E37D
:104BD00074E374E374E374E374E374E374E374E31D
:104BE00074E374E374E374E374E374E374E374E30D
:104BF00074E374E374E374E374E374E374E374E3FD
:104C000074E374E374E374E334E374E336E43BEE97
:104C1000DFFFFFFFFFFFFFF7DFF7DFF7DFF7DFF76C
:104C2000FFFFFFFFFFFFFFFFFFFFFFFFFFFFDFFFB4
:104C3000FAED15E433E354E374E374E354E354EB23
:104C400074E374E374E374E374E374E374E374E3AC
:104C500074E374E374E374E374EB74EB54EB33E3E5
:104C600033E374E315E4D7E499ED1BF65BF65BF6EA
:104C70001AF6B9ED18E556E494E333E333E354EB65
:104C800074E374EB74EB74EB74EB74E374E374E34C
:104C900074E374E374E374E374E374E374E374E35C
:104CA00074E374E374E374E374E374E374E374E34C
:104CB00074E374E374E374E374E374E374E374E33C
:104CC00074E374E374E354E334E333E3D4E399ED3E
:104CD0005EF7FFFFFFFFFFFFFFFFFFFFFFFFFFFF8D
:104CE000FFFFFFFFFFFFFFFFFFFF1DF759EDF5E39C
:104CF00054E334E374E374E374E374E374E374E35C
:104D000074E374E374E374E374E374E374E374E3EB
:104D100074E374E374E374E374E374E374E354EBF3
:104D200033E313E313E374E3D5EBF5EB15ECD5E3D1
:104D300093E333E313E313EB54EB74EB74EB74E39F
:104D400074E374E374E374E374E374E374E374E3AB
:104D500074E374E374E374E374E374E374E374E39B
:104D600074E374E374E374E374E374E374E374E38B
:104D700074E374E374E374E374E374E374E374E37B
:104D800074E374E374E374E353EBF2E294E3F8EC5A
:104D90001BF6DCF65EFFBFFFFFFFFFFFFFFFFFFF1D
:104DA000BFFF5EF7DCF63BF6D7EC54E313E354E3C6
:104DB00074EB74E374E374E374E374E374E374E333
:104DC00074E374E374E374E374E374E374E374E32B
:104DD00074E374E374E374E374E374E374E374E31B
:104DE00074EB54EB34E313E313EB13E313E333E318
:104DF00054E374EB74EB74EB74EB74E374E374E3FB
:104E000074E374E374E374E374E374E374E374E3EA
:104E100074E374E374E374E374E374E374E374E3DA
:104E200074E374E374E374E374E374E374E374E3CA
:104E300074E374E374E374E374E374E374E374E3BA
:104E400074E374E374E374E374EB33E313E374E344
:104E500036E418EDFAED9CF6DCF6DCF69CF6FAED9D
:104E600038ED56E474E313E333EB74EB74EB74EB5B
:104E700074E374E374E374E374E374E374E374E37A
:104E800074E374E374E374E374E374E374E374E36A
:104E900074E374E374E374E374E374E374E374E35A
:104EA00074E374E374E374EB74EB74EB74EB74EB22
:104EB00074EB74EB74EB74E374E374E374E374E322
:104EC00074E374E374E374E374E374E374E374E32A
:104ED00074E374E374E374E374E374E374E374E31A
:104EE00074E374E374E374E374E374E374E374E30A
:104EF00074E374E374E374E374E374E374E374E3FA
:104F000074E374E374E374E374E354EB54EB33E35A
:104F100053E374E3B4E3D4E3D5E3B4E374E353E3DA
:104F200053E354E354E374E374EB74EB74EB74E312
:104F300074E374E374E374E374E374E374E374E3B9
:104F400074E374E374E374E374E374E374E374E3A9
:104F500074E374E374E374E374E374E374E374E399
:104F600074E374EB74EB74EB74EB74E374EB74EB59
:104F700074EB74E374E374E374E374E374E374E371
:104F800074E374E374E374E374E374E374E374E369
:104F900074E374E374E374E374E374E374E374E359
:104FA00074E374E374E374E374E374E374E374E349
:104FB00074E374E374E374E374E374E374E374E339
:104FC00074E374E374E374E354E354E354E354E3A9
:104FD00054E354E354E354E353E333E334E354E35B
:104FE00054E374E374E374EB74EB74E374E374E319
:104FF00074E374E374E374E374E374E374E374E3F9
:1050000074E374E374E374E374E374E374E374E3E8
:1050100074E374E374E374E374E374E374E374E3D8
:1050200074EB74EB74EB74E374E374E374E374E3B0
:1050300074E374E374E374E374E374E374E374E3B8
:1050400074E374E374E374E374E374E374E374E3A8
:1050500074E374E354EB74EB74E374E354E374E3C8
:1050600074E374E374E374E374E374E374E374E388
:1050700074E374E374E374E374E374E374E374E378
:1050800074E354E374E374EB75EB74EB74EB74EB5F
:1050900074EB74EB54E354E354EB74EB74EB74E390
:1050A00074E374E374EB74E374E374E374E374E340
:1050B00074E374E374E374E374E374E374E374E338
:1050C00074E374E374E374E374E374E374E374E328
:1050D00074E374E374E374E374E374E374E374E318
:1050E00074E374E374E374E374E374E374E374E308
:1050F00074E374E374E374E374E374E374E374E3F8
:1051000074E374E374E374E374E374E374E374E3E7
:1051100074E354E354EB74EB75EB75EB74EB74EBE5
:1051200074EB74EB74E374E374E374E374E374E3B7
:1051300074E374E374E374E374E374E374E374E3B7
:1051400054E374EB75EB74EB95EB94EB74EB74EB4D
:1051500074EB74EB74E374E374E374E374E374E387
:1051600074E374E374E374E374E374E374E374E387
:1051700074E374E374E374E374E374E374E374E377
:1051800074E374E374E374E374E374E374E374E367
:1051900074E374E374E374E374E374E374E374E357
:1051A00074E374E374E374E374E374E374E374E347
:1051B00074E374E374E374E374E374E374E374E337
:1051C00074E374E374E374E374E374E374E374E327
:1051D00074E374EB74EB74EB94EB94EB74EB74EB9F
:1051E00074E374E374E374E374E374E374E374E307
:1051F00074E374E374E374E374E374E374E374EBEF
:1052000074E332D3D0C232D374E394EB74EB74E31F
:1052100074EB74EB74E374E374E374E374E374E3C6
:1052200074E374E374E374E374E374E374E374E3C6
:1052300074E374E374E374E374E374E374E374E3B6
:1052400074E374E374E374E374E374E374E374E3A6
:1052500074E374E374E374E374E374E374E374E396
:1052600074E374E374E374E374E374E374E354EB9E
:1052700054EB74E374E374E374E374E374E374E38E
:1052800074E374E374E374E374E374E374E374EB5E
:10529000B5F374E3F0C28EAACFB211CB94E3B5F3A9
:1052A00095F374EB74E374E374E374E374E374E30D
:1052B00074E374E374E374E374E374EBB5F3CFB2B3
:1052C0008759E4386861F0B2B5EB74EB74EB74EBBA
:1052D00074EB74E374E374E374E374E374E374E30E
:1052E00074E374E374E374E374E374E374E374E306
:1052F00074E374E374E374E374E374E374E374E3F6
:1053000074E374E374E374E374E374E374E374E3E5
:1053100074E374E374E374E374E374E374E374E3D5
:1053200074E374E374E374E374E374E354EB54EBF5
:1053300074E354E374E374E374E374E374E374E3D5
:1053400074E374E354EB74E354EB75EBB5EB11BB0E
:10535000EA792649054125414651EA79D0B294E3DC
:1053600095F374EB54E374E374E374E374E374E36C
:1053700074E374EB54E374EB95EB94EB0A7A8110CD
:1053800061106118EA7953DB95F374EB74EB74EBFD
:1053900074E374E374E374E374E374E374E374E355
:1053A00074E374E374E374E374E374E374E374E345
:1053B00074E374E374E374E374E374E374E374E335
:1053C00074E374E374E374E374E374E374E374E325
:1053D00074E374E374E374E374E374E374E374E315
:1053E00074E374E374E374E374E374E374EB74EBF5
:1053F00075EB74EB74E374E374E374E374E374E3E4
:1054000074E354EB74E375EB74EBD0B2A859A220AB
:105410004008610861104010822046492C8A32CB36
:1054200095F375EB54E374E374E374E374E374E3AA
:1054300054E354E395EBB5F3AFB225416008C218CD
:1054400040086861F1CAB5FB74EB74EB74EB74E36C
:1054500074E374E374E374E374E374E374E374E394
:1054600074E374E374E374E374E374E374E374E384
:1054700074E374E374E374E374E374E374E374E374
:1054800074E374E374E374E374E374E374E374E364
:1054900074E374E374E374E374E374E374E374E354
:1054A00074E374E354EB54EB74E374EB74EB94EB3C
:1054B00074EB74EB74E374E374E374E374E374E324
:1054C00074E374EB95F3F1C2475181188110C22047
:1054D000C318A220C220A118611081180B7A53D3DF
:1054E000B6FB74EB74EB74EB74EB74EB74EB74E37A
:1054F00095EB95EB52D36861A220A218C2206218E6
:10550000EA8153E375F374EB74E374E374E374E3D7
:1055100074E374E374E374E374E374E374E374E3D3
:1055200074E374E374E374E374E374E374E374E3C3
:1055300074E374E374E374E374E374E374E374E3B3
:1055400074E374E374E374E374E374E374E374E3A3
:1055500074E374E374E374E374E374E374E374E393
:1055600074E374E354EB74EB94EB73D3F0BA52D35B
:1055700095EB75F374E374E374E374E374E354E359
:1055800095F394E36D928220A118C220C220821864
:1055900061108218A220C220A218E4304D92B4EB10
:1055A000B5FB95F395EB75EB75EB95F3B5F3F6FB62
:1055B00053DBE971C3288218A218A218E438AEAAF6
:1055C000B5F354EB74E374E374E374E374E374E3EA
:1055D00074E374E374E374E374E374E374E374E313
:1055E00074E374E374E374E374E374E374E374E303
:1055F00074E374E374E374E374E374E374E374E3F3
:1056000074E374E374E374E374E374E374E374E3E2
:1056100074E374E374E374E374E374E374E374E3D2
:1056200074E374EB74F3AFB2885905416759AFB2B4
:10563000B5F374F374EB74E374E354EB54EBF6FBDF
:1056400031CB88596110C218A218C3286759C97193
:1056500005418218A218C22082180539EA79AFB232
:1056600032D373E394E374E353DB11C38EA2A969CD
:10567000C328A220C220A2188218EA7932D3B5F337
:1056800054E374E374E374E374E374E374E374E382
:1056900074E374E374E374E374E374E374E374E352
:1056A00074E374E374E374E374E374E374E374E342
:1056B00074E374E374E374E374E374E374E374E332
:1056C00074E374E374E374E374E374E374E374E322
:1056D00074E374E374E374E374E374E374E374EB0A
:1056E00075F353E3EA79600860104010675111C305
:1056F000D6FB95F375EB95EB95F3D6FB94E32B82F4
:10570000A220A218A218611046510FBB72DB8EA214
:1057100026416110A218A2188218C3284649A86120
:10572000EA790B820A7AC97167590439A220811873
:10573000A220811081104649F0C294EB74EB74E30F
:1057400074E374E374E374E374E374E374E374E3A1
:1057500074E374E374E374E374E374E374E374E391
:1057600074E374E374E374E374E374E374E374E381
:1057700074E374E374E374E374E374E374E374E371
:1057800074E374E374E374E374E374E374E374E361
:1057900074E374E374E374E374E374E374EB95F318
:1057A00053DBA9694008C22081108218CA7174DBDA
:1057B00095EB95F395EB94EB73DB4C8AE430611039
:1057C000A2208110A3282B8AD5FBD5FBD5F38E9A76
:1057D000E430A218A218A218A2188108611081183A
:1057E00081188118611060088010A118A220A118EA
:1057F00081104649AEAA94EB95F354E374E374E345
:1058000074E374E374E374E374E374E374E374E3E0
:1058100074E374E374E374E374E374E374E374E3D0
:1058200074E374E374E374E374E374E374E374E3C0
:1058300074E374E374E374E374E374E374E374E3B0
:1058400074E374E374E374E374E374E374E374E3A0
:1058500074E374E374E374E354E354EB74EB94EB98
:105860000B8A8220A218A2208118E4300B7ACFB2D2
:1058700032CB11CBAEAAEA71C4306118A218A220B3
:105880006110A86131CB95F354E395F353DB6D922E
:10589000264182208118C220C220C220C220C220FC
:1058A000C220A220C220C220A220811881186751E4
:1058B000CFB295F374EB74EB74E374E374E374E3C5
:1058C00074E374E374E374E374E374E374E374E320
:1058D00074E374E374E374E374E374E374E374E310
:1058E00074E374E374E374E374E374E374E374E300
:1058F00074E374E374E374E374E374E374E374E3F0
:1059000074E374E374E374E374E374E374E374E3DF
:1059100074E374E374E374E374E374E395FBF1C23A
:1059200068596108A218C220A220C328054126494F
:105930002549E430C328A220A220A2186010E43038
:10594000AEA2B5F374EB74E374EB94EB74E311C3A0
:10595000EA71C430411061108110811081108110F2
:10596000611061106110821805410B7A11C394EB2C
:1059700075EB74EB74E374E374E374E374E374E35E
:1059800074E374E374E374E374E374E374E374E35F
:1059900074E374E374E374E374E374E374E374E34F
:1059A00074E374E374E374E374E374E374E374E33F
:1059B00074E374E374E374E374E374E374E374E32F
:1059C00074E374E374E374E374E374E374E374E31F
:1059D00074E374E374E374E374E375F394EBCFAAB4
:1059E000464181108110A2208118811881188110F0
:1059F0008110A118C21881106110E4382C9274DB58
:105A0000B6F374E374E374E374EB95F395F352D354
:105A10006EA2A97146510539E430E430E43005390D
:105A2000264988592B82AFB253DB95F395F374E383
:105A300054E374E374E374E374E374E374E374E3CE
:105A400074E374E374E374E374E374E374E374E39E
:105A500074E374E374E374E374E374E374E374E38E
:105A600074E374E374E374E374E374E374E374E37E
:105A700074E374E374E374E374E374E374E374E36E
:105A800074E374E374E374E374E374E374E374E35E
:105A900074E374E374E374E354E395F394E3AEAA1C
:105AA0006751A22082188218A218A218A218A21860
:105AB000A118A118C22067514E9A54DB95F375EBDB
:105AC00074E374E374E354E354EB74EBB6FBB5F3A3
:105AD00053DBD0BA8EA24D922D922D9A6EA2AFB208
