:020000040800F2
:10000000F006022099020008B12300081D1A00081A
:10001000A50200088F030008352D0008000000002D
:10002000000000000000000000000000FB260008A7
:10003000C104000800000000B3230008B128000834
:10004000B3020008B3020008B3020008B3020008BC
:10005000B3020008B3020008B3020008B3020008AC
:10006000B3020008B3020008B3020008B30200089C
:10007000B3020008B3020008B3020008B30200088C
:10008000B3020008B3020008B3020008B30200087C
:10009000B3020008B3020008B3020008B30200086C
:1000A000B3020008B3020008B3020008B30200085C
:1000B000B3020008B3020008B3020008B30200084C
:1000C000B3020008B3020008B3020008B30200083C
:1000D000B3020008B3020008B3020008B30200082C
:1000E000B3020008B3020008B3020008B30200081C
:1000F000B3020008B3020008B3020008B30200080C
:10010000B3020008B3020008B3020008B3020008FB
:10011000B3020008B3020008B3020008B3020008EB
:10012000B3020008B3020008B3020008B3020008DB
:10013000B3020008B3020008B3020008B3020008CB
:10014000B3020008B3020008B3020008B3020008BB
:10015000B3020008B3020008B3020008B3020008AB
:10016000B3020008B3020008B3020008B30200089B
:10017000B3020008B3020008B30200080000000048
:10018000B3020008B3020008B3020008B30200087B
:10019000B3020008B3020008B3020008B30200086B
:1001A000B3020008B3020008B3020008B30200085B
:1001B000B3020008B3020008B3020008B30200084B
:1001C000B3020008B302000800000000B3020008F8
:1001D000B3020008B3020008B3020008B30200082B
:1001E000B3020008B3020008B3020008B30200081B
:1001F000B3020008B302000800F002F800F03CF877
:100200000AA090E8000C82448344AAF10107DA4571
:1002100001D100F031F8AFF2090EBAE80F0013F087
:10022000010F18BFFB1A43F001031847DC5200000E
:10023000FC520000103A24BF78C878C1FAD852079F
:1002400024BF30C830C144BF04680C607047000050
:100250000023002400250026103A28BF78C1FBD8CF
:10026000520728BF30C148BF0B6070471FB502F06E
:1002700061FF1FBD10B510BD00F050F81146FFF72B
:10028000F5FF02F034FE00F06EF803B4FFF7F2FF62
:1002900003BC00F075F80000094880470948004792
:1002A000FEE7FEE7FEE7FEE7FEE7FEE7FEE7FEE726
:1002B000FEE7FEE704480549054A064B7047000083
:1002C000B5280008F9010008F0000220F00602201D
:1002D000F0020220F002022010B5431C02E010F8E8
:1002E000011B71B18107FAD14FF0013202C88C1A9B
:1002F0008C4314EAC211F9D0C01A0A0603D0C01EFA
:1003000010BDC01A10BD0A0401D0801E10BD090224
:10031000FCD0401E10BD704770477047754600F016
:100320002BF8AE4605006946534620F00700854687
:1003300018B020B5FFF7BEFFBDE820404FF0000623
:100340004FF000074FF000084FF0000B21F00701BD
:10035000AC46ACE8C009ACE8C009ACE8C009ACE800
:10036000C0098D46704710B50446AFF300802046A3
:10037000BDE81040FFF789BF004870479000022099
:1003800001491820ABBEFEE7260002007047FEE7D9
:1003900070B4BFF34F8FBFF36F8F1A49002008600E
:1003A000194D296841F400312960BFF34F8FBFF325
:1003B0006F8F16490860BFF34F8F081F006843F620
:1003C000FF76134AC0F34E3CC0F3C90406EA4C1151
:1003D000204641EA80731360401EFAD2BCF1010C42
:1003E000F4D2BFF34F8F286840F480302860BFF309
:1003F0004F8FBFF36F8F0748016841F00401016020
:1004000070BC704750EF00E014ED00E084ED00E0B8
:1004100060EF00E09CEF00E010B584B017A000F0A2
:1004200091F800224FF6E07318A000901021CDE95A
:1004300001121F2252212D2002F060F918204FF6E0
:10044000E07317A101240294CDE900101F22662158
:100450002D2002F053F920204FF6E07314A10294EE
:100460001F22CDE900107F212D2002F047F904B0B2
:100470004FF49660BDE8104002F0C6BCD6D0CEC4A2
:10048000CFD4CABEB2E2CAD400000000313658311F
:10049000363AC8ABB6AFB5E7D7D3BBB6D3AD0000DD
:1004A00032345832343AD6D0CEC4B2E2CAD4000084
:1004B00033325833323AD7D6CCE5B2E2CAD4000050
:1004C000704700002DE9F0471D4C81464FF6FF7044
:1004D0001E46174688460B462080484601F0ECFA37
:1004E0004A4633464146104601F0E6FA701E48F28D
:1004F000104583B23A4681B2258009F1010080B2ED
:1005000001F0DAFA334644F2082A3A4619464846D8
:10051000A4F800A001F0D0FA781E334682B22580FC
:1005200008F1010189B280B201F0C6FA3A463346B9
:100530004146A4F800A0BDE8F047104601F0BCBA5F
:100540001800022070B584B004464FF6FF7001F029
:1005500067FA10254FF6FF72002602961F233046D9
:100560000C21CDE9004500F027FB08A00296CDE95B
:1005700000050A481F234FF6FF724088203881B2D9
:10058000002000F019FB04B070BD00007777772ED3
:100590006C636477696B692E636F6D001C000220C9
:1005A0002DE9F0471E46174688468146DDE9085486
:1005B00001F082FA23462A463146384601F07CFA99
:1005C00043464A4621462846BDE8F04701F074BA42
:1005D00070B584B027A0FFF7B5FF0C254FF6E07388
:1005E00028A000240294CDE900051F224D213220CD
:1005F00002F084F829A04FF6E073CDE9000501264A
:1006000002961F225921322002F078F829A04FF6D5
:10061000E073CDE900051F2202946521322002F02B
:100620006DF810254FF6E07328A002941F22CDE943
:1006300000057221322002F061F828A04FF6E07325
:10064000CDE900051F2202968221322002F056F8E1
:1006500026A04FF6E073CDE900051F2202949221F7
:10066000322002F04BF804B04FF49660BDE87040C1
:1006700002F0CABBD3A2CEC4CFD4CABEB2E2CAD49F
:1006800000000000365831323A6162636465666783
:100690006830313233343536370000003658313265
:1006A0003A41424344454647483031323334353687
:1006B00037000000365831323A7E21402324255E2F
:1006C000262A28295F2B7B7D3A00000038583136D6
:1006D0003A61626364653031323334003858313600
:1006E0003A41424344453031323334003858313690
:1006F0003A7E21402324255E262A28290000000076
:100700002DE9FF4F87B00027B846DDE91423BDF877
:1007100028C0614508D90C4661468446BDF82400CE
:10072000ADF82840ADF824C09CB2BDF828C0A4455F
:1007300007D963469446BDF82420ADF82840ADF8AB
:1007400024C0BDF828C0614508D90C4661468446DE
:10075000BDF82400ADF82840ADF824C09EB2B142E7
:100760008A4620D1BDF82410ADF80400814288BF2C
:10077000ADF8041038BF084691B2814238BF084630
:1007800005D3BDF804208A4238BFADF804104349B0
:100790005346BDF8042009880091194601F01AFA61
:1007A0000BB0BDE8F08FBDF824100546BDF828B0A9
:1007B00092B2481B0690ABEB0A000590A6EB0A002C
:1007C0000390501A0290B345A2EB0509A6EB0B006B
:1007D00004901CBFABF101001FFA80FB5446DA45C0
:1007E00022D80399059898FBF1F197FBF0F0C844E3
:1007F00029441FFA81FCADF804C00699284480B250
:1008000060450F4403D901466046ADF80410234605
:100810002249BDF8042009880091194601F0DAF94F
:10082000601C84B25C45DCD9BDF82800211A02980E
:10083000B44201FB00F7A4EB0A0000FB09F892BFE9
:10084000DFF858A00BB0BDE8F08F0498BDF8241075
:1008500097FBF0F00844039980B298FBF1F1C8448B
:1008600029441FFA81FC02996045ADF804C00F4489
:1008700003D901466046ADF804102346BAF80010CB
:10088000BDF804200091194601F0A4F9601C84B25F
:10089000B442DAD90BB0BDE8F08F00001800022096
:1008A0002DE9FF4F83B005468046894640204FF032
:1008B000000ADDF844B001900AEB0A102F49109AA3
:1008C00011F810301278934232D101EB40000090C1
:1008D00041781098407881422AD109F10F004946A9
:1008E00083B205F10F0082B2284601F019FC0027FF
:1008F00000980024C619BBF1000F2ED0204905989E
:1009000008808020B178E040014203D04946284663
:1009100001F01EF9681C85B2A5EB0800102826D04E
:10092000601CC4B2082CE6D3781CC7B2202FDFD3DA
:100930000AF101001FFA80FA01988245BCD31148E0
:100940004188008807B0491E401EBDE8F04F8BB2B9
:1009500082B20021084601F0E3BB8020B178E0407C
:10096000014214BF0598069801F004FDD8E709F18B
:10097000010045461FFA80F9D6E70000A23B0008B7
:10098000180002201C0002202DE9FF4F83B005460D
:100990008046894607204FF0000ADDF844B00190F8
:1009A0000AEB8A00304900EB4A10109A11F8103017
:1009B0001278934232D101EB4000009041781098B8
:1009C000407881422AD109F11700494683B205F1E6
:1009D000170082B2284601F0A3FB002700980024EC
:1009E000C619BBF1000F2ED0204905980880802041
:1009F000B178E040014203D04946284601F0A8F80A
:100A0000681C85B2A5EB0800182826D0601CC4B26B
:100A1000082CE6D3781CC7B2482FDFD30AF10100B7
:100A20001FFA80FA01988245BAD31148418800889C
:100A300007B0491E401EBDE8F04F8BB282B20021C4
:100A4000084601F06DBB8020B178E040014214BF40
:100A50000598069801F08EFCD8E709F1010045469B
:100A60001FFA80F9D6E7000022440008180002208F
:100A70001C0002202DE9FF4F83B0054680468946C1
:100A800004204FF0000ADDF844B001900AEB8A1010
:100A90002F49109A11F810301278934232D101EB9D
:100AA0004000009041781098407881422AD109F1A5
:100AB0001F00494683B205F11F0082B2284601F0AB
:100AC0002FFB002700980024C619BBF1000F2ED081
:100AD0002049059808808020B178E040014203D089
:100AE0004946284601F034F8681C85B2A5EB080099
:100AF000202826D0601CC4B2082CE6D3781CC7B2CC
:100B0000802FDFD30AF101001FFA80FA0198824595
:100B1000BCD311484188008807B0491E401EBDE87B
:100B2000F04F8BB282B20021084601F0F9BA802062
:100B3000B178E040014214BF0598069801F01AFC14
:100B4000D8E709F1010045461FFA80F9D6E7000011
:100B500028460008180002201C0002202DE9F04160
:100B60001E4617468A19521E069D93B2C219521E7E
:100B700092B201F0D5FA07FB06F60024002E0BDD39
:100B800005EB440015F81410407841EA002001F00C
:100B9000F1FB641CA642F3DC064841880088491E2C
:100BA000401EBDE8F0418BB282B20021084601F040
:100BB000B7BA00001C0002202DE9F04383B01F46A5
:100BC00090468946DDE90A460C9D2046FFF784FBE6
:100BD0000A4980B240423B4642460988CDE9004678
:100BE00001EBC00C494602950CEBDC70C0F34F00E2
:100BF00001F084FD03B0BDE8F08300001C0002207A
:100C00002DE9F84FDFF830920022DFF828820F2715
:100C100009F1040A4FF0010E0B680EFA02F52B40A1
:100C2000AB4240F00181D1F804C0BCF1020F18BF03
:100C3000BCF1120F15D14FEAD20C00EB8C0CDCF892
:100C400020604FEA42744FEAD46407FA04FB26EAB4
:100C50000B06D1F810B00BFA04F444EA0604CCF801
:100C6000204006684FEA420C91F804B04FF00304AC
:100C70000BF0030B04FA0CF40BFA0CFB26EA040647
:100C80004BEA060606604E68012E18BF022E03D0FE
:100C9000112E18BF122E14D18668D1F80CB026EA96
:100CA00004060BFA0CFB4BEA06068660466826EA49
:100CB00005050E79C6F3001606FA02F646EA0505A2
:100CC0004560C56825EA04048D6805FA0CFC4CEA09
:100CD000040CC0F80CC0D1F804C01CF0805F7CD0BC
:100CE000D8F800C04CF4804CC8F800C0D8F800C058
:100CF0000CF4804CCDF800C022F0030C0CF18045C0
:100D000005F59835D5F808C84FEA82744FEA14748F
:100D100007FA04F62CEA0606A0F1804CBCF5003C6C
:100D200048D0A0F1804CBCF5013C08BF4FF0010C4D
:100D300040D0A0F1804CBCF5023C08BF4FF0020C43
:100D400038D0A0F1804CBCF5033C08BF4FF0030C39
:100D500030D0A0F1804CBCF5043C08BF4FF0040C2F
:100D600028D0A0F1804CBCF5053C08BF4FF0050C25
:100D700020D0A0F1804CBCF5063C08BF4FF0060C1B
:100D800018D0A0F1804CBCF5073C08BF4FF0070C11
:100D900010D0A0F1804CBCF5083C08BF4FF0080C07
:100DA00008D0A0F1804CBCF5093C0CBF4FF0090CF9
:100DB0004FF00A0C0CFA04FC4CEA060CC5F808C803
:100DC000D9F800C04C682CEA030C14F4803F18BF1B
:100DD0004CEA030CC9F800C000E025E0DAF800C0D6
:100DE0004C682CEA030C14F4003F18BF4CEA030CC7
:100DF000CAF800C0114CD4F800C04D682CEA030CAE
:100E000015F4801F18BF4CEA030CC4F800C00C4C4A
:100E1000D4F800C04D682CEA030C15F4001F18BF6D
:100E20004CEA030CC4F800C0521C102AFFF4F4AEC4
:100E3000BDE8F88F44380240003C0140083C0140C6
:100E40000C3C0140002A08BF090481617047000082
:100E50000148006870470000100002200248016845
:100E6000491C01607047000010000220074810B5BF
:100E7000016841F400710160052000F051F80F2075
:100E800000F006F800F018F8002010BD003C024009
:100E900010B5044607484FF47A720068B0FBF2F0D0
:100EA00000F0A6FD00222146501E00F007F80020A9
:100EB00010BD00000C00022070470000174B4DF8D9
:100EC000044D1B68C3F30223C3F1070CBCF1040FEC
:100ED00088BF4FF0040C1C1D072C34BF0023DB1E01
:100EE000012404FA0CFCACF1010C0CEA010199405C
:100EF00004FA03F35B1E1A40114300284FEA011164
:100F0000B8BF00F00F0000F1E020B4BF80F8141D5E
:100F100080F800145DF8044B704700000CED00E011
:100F2000074A00F0070011684FF6FF03194041EA35
:100F3000002040F0FD7040F08060106070470000BD
:100F40000CED00E01C4838B5016841F080510160AB
:100F500000681A4C00F080500090206840F4803007
:100F60002060FFF775FF0546606810F4803F09D1E7
:100F7000FFF76EFF401BB0F57A7F14D8606810F45D
:100F8000803FF5D0206840F400302060FFF760FF1C
:100F90000546606810F4003F0BD1FFF759FF401B76
:100FA000B0F57A7F01D9032038BD606810F4003FA6
:100FB000F3D0002038BD00004038024000700040EF
:100FC0002DE9F047DFF8688104460D46D8F80000A7
:100FD00000F00F00A8420CD2D8F8000020F00F005B
:100FE0002843C8F80000D8F8000000F00F00A8421D
:100FF00070D120784F4F10F0020F05D03868A168EB
:1010000020F0F00008433860207810F0010F4ED037
:1010100060684949012820D00968022822D011F0CF
:10102000020F57D0396821F0030108433860FFF7F9
:101030000FFF0646606841F28839012816D0022861
:10104000386800F00C0021D0F8B1FFF701FF801BD9
:10105000484528D90320BDE8F087096811F4003F0E
:10106000E0D137E011F0007FDCD133E0386800F0E8
:101070000C0004281BD0FFF7EBFE801B4845E9D885
:10108000386800F00C000428F5D110E008280ED0D4
:10109000FFF7DEFE801B4845DCD8386800F00C0006
:1010A0000828F5D103E0386810F00C0FCDD1D8F83E
:1010B000000000F00F00A8420FD9D8F8000020F07F
:1010C0000F002843C8F80000D8F8000000F00F0017
:1010D000A84202D00120BDE8F087207810F0040F6C
:1010E00005D03868E16820F4E05008433860207883
:1010F00010F0080F06D03868216920F4604040EAFB
:10110000C100386000F01EF83968F02292FAA2F2AD
:1011100001F0F001B2FA82F2D140084A515CC840B5
:10112000074908600F20FFF7B3FE0020BDE8F087F5
:10113000003C02400838024000380240C054000819
:101140000C0002202148006810F00C01204808BF64
:101150007047DFF880C0042904BF60467047082943
:1011600018BF70474DF8044D1B4A1168136801F011
:101170003F0113F4800F47F6C0730BD0BCFBF1F0B6
:101180001168194093FAA3F3B3FA83F3D94000FB33
:1011900001F00AE0B0FBF1F01168194093FAA3F3F3
:1011A000B3FA83F3D94000FB01F011684FF44032E9
:1011B0005DF8044B92FAA2F201F44031B2FA82F2E5
:1011C000D140491C4900B0FBF1F07047083802409B
:1011D0000024F40040787D01043802402DE9F84FE6
:1011E000DFF8A88304460078A8F1040710F0010F87
:1011F000A7F104055AD0D8F8000000F00C0004282C
:1012000009D0D8F8000000F00C0008280CD138688C
:1012100010F4800F08D0286810F4003F46D06068B2
:10122000002800F0AF8141E06068B0F5803F04BF66
:10123000286840F480300AD010B1B0F5A02F11D04A
:10124000286820F480302860286820F480202860F6
:101250006068D0B1FFF7FCFD0646286810F4003F37
:1012600008D023E0286840F480202860286840F4F3
:101270008030ECE7FFF7ECFD801B642800F225814D
:10128000286810F4003FF5D010E0FFF7E1FD0646B6
:10129000286810F4003F09D0FFF7DAFD801B6428AE
:1012A00000F21381286810F4003FF5D1207810F087
:1012B000020F50D0D8F800004FF0F80910F00C0FD2
:1012C00018D0D8F8000000F00C00082804BF3868D7
:1012D00010F4800F0ED0E0680028286828D040F075
:1012E00001002860FFF7B4FD0646286810F0020FE1
:1012F00009D011E0286810F0020F1CBFE068012837
:101300000AD000F03FB9FFF7A3FD801B02287DD86B
:10131000286810F0020FF6D0286899FAA9F221691E
:10132000B2FA82F220F0F80091400843286012E0FF
:1013300020F001002860FFF78BFD0646286810F0BA
:10134000020F08D0FFF784FD801B02285ED82868B2
:1013500010F0020FF6D1207810F0080F33D0DFF82C
:10136000309260690028D9F8000016D040F00100E2
:10137000C9F80000FFF76CFD0646D9F8000010F030
:10138000020F20D1FFF764FD801B02283ED8D9F858
:10139000000010F0020FF5D015E020F00100C9F8B0
:1013A0000000FFF755FD0646D9F8000010F0020FC7
:1013B00009D0FFF74DFD801B022827D8D9F800007F
:1013C00010F0020FF5D1207810F0040F63D07148AF
:1013D000016841F08051016000686F4E00F080505C
:1013E0000090306840F480703060FFF731FD814636
:1013F000306810F4807F0BD1FFF72AFDA0EB0900C5
:10140000642862D8306810F4807F00E05DE0F3D09B
:10141000A068624E012804BF306840F0010009D086
:1014200008B1052813D0306820F001003060306822
:1014300020F004003060A06841F2883AD0B1FFF794
:1014400007FD8146306810F0020F08D023E03068B5
:1014500040F004003060306840F00100EAE7FFF738
:10146000F7FCA0EB090050452FD8306810F0020FB0
:10147000F5D010E0FFF7ECFC8146306810F0020F69
:1014800009D0FFF7E5FCA0EB090050451DD83068F6
:1014900010F0020FF5D1A069E8B3D8F8001001F000
:1014A0000C0108296ED00228286820F0807028607E
:1014B0000ED0FFF7CDFC0446286810F0007F5ED008
:1014C000FFF7C6FC001B022855D90320BDE8F88FA2
:1014D000FFF7BEFC0646286810F0007F08D0FFF733
:1014E000B7FC801B0228F0D8286810F0007FF6D1E6
:1014F000D4E9070147F6C0724FF0FF3392FAA2F227
:101500000843616AB2FA82F29140A26A03EB520286
:101510004FF4403300E032E093FAA3F3B3FA83F3DD
:101520009A4011434FF070620843E16A92FAA2F2C6
:10153000B2FA82F291404FF0E0420843216B92FAF6
:10154000A2F2B2FA82F2914008433860286840F073
:1015500080702860FFF77CFC0446286810F0007F4C
:101560000DD1FFF775FC001B0228AED8286810F0DB
:10157000007FF6D003E0286810F0007FA0D10020A3
:10158000BDE8F88F0120BDE8F88F00000838024060
:101590007438024040380240007000407038024009
:1015A000002804BF012070472DE9F04102270446BE
:1015B000006B012620B194F85D00002560B906E0BB
:1015C000E068B0F5E06F8CBF27632663F3E7204641
:1015D00084F85C5000F04EF884F85D702068016873
:1015E00021F040010160E168B1F5E06F8CBF00209F
:1015F0004FF48050B1F5706F1CBFB1F5E06FA5627C
:10160000D4E9011241EA0201D4E9042342EA0302C7
:1016100041EA0201228B02F4007241EA0201E2690E
:1016200041EA0201226A41EA0201A26A41EA020198
:1016300022681160216B022904D121680A6842F4F2
:1016400000620A60626B4FF0040C616AA369114387
:10165000E2680CEA13431A431143084321684860C7
:101660002168E06A0861256684F85D600020BDE8B5
:10167000F081000013484DF804ED87B0016841F097
:1016800002010160006800F0020005900E48016848
:1016900041F4804101600068694600F48040059093
:1016A0004FF460400090022001900120029003203E
:1016B0000390052004900548FFF7A2FA07B05DF8F3
:1016C00004FB000030380240403802400004024071
:1016D0002DE9F84F994692468B4604460A9FFFF73C
:1016E000B7FB804694F85C0001250026012804BF62
:1016F0000220BDE8F88F012084F85C0094F85D00BA
:10170000012818BF022640F05E81BBF1000F1CBF0C
:10171000BAF1000FB9F1000F00F054814FF005004D
:1017200084F85D004FF000002066C4F840A0A4F8E3
:101730004690A4F84490C4F838B0A4F83E90A4F8B9
:101740003C90A06AB0F5005F0AD1206801684DF6B0
:10175000FF72114001602068016841F4005101608E
:10176000E068B0F5E06F9CBFB4F84600012820683F
:1017700041688CBF21F4805141F480514160206860
:10178000016811F0400F03D1016841F04001016090
:10179000E068B0F5E06F50D800F0C5B8002D18BF74
:1017A00000282AD02068816811F0020F25D0A16B93
:1017B0000988C1604FF00005A06B00F10200A06332
:1017C000E08FA0F101000004000CE08704BFA06AD4
:1017D000B0F5005F11D12068016811F0040F07D146
:1017E000416811F0080F03D0016841F400710160F5
:1017F0002068016841F480510160B4F8460098B156
:101800002068816811F0010F0ED0C0684FF001050B
:10181000216C0880206C00F102002064B4F84600BE
:10182000A0F10100A4F84600B7F1FF3F05D0FFF793
:101830000FFBA0EB0800B84273D2E08F002804BF72
:10184000B4F846100029A9D1A06AB0F5005F73D0A2
:10185000A1E0002D18BF002931D02068826812F065
:10186000020F2CD00129A16B08D90988C160A06B97
:10187000801CA063E08F801EE08707E04A1CA26303
:1018800009780173E08F401EE08700250004000CFA
:1018900004BFA06AB0F5005F11D12068016811F0A3
:1018A000040F07D1416811F0080F03D0016841F41B
:1018B000007101602068016841F480510160B4F852
:1018C000461029B32068826812F0010F20D0012948
:1018D00013D9C068216C0880206C801C2064B4F887
:1018E0004600801E80B2A4F84600012810D8206867
:1018F000416841F4805141600AE0017B206C421C48
:1019000022640170B4F84600401EA4F84600012588
:10191000B7F1FF3F07D0FFF79BFAA0EB0800B842F2
:1019200001D303264FE0E18F002904BFB4F846003D
:1019300000288ED188E7FFE74FF001023B461146B1
:10194000204600F08EFED0B9E068B0F5706F2068D8
:1019500008D0007BADF80000BDF80000206B022825
:1019600006D018E0C068ADF80000BDF8000012E035
:1019700001223B461146204600F073FE28B1206E3E
:1019800040F00200206603261DE02068007BADF8D1
:101990000000BDF800002068816811F0100F07D02A
:1019A000216E41F0020121664FF6EF718160012640
:1019B0003946204600F0DCFD00281CBF20202066B0
:1019C000206E00B10126012084F85D00002084F81B
:1019D0005C003046BDE8F88F4FF0E021042808692C
:1019E0000CBF40F0040020F00400086170470000C4
:1019F000401EB0F1807F24BF012070474FF0E021EE
:101A00004861F020044A82F8140D00208861072004
:101A100008610020704700000FE000E0FEE70000D2
:101A20002DE9F0471C4F054600217888401E83B2FF
:101A30003888401E82B2084600F072FBDFF85C80F6
:101A400000224FF400614046FFF7FCF901224046B6
:101A50002021FFF7F7F978880026002888BF4FEA91
:101A6000152911D938880024002809D9484600F0E2
:101A70006DFDE8B200F06AFD3888641CA042F5D81C
:101A80007888761CB042EDD84046BDE8F047012288
:101A9000D102FFF7D7B900001C000220000C024061
:101AA000DFF810C008B5BCF800C0CDF800C000F0E9
:101AB00091F808BD180002202DE9F04F002682465B
:101AC0005F1A3546A2EB00088946B8F1000F83B0D3
:101AD000C8BF012007DC0FBF00204FF0FF3001908E
:101AE000C8F1000800D10190002FC8BF012006DC1A
:101AF0000FBF00204FF0FF3000907F4200D10090D8
:101B0000B845CCBF44463C464FF0000B601C52BF6A
:101B1000029003B0BDE8F08F1FFA89F11FFA8AF036
:101B200000F016F84644A6423D4402DD0198361BFB
:101B30008244A54202DD00982D1B81440BF1010077
:101B40001FFA80FB02988345E6DD03B0BDE8F08F05
:101B500070B50B46024600F0E3FA0D4800220D4D29
:101B60004FF4006104882846FFF76CF901222846EB
:101B70002021FFF767F9200A00F0E8FCE0B200F04E
:101B8000E5FC01222846BDE87040D102FFF75AB9B2
:101B900018000220000C02402DE9F0411C461546B9
:101BA0000E4607460B46FFF787FF3A462346314667
:101BB0001046FFF781FF23462A4619463846FFF7AD
:101BC0007BFF2A46234631461046BDE8F041FFF729
:101BD00073BF00002DE9F041A2EB000C0CF1010CE9
:101BE0001FFA8CF5DDF81880A3EB010C0CF1010C49
:101BF0001FFA8CF700F094FA0026002F0DD900246C
:101C0000002D06D9404600F0B5FB601C84B2A54209
:101C1000F8D8701C86B2BE42F1D3064841880088CD
:101C2000491E401EBDE8F0418BB282B20021084639
:101C300000F076BA1C00022010B586B000F052FC0D
:101C4000FE48016841F00801016000686946FC4CEB
:101C500000F0080005904FF4C3500090012001905F
:101C60000290032003902046FEF7CAFF01224FF4A2
:101C7000C3512046FFF7E6F800222046A114FFF7E3
:101C8000E1F8142001F0C0F8012220461103FFF70B
:101C9000D9F8142001F0B8F8EF2000F015FBEB2084
:101CA00000F012FB142000F0F5FAFE2000F00CFB0F
:101CB000EF2000F009FBEB2000F006FB142000F001
:101CC000E9FA842000F000FB402000F0E3FA8520D0
:101CD00000F0FAFAFF2000F0DDFA862000F0F4FAB6
:101CE000FF2000F0D7FA872000F0EEFAFF2000F086
:101CF000D1FA882000F0E8FA0A2000F0CBFA892017
:101D000000F0E2FA212000F0C5FA8A2000F0DCFAA7
:101D1000002000F0BFFA8B2000F0D6FA802000F0FF
:101D2000B9FA8C2000F0D0FA012000F0B3FA8D202F
:101D300000F0CAFA012000F0ADFA8E2000F0C4FADB
:101D4000FF2000F0A7FA8F2000F0BEFAFF2000F07D
:101D5000A1FAB62000F0B8FA002000F09BFA20208B
:101D600000F098FA362000F0AFFA082000F092FA5E
:101D70003A2000F0A9FA052000F08CFA902000F03B
:101D8000A3FA082000F086FA082000F083FA082061
:101D900000F080FA082000F07DFABD2000F094FAEF
:101DA000062000F077FABC2000F08EFA002000F048
:101DB00071FAFF2000F088FA602000F06BFA012031
:101DC00000F068FA042000F065FAC32000F07CFA05
:101DD000132000F05FFAC42000F076FA132000F020
:101DE00059FAC92000F070FA222000F053FABE2000
:101DF00000F06AFA112000F04DFAE12000F064FAD8
:101E0000102000F047FA0E2000F044FADF2000F026
:101E10005BFA212000F03EFA0C2000F03BFA022091
:101E200000F038FAF02000F04FFA452000F032FAC6
:101E3000092000F02FFA082000F02CFA082000F00A
:101E400029FA262000F026FA2A2000F023FAF120B1
:101E500000F03AFA432000F01DFA702000F01AFA60
:101E6000722000F017FA362000F014FA372000F044
:101E700011FA6F2000F00EFAF22000F025FA45204A
:101E800000F008FA092000F005FA082000F002FA34
:101E9000082000F0FFF9262000F0FCF92A2000F0CD
:101EA000F9F9F32000F010FA432000F0F3F9702064
:101EB00000F0F0F9722000F0EDF9362000F0EAF9B8
:101EC000372000F0E7F96F2000F0E4F9ED2000F092
:101ED000FBF91B2000F0DEF90B2000F0DBF9AE204F
:101EE00000F0F2F9772000F0D5F9CD2000F0ECF900
:101EF000632000F0CFF9702000F0E6F9072000F031
:101F0000C9F9072000F0C6F9042000F0C3F90E203B
:101F100000F0C0F90F2000F0BDF9092000F0BAF977
:101F2000072000F0B7F9082000F0B4F9032000F012
:101F3000B1F9E82000F0C8F9342000F0ABF96220D4
:101F400000F0C2F9182000F0A5F90D2000F0A2F968
:101F5000712000F09FF9ED2000F09CF9702000F056
:101F600099F9702000F096F9182000F093F90F20ED
:101F700000F090F9712000F08DF9EF2000F08AF95F
:101F8000702000F087F9702000F084F9632000F0E1
:101F90009BF9182000F07EF9112000F07BF97120E8
:101FA00000F078F9F12000F075F9702000F072F976
:101FB000702000F06FF9182000F06CF9132000F089
:101FC00069F9712000F066F9F32000F063F97020E0
:101FD00000F060F9702000F05DF9642000F074F901
:101FE000282000F057F9292000F054F9F12000F0E2
:101FF00051F9012000F04EF9F12000F04BF90020DA
:1020000000F048F9072000F045F9662000F05CF97F
:102010003C2000F03FF9002000F03CF9CD2000F01A
:1020200039F9672000F036F9452000F033F94520F2
:1020300000F030F9102000F02DF903E030380240B4
:10204000000C0240002000F025F9002000F022F9E9
:10205000002000F01FF9672000F036F9002000F0A2
:1020600019F93C2000F016F9002000F013F90020C7
:1020700000F010F9002000F00DF9012000F00AF93D
:10208000542000F007F9102000F004F9322000F08D
:1020900001F9982000F0FEF8742000F015F91020E6
:1020A00000F0F8F8852000F0F5F8802000F0F2F854
:1020B000002000F0EFF8002000F0ECF84E2000F0D7
:1020C000E9F8002000F0E6F8982000F0FDF83E2046
:1020D00000F0E0F8072000F0DDF8352000F0F4F81B
:1020E000212000F0F1F8112000F0EEF8782000F047
:1020F0008BFE292000F0E8F8002000F0FFF8012214
:1021000020464021FEF79EFE06B04FF6FF70BDE868
:102110001040FFF785BC0B46024600F001B80000F6
:102120002DE9F041DFF854801C4615460E4607465F
:1021300098F80A0000F0C8F8380A00F0ABF8F8B2D6
:1021400000F0A8F8280A00F0A5F8E8B200F0A2F81C
:1021500098F80C0000F0B8F8300A00F09BF8F0B2E4
:1021600000F098F8200A00F095F8E0B200F092F83C
:1021700098F80800BDE8F04100F0A6B81C00022065
:102180002DE9FF4F83B082468B463F499046DDE9FB
:102190001004129E20380988C5B202910BEB04008E
:1021A0005946401E83B20AEB5400401E82B250468C
:1021B000FFF7B6FF354A002E4FF0000702F27441D8
:1021C0003DD0002C2AD905EB450002EB80000190A0
:1021D00001EB051000900C2C0CBF01980098C65D17
:1021E0000025B5EB540F38BF0BEB070912D2264878
:1021F00016F0010FA0F8008006D00AEB05001FFAC8
:1022000089F180B2FFF7A4FC681C7608C5B2B5EB73
:10221000540FECD3781CC7B2A742DCD31A490298FA
:1022200008801B484188008807B0491E401EBDE851
:10223000F04F8BB282B200210846FFF771BF002C2D
:10224000ECD905EB450001EB051902EB800A0C2CDB
:102250000CBF1AF8075019F807500026B6EB540FB8
:102260000CD215F0010F14BF4046069800F082F81A
:10227000701C6D08C6B2B6EB540FF2D3781CC7B20F
:10228000A742E4D3CAE70000180002203E3100084C
:102290001C00022070B50B4C00224FF40061054673
:1022A0002046FEF7CFFD012220462021FEF7CAFD81
:1022B000284600F04BF901222046BDE87040D102CB
:1022C000FEF7C0BD000C024070B50B4C00224FF46D
:1022D000006105462046FEF7B5FD0022204620217C
:1022E000FEF7B0FD284600F031F901222046BDE896
:1022F0007040D102FEF7A6BD000C02401C492A2204
:1023000010B54A812B228A812C220A81F02280B1C9
:10231000012818D0022820D0032818BF10BD0A8039
:1023200036204A80FFF7D0FFBDE81040A820FFF715
:10233000B1BF0A8036204A80FFF7C6FFBDE81040D3
:102340000820FFF7A7BF0A8036204A80FFF7BCFFAE
:10235000BDE810406820FFF79DBF0A8036204A8004
:10236000FFF7B2FFBDE81040C820FFF793BF0000A1
:102370001C00022070B50D4D00224FF40061044690
:102380002846FEF75FFD012228462021FEF75AFD70
:10239000200A00F0DBF8E0B200F0D8F8012228466D
:1023A000BDE87040D102FEF74DBD0000000C0240B8
:1023B0007047704770B584B021A0FEF7C3F8244E73
:1023C00028235A211A4632200096FEF7C7FB102513
:1023D0004FF6E0731FA001240294CDE900051F22EF
:1023E00087213E2000F08AF9282300965A211A46B8
:1023F0006420FEF7B3FB17A04FF6E073CDE90005AC
:102400001F2202948721702000F078F9282300967B
:102410005A211A469620FEF7A1FB0EA04FF6E07354
:10242000CDE900051F2202948721A22000F066F961
:1024300004B04FF49660BDE8704000F0E5BC0000C9
:10244000CDBCC6ACCFD4CABEB2E2CAD40000000034
:1024500030480008515100002DE9F0411B4888B078
:1024600004AFDFF86C80002401250FC8102687E830
:102470000F002046FFF742FF16A0FEF763F857F85B
:1024800024001F22CDE9000623214FF6E073282007
:10249000029500F033F92823CDF8008037211A4641
:1024A0001846FEF75BFB4FF47A7000F0ADFC4FF47A
:1024B0007A7000F0A9FC601CC4B2042CD9D30020AF
:1024C000FFF71CFF08B0BDE8F0810000B054000821
:1024D00030480008C6C1C4BBD0FDD7AAB2E2CAD4F6
:1024E0000000000010B5184C84B016484FF4E061AD
:1024F00020604FF4827060600020C4E90201022174
:102500002161012161614902C4E906102062606213
:10251000A0620720E0622046FFF742F820680168C9
:1025200041F040010160FF208DF804004FF47A7003
:1025300000900123204602AA01A9FFF7C9F804B0C0
:1025400010BD0000003800402C00022001B582B010
:102550004FF47A700123009001AA044802A9FFF702
:10256000B7F89DF8040003B05DF804FB2C000220CE
:1025700070B500220D4604460B464FF4C05100F0E2
:1025800018F880B900222B464FF4C061204600F0B5
:1025900010F840B900222B468021204600F061F857
:1025A000002808BF70BD206E40F020002066032088
:1025B00070BD2DE9F8431D4616460F460446FEF74A
:1025C00047FC8046206880683840B04246D0B7F566
:1025D000C06F08BF002E05D12068007B8DF8000079
:1025E0009DF80000B5F1FF3F33D02DB1FEF730FC70
:1025F000A0EB0800A8422CD32068416821F0E0013C
:1026000041606068B0F5827F0BD1A068B0F5004FE3
:1026100018BFB0F5806F04D12068016821F0400137
:102620000160A06AB0F5005F0AD1206801684DF62C
:10263000FF72114001602068016841F4005101609F
:10264000012084F85D00002084F85C000320BDE8D0
:10265000F883206880683840B042B8D10020BDE8D7
:10266000F8832DE9F0411D4690460F460446FEF7DB
:10267000EFFB064620688068384040453AD0B5F107
:10268000FF3F32D025B1FEF7E3FB801BA8422CD3DD
:102690002068416821F0E00141606068B0F5827F08
:1026A0000BD1A068B0F5004F18BFB0F5806F04D112
:1026B0002068016821F040010160A06AB0F5005F68
:1026C0000AD1206801684DF6FF7211400160206850
:1026D000016841F400510160012084F85D00002090
:1026E00084F85C000320BDE8F081206880683840F1
:1026F0004045C4D10020BDE8F08170472DE9FF4F6F
:1027000083B006468346DFF804A188464FF00009EF
:10271000DDE91045129F2078002804BF07B0BDE80E
:10272000F08F29E0B9F1000F26D0BAF80000401B65
:10273000B042BCBF07B0BDE8F08FBAF80200401B42
:102740004045BCBF07B0BDE8F08F4FF00009202D19
:102750004FD0CDE90047DDE90523182D414630462D
:1027600050D0FEF79DF8701986B2A41C207800287E
:10277000D8D107B0BDE8F08FBAF80000A0EB550043
:10278000B042BCBF07B0BDE8F08FBAF80200401BF2
:102790004045BCBF07B0BDE8F08F2078802888BFD7
:1027A0004FF00109BED80D280ED0102D13D91021DD
:1027B0000297CDE90001DDE9052341463046FFF7E8
:1027C000DFFC06F1080011E008EB05005E461FFA89
:1027D00080F8641C0BE0CDE9000502974146DDE975
:1027E00005233046FFF7CCFC06EB550086B2641C8F
:1027F000BCE7CDE90047DDE9052341463046FEF759
:1028000039F9B0E7FEF7C0F8ADE700001C00022080
:10281000DFF894C010B594B0DCF8004044F0805468
:10282000CCF80040DCF800C00CF0805CCDF848C06B
:10283000DFF878C0DCF8004044F44044CCF80040B5
:10284000DCF800C002240CF4404CCDF848C04FF036
:10285000010CCDF800C04FF4803CCDF804C04FF41B
:10286000800CCDE90810CDE90A23CDE9064C684675
:10287000FEF7B4FC00B1FEE7FEF764FB00B1FEE733
:102880000F20CDE90D0400200F904FF4A0501090C0
:102890004FF48050119007210DA8FEF791FB0028FE
:1028A00004BF14B010BDFEE7403802400070004085
:1028B000FEF7D4BA0F48016841F4700101600E4878
:1028C000016841F0010101600C4A002111600268B9
:1028D00022F4102222F080720260031D084A1A605E
:1028E000026822F480220260064801605806064908
:1028F0000860704788ED00E0003802400838024068
:10290000103000240C38024008ED00E02DE9F843B7
:1029100000242EA0FDF716FE304D4FF6FF770097EE
:102920001E216888203883B22888401E82B2002089
:10293000FFF750F92A4EA046CDF8008004EB840042
:10294000698800EBC4002A880F2300EB5100A0F136
:102950001901C4EB041000EB520036F8142028389B
:1029600000F078FA601CC4B2052CE5D340F2DC50CC
:1029700000F04AFA00971E216888203883B2288820
:10298000401E82B20020FFF725F90024012700979E
:10299000698804EB840000EBC4002A880F2300EB55
:1029A0005100A0F11901C4EB041000EB520036F8FD
:1029B0001420283800F04EFA601CC4B2052CE6D36F
:1029C000BDE8F84340F2DC5000F01EBA475549BB61
:1029D000ADD4B2CCEEB3E4B2E2CAD4001C00022003
:1029E0000000022070B5494C84B04FF6FF70002102
:1029F00000906088401E83B22088401E82B2084644
:102A0000FFF7E8F810264FF6E07341A00125029584
:102A1000CDE9000600221E212820FFF76FFE4FF4AB
:102A20007A7000F0F1F90020009060880021401ECB
:102A300083B22088401E82B20846FFF7CBF836A04A
:102A40004FF6E073CDE900061E214FF6FF722820F5
:102A50000295FFF753FE4FF47A7000F0D5F94FF46A
:102A60007840009060880021401E83B22088401E7C
:102A700082B20846FFF7AEF829A04FF6E073CDE921
:102A800000061F2202951E212820FFF737FE4FF473
:102A9000487000F0B9F94FF4FC60009060880021A4
:102AA000401E83B22088401E82B20846FFF792F88B
:102AB0001CA04FF6E073CDE900061F2202951E21EF
:102AC0002820FFF71BFE4FF4487000F09DF91F20EF
:102AD000009060880021401E83B22088401E82B290
:102AE0000846FFF777F811A04FF6E073CDE900062E
:102AF0001E21029528204FF47842FFF7FFFD04B015
:102B00004FF44870BDE8704000F07EB91C00022010
:102B10005748495445000000424C41434B000000D7
:102B200052454400475245454E000000424C554531
:102B3000000000002DE9F843002434A0FDF702FD59
:102B4000364F4FF6FF78CDF800801E217888203868
:102B500083B23888401E82B20020FFF73BF8304D28
:102B6000304E35F81400308004EB8400798800EB97
:102B7000C40000EB5100A0F10A018BB2398828385B
:102B8000490801EB041CACF10A018AB281B2ACF134
:102B9000280080B2FFF700F8601CC4B2052CE0D317
:102BA00040F2DC5000F030F9CDF800801E2178882A
:102BB000203883B23888401E82B20020FFF70AF81E
:102BC000002435F81400308004EB8400798800EB91
:102BD000C40000EB5101A1F10A0083B23888283902
:102BE00089B2400800EB0410A0F10A02283892B222
:102BF00080B2FEF755FF601CC4B2052CE1D3BDE8DE
:102C0000F84340F2DC5000F0FFB80000475549BEE1
:102C1000D8D0CECCEEB3E4B2E2CAD4001C0002207D
:102C200000000220180002202DE9F041002482B0AB
:102C300039A0FDF787FC3C4F4FF6FF78CDF80080B8
:102C40001E217888203883B23888401E82B2002046
:102C5000FEF7C0FF354D364E35F81400308004EBDA
:102C60004400798800EBC4003B8800EB5102A2F1DC
:102C70000C0081B2C4EB041000EB5300A0F10B0375
:102C80009BB2273ACDE9003193B2A0F11A0228385D
:102C900092B280B2FDF784FC601CC4B2052CDBD379
:102CA00040F2DC5000F0B0F8CDF800801E217888AA
:102CB000203883B23888401E82B20020FEF78AFF97
:102CC000002435F81400308004EB4400798800EBD0
:102CD000C4003B8800EB5102A2F10C0081B2C4EBAE
:102CE000041000EB5300A0F10B039BB2273ACDE98F
:102CF000003193B2A0F11A02283892B280B2FDF7E7
:102D0000FFFC601CC4B2052CDBD302B040F2DC50E7
:102D1000BDE8F04100F078B847554920547269CCBD
:102D2000EEB3E4B2E2CAD4001C000220000002208C
:102D300018000220FEE72DE9F05F1D46164600EB65
:102D4000060B0F4601EB05090A9C1FFA89F1804624
:102D50001FFA8BF0FFF7DFF92046FFF70BFBA8EB1C
:102D6000060A1FFA8AF01FFA89F1FFF7D4F9204604
:102D7000FFF700FBA7EB05091FFA8BF01FFA89F19B
:102D8000FFF7C9F92046FFF7F5FA1FFA8AF01FFA94
:102D900089F1FFF7C0F92046FFF7ECFA08EB0509C7
:102DA00007EB060A1FFA89F01FFA8AF1FFF7B3F959
:102DB0002046FFF7DFFAA8EB05081FFA88F01FFA94
:102DC0008AF1FFF7A8F92046FFF7D4FABD1B1FFAD6
:102DD00089F0A9B2FFF79FF92046FFF7CBFA1FFA57
:102DE00088F0A9B2FFF797F92046BDE8F05FFFF73A
:102DF000C1BA000010B504460420FEF7EDFD0148FD
:102E0000046010BD14000220F0B4002400289CBF10
:102E1000F0BC70470E494FF47A724FF0E026096813
:102E200001FB02F5D6F814C00021B369B2699A42D9
:102E3000FCD026BFACEB02073B449B1A1944134657
:102E4000A942F3D3641C8442ECD3F0BC7047000069
:102E5000140002202DE9F84F1C46894600259046B3
:102E6000614282460A98032202EB410610B3002C0D
:102E7000B8BFBDE8F88F2F46A5420ADC3B462A467C
:102E800049465046CDF80080FFF755FF7F1CA7420A
:102E9000F4DD002EBCBF06EB8500861D05DB281B7C
:102EA000641E06EB800000F10A066D1CA542E2DDFF
:102EB000BDE8F88F002CB8BFBDE8F88F23462A463E
:102EC00049465046CDF80080FFF735FF002EBCBFC5
:102ED00006EB8500861D05DB281B641E06EB8000C3
:102EE00000F10A066D1CA542E8DDBDE8F88FFDF78C
:102EF0004FFAFDF7BBFF0923022219214FF4D870C6
:102F0000FFF786FCD820FFF775FFFEF795FE00F06F
:102F100013F800F077F8FFF765FDFFF70BFEFFF7FA
:102F2000F5FCFFF781FEFDF753FBFDF775FAFFF7A0
:102F300041FAFFF791FAEAE730B583B021A0FDF737
:102F400001FB10241F2323A0CDE9000401250295D5
:102F5000DA024E210020FDF72FFE1F23029519A053
:102F6000CDE90004DA025F210020FDF725FE1CA058
:102F70000295CDE900041F23702100204FF4FC626C
:102F8000FDF71AFE1AA00295CDE900041F23812146
:102F900000204FF4FC62FDF70FFE17A002951F23DF
:102FA000CDE9000492211A460020FDF705FE40F20B
:102FB000DC50FFF729FF03B040F2DC50BDE83040A1
:102FC000FFF722BFD7DBBACFB2E2CAD4B3CCD0F27C
:102FD00000000000C8ABB6AFB5E7D7D300000000D3
:102FE000312E323822204743394130310000000071
:102FF0003234305832343000323032322D30392DC4
:1030000031360000F0B583B04EF67D70FEF708FD56
:10301000374F622455233888623800EBD07004EBB8
:1030200060018AB24121C0F34F00FDF74BFA102630
:103030004FF61F022FA001250295CDE900061F23A0
:1030400043210020FDF7B8FD38887323623800EB78
:10305000D07004EB60018AB25F21C0F34F00FDF72E
:1030600031FA28A04EF67D7300220295CDE90006C4
:1030700061211046FDF7A0FD38889123623800EBEE
:10308000D07004EB60018AB27D21C0F34F00FDF7E0
:1030900019FA20A04EF67D73CDE900061F22029595
:1030A0007F210020FDF788FD3888AF23623800EBD0
:1030B000D07004EB60018AB29B21C0F34F00FDF792
:1030C00001FA18A04EF67D73CDE900069D21029508
:1030D00010204FF47842FDF76FFD40F2DC50FFF70F
:1030E00093FE03B04FF4FA70BDE8F040FFF78CBEDA
:1030F0001C000220CDBCD0CECFD4CABEB2E2CAD40E
:1031000000000000B4BFC9ABCCEEB3E4B2E2CAD455
:1031100000000000D6D0CEC4CFD4CABEB2E2CAD41A
:1031200000000000CDBCC6ACCFD4CABEB2E2CAD447
:10313000000000004FF04070E1EE100A7047000000
:10314000000000000000000000000000040404046F
:1031500004040004000000140A0A0000000000003B
:103160000000000014143F140A3F0A0A0000000483
:103170001E1505060C14150F0400000012150D0A8B
:10318000142C2A1200000000040A0A1E1515093624
:10319000000000020201000000000000000000200A
:1031A0001008080808080810200000020408080891
:1031B00008080804020000000004150E0E150400A3
:1031C000000000000404041F0404040000000000C8
:1031D0000000000000000002020100000000001FCB
:1031E00000000000000000000000000000000002DD
:1031F0000000001008080804040202020100000098
:103200000E1111111111110E00000000040604042A
:103210000404040E000000000E1111080402011F36
:10322000000000000E11100C1010110E0000000024
:10323000080C0A0A091E0818000000001F01010FEF
:103240001010110E000000000E09010F1111110ED7
:10325000000000001F09080404040404000000002A
:103260000E11110E1111110E000000000E1111119E
:103270001E10120E000000000000040000000004F8
:103280000000000000000004000000040400002012
:1032900010080402040810200000000000001F00B5
:1032A000001F0000000000020408102010080402A3
:1032B000000000000E1111080404000400000000CA
:1032C0000E111915151D011E0000000004040C0A42
:1032D0000A1E1233000000000F12120E1212120FFB
:1032E000000000001E1101010101110E000000008C
:1032F0000F1212121212120F000000001F120A0EFB
:103300000A02121F000000001F120A0E0A02020722
:10331000000000001C1201013911120C0000000015
:103320003312121E12121233000000001F04040494
:103330000404041F000000003E08080808080809EB
:103340000700000037120A060A0A123700000000C0
:10335000070202020202223F000000001B1B1B1B8F
:1033600015151515000000003B1216161A1A121733
:10337000000000000E1111111111110E00000000CB
:103380000F12120E02020207000000000E111111AE
:103390001117190E180000000F12120E0A12123720
:1033A000000000001E1101060810110F00000000AF
:1033B0001F1504040404040E00000000331212124E
:1033C0001212120C000000003312120A0A0C04043C
:1033D000000000001515150E0A0A0A0A0000000078
:1033E0001B0A0A04040A0A1B000000001B0A0A0444
:1033F0000404040E000000001F0908040402121F48
:103400000000001C04040404040404041C00000262
:1034100002020404080808100000000E080808084A
:10342000080808080E0000040A0000000000000060
:10343000000000000000000000000000003F000449
:103440000000000000000000000000000000000C70
:10345000121C123C000000000302020E1212120E97
:10346000000000000000001C1202021C000000000E
:103470001810101C1212123C000000000000000C7A
:10348000121E021C000000003804041E0404041E66
:10349000000000000000003C120C021E221C000074
:1034A0000302020E12121237000000000400000690
:1034B0000404040E000000000800000C08080808BE
:1034C000080700000302023A0A0E1237000000004B
:1034D000070404040404041F000000000000000F9F
:1034E00015151515000000000000000F121212370C
:1034F000000000000000000C1212120C000000007E
:103500000000000F1212120E020700000000001C43
:103510001212121C103800000000001B06020207E5
:10352000000000000000001E020C101E0000000041
:103530000004040E04040418000000000000001B36
:103540001212123C0000000000000037120A0C04A6
:103550000000000000000015150E0A0A000000001F
:103560000000001B0A040A1B0000000000000037D6
:10357000120A0C04040300000000001E0804041ECC
:1035800000000018080808040808080818000808BF
:1035900008080808080808080808000604040408C1
:1035A00004040404060002251800000000000000C6
:1035B000000000000000000000000000000000000B
:1035C0000000000000080808080808080000181893
:1035D000000000486C241200000000000000000001
:1035E00000000000002424247F1212127F12121205
:1035F00000000000081C2A2A0A0C1828282A2A1C65
:10360000080800000022251515152A585454542284
:1036100000000000000C1212120A76252911916E8A
:103620000000000606040300000000000000000087
:10363000000000402010100808080808081010209A
:1036400040000002040808101010101010080804B0
:1036500002000000000008086B1C1C6B080800003A
:10366000000000000000080808087F08080808009B
:10367000000000000000000000000000000006063E
:1036800004030000000000000000FE000000000035
:10369000000000000000000000000000000006061E
:1036A00000000000804040202010100808040402A0
:1036B00002000000001824424242424242422418C2
:1036C0000000000000080E08080808080808083E66
:1036D00000000000003C4242422020100804427ECC
:1036E00000000000003C4242201820404042221CC2
:1036F0000000000000203028242422227E20207890
:1037000000000000007E0202021A26404042221CF5
:103710000000000000382402021A26424242241807
:1037200000000000007E2222101008080808080887
:1037300000000000003C4242422418244242423C25
:103740000000000000182442424264584040241CFB
:103750000000000000000000181800000000181809
:103760000000000000000000000800000000000849
:103770000804000000402010080402040810204043
:1037800000000000000000007F0000007F0000003B
:10379000000000000002040810204020100804026D
:1037A00000000000003C4242464020101000181863
:1037B00000000000001C225A555555552D42221C70
:1037C00000000000000808181414243C224242E7BC
:1037D00000000000001F2222221E22424242221F1D
:1037E00000000000007C4242010101010142221C54
:1037F00000000000001F2242424242424242221F79
:1038000000000000003F4212121E12120242423F0C
:1038100000000000003F4212121E121202020207B4
:1038200000000000003C2222010101712122221C23
:103830000000000000E7424242427E42424242E72C
:1038400000000000003E0808080808080808083EB4
:1038500000000000007C101010101010101010104C
:10386000110F0000007722120A0E0A12122222778C
:103870000000000000070202020202020202427F70
:10388000000000000077363636362A2A2A2A2A6BAC
:103890000000000000E346464A4A52525262624724
:1038A00000000000001C2241414141414141221CD5
:1038B00000000000003F424242423E020202020774
:1038C00000000000001C2241414141414D53321C87
:1038D00060000000003F4242423E1212222242C7D4
:1038E00000000000007C4242020418204042423E98
:1038F00000000000007F4908080808080808081CA4
:103900000000000000E74242424242424242423C42
:103910000000000000E74242222424141418080882
:1039200000000000006B49494949555536222222C2
:103930000000000000E7422424181818242442E75D
:103940000000000000772222141408080808081C50
:1039500000000000007E2120101008040442423FB5
:10396000000000780808080808080808080808087F
:10397000780000000202040408080810102020202B
:103980004040001E101010101010101010101010D9
:103990001E0000384400000000000000000000008D
:1039A0000000000000000000000000000000000017
:1039B00000FF0006080000000000000000000000FA
:1039C0000000000000000000003C4278444242FC3D
:1039D0000000000000030202021A26424242261A98
:1039E00000000000000000000038440202024438D9
:1039F000000000000060404040784442424264D8E9
:103A00000000000000000000003C427E0202423C38
:103A10000000000000F08808087E08080808083E3A
:103A20000000000000000000007C22221C023C423A
:103A3000423C000000030202023A4642424242E790
:103A400000000000000C0C00000E08080808083EEA
:103A5000000000000030300000382020202020200E
:103A6000221E0000000302020272120A16122277BE
:103A700000000000000E0808080808080808083EB2
:103A80000000000000000000007F9292929292B726
:103A90000000000000000000003B4642424242E7B6
:103AA0000000000000000000003C42424242423C54
:103AB0000000000000000000001B26424242221EBF
:103AC00002070000000000000078444242424478AF
:103AD00040E000000000000000774C040404041FD4
:103AE0000000000000000000007C42023C40423E1A
:103AF0000000000000000008083E08080808083020
:103B0000000000000000000000634242424262DC0C
:103B1000000000000000000000E742242414080810
:103B2000000000000000000000EB4949555522222A
:103B30000000000000000000007624181818246E11
:103B4000000000000000000000E7422424141808D0
:103B50000807000000000000007E22100808447ED4
:103B6000000000C020202020201020202020202025
:103B7000C0001010101010101010101010101010A5
:103B800010100006080808080810080808080808A7
:103B900006000C32C200000000000000000000001F
:103BA0000000C9EE000027FC140414A48110420890
:103BB0004040104017FC2040E0E0215022482C46B5
:103BC00020400040DBDA11041124112411241124B7
:103BD000FD24112411241124112411241D24E12475
:103BE000422402040404CAD00200010000007FFC49
:103BF0000100010001003FF82108210821082108E7
:103C00002128211001000100C8AB00000000018044
:103C100002400430180860061FF90100010001008D
:103C20003FF80100010001007FFEB6AF0000000078
:103C300000203E20007C002200227F221022102241
:103C400012221222224223423D82009CB5E700004C
:103C5000010001001FF0610C410441047FFC41049C
:103C6000410441047FFC01000102010201FCD7D3A1
:103C7000000000003FF8001000600080010000809C
:103C80007FFE0040004000200020002018400780F8
:103C9000BCBC10201020102013FEFC20102010208F
:103CA00015FC18843088D0481050102010505188CE
:103CB0002606CAF501000120011001107FFC0380D7
:103CC000054005400920111021084104810201002E
:103CD00001000100D3D002000200FFFE0400040036
:103CE0000FF0081018102FF0481088100FF008106F
:103CF000081008500820CFDE00007BF84A08520860
:103D000053F8620852084BF84A444A486A30522035
:103D10004210428843064200B9AB00800480048010
:103D20000840084010202010420882060400044089
:103D3000082010203FF010100000CBBE00003FF81C
:103D4000000800087FE8000800081F881088108815
:103D5000108810881F88108800280010BBB60080CB
:103D60000080FC8004FC050449082A4014401040EF
:103D700028A024A045108110020804040802D3AD35
:103D800000002080133C122402240224F224122476
:103D9000122412B4132812201020282047FE0000FD
:103DA000C4FA0900090011FC320454489950114822
:103DB0001244144411401080020051045112901218
:103DC0000FF0B4BF00000020102013FE2020262496
:103DD0004A247A241224222423FC7C200022042258
:103DE0007822003CC9AB0000000004000FF0102056
:103DF00020207FFC20842084208420843FF8200021
:103E0000200220021FFECCEE00000000204023FE16
:103E1000204079FC220423FC220423FC220423FCFE
:103E20003A0465FA01980204B3E4000001000100BD
:103E30007FFE02200410040808043FFC04420440F2
:103E40000440044208421042607EBED800000000D8
:103E5000207E3E804880488048FE48827F820882DB
:103E60000C8214FA12842280218040FED0CE000001
:103E700000007F842208223022C0220222047FC850
:103E8000223022C222022204220822304040BBAD4E
:103E9000000000007FFE00000FF011101110111043
:103EA00051125FF25112511251124FF240027FFC37
:103EB000D4B2000000007FFE47E24812481247E2F9
:103EC0004FF2501250125112511242924472580A3B
:103ED0003FFCCDBC000000003FFE440247F24C22F4
:103EE0005362408243625E1A41824062430240C292
:103EF00040223FFCC6AC0000004020402040204053
:103F00003FFE2000200020003FE020102010201065
:103F1000201040104010CFD4000000003FFC2004CF
:103F200020043FFC200420041FF8244414481448B3
:103F300014480C5004407FFECABE000000003FFC45
:103F40000000000000007FFE0080089008881088B4
:103F500010842084208240820780B2CB00000020A1
:103F600008207FFE002000783F8811080890092073
:103F70007FFE018003400D30310C4002B5A50000EA
:103F80000010081004203FF8210421043FFC210404
:103F900021043FF801007FFE010001000100D6D09E
:103FA00000000100010001003FFC21042104210464
:103FB0002104210421043FFC010001000100010053
:103FC000D3A20000000008207FFE08200920010085
:103FD0003FF82108210821081FF4014002200C109D
:103FE000700ECEC400000100010000803F7C08106C
:103FF00008100410042002200240018001800260A9
:104000001C18E006D7DB00000000102011FE220281
:10401000220249FC5800300013FE2528792401248F
:104020000D24722202A2BACF0000000001800240DB
:104030000430180860061FF800001FF82004200450
:104040002004200420041FF8C1C100000100010069
:104050007FFE00003FF820083FF83FF8400647C2C7
:104060004824082008221022603EB6C80000000044
:1040700000803FFE44105FFC4410441043F04000B9
:104080005FF84408423041C04360BC1EB2E2000009
:10409000000067C2145205520552C55225520552FE
:1040A000055215521752228222424442483ECAD437
:1040B000000000002014101417FE00120010601001
:1040C00013F0109010901090149214EA1F0A00063A
:1040D000B3CC0000000019FE7202120212027DFC35
:1040E00018001BFE3420502053FE102010201020FA
:1040F00013FED0F20000000000803FFE400047FCAD
:104100004208413040C05FFE404240424044404887
:1041100040404440B5F70000000023FE122202FA9E
:104120000222E22212FE1272128A128A128A16BA2F
:104130001A421202040EB9E2000001000104110843
:104140000908091009207FFE04400440044004408F
:10415000084208421042607CB0E60000000048FEC1
:104160004900490049007EFE418241447944452886
:1041700045284510452846440382C8A80000100081
:10418000100013FC7D04110419041884348850486D
:10419000505010201050108813041402CBF9000066
:1041A00000003F7C204020403E40227E22442244AA
:1041B00022443E8420842084408441044204C6C1B9
:1041C00000003FF8200820083FF8241022202FF894
:1041D000222022203FFC222042204420842008204C
:1041E000C4BB04407FFC04401FF010101FF01010EF
:1041F0001FF00400FFFE11103FF8D11611501120DE
:104200000100D0FD2080108010FE0100FE0021FC86
:1042100020243C2424A024A024BC24A024A0456065
:10422000553E8A00D7AA202020202020FDFC4020D7
:10423000504093FEFC40108011FC1C04F08850504C
:10424000102010101010BFAA00007FFC08200820CA
:10425000082008200820FFFE082008200820082049
:104260001020102020204020D4B4000027FE14206D
:10427000144085FC450445FC150415FC2524E42068
:1042800024A829242A2230A00040D2BA008020404D
:1042900017FE11208120423C4244166412942348A8
:1042A000E24822302220225022880306BEA70FE0D7
:1042B000082008200FE0082008200FE000007EFC06
:1042C000428442847EFC428442847EFC4284CDF857
:1042D00000007FFC40044004421452944A54442499
:1042E00044244A544A5452946104400440144008FF
:1042F000D5BE1020082008207E20003E0420442047
:10430000442025FC290429040F04F104410401FC84
:104310000104B0B410401020102013FEFA0214441F
:1043200010401BFE3088D088110810D0102010508B
:1043300050882304BCFC201020103B7C211441FE3B
:104340007A14A27C2710F97C251025FE22102A1051
:10435000350028FE0000D0A310401020102011FED0
:10436000FC00108831043A02548850889050105054
:104370001020105010881306D7BC01404120212086
:1043800023FE022016201BFC1220222023FCE22008
:104390002220222023FE22000200B4A5202020207B
:1043A000782049FC91247D24552455247DFC5524F6
:1043B00054207C28542457FE45028C00C3FE111063
:1043C000111017FC1110FC0013F8120817F81A0846
:1043D00033F8D04017FC10A0111052082406C8FD75
:1043E000000000007FFC00000000000000003FF81B
:1043F00000000000000000000000FFFE00000000C0
:10440000BDC7080008001FE020204040BFF8210879
:1044100021083FF8210821083FF8210841084128D8
:104420008010C9EE00000000000010000008000825
:104430000C7FFC04401001C8A00218604230183202
:10444000231812C30014030004030C047FF0080FA8
:1044500080080B4078136018332018631818831CE9
:10446000190308180300000300000000DBDA000055
:104470000000000004100C04180C04108C04108CB4
:1044800004108C04108C04D08C3F108C04108C040D
:10449000108C04108C04108C04108C04108C05F00B
:1044A0008C0E208C78208C20408C00808C01000C9D
:1044B00002000C000000CAD0000000000000003024
:1044C0000000180000180800001C1FFFE000180082
:1044D00000182007FFF004182004182004182004F6
:1044E0001820041820041820041820041820041888
:1044F000200418E004184000180000180000000014
:10450000D6D00000000000000000000000000018ED
:10451000000018000018000018003FFFFE301806C9
:104520003018063018063018063018063FFFFE30E7
:1045300018060018000018000018000018000018E5
:1045400000000000000000000000CEC400000000D9
:104550000000000000003800001C00000600FFFF03
:10456000FF0600300600300300600300600180C0D9
:1045700000C18000E300003600001C00007700034B
:10458000C1E01E003C6000070000000000000000C9
:1045900000000000B2E20000000000000000000087
:1045A000000040000321FF33398333118333019B23
:1045B00033C19B33719B33199B33019B33019B3375
:1045C000119B3319B333303033306C0330C603637F
:1045D00083032E01BE000000000000000000CAD4CA
:1045E0000000000000000000000000004000D83083
:1045F00000CE1800C21C00C001FFFF0000C0F80080
:10460000C01800C019FFC0181840181860191860A9
:104610001B18611E18311C1FB139F01910000F0052
:104620000000000000000000D7D6000000000006D7
:104630000000000300000000C0000001C0C0000135
:1046400007C00001FF00021FFE0007F01C0007C0AA
:1046500070000F00E0000E03F0001C0FF0003C0F94
:1046600070003C00E0001800C0000000C000000026
:10467000C0000000600000002000000037000001C2
:10468000FF00007FF80007F830001F803000008036
:10469000300000C03000006060000018E000000F33
:1046A000C0000006000000000000CCE50000000093
:1046B00000000000000000C0000000E0002001B881
:1046C00000703FF80061FFC000C3030001C6060090
:1046D000038C060003080C0006080C000E18183F97
:1046E0001E101BF31F903F0700803C1C0190707C44
:1046F000019060FE01A0C3F801A00FD803A0081824
:10470000036000180340001803C00018038000185D
:104710000300001800000018000000100000003026
:10472000000000300000000000000000B2E20000C5
:104730000000000000000000000000000000020C6B
:104740001008071FF80403BFF00201BC300303EC9C
:104750003003015C600300D8600300D860038098D8
:10476000620361B8430771B14306313243063376C1
:10477000C3063A64C7063EECC0063E78C0063C302D
:1047800040067C70000678E060067BFFF006F7C00C
:104790000006E400000640000006000000060000DD
:1047A000007C00008FF000007C0000000000CAD4F4
:1047B00000000000000000000000000000003F00BA
:1047C00000007F8000000180000000C0000000C0E9
:1047D000000000CE038000CFFFC000DD41800FFE4F
:1047E0000007FFFC000C00F000180FC03E19FF404E
:1047F000F311BC6083307FE003B1FE2003338020DF
:1048000003700030036000100360001807C0000C44
:1048100007C000040780000201000003000000013F
:104820000000000000000000000000000000000088
:10483000FFFFFFFFFFFFFFFFFFFFFFFFFFFFFFFF88
:10484000FFFFFFFFFFFFFFFFFFFFFFFFFFFFBEF7C1
:10485000FFFFDEFF38C6928C8E6B6E6B107C96ADC0
:104860003CE7FFFFFFFFFFFFFFFFFFFFFFFFFFFF33
:10487000FFFFFFFFFFFFFFFFFFFFFFFFFFFFFFFF48
:10488000FFFFFFFFFFFFFFFFFFFFFFFFFFFFFFFF38
:10489000FFFFFFFFFFFFFFFFFFFFFFFFFFFF5DEFDA
:1048A000159D4F636C420A32882946192519452106
:1048B000E8318E6B38C6FFFFFFFFFFFFFFFFFFFFF2
:1048C000FFFFFFFFFFFFFFFFFFFFFFFFFFFFFFFFF8
:1048D000FFFFFFFFFFFFFFFFFFFFFFFFFFFFFFFFE8
:1048E000FFFFFFFFFFFFFFFFFFFFFFFF36A5105396
:1048F000104B51530F4B6C3AE93167212519E410E5
:10490000A30862008308CB529AD6FFFFFFFFFFFF88
:10491000FFFFFFFFFFFFFFFFFFFFFFFFFFFFFFFFA7
:10492000FFFFFFFFFFFFFFFFFFFFFFFFFFFFFFFF97
:10493000FFFFFFFFFFFFFFFF3CE77063B363B87C3F
:10494000F56311434D32EA29882126190519051905
:1049500004110411E4108300A308728CFFFFFFFF11
:10496000FFFFFFFFFFFFFFFFFFFFFFFFFFFFFFFF57
:10497000FFFFFFFFFFFFFFFFFFFFFFFFFFFFFFFF47
:10498000FFFFFFFFFFFFDBDE4B3AF042356C544B7D
:10499000B1322E2AEB21A92167190519041104113E
:1049A0000411041104110519E4104200AF73FFFF54
:1049B000FFFFFFFFFFFFFFFFFFFFFFFFFFFFFFFF07
:1049C000FFFFFFFFFFFFFFFFFFFFFFFFFFFFFFFFF7
:1049D000FFFFFFFF5DEF09324C32104B8F324F2A41
:1049E0002E2ACC1989198921471905190411041196
:1049F000C410C410041104110411E41042003184E5
:104A0000FFFFFFFFFFFFFFFFFFFFFFFFFFFFFFFFB6
:104A1000FFFFFFFFFFFFFFFFFFFFFFFFFFFFFFFFA6
:104A2000FFFFFFFFEC5247194C320B2AEC21EC211F
:104A30000C22915BEE4A061126190419E410E410C9
:104A4000A7296621A308051904110411E4108200A6
:104A5000F7BDFFFFFFFFFFFFFFFFFFFFFFFFFFFFB0
:104A6000FFFFFFFFFFFFFFFFFFFFFFFFFFFFFFFF56
:104A7000FFFF35A58308882188218921AA218A2161
:104A80006B42718CFFFF728C83080411C4082942A9
:104A9000FBDE5DEFEC5A8308041104110411830856
:104AA000E831DFFFFFFFFFFFFFFFFFFFFFFFFFFF1B
:104AB000FFFFFFFFFFFFFFFFFFFFFFFFFFFFFFFF06
:104AC000BEF7C731C4102519261947194719A82957
:104AD0008A52284A55ADFFFFE831A30805194D6BEE
:104AE0004D6BFFFF7DEF4521C4100411041104112B
:104AF000620076ADFFFFFFFFFFFFFFFFFFFFFFFF3D
:104B0000FFFFFFFFFFFFFFFFFFFFFFFFFFFFFFFFB5
:104B100096B562000411041905110519C4088B4AE1
:104B2000B6B55DEFF7BDFFFF8E6B62002942AA5A52
:104B30000842FFFFFFFFCC52830804110411041147
:104B4000A308AD52FFFFFFFFFFFFFFFFFFFFFFFFC7
:104B5000FFFFFFFFFFFF1CE7FFFFFFFFFFFFFFFF60
:104B60004E636200041104110411E41062008E63AC
:104B7000FFFFFFFFFFFFFFFFCF730100F39C2C63DC
:104B800096B5FFFFFFFF2D5B830004110411041194
:104B9000E41067213DEFFFFFFFFFFFFFFFFFFFFF77
:104BA000F8BDB7B59EEFCB52B394FFFFFFFFDFFF19
:104BB000E831A3080411041104110411A3084942A7
:104BC000FFF7FFF7FFFFFFFF6A4A01007284FFFF54
:104BD000FFFFFFF7DFEF093AA308041104110411E6
:104BE0000411051118BEFFFFFFFFFFFFFFFFFFFFCE
:104BF000F07B6200E831C731410035A5FFFF5DEF72
:104C00004621C4100411041104110411E410A30876
:104C1000769DFFF7FFFFB7ADA308A308C7319EE756
:104C2000FFF7FFF776A5A308E4100411041104119F
:104C30000511051135A5FFFFFFFFFFFFFFFFFFFF78
:104C4000DBDEA7298300C410C410C4101CE79EEF4C
:104C50000511E41004110411041104110419C4080D
:104C6000E510D16BD16BC5086400A50843002B3259
:104C7000779DB3842519C410041104110411041183
:104C800025192609359DFFFFFFFFFFFFFFFFFFFFEF
:104C9000FFFFAF7362000419051982000D5B8E9B44
:104CA00062100511041104110419E41085000511A6
:104CB000C439815A407B229C43AC03A4839B8272FB
:104CC0008249C218A400C500E41004190411051992
:104CD00047196711EC5ABEFFFFFFFFFFFFFFFFFF01
:104CE000DFFFDBDEC410E41004110511A41801C0BD
:104CF0008388E40005190419C5084421438323D59A
:104D000042FEE4FE27FF07FFA4FE64FE03FEA3FDB0
:104D1000E2FC42EC83B32462E510C40804192619AE
:104D2000A81987210090D3BCFFFFFFFFFFFFFFFF03
:104D3000DFFFFFFF107C420005190511832801D019
:104D400044F8A348E400C508445A02EDE2FD02FE1F
:104D500066FE74FFB8FF73FFE7F6A6F645F6A4F506
:104D6000C3FC62FCC2FCC2FCE3CBC4490611881937
:104D70008701A49001F8EC9AFFFFFFFFFFFFFFFF00
:104D8000FFFFFFFFBEF7E83183000509824001C045
:104D900023F885F0A348A400445A02FD23CCC2DCCA
:104DA00004FE28FE48F646F624F6E4F564FDE3FC2E
:104DB00062FCC2FC02E402DCE2FCA47A4801670166
:104DC000C47824F802F884B07DE7FFFFFFFFFFFFFF
:104DD000FFFFFFFFFFFFDBDE2519A300C43802E061
:104DE00022D844F8A6F8A47863004321837283395B
:104DF000829B21F561FD22FDE2FCA2FC42FC42FC0B
:104E000042FC22AB8341C392045226012519A49887
:104E100044F823F802F8A4D09EEFFFFFFFFFFFFF46
:104E2000FFFFFFFFFFFFFFFF9AD68729A50043B8CA
:104E300022F823E065F8E8F807C983484200A30098
:104E400084006329A27A62B3A2CB62D302BB828AB6
:104E50008339A400E500E500E508C46064D844F89F
:104E600024F823F802F88388DBC6FFFFFFFFFFFF6B
:104E7000FFFFFFFFFFFFFFFFFFFF3DE7505B083134
:104E800023E843F844F065F809F9ABF989D10689BC
:104E9000A3484218020042006100820062006200E2
:104EA0008300A320C450A58885D865F844F844F849
:104EB00023F823F803D08210C7295DEFFFFFFFFF1F
:104EC000FFFFFFFFFFFFFFFFFFFFFFFFFFFF6C3252
:104ED000A53802D823F865F866F8A7F84AF90CFA5D
:104EE0004DFA4CEA0BD2A9B968B147A927B107B965
:104EF00007D1E7E8C7F8A7F865F865F844F823F89C
:104F000003F802D0A3280509C408EC5AFFFFFFFFED
:104F1000FFFFFFFFFFFFFFFFFFFFFFFFFBDE0519A6
:104F2000C400A741E6C003F886F8A7F887F886F81A
:104F3000C7F829F98AF9ABF9ABF98BF96AF929F9BC
:104F400008F9C7F8A6F886F865F864F823F802F0BF
:104F500006B12529E400E41025192519149DFFFF49
:104F6000FFFFFFFFFFFFFFFFFFFFFFFF96AD6200A8
:104F700082083595BACE8BA244D025F887F8A7F8D9
:104F8000C7F8A7F887F886F886F886F887F8A7F8AC
:104F9000A7F8A6F885F865F864F824F064B80D93CE
:104FA000BBB6CF6383080411E4106621493A5DEF74
:104FB000FFFFFFFFFFFFFFFFFFFFFFFFD394420054
:104FC000E410BBCEFFFFBEE776B5CCAA07C145E033
:104FD00045F846F866F886F886F886F886F865F8A3
:104FE00045F865F865E844D043A8018882903CD72D
:104FF000FFEF559583080411041105194619B39460
:10500000FFFFFFFFFFFFFFFFFFFFFFFFB394410024
:1050100086215DDFFFFFFFFFFFFFDFE77AC6D3B426
:105020004EB32AC268D1E6E0A6E8A5E8A5E8E6D82E
:1050300088C906A922A802A800A000C800D8F7E5E0
:10504000FFE7F8ADC410E4100411E41005118B4A19
:10505000FFFFFFFFFFFFFFFFFFFFFFFF55A5410021
:10506000A7295DDFFFF7FFFFFFFFFFFFFFFFFFFF48
:10507000FFEF7DDFDBCE59CEF8CDD7CDF7C579CEAA
:10508000FBBEABA203F045F842D043E800F072D477
:10509000FFDF39AEE410E4100411E4100511872994
:1050A000FFFFFFFFFFFFFFFFFFFFFFFF59CE83085A
:1050B00046211CD7FFF7FFFFFFFFFFFFFFFFFFFFAA
:1050C000FFFFFFFFFFFFFFFFFFFFFFFFFFFFFFFFF0
:1050D000FFEF8BBA04F845F862E044F000F88EDB8D
:1050E000FFDFF8A5C410E410E4100411E410251942
:1050F000FFFFFFFFFFFFFFFFFFFFFFFFBEF7872957
:10510000830839B6FFF7DFF7FFFFFFFFFFFFFFFF61
:10511000FFFFFFFFFFFFFFFFFFFFFFFFFFFFFFFF9F
:10512000BEE74ABA03F845F864F844F800F86EE3BD
:10513000FFD7F48C83080411E410E410E41005197F
:10514000FFFFFFFFFFFFFFFFFFFFFFFFFFFFEF730B
:1051500000007284FFEFBEEFDFFFFFFFFFFFFFFFE6
:10516000FFFFFFFFFFFFFFFFFFFFFFFFFFFFFFFF4F
:10517000DFE78BBA03F845F845F823F800F8D3D4F5
:10518000FFD74E5B2100293A55A58308C410251985
:10519000FFFFFFFFFFFFFFFFFFFFFFFFFFFFFBDE44
:1051A000A308E8319EDF9EE7BFEFFFFFFFFFFFFF91
:1051B000FFFFFFFFFFFFFFFFFFFFFFFFFFFFFFFFFF
:1051C000FFF751BC02E003F803F043E0ECC27ECFEE
:1051D000FCBE46212100D394FFFF518400008729A3
:1051E000FFFFFFFFFFFFFFFFFFFFFFFFFFFFFFFFCF
:1051F00051840000F48CFFEF9EE7BFEFDFFFFFFF5D
:10520000FFFFFFFFFFFFFFFFFFFFFFFFFFFFFFFFAE
:10521000FFFF3DDF55BD52BC72BCB7B55DC7FFDFB8
:10522000F06B0000093ABFF7FFFFFFFF149D55A583
:10523000FFFFFFFFFFFFFFFFFFFFFFFFFFFFFFFF7E
:10524000FFFFAC4AA408BBBEDFE77EE7BEEFDFF797
:10525000DFFFFFFFFFFFFFFFFFFFFFFFFFFFFFFF7E
:10526000DFFFDFF7FFEFDFDFBFD79ED7DFDFD8A598
:1052700083082611DBD6FFFFFFFFFFFFFFFFFFFFC5
:10528000FFFFFFFFFFFFFFFFFFFFFFFFFFFFFFFF2E
:1052900079EE8BDC2131A9213DCFBFDF7EDF9EE798
:1052A000BEEFBFEFDFF7DFF7DFF7DFF7DFF7BFEFC7
:1052B000BEEF9EE77EDF5ED75ED7DFDF9AB62619A8
:1052C0004208EDA3BFFFFFFFFFFFFFFFFFFFFFFF50
:1052D000FFFFFFFFFFFFFFFFFFFFFFFFFFFF74DD8B
:1052E000C0DB00FE42EE024289217BB6DFDF7ED7C3
:1052F0007EDF7EDF9EE79EE79EE79EE79EE77EDFFE
:105300007EDF5DD75DD79EDFFFE7F8A50711E318C5
:1053100002C560FDE6D3DBEEFFFFFFFFFFFFFFFFEF
:10532000FFFFFFFFFFFFFFFFFFFFFFFF9EF784BAB6
:10533000C1FC42FE82FEA2FE8183452174745EC7D9
:10534000DFDF7ED75ED75DD75ED75ED75DD75DD70F
:105350005ED79EDFFFE73DC7F1638408425226E631
:1053600029FF86FEE0F36AC3FFFFFFFFFFFFFFFF99
:10537000FFFFFFFFFFFFFFFFFFFFFFFF18DEC1D2B0
:10538000A2FD22FE42FE42FE62FEE2D4416A494292
:1053900053743BA63EC7BFD7BFD7BFD7BFDFBFD76A
:1053A0003EC71AA6F263A729824122B462FE83FE99
:1053B000AAFE0FFF67FD63BA3CEFFFFFFFFFFFFF91
:1053C000FFFFFFFFFFFFFFFFFFFFFFFF9AE680D217
:1053D00021FDC2FDE2F5C2F582F582FD62FD61DCD0
:1053E000219B846AE96A2C63AF6311746E632C633A
:1053F000895A0452817AC2CBE2FC62FD82FDC2FD71
:10540000C2FDE4FD24FD62CA1CE7FFFFFFFFFFFFB2
:10541000FFFFFFFFFFFFFFFFFFFFFFFFFFFFB1CC1D
:1054200081D2C0F3C1FC02FD02FDE2FCC2FCC2FC61
:1054300081FC80FBC0C9A48135AD59CE719C21810E
:1054400000DAA1FB82FCA2FC82FCA2FC02FD22FD90
:10545000E2FC00FC60DA90CCFFFFFFFFFFFFFFFFE4
:10546000FFFFFFFFFFFFFFFFFFFFFFFFFFFFFFFF4C
:1054700059DE0DC406CBE4D203DB03DBE3DAC3D28F
:10548000A4C209B3D2BC9EF7FFFFFFFFFFFFFBE6FC
:105490000EB4A6BA83D2E3E202EB22EB22E303DBF3
:1054A000E4D26AC3B6D5FFFFFFFFFFFFFFFFFFFF98
:1054B000FC540008F0540008E0540008D0540008E0
:1054C00000000000000000000102030406070809B4
:1054D000526F746174696F6E3A32373000000000A9
:1054E000526F746174696F6E3A3138300000000099
:1054F000526F746174696F6E3A393000526F746123
:1055000074696F6E3A3000002855000800000220D0
:105510001C00000034020008445500081C00022052
:10552000D40600005002000800F8E0071F00E0FF6A
:105530001FF800000024F40000000000000000003C
:045540000000000067
:04000005080001F9F5
:00000001FF
