:020000040800F2
:10000000A00600204D0200084F1D000859140008EA
:100010004D1D000843030008F924000800000000FB
:100020000000000000000000000000001D1F00088C
:10003000E503000800000000711D00088D20000885
:1000400067020008670200086702000867020008EC
:1000500067020008670200086702000867020008DC
:1000600067020008670200086702000867020008CC
:1000700067020008670200086702000867020008BC
:1000800067020008670200086702000867020008AC
:10009000670200086702000867020008670200089C
:1000A000670200086702000867020008670200088C
:1000B000670200086702000867020008670200087C
:1000C000670200086702000867020008670200086C
:1000D000670200086702000867020008670200085C
:1000E000670200086702000867020008670200084C
:1000F000670200086702000867020008670200083C
:10010000670200086702000867020008670200082B
:10011000670200086702000867020008670200081B
:10012000670200086702000867020008670200080B
:1001300067020008670200086702000867020008FB
:1001400067020008670200086702000867020008EB
:1001500067020008670200086702000867020008DB
:1001600067020008670200086702000867020008CB
:10017000670200086702000867020008000000002C
:1001800067020008670200086702000867020008AB
:10019000670200086702000867020008670200089B
:1001A00067020008670200086702000800F002F812
:1001B00000F03CF80AA090E8000C82448344AAF1C5
:1001C0000107DA4501D100F031F8AFF2090EBAE8C3
:1001D0000F0013F0010F18BFFB1A43F0010318477B
:1001E000604A0000804A0000103A24BF78C878C1F5
:1001F000FAD8520724BF30C830C144BF04680C602D
:10020000704700000023002400250026103A28BF74
:1002100078C1FBD8520728BF30C148BF0B60704778
:100220001FB502F045FB1FBD10B510BD00F050F822
:100230001146FFF7F5FF02F021FA00F06EF803B463
:10024000FFF7F2FF03BC00F075F800000948804793
:1002500009480047FEE7FEE7FEE7FEE7FEE7FEE7A8
:10026000FEE7FEE7FEE7FEE704480549054A064BC0
:100270007047000091200008AD010008A000002098
:10028000A0060020A0020020A002002010B5431C00
:1002900002E010F8011B71B18107FAD14FF0013271
:1002A00002C88C1A8C4314EAC211F9D0C01A0A068B
:1002B00003D0C01E10BDC01A10BD0A0401D0801E9C
:1002C00010BD0902FCD0401E10BD7047704770473A
:1002D000754600F02BF8AE4605006946534620F0FF
:1002E0000700854618B020B5FFF7BEFFBDE82040E7
:1002F0004FF000064FF000074FF000084FF0000BE2
:1003000021F00701AC46ACE8C009ACE8C009ACE894
:10031000C009ACE8C0098D46704710B50446AFF37C
:1003200000802046BDE81040FFF789BF00487047B5
:100330003C00002001491820ABBEFEE72600020069
:100340007047FEE73EB516A000F090F8002210219D
:1003500017A08DE807004FF6E0752B461F225221AB
:100360002D2001F0DDFD182016A1CDE9001001249B
:100370002B461F22029466212D2001F0D1FD202062
:1003800014A1CDE900102B461F2202947F212D20BD
:1003900001F0C6FDBDE83E404FF4966002F004B99E
:1003A000D6D0CEC4CFD4CABEB2E2CAD400000000B8
:1003B00031365831363AC8ABB6AFB5E7D7D3BBB64E
:1003C000D3AD000032345832343AD6D0CEC4B2E283
:1003D000CAD4000033325833323AD7D6CCE5B2E231
:1003E000CAD40000704700002DE9F0471E4C0746B4
:1003F0004FF6FF701D462080164688460B4638464D
:1004000001F06AF83A462B464146104601F064F87E
:10041000681E83B281B248F21049781CA4F800909B
:1004200080B2324601F058F844F2082A2B46A4F86C
:1004300000A032461946384601F04EF8701E82B2CE
:1004400008F10101A4F8009089B280B22B4601F0B6
:1004500043F83246A4F800A02B464146BDE8F047D9
:10046000104601F039B8000028000020FEB507460C
:100470004FF6FF76304600F0F1FF0024102500977C
:10048000CDE901541F2332460C21204600F014FB15
:1004900006A0CDE90005094802941F234088324692
:1004A000203881B2002000F007FBFEBD7777772E61
:1004B0006C636477696B692E636F6D002C0000209C
:1004C0002DE9F0479846DDE9085491460E46074667
:1004D00001F002F823462A464146484600F0FCFF58
:1004E00033463A4621462846BDE8F04700F0F4BFBF
:1004F000FEB524A0FFF7BAFF0C2526A0CDE9000524
:1005000000244FF6E0773B461F224D210294322013
:1005100001F006FD012625A08DE861003B461F2263
:100520005921322001F0FCFC26A0CDE900053B4614
:100530001F2265210294322001F0F2FC102527A031
:10054000CDE900053B461F2272210294322001F0C2
:10055000E7FC26A08DE861003B461F228221322065
:1005600001F0DEFC25A0CDE900053B461F229221CB
:100570000294322001F0D4FCBDE8FE404FF49660B6
:1005800002F012B8D3A2CEC4CFD4CABEB2E2CAD44B
:1005900000000000365831323A6162636465666774
:1005A0006830313233343536370000003658313256
:1005B0003A41424344454647483031323334353678
:1005C00037000000365831323A7E21402324255E20
:1005D000262A28295F2B7B7D3A00000038583136C7
:1005E0003A616263646530313233340038583136F1
:1005F0003A41424344453031323334003858313681
:100600003A7E21402324255E262A28290000000066
:100610002DE9FF4F87B00027DDE91423BDF82840FE
:10062000B846A14208D90D4621460446BDF824002B
:10063000ADF82850ADF82440BDF828509CB2A54232
:1006400007D9ADF828401446BDF824202B46ADF854
:100650002440BDF82840A14208D90D462146044651
:10066000BDF82400ADF82850ADF824401FFA83F9F6
:100670000E46494521D1BDF82410ADF80400814251
:1006800001D2084602E001D9ADF8041091B28142CE
:1006900001D2084605E0BDF80420914201D9ADF829
:1006A00004103C493346BDF80420098800911946DE
:1006B00000F088FF0BB0BDE8F08FBDF82430054690
:1006C000581BBDF828100690881B92B20590D01ACE
:1006D0000290A9EB0100A2EB050AA9EB060B04901E
:1006E000494501D1039102E0491E88B20390344686
:1006F0001FE098FBFBF10598294497FBF0F01FFAE7
:1007000081FCADF804C02844069980B20F44D0445F
:10071000604503D901466046ADF804101D492346E3
:10072000BDF8042009880091194600F04BFF641CB5
:10073000A4B203988442DCD9BDF82800271A029895
:100740004743A61B06FB0AF621E00498BDF82410D7
:1007500097FBF0F0084496FBFBF129441FFA81FC5B
:10076000029980B2ADF804C00F445644604503D9E5
:1007700001466046ADF8041006492346BDF8042042
:1007800009880091194600F01DFF641CA4B24C4575
:10079000DBD98FE7280000202DE9FF4F83B0054605
:1007A00082463E2089464FF000084FF0800B0190B2
:1007B0003049109A08EB081011F810301278934263
:1007C0003CD101EB40000090417810984078814284
:1007D00034D109F10F0083B205F10F0082B249460E
:1007E000284601F097F900260098002487191198EF
:1007F00090B1214905980880B9782BFA04F001429C
:1008000003D04946284600F0B3FE6D1CADB2A5EBFF
:100810000A00102827D009E0B9782BFA04F0014229
:1008200001D0059800E0069801F07AFA641CE4B261
:10083000082CDCD3761CF6B2202ED5D308F10100AB
:1008400001991FFA80F88845B2D30C494888401EA8
:1008500083B2088807B0401EBDE8F04F82B2002185
:10086000084601F057B909F1010055461FFA80F911
:10087000E0E700001E330008280000202C000020C4
:100880002DE9FF4F83B005468246072001900020E6
:10089000894680464FF0800B00EB800101EB481049
:1008A0002F49109A11F81030127893423CD101EB85
:1008B00040000090417810984078814234D109F18D
:1008C000170083B205F1170082B24946284601F0AD
:1008D00021F90026009800248719119890B1214928
:1008E00005980880B9782BFA04F0014203D04946F4
:1008F000284600F03DFE6D1CADB2A5EB0A0018289D
:1009000027D009E0B9782BFA04F0014201D005980C
:1009100000E0069801F004FA641CE4B2082CDCD371
:10092000761CF6B2482ED5D308F1010080B20199A9
:1009300080468842B0D30C494888401E83B208885C
:1009400007B0401EBDE8F04F82B20021084601F01A
:10095000E1B809F1010055461FFA80F9E0E700000F
:100960005A3B0008280000202C0000202DE9FF4FF2
:1009700083B005468246042089464FF000084FF0B8
:10098000800B01903049109A08EB881011F8103054
:10099000127893423CD101EB4000009041781098CE
:1009A0004078814234D109F11F0083B205F11F0064
:1009B00082B24946284601F0ADF80026009800248E
:1009C0008719119890B1214905980880B9782BFAB8
:1009D00004F0014203D04946284600F0C9FD6D1CD1
:1009E000ADB2A5EB0A00202827D009E0B9782BFA90
:1009F00004F0014201D0059800E0069801F090F95A
:100A0000641CE4B2082CDCD3761CF6B2802ED5D35D
:100A100008F1010001991FFA80F88845B2D30C490A
:100A20004888401E83B2088807B0401EBDE8F04FDA
:100A300082B20021084601F06DB809F10100554667
:100A40001FFA80F9E0E70000603D00082800002060
:100A50002C00002010B5144601F058F82046BDE8DF
:100A6000104001F05DB9000070B501F1270293B2AA
:100A700000F1270292B2049D01F04CF800244FF4DB
:100A8000C86605EB440115F81400497840EA0120D6
:100A900001F046F9641CB442F3DB06484188008843
:100AA000491E401EBDE870408BB282B2002108464C
:100AB00001F030B82C0000202DE9FE431F46DDE98F
:100AC0000A469046894620460C9DFFF7DFFB0A49FF
:100AD00080B240420988CDE9004601EBC00000EB3E
:100AE000D070C0F34F003B4642464946029501F0A4
:100AF00017FABDE8FE8300002C0000202DE9F84F16
:100B0000DFF8A091002209F1040A0AF1040B4FF06A
:100B10000F080BF1040E01260B6896403340B342D8
:100B200071D14C68022C01D0122C11D1D40800EBE9
:100B300084073D6A5407E40E08FA04FC25EA0C0514
:100B4000D1F810C00CFA04FC4CEA050CC7F820C020
:100B500007685400032591F804C0A5400CF0030C6D
:100B6000AF430CFA04FC4CEA070CC0F800C04F6815
:100B7000012F05D0022F03D0112F01D0122F11D138
:100B80008768D1F80CC0AF430CFA04FC4CEA070CA0
:100B9000C0F808C04768B7430E79C6F30016964000
:100BA0003E434660C668AE438D68A5403543C56088
:100BB0004C68E4006FD53C4C256845F480452560C1
:100BC000246822F0030504F480440094374C2E1965
:100BD000D6F808789407250F08FA05F4A743344C93
:100BE000A04201D100242EE0324CA04201D10124C8
:100BF00029E0314CA04201D1022424E02F4CA04234
:100C000002D103241FE046E02D4CA04201D1042470
:100C100019E02C4CA04201D1052414E02A4CA0423A
:100C200001D106240FE0294CA04201D107240AE09B
:100C3000274CA04201D1082405E0264CA04201D156
:100C4000092400E00A24AC403C43C6F80848D9F81F
:100C500000404D464E689C43F60300D51C432C6073
:100C6000DAF8004055464E689C43B60300D51C4355
:100C70002C60DBF800405D464E689C43F60200D5D0
:100C80001C432C60DEF8004075464E689C43B6025B
:100C900000D51C432C60521C102AFFF43CAFBDE869
:100CA000F88F0000003C0140443802400030014011
:100CB000000002400004024000080240000C024014
:100CC000001002400014024000180240001C0240C4
:100CD00000200240002402400AB1816170470904EB
:100CE000FBE700000148006870470000200000207A
:100CF00002480168491C0160704700002000002084
:100D00000B4810B5016841F400710160016841F4BD
:100D100080610160016841F480710160052000F08C
:100D20003FF80F2000F006F800F015F8002010BD85
:100D3000003C024010B5044600F08CF94FF47A7183
:100D4000B0FBF1F000F074FB00222146501E00F0D1
:100D500007F8002010BD08B50020009008BD000075
:100D6000F0B40E4B1B68C3F30223C3F10704042C39
:100D700000D904241D1D072D01D2002300E0DB1E35
:100D8000012606FA04F56D1E0D409D409E40761E1C
:100D9000164045EA0601F0BC00F0DABF0CED00E0B9
:100DA000064A00F0070110684FF6FF03184040EABA
:100DB0000120034908431060704700000CED00E07B
:100DC0000000FA052DE9F8431D48016841F0805103
:100DD00001600068012700F080500090380490FA0C
:100DE000A0F0DFF86080B0FA80F048F82070FFF7DC
:100DF00079FF04464FF47A75134E04E0FFF772FF53
:100E0000001BA84213D87068C003F7D54FF4003018
:100E100090FAA0F0B0FA80F048F82070FFF762FF77
:100E2000044607E0FFF75EFF001BA84202D903203B
:100E3000BDE8F88370688003F4D50020F8E700006F
:100E40004038024000000E42007000402DE9F05F83
:100E5000DFF8F8A104460F46DAF80000DFF8F08169
:100E600000F00F02C8B27A49814641F2883608F193
:100E70000808BA4261D202468AF80020DAF8000077
:100E800000F00F00B8427DD12078800707D5D8F850
:100E90000020A36822F0F0021A43C8F8002020784E
:100EA000C0072DD0606801281AD002281BD0032863
:100EB00019D009688907002964DAD8F80010474674
:100EC00021F003010143C8F80010FFF70BFF0546AE
:100ED000606801280FD0022818D003281CD027E012
:100EE00009688903E7E709688901E4E7FFF7FAFE83
:100EF000401BB04258D83868C0F381000128F5D1B2
:100F000088E0FFF7EFFE401BB0424DD83868C0F3D1
:100F100081000228F5D17DE03868FFF7E3FE401B31
:100F2000B042F9D940E0FFF7DDFE401BB0423BD8AC
:100F3000386810F00C0FF6D16CE02078800707D5E8
:100F4000D8F80020A36822F0F0021A43C8F8002065
:100F50002078C0074CD06068012828D0022829D00A
:100F6000032827D009688907002949DAD8F8002022
:100F700022F003020243C8F80020FFF7B3FE054643
:100F8000606800E03CE001281DD0022829D0032839
:100F900038D0B3464646306810F00C0F28D0FFF723
:100FA000A1FE411B5945F6D90320BDE8F09F096811
:100FB0008903D9E709688901D6E7FFF793FE411B4A
:100FC000594502D9F0E7B34646463068C0F3810080
:100FD0000128F2D10CE0FFF785FE411B594502D9EB
:100FE000E2E7B34646463068C0F381000228F2D1FA
:100FF0008AF80090DAF8000000F00F00B84209D03B
:101000000120D2E744462068FFF76CFE401BB04247
:10101000F9D9C9E72078400707D5D8F80010E26869
:1010200021F4E0511143C8F800102078000708D5DA
:10103000D8F80010226921F4604141EAC201C8F8E1
:1010400000100F20FFF776FE0020AEE7003C0240C4
:101050000038024010B500F017F808490968F0227E
:1010600092FAA2F201F0F001B2FA82F2D140044AFF
:10107000515CC8400349086010BD000008380240B8
:10108000F84B00080C00002030B51948006810F03B
:101090000C01184812D0184C04290ED008290DD183
:1010A000134A121F1168136801F03F015D0247F6F1
:1010B000C07304D5B4FBF1F003E0204630BDB0FBB3
:1010C000F1F01168194093FAA3F3B3FA83F3D9400E
:1010D000484311684FF4403292FAA2F201F44031D1
:1010E000B2FA82F2D140491C4900B0FBF1F030BDA8
:1010F000083802400024F40040787D012DE9F84FC3
:1011000004460078DFF8FCA2BF4DC0074FF0000690
:1011100048D0DAF800105046C1F38101012908D007
:101120000068C0F3810002280AD1281D006840022F
:1011300006D52868800335D56068002873D031E073
:10114000DFF8C49209F1020989F80060FFF7CAFDCF
:10115000074641F2883804E0FFF7C4FDC11B414552
:101160007AD828688003F7D4207989F8000060686D
:1011700060B1FFF7B7FD074604E0FFF7B3FDC11B01
:101180004145EDD828688003F7D50BE0FFF7AAFDAD
:10119000074604E0FFF7A6FDC11B4145E0D82868DB
:1011A0008003F7D42078DFF86492800744D5DAF81A
:1011B0000010504611F00C0F4FF0F80809D00068ED
:1011C000C0F3810002280BD18E48001F0068400246
:1011D00006D42868800714D5E068012823D110E0E0
:1011E000E068D0B10120C9F80000FFF77BFD074699
:1011F00004E0FFF777FDC01B6428B1D8286880079A
:10120000F7D5286898FAA8F22169B2FA82F220F09C
:10121000F8009140084328600EE0C9F80060FFF72D
:1012200061FD074605E0EAE0FFF75CFDC01B6428AE
:1012300012D828688007F7D42078000725D5DFF872
:10124000C4817348616908F16C0881B101210160B2
:10125000FFF748FD074605E07EE0FFF743FDC01BB2
:10126000642879D8D8F800008007F6D50DE006602C
:10127000FFF738FD074604E0FFF734FDC01B642884
:101280006AD8D8F800008007F6D42078400753D5F4
:101290005C483830016841F0805101600068DFF837
:1012A000748100F080500090D8F8001041F48071F3
:1012B000C8F80010FFF716FD074604E0FFF712FD1F
:1012C000C01B642848D8D8F80000C005F6D5DFF860
:1012D00034B10BF1680B8BF80060FFF703FD074694
:1012E00041F2883804E0FFF7FDFCC11B41457ED880
:1012F000DBF800008007F6D4207A8BF80000A068A5
:1013000068B1FFF7EFFC074604E0FFF7EBFCC11BF9
:1013100041456CD8DBF800008007F6D50CE0FFF7FC
:10132000E1FC074604E0FFF7DDFCC11B41455ED848
:10133000DBF800008007F6D4A069E8B3DAF8001003
:10134000C1F3810102295AD0022806D0C9F8606091
:10135000FFF7C8FC04464DE049E04F46C9F860601D
:10136000FFF7C0FC064604E0FFF7BCFC801B6428C6
:101370003DD828688001F7D4D4E90701084347F62F
:10138000C07191FAA1F1626AB1FA81F18A40A16A51
:101390004FF0FF3303EB51014FF4403393FAA3F3C3
:1013A000B3FA83F399400A4310434FF0706292FA04
:1013B000A2F2B2FA82F200E01FE0E16A9140084333
:1013C0001049091F086001203866FFF78BFC0446AE
:1013D00004E0FFF787FC001B642808D82868800118
:1013E000F7D50AE0FFF77EFC001B642802D9032032
:1013F000BDE8F88F28688001F4D40020F8E70120C8
:10140000F6E700000838024000380240000047427A
:10141000800E4742007000404FF0E0210428086928
:1014200003D020F004000861704740F00400FAE7A0
:1014300010B5401EB0F1807F01D3012010BD4FF0E8
:10144000E02460610F21601700F082FC0020A061A1
:1014500007202061002010BDFEE700002DE9F047C5
:10146000164F064600217888401E83B23888401EF9
:1014700082B2084600F04EFBDFF844900020C9F825
:10148000AC024FF00108C9F8948205464FEA162ACB
:101490000CE0002406E0504600F026FDF0B200F01B
:1014A00023FD641C3888A042F5D86D1C7888A842BA
:1014B000EFD8C9F8AC82BDE8F08700002C0000200E
:1014C0000080414238B5034C2488009400F07AF83B
:1014D00038BD0000280000202DE9FE4F0026A2EBB9
:1014E000000882465F1A701E35468946B8F1000F23
:1014F00002DD4FF0010102E003D14FF00001019144
:1015000002E0C8F100080190002F02DD4FF0010059
:1015100002E003D14FF00000009002E0C7F10007A5
:1015200000904046B84501DD044600E03C46601CA2
:101530004FF0000B029015E01FFA89F11FFA8AF0B4
:1015400000F016F846443D44A64202DD0199361BE0
:101550008A44A54202DD00992D1B89440BF101004C
:101560001FFA80FB02998B45E6DDBDE8FE8F000087
:1015700010B500F0CBFA03480088BDE8104000F039
:10158000CFBB0000280000202DE9F0411C46154685
:101590000E4607460B46FFF79FFF3A462346314665
:1015A0001046FFF799FF23462A4619463846FFF7AB
:1015B00093FF2A4623463146BDE8F0411046FFF727
:1015C0008BBF00002DE9F041141A641CA6B25C1A0E
:1015D000641CA7B2DDF8188000F09CFA00250AE030
:1015E000002404E0404600F09BFB641CA4B2B4421B
:1015F000F8D36D1CADB2BD42F2D3064841880088D5
:10160000491EBDE8F041401E8BB282B2002108465F
:1016100000F080BA2C00002030B50F4887B0016878
:1016200041F00801016000684FF4C35400F0080065
:1016300005900120CDE9004002900320074D039062
:1016400069462846FFF75AFA012221462846FFF745
:1016500043FB07B030BD000030380240000C0240B0
:1016600010B500F01DFCFFF7D7FF00F03BFAEF20AC
:1016700000F012FBEB2000F00FFB142000F0FCFA4E
:10168000FE2000F009FBEF2000F006FBEB2000F04D
:1016900003FB142000F0F0FA842000F0FDFA402053
:1016A00000F0EAFA852000F0F7FAFF2000F0E4FAF3
:1016B000862000F0F1FAFF2000F0DEFA872000F02B
:1016C000EBFAFF2000F0D8FA882000F0E5FA0A20B3
:1016D00000F0D2FA892000F0DFFA212000F0CCFAE5
:1016E0008A2000F0D9FA002000F0C6FA8B2000F022
:1016F000D3FA802000F0C0FA8C2000F0CDFA01204F
:1017000000F0BAFA8D2000F0C7FA012000F0B4FA18
:101710008E2000F0C1FAFF2000F0AEFA8F2000F01A
:10172000BBFAFF2000F0A8FAB62000F0B5FA0020BE
:1017300000F0A2FA202000F09FFA362000F0ACFA68
:10174000082000F099FA3A2000F0A6FA052000F0EF
:1017500093FA902000F0A0FA082000F08DFA0820FB
:1017600000F08AFA082000F087FA082000F084FAD6
:10177000BD2000F091FA062000F07EFABC2000F0B7
:101780008BFA002000F078FAFF2000F085FA602044
:1017900000F072FA012000F06FFA042000F06CFAF9
:1017A000C32000F079FA132000F066FAC42000F09C
:1017B00073FA132000F060FAC92000F06DFA2220BD
:1017C00000F05AFABE2000F067FA112000F054FA37
:1017D000E12000F061FA102000F04EFA0E2000F037
:1017E0004BFADF2000F058FA212000F045FA0C20D7
:1017F00000F042FA022000F03FFAF02000F04CFA2C
:10180000452000F039FA092000F036FA082000F0EF
:1018100033FA082000F030FA262000F02DFA2A20B2
:1018200000F02AFAF12000F037FA432000F024FA01
:10183000702000F021FA722000F01EFA362000F02D
:101840001BFA372000F018FA6F2000F015FAF2208A
:1018500000F022FA452000F00FFA092000F00CFAFF
:10186000082000F009FA082000F006FA262000F00F
:1018700003FA2A2000F000FAF32000F00DFA4320CA
:1018800000F0FAF9702000F0F7F9722000F0F4F996
:10189000362000F0F1F9372000F0EEF96F2000F06B
:1018A000EBF9ED2000F0F8F91B2000F0E5F90B2032
:1018B00000F0E2F9AE2000F0EFF9772000F0DCF95B
:1018C000CD2000F0E9F9632000F0D6F9702000F097
:1018D000E3F9072000F0D0F9072000F0CDF904204B
:1018E00000F0CAF90E2000F0C7F90F2000F0C4F98B
:1018F000092000F0C1F9072000F0BEF9082000F02F
:10190000BBF9032000F0B8F9E82000F0C5F9342055
:1019100000F0B2F9622000F0BFF9182000F0ACF935
:101920000D2000F0A9F9712000F0A6F9ED2000F0DB
:10193000A3F9702000F0A0F9702000F09DF91820A4
:1019400000F09AF90F2000F097F9712000F094F957
:10195000EF2000F091F9702000F08EF9702000F077
:101960008BF9632000F098F9182000F085F9112018
:1019700000F082F9712000F07FF9F12000F07CF98D
:10198000702000F079F9702000F076F9182000F04E
:1019900073F9132000F070F9712000F06DF9F32055
:1019A00000F06AF9702000F067F9702000F064F927
:1019B000642000F071F9282000F05EF9292000F081
:1019C0005BF9F12000F058F9012000F055F9F12001
:1019D00000F052F9002000F04FF9072000F04CF918
:1019E000662000F059F93C2000F046F9002000F094
:1019F00043F9CD2000F040F9672000F03DF9452083
:101A000000F03AF9452000F037F9102000F034F9E1
:101A1000002000F031F9002000F02EF9002000F045
:101A20002BF9672000F038F9002000F025F93C2060
:101A300000F022F9002000F01FF9002000F01CF94E
:101A4000002000F019F9012000F016F9542000F0F0
:101A500013F9102000F010F9322000F00DF9982051
:101A600000F00AF9742000F017F9102000F004F9D2
:101A7000852000F001F9802000F0FEF8002000F041
:101A8000FBF8002000F0F8F84E2000F0F5F80020F8
:101A900000F0F2F8982000F0FFF83E2000F0ECF89B
:101AA000072000F0E9F8352000F0F6F8212000F0DA
:101AB000F3F8112000F0F0F8782000F075FD2920EF
:101AC00000F0EAF8002000F007F905490120C1F80C
:101AD0009802BDE810404FF6FF70FFF7BFBC000052
:101AE0000080414210B5084C0020C4F8B002142018
:101AF00004F52C7400F058FD01202060BDE8104072
:101B0000142000F051BD0000008041420B46024607
:101B1000AFF300802DE9F041DFF8508007461C4606
:101B200015460E4698F80A0000F0B6F8380A00F09C
:101B3000A3F8F8B200F0A0F8280A00F09DF8E8B287
:101B400000F09AF898F80C0000F0A6F8300A00F0BF
:101B500093F8F0B200F090F8200A00F08DF8E0B2AF
:101B600000F08AF8BDE8F04100F0A6B82C00002093
:101B70002DE9FF4F81B00EAE824696E83100203845
:101B800000F0FF080298DFF8E0B02044401E83B266
:101B90000AEB5400BBF80010401E009182B2504680
:101BA0000299FFF7B7FF4FF000067DBB2F4908EB06
:101BB000480001EB800901F2744000EB081817E0BF
:101BC0000C2C03D018F8065000270CE019F806502A
:101BD000FAE7E80701D0039800E0049800F0A0F8C5
:101BE0006D087F1CFFB2B7EB540FF2D3761CF6B230
:101BF000A642E5D327E00C2C09D01D4800EB0810C5
:101C00000025875D029800EB060915E019E01748EA
:101C100008EB480100EB8100F2E70398ABF8000005
:101C2000F80706D00AEB05001FFA89F180B2FFF72A
:101C30009FFC7F086D1CEDB2B5EB540FEDD3761C05
:101C4000F6B2A642D7D30098ABF800000948418805
:101C5000008805B0491EBDE8F04F401E8BB282B22D
:101C600000210846FFF756BF28000020BA280008C8
:101C70002E2D00082C00002070B5064C0021C4F861
:101C8000AC120125C4F8945204F5257400F02CF927
:101C9000A56170BD0080414210B5064C0021C4F81A
:101CA000AC12C4F8941204F5257400F01DF901205B
:101CB000A06110BD008041420148007AFFF7ECBFEF
:101CC0002C00002010B50C46FFF7E6FFE0B2BDE89F
:101CD0001040FFF7D1BF000010492A224A812B2271
:101CE0008A812C220A81F02258B101280DD00228C5
:101CF0000FD0032811D10A804A80A8213620FFF78F
:101D0000E1BF0A804A800821F8E70A804A806821FA
:101D1000F4E70A804A80C821F0E770472C000020D1
:101D200070B5094C05460020C4F8AC020126C4F881
:101D30009462280A04F5257400F0D6F8E8B200F0A1
:101D4000D3F8A66170BD000000804142FEE77047F5
:101D50000907090E002806DA00F00F0000F1E02064
:101D600080F8141D704700F1E02080F800147047DF
:101D700070470000FEB520A0FEF778FB224C282318
:101D80001A465A2132200094FEF76EFE10261FA03C
:101D9000CDE9000601254FF6E0773B461F2287215B
:101DA00002953E2000F0BCF828231A465A216420F0
:101DB0000094FEF759FE15A0CDE900063B461F2210
:101DC00087210295702000F0ABF828231A465A218B
:101DD00096200094FEF748FE0CA0CDE900063B4695
:101DE0001F2287210295A22000F09AF8BDE8FE404C
:101DF0004FF4966000F0D8BBCDBCC6ACCFD4CABE01
:101E0000B2E2CAD400000000683F0008515100004F
:101E10002DE9F0471C4888B003AE0FC886E80F00D4
:101E20000024DFF8689001274FF010084FF6E07AA1
:101E30004FF47A752046FFF74FFF15A0FEF716FB0B
:101E400056F82410CDE9001853461F22029723218B
:101E5000282000F065F828231A4637211846CDF8C7
:101E60000090FEF701FE284600F09EFB284600F099
:101E70009BFB641CE4B2042CDCD30020FFF72CFF96
:101E800008B0BDE8F0870000E84B0008683F000894
:101E9000C6C1C4BBD0FDD7AAB2E2CAD400000000BC
:101EA00030B50F4887B0016841F02001016000683B
:101EB0004FF4207400F0200005900120CDE900408F
:101EC00002900320074D039069462846FEF716FE50
:101ED000012221462846FEF7FFFE07B030BD000074
:101EE000303802400014024030B5082100230A4A6D
:101EF0000124050602D5C2F8A44201E0C2F8A432CA
:101F0000C2F89C32C2F89C424006000E491E11F0F5
:101F1000FF01EED130BD000000804242704700005A
:101F20002DE9FF4F83B08846DDE91054064682460E
:101F30004FF00009DFF8CCB0129F1DE0B9F1000F9F
:101F400020D0BBF80010091BB14218DBBBF802001F
:101F5000011B414513DB4FF00009202C46D0CDE991
:101F60000057DDE90523182C4146304647D0FEF7DF
:101F700013FC301986B2AD1C28780028DED107B0DA
:101F8000BDE8F08FBBF80020A2EB5402B242F6DBB2
:101F9000BBF802100A1B41464245F0DB802802D9FB
:101FA0004FF00109E8E70D280DD0102C12D91021AF
:101FB0008DE88300DDE9052341463046FFF7D8FD73
:101FC0000836B6B210E008EB04001FFA80F8564657
:101FD0006D1C09E08DE89100DDE905233046FFF72F
:101FE000C7FD06EB540086B26D1CC5E7CDE900576E
:101FF000DDE9052341463046FEF7B8FCB9E7FEF7B8
:102000003FFCB6E72C00002070B51E4C92B00025B6
:10201000266846F080562660246804F080541194A7
:10202000194C266846F44046266024680DF1240CBD
:1020300004F4404411940124009401940224069471
:102040008CE80D006605CDE907616846FFF756F894
:1020500000B1FEE7FEF7B6FE00B1FEE70CA90F20C7
:1020600081E831004FF4A0500F904FF48050109051
:1020700005210CA8FEF7EAFE002800D0FEE712B00A
:1020800070BD00004038024000700040FEF730BED6
:102090001048016841F4700101600F48016841F087
:1020A000010101600C4A00210832116002680B4BEB
:1020B0001A400260031D0A4A1A60026822F4802254
:1020C000026005480C3001600249580680390860FA
:1020D0007047000088ED00E000380240FFFFF6FE88
:1020E000103000242DE9F84300242DA0FEF7BEF99E
:1020F0002F4E4FF6FF77009770881E21203883B24D
:102100003088401E82B20020FFF75CFA294DA046BD
:10211000CDF8008004EB8400718800EBC40000EB74
:1021200051013288C4EB041000EB520035F8142042
:102130000F232838193900F05FFA641CE4B2052C2B
:10214000E6D340F2DC58404600F02EFA0097708843
:102150001E21203883B23088401E82B20020FFF753
:1021600031FA00240127009704EB8400718800EB0A
:10217000C40000EB51013288C4EB041000EB5200A4
:1021800035F814200F232838193900F035FA641C6B
:10219000E4B2052CE7D34046BDE8F84300F004BAAA
:1021A000475549BBADD4B2CCEEB3E4B2E2CAD400D9
:1021B0002C000020000000202DE9FE43454C4FF686
:1021C000FF77009760880021401E83B22088401E60
:1021D00082B20846FFF7F6F910263FA0CDE90006C7
:1021E00001254FF6E0794B4600221E21029528205A
:1021F000FFF796FE4FF47A78404600F0D5F90020BC
:10220000009060880021401E83B22088401E82B268
:102210000846FFF7D7F932A0CDE900064B463A460B
:102220001E2102952820FFF77BFE404600F0BCF9F6
:102230004FF47847009760880021401E83B22088C1
:10224000401E82B20846FFF7BDF927A0CDE900067F
:102250004B461F221E2102952820FFF761FE4FF4F6
:102260004878404600F0A0F94FF4FC600090608888
:102270000021401E83B22088401E82B20846FFF72C
:10228000A1F91AA0CDE900064B461F221E21029596
:102290002820FFF745FE404600F086F91F200090F9
:1022A00060880021401E83B22088401E82B208460A
:1022B000FFF788F90FA0CDE900064B463A461E21EC
:1022C00002952820FFF72CFE4046BDE8FE4300F0B3
:1022D0006BB900002C00002057484954450000000D
:1022E000424C41434B000000524544004752454593
:1022F0004E000000424C5545000000002DE9F84317
:10230000002433A0FEF7B2F8354F4FF6FF78CDF832
:10231000008078881E21203883B23888401E82B21F
:102320000020FFF74FF92F4D2F4E35F81400308065
:1023300004EB8400798800EBC40000EB5101A1F1AB
:102340000A0083B238882839400800EB0410A0F155
:102350000A02283892B289B280B2FFF715F9641CDC
:10236000E4B2052CE1D340F2DC59484600F01CF9F8
:10237000CDF8008078881E21203883B23888401E2E
:1023800082B20020FFF71EF9002435F814003080D7
:1023900004EB8400798800EBC40000EB5101A1F14B
:1023A0000A0083B238882839400800EB0410A0F1F5
:1023B0000A02283892B289B280B2FFF783F8641C0F
:1023C000E4B2052CE1D34846BDE8F84300F0ECB890
:1023D000475549BED8D0CECCEEB3E4B2E2CAD40061
:1023E0002C00002000000020280000202DE9FC47E0
:1023F00000243AA0FEF73AF83C4F4FF6FF78CDF8AC
:10240000008078881E21203883B23888401E82B22E
:102410000020FFF7D7F8364D364E35F814003080DF
:1024200004EB4400798800EBC40000EB5102A2F1F8
:102430000C0081B23B88C4EB041000EB5300A0F108
:102440000B0C1FFA8CF3CDE90031273A93B2A0F1BF
:102450001A02283892B280B2FEF732F8641CE4B255
:10246000052CDAD340F2DC59484600F09DF8CDF84F
:10247000008078881E21203883B23888401E82B2BE
:102480000020FFF79FF8002435F81400308004EB9B
:102490004400798800EBC40000EB5102A2F10C006B
:1024A00081B23B88C4EB041000EB5300A0F10B0396
:1024B0009BB2CDE90031273A93B2A0F11A02283835
:1024C00092B280B2FEF7A4F8641CE4B2052CDBD310
:1024D0004846BDE8FC4700F067B800004755492072
:1024E000547269CCEEB3E4B2E2CAD4002C000020EE
:1024F0000000002028000020FEE72DE9F05F1546CF
:102500001C46DDF828B00E46074601EB040800EB38
:10251000050A1FFA88F11FFA8AF05A46FEF79AFA5E
:102520001FFA88F1A7EB05081FFA88F05A46FEF754
:1025300091FAA6EB04091FFA89F11FFA8AF05A46AC
:10254000FEF788FA1FFA89F11FFA88F05A46FEF75B
:1025500081FA06EB050907EB04081FFA89F11FFA57
:1025600088F05A46FEF776FA3C1B1FFA89F1A0B2B2
:102570005A46FEF76FFA751BA9B21FFA88F05A4641
:10258000FEF768FAA9B2A0B25A46BDE8F05FFEF7BE
:1025900061BA000010B504460420FEF73DFF014873
:1025A000046010BD2400002070B5054600244FF4DF
:1025B0007A7603E0304600F005F8641CAC42F9D3AB
:1025C00070BD000070B54FF0E02500216C69094A2C
:1025D000AB6912685043AA699A42FCD002D2A3EBBD
:1025E000020302E0A4EB020633441944134681427D
:1025F000F1D370BD240000202DE9F84F89461E4616
:10260000904682460024714203220A9802EB41055B
:10261000C8B930E0274608E03B46224649465046C6
:10262000CDF80080FFF769FF7F1CB742F4DD002D75
:1026300003DA05EB8405AD1D04E0A01B05EB800566
:102640000A35761E641CB442E4DDBDE8F88F3346DB
:10265000224649465046CDF80080FFF74EFF002D38
:1026600003DA05EB8405AD1D04E0A01B05EB800536
:102670000A35761E641CB442E9DDE6E7FEF740FB4E
:102680000823022219214FF4B470FFF7BDFCB420D7
:10269000FFF780FFFEF7E4FF00F014F800F072F897
:1026A000FFF78AFDFFF72AFEFFF71CFDFFF79EFEEE
:1026B000FDF71EFFFDF746FEFFF75CFBFFF7A8FBEB
:1026C000EAE70000FEB51FA0FDF7D0FE01251024AB
:1026D00020A08DE831001F23DE0232464E2100206B
:1026E000FEF7EAF917A08DE831001F2332465F217B
:1026F0000020FEF7E1F91AA08DE831004FF4FC66E6
:102700001F23324670210020FEF7D6F918A08DE86D
:1027100031001F23324681210020FEF7CDF916A09B
:102720008DE831001F231A4692210020FEF7C4F9DC
:1027300040F2DC542046FFF737FF2046BDE8FE405C
:10274000FFF732BFD7DBBACFB2E2CAD4B3CCD0F2F4
:1027500000000000C8ABB6AFB5E7D7D3000000005B
:10276000312E3238222047433941303100000000F9
:102770003234305832343000323032322D30392D4C
:10278000313600002DE9FE434EF67D784046FEF7D7
:1027900065FE364C622555232088623800EBD070E8
:1027A00005EB60018AB2C0F34F004121FDF71CFE2A
:1027B00010272FA0CDE9000701261F234FF61F0287
:1027C000432102960020FEF777F9208873236238B0
:1027D00000EBD07005EB60018AB2C0F34F005F21BF
:1027E000FDF702FE26A0CDE9000700224346612145
:1027F00002961046FEF760F920889123623800EBBC
:10280000D07005EB60018AB2C0F34F007D21FDF767
:10281000EBFD1FA0CDE9000743461F227F21029652
:102820000020FEF749F92088AF23623800EBD07012
:1028300005EB60018AB2C0F34F009B21FDF7D4FD88
:1028400017A0CDE9000743464FF478429D21029638
:102850001020FEF731F940F2DC50FFF7A5FEBDE88D
:10286000FE434FF4FA70FFF79FBE00002C000020DB
:10287000CDBCD0CECFD4CABEB2E2CAD400000000D4
:10288000B4BFC9ABCCEEB3E4B2E2CAD400000000DE
:10289000D6D0CEC4CFD4CABEB2E2CAD400000000A3
:1028A000CDBCC6ACCFD4CABEB2E2CAD400000000D0
:1028B0004FF04070E1EE100A704700000000000089
:1028C00000000000000000000404040404040004EC
:1028D000000000140A0A00000000000000000000D0
:1028E00014143F140A3F0A0A000000041E150506CE
:1028F0000C14150F0400000012150D0A142C2A12D6
:1029000000000000040A0A1E151509360000000226
:10291000020100000000000000000020100808086C
:102920000808081020000002040808080808080425
:10293000020000000004150E0E1504000000000047
:102940000404041F04040400000000000000000050
:1029500000000002020100000000001F0000000053
:102960000000000000000000000000020000001055
:102970000808080404020202010000000E111111EF
:102980001111110E00000000040604040404040EDA
:10299000000000000E1111080402011F00000000D9
:1029A0000E11100C1010110E00000000080C0A0A85
:1029B000091E0818000000001F01010F1010110E61
:1029C000000000000E09010F1111110E000000009F
:1029D0001F09080404040404000000000E11110E75
:1029E0001111110E000000000E1111111E10120E17
:1029F00000000000000004000000000400000000CF
:102A0000000000040000000404000020100804027C
:102A1000040810200000000000001F00001F00003C
:102A2000000000020408102010080402000000004A
:102A30000E11110804040004000000000E11191505
:102A4000151D011E0000000004040C0A0A1E1233AA
:102A5000000000000F12120E1212120F00000000F0
:102A60001E1101010101110E000000000F121212CF
:102A70001212120F000000001F120A0E0A02121F8B
:102A8000000000001F120A0E0A02020700000000E8
:102A90001C1201013911120C000000003312121E29
:102AA00012121233000000001F0404040404041F67
:102AB000000000003E080808080808090700000098
:102AC00037120A060A0A1237000000000702020243
:102AD0000202223F000000001B1B1B1B15151515D1
:102AE000000000003B1216161A1A12170000000010
:102AF0000E1111111111110E000000000F12120E13
:102B000002020207000000000E1111111117190E28
:102B1000180000000F12120E0A12123700000000F7
:102B20001E1101060810110F000000001F150404FB
:102B30000404040E00000000331212121212120CD0
:102B4000000000003312120A0A0C04040000000006
:102B50001515150E0A0A0A0A000000001B0A0A04CD
:102B6000040A0A1B000000001B0A0A040404040EE5
:102B7000000000001F0908040402121F0000001CCE
:102B800004040404040404041C00000202020404FB
:102B9000080808100000000E0808080808080808BF
:102BA0000E0000040A000000000000000000000009
:102BB0000000000000000000003F000400000000D2
:102BC00000000000000000000000000C121C123C7D
:102BD000000000000302020E1212120E000000009C
:102BE0000000001C1202021C000000001810101C43
:102BF0001212123C000000000000000C121E021C09
:102C0000000000003804041E0404041E000000003C
:102C10000000003C120C021E221C00000302020EE7
:102C20001212123700000000040000060404040E13
:102C3000000000000800000C080808080807000051
:102C40000302023A0A0E12370000000007040404CF
:102C50000404041F000000000000000F15151515E6
:102C6000000000000000000F1212123700000000E8
:102C70000000000C1212120C000000000000000FF7
:102C80001212120E020700000000001C1212121C89
:102C9000103800000000001B0602020700000000C0
:102CA0000000001E020C101E000000000004040EB4
:102CB00004040418000000000000001B1212123C63
:102CC0000000000000000037120A0C0400000000A1
:102CD00000000015150E0A0A000000000000001B8D
:102CE0000A040A1B0000000000000037120A0C044E
:102CF000040300000000001E0804041E0000001869
:102D0000080808040808080818000808080808083F
:102D10000808080808080006040404080404040459
:102D2000060002251800000000000000000000005E
:102D30000000000000000000000000000000000093
:102D400000080808080808080000181800000048D3
:102D50006C241200000000000000000000000000D1
:102D6000002424247F1212127F121212000000008D
:102D7000081C2A2A0A0C1828282A2A1C08080000DD
:102D80000022251515152A5854545422000000001D
:102D9000000C1212120A76252911916E000000060D
:102DA00006040300000000000000000000000040D6
:102DB0002010100808080808081010204000000221
:102DC0000408081010101010100808040200000079
:102DD000000008086B1C1C6B0808000000000000C5
:102DE0000000080808087F08080808000000000024
:102DF00000000000000000000000060604030000C0
:102E0000000000000000FE000000000000000000C4
:102E100000000000000000000000060600000000A6
:102E20008040402020101008080404020200000026
:102E3000001824424242424242422418000000004C
:102E400000080E08080808080808083E00000000EE
:102E5000003C4242422020100804427E0000000054
:102E6000003C4242201820404042221C000000004A
:102E700000203028242422227E2020780000000018
:102E8000007E0202021A26404042221C000000007E
:102E900000382402021A2642424224180000000090
:102EA000007E222210100808080808080000000010
:102EB000003C4242422418244242423C00000000AE
:102EC00000182442424264584040241C0000000084
:102ED0000000000018180000000018180000000092
:102EE00000000000000800000000000808040000C6
:102EF00000402010080402040810204000000000D8
:102F0000000000007F0000007F00000000000000C3
:102F100000020408102040201008040200000000F5
:102F2000003C4242464020101000181800000000EB
:102F3000001C225A555555552D42221C00000000F8
:102F4000000808181414243C224242E70000000044
:102F5000001F2222221E22424242221F00000000A5
:102F6000007C4242010101010142221C00000000DC
:102F7000001F2242424242424242221F0000000001
:102F8000003F4212121E12120242423F0000000095
:102F9000003F4212121E121202020207000000003D
:102FA000003C2222010101712122221C00000000AC
:102FB00000E7424242427E42424242E700000000B5
:102FC000003E0808080808080808083E000000003D
:102FD000007C10101010101010101010110F0000B5
:102FE000007722120A0E0A12122222770000000035
:102FF00000070202020202020202427F00000000F9
:103000000077363636362A2A2A2A2A6B0000000034
:1030100000E346464A4A52525262624700000000AC
:10302000001C2241414141414141221C000000005D
:10303000003F424242423E020202020700000000FC
:10304000001C2241414141414D53321C60000000AF
:10305000003F4242423E1212222242C700000000BC
:10306000007C4242020418204042423E0000000020
:10307000007F4908080808080808081C000000002C
:1030800000E74242424242424242423C00000000CB
:1030900000E742422224241414180808000000000B
:1030A000006B49494949555536222222000000004B
:1030B00000E7422424181818242442E700000000E6
:1030C00000772222141408080808081C00000000D9
:1030D000007E2120101008040442423F00000078C6
:1030E0000808080808080808080808087800000008
:1030F0000202040408080810102020204040001E8E
:103100001010101010101010101010101E000038A9
:10311000440000000000000000000000000000006B
:1031200000000000000000000000000000FF00069A
:103130000800000000000000000000000000000087
:1031400000000000003C4278444242FC00000000C5
:1031500000030202021A26424242261A0000000020
:103160000000000000384402020244380000000061
:103170000060404040784442424264D80000000071
:1031800000000000003C427E0202423C00000000C1
:1031900000F08808087E08080808083E00000000C3
:1031A00000000000007C22221C023C42423C000045
:1031B00000030202023A4642424242E70000000097
:1031C000000C0C00000E08080808083E0000000073
:1031D000003030000038202020202020221E000057
:1031E000000302020272120A161222770000000087
:1031F000000E0808080808080808083E000000003B
:1032000000000000007F9292929292B700000000AE
:1032100000000000003B4642424242E7000000003E
:1032200000000000003C42424242423C00000000DC
:1032300000000000001B26424242221E020700003E
:1032400000000000007844424242447840E0000020
:103250000000000000774C040404041F000000007C
:1032600000000000007C42023C40423E00000000A2
:1032700000000008083E08080808083000000000A8
:103280000000000000634242424262DC0000000095
:103290000000000000E74224241408080000000099
:1032A0000000000000EB49495555222200000000B3
:1032B00000000000007624181818246E000000009A
:1032C0000000000000E7422424141808080700004A
:1032D00000000000007E22100808447E000000C0AC
:1032E000202020202010202020202020C00010108E
:1032F00010101010101010101010101010100006E8
:1033000008080808081008080808080806000C3211
:10331000C200000000000000000000000000C9EE34
:10332000000027FC140414A48110420840401040FF
:1033300017FC2040E0E0215022482C46204000406D
:10334000DBDA11041124112411241124FD24112489
:1033500011241124112411241D24E12442240204E7
:103360000404CAD00200010000007FFC010001003B
:1033700001003FF8210821082108210821282110F7
:1033800001000100C8AB00000000018002400430D1
:10339000180860061FF90100010001003FF8010054
:1033A000010001007FFEB6AF0000000000203E20BB
:1033B000007C002200227F221022102212221222E0
:1033C000224223423D82009CB5E70000010001003B
:1033D0001FF0610C410441047FFC4104410441049D
:1033E0007FFC01000102010201FCD7D300000000B4
:1033F0003FF8001000600080010000807FFE004068
:10340000004000200020002018400780BCBC102095
:103410001020102013FEFC201020102015FC188412
:103420003088D04810501020105051882606CAF518
:1034300001000120011001107FFC038005400540C0
:10344000092011102108410481020100010001003E
:10345000D3D002000200FFFE040004000FF00810A9
:1034600018102FF0481088100FF00810081008509E
:103470000820CFDE00007BF84A08520853F86208A3
:1034800052084BF84A444A486A3052204210428857
:1034900043064200B9AB0080048004800840084025
:1034A000102020104208820604000440082010204A
:1034B0003FF010100000CBBE00003FF800080008ED
:1034C0007FE8000800081F8810881088108810887E
:1034D0001F88108800280010BBB600800080FC8088
:1034E00004FC050449082A401440104028A024A0E8
:1034F00045108110020804040802D3AD00002080AA
:10350000133C122402240224F2241224122412B4A2
:10351000132812201020282047FE0000C4FA0900BA
:10352000090011FC320454489950114812441444C3
:103530001140108002005104511290120FF0B4BFDC
:1035400000000020102013FE202026244A247A2484
:103550001224222423FC7C20002204227822003C16
:10356000C9AB0000000004000FF0102020207FFCF9
:1035700020842084208420843FF820002002200220
:103580001FFECCEE00000000204023FE204079FC0E
:10359000220423FC220423FC220423FC3A0465FABF
:1035A00001980204B3E40000010001007FFE022044
:1035B0000410040808043FFC044204400440044290
:1035C00008421042607EBED800000000207E3E808F
:1035D0004880488048FE48827F8208820C8214FA24
:1035E00012842280218040FED0CE000000007F8423
:1035F0002208223022C0220222047FC8223022C2A6
:1036000022022204220822304040BBAD000000000C
:103610007FFE00000FF011101110111051125FF217
:103620005112511251124FF240027FFCD4B20000ED
:1036300000007FFE47E24812481247E24FF2501264
:1036400050125112511242924472580A3FFCCDBCA2
:10365000000000003FFE440247F24C2253624082C9
:1036600043625E1A41824062430240C240223FFCF4
:10367000C6AC000000402040204020403FFE20001B
:10368000200020003FE020102010201020104010CB
:103690004010CFD4000000003FFC200420043FFC79
:1036A000200420041FF824441448144814480C50E3
:1036B00004407FFECABE000000003FFC0000000086
:1036C00000007FFE00800890088810881084208405
:1036D000208240820780B2CB0000002008207FFEBD
:1036E000002000783F881108089009207FFE0180A3
:1036F00003400D30310C4002B5A500000010081049
:1037000004203FF8210421043FFC210421043FF858
:1037100001007FFE010001000100D6D00000010081
:10372000010001003FFC21042104210421042104A3
:1037300021043FFC0100010001000100D3A20000B0
:10374000000008207FFE0820092001003FF8210822
:10375000210821081FF4014002200C10700ECEC475
:1037600000000100010000803F7C081008100410D8
:103770000420022002400180018002601C18E00643
:10378000D7DB00000000102011FE2202220249FCBB
:103790005800300013FE2528792401240D247222BC
:1037A00002A2BACF000000000180024004301808D5
:1037B00060061FF800001FF82004200420042004E5
:1037C00020041FF8C1C10000010001007FFE0000BD
:1037D0003FF820083FF83FF8400647C24824082039
:1037E00008221022603EB6C80000000000803FFEA4
:1037F00044105FFC4410441043F040005FF844085C
:10380000423041C04360BC1EB2E20000000067C20B
:10381000145205520552C5522552055205521552F1
:103820001752228222424442483ECAD4000000007D
:103830002014101417FE00120010601013F01090E6
:1038400010901090149214EA1F0A0006B3CC0000E6
:10385000000019FE7202120212027DFC18001BFE0B
:103860003420502053FE10201020102013FED0F2E0
:103870000000000000803FFE400047FC420841304D
:1038800040C05FFE404240424044404840404440C7
:10389000B5F70000000023FE122202FA0222E22203
:1038A00012FE1272128A128A128A16BA1A42120270
:1038B000040EB9E200000100010411080908091012
:1038C00009207FFE044004400440044008420842AE
:1038D0001042607CB0E60000000048FE490049004C
:1038E00049007EFE418241447944452845284510DF
:1038F000452846440382C8A800001000100013FCAD
:103900007D04110419041884348850485050102044
:103910001050108813041402CBF9000000003F7C03
:10392000204020403E40227E2244224422443E84C5
:1039300020842084408441044204C6C100003FF832
:10394000200820083FF8241022202FF822202220CF
:103950003FFC22204220442084200820C4BB044095
:103960007FFC04401FF010101FF010101FF0040027
:10397000FFFE11103FF8D116115011200100D0FDAB
:103980002080108010FE0100FE0021FC20243C2439
:1039900024A024A024BC24A024A04560553E8A0075
:1039A000D7AA202020202020FDFC4020504093FE5C
:1039B000FC40108011FC1C04F088505010201010A6
:1039C0001010BFAA00007FFC082008200820082053
:1039D0000820FFFE082008200820082010201020C2
:1039E00020204020D4B4000027FE1420144085FC81
:1039F000450445FC150415FC2524E42024A82924AD
:103A00002A2230A00040D2BA0080204017FE1120A8
:103A10008120423C4244166412942348E2482230FA
:103A20002220225022880306BEA70FE0082008208B
:103A30000FE0082008200FE000007EFC4284428452
:103A40007EFC428442847EFC4284CDF800007FFCF0
:103A500040044004421452944A54442444244A5496
:103A60004A5452946104400440144008D5BE1020CA
:103A7000082008207E20003E04204420442025FC0D
:103A8000290429040F04F104410401FC0104B0B429
:103A900010401020102013FEFA02144410401BFEA8
:103AA0003088D088110810D010201050508823047E
:103AB000BCFC201020103B7C211441FE7A14A27C17
:103AC0002710F97C251025FE22102A10350028FE2B
:103AD0000000D0A310401020102011FEFC00108820
:103AE00031043A02548850889050105010201050E1
:103AF00010881306D7BC01404120212023FE02205C
:103B000016201BFC1220222023FCE220222022204F
:103B100023FE22000200B4A520202020782049FCAA
:103B200091247D24552455247DFC552454207C2843
:103B3000542457FE45028C00C3FE1110111017FCCF
:103B40001110FC0013F8120817F81A0833F8D040C7
:103B500017FC10A0111052082406C9EE0000000046
:103B600000001000000800080C7FFC04401001C891
:103B7000A002186042301832231812C30014030048
:103B800004030C047FF0080F80080B4078136018C2
:103B9000332018631818831C190308180300000346
:103BA00000000000DBDA00000000000004100C043C
:103BB000180C04108C04108C04108C04108C04D08D
:103BC0008C3F108C04108C04108C04108C04108C0E
:103BD00004108C04108C05F08C0E208C78208C2026
:103BE000408C00808C01000C02000C000000CAD048
:103BF000000000000000003000001800001808005D
:103C0000001C1FFFE000180000182007FFF0041838
:103C10002004182004182004182004182004182058
:103C20000418200418200418200418E00418400088
:103C30001800001800000000D6D0000000000000AE
:103C4000000000000000001800001800001800002C
:103C500018003FFFFE3018063018063018063018DE
:103C6000063018063FFFFE30180600180000180046
:103C700000180000180000180000000000000000FC
:103C80000000CEC40000000000000000000038006A
:103C9000001C00000600FFFFFF0600300600300396
:103CA00000600300600180C000C18000E3000036B6
:103CB00000001C0000770003C1E01E003C6000070C
:103CC000000000000000000000000000B2E2000060
:103CD0000000000000000000000040000321FF334E
:103CE000398333118333019B33C19B33719B331968
:103CF0009B33019B33019B33119B3319B33330301A
:103D000033306C0330C6036383032E01BE00000012
:103D1000000000000000CAD4000000000000000005
:103D2000000000004000D83000CE1800C21C00C0C7
:103D300001FFFF0000C0F800C01800C019FFC01844
:103D400018401818601918601B18611E18311C1FC4
:103D5000B139F01910000F00000000000000000051
:103D6000D7D600000000000600000003000000009D
:103D7000C0000001C0C0000107C00001FF00021F19
:103D8000FE0007F01C0007C070000F00E0000E03EB
:103D9000F0001C0FF0003C0F70003C00E000180029
:103DA000C0000000C0000000C00000006000000073
:103DB0002000000037000001FF00007FF80007F836
:103DC00030001F8030000080300000C030000060F4
:103DD00060000018E000000FC000000600000000B6
:103DE0000000CCE50000000000000000000000C062
:103DF000000000E0002001B800703FF80061FFC043
:103E000000C3030001C60600038C060003080C0073
:103E100006080C000E18183F1E101BF31F903F07DA
:103E200000803C1C0190707C019060FE01A0C3F8F2
:103E300001A00FD803A00818036000180340001861
:103E400003C00018038000180300001800000018C9
:103E500000000010000000300000003000000000F2
:103E600000000000B2E200000000000000000000BE
:103E7000000000000000020C1008071FF80403BF38
:103E8000F00201BC300303EC3003015C600300D896
:103E9000600300D860038098620361B8430771B182
:103EA0004306313243063376C3063A64C7063EEC16
:103EB000C0063E78C0063C3040067C70000678E0C4
:103EC00060067BFFF006F7C00006E4000006400035
:103ED0000006000000060000007C00008FF00000DB
:103EE0007C0000000000CAD40000000000000000B8
:103EF0000000000000003F0000007F800000018003
:103F0000000000C0000000C0000000CE038000CF11
:103F1000FFC000DD41800FFE0007FFFC000C00F039
:103F200000180FC03E19FF40F311BC6083307FE0E2
:103F300003B1FE20033380200370003003600010C3
:103F40000360001807C0000C07C0000407800002CF
:103F5000010000030000000100000000000000005C
:103F60000000000000000000FFFFFFFFFFFFFFFF59
:103F7000FFFFFFFFFFFFFFFFFFFFFFFFFFFFFFFF51
:103F8000FFFFFFFFFFFFBEF7FFFFDEFF38C6928C8B
:103F90008E6B6E6B107C96AD3CE7FFFFFFFFFFFF63
:103FA000FFFFFFFFFFFFFFFFFFFFFFFFFFFFFFFF21
:103FB000FFFFFFFFFFFFFFFFFFFFFFFFFFFFFFFF11
:103FC000FFFFFFFFFFFFFFFFFFFFFFFFFFFFFFFF01
:103FD000FFFFFFFFFFFF5DEF159D4F636C420A324D
:103FE0008829461925194521E8318E6B38C6FFFF0F
:103FF000FFFFFFFFFFFFFFFFFFFFFFFFFFFFFFFFD1
:10400000FFFFFFFFFFFFFFFFFFFFFFFFFFFFFFFFC0
:10401000FFFFFFFFFFFFFFFFFFFFFFFFFFFFFFFFB0
:10402000FFFFFFFF36A51053104B51530F4B6C3A57
:10403000E93167212519E410A30862008308CB52F7
:104040009AD6FFFFFFFFFFFFFFFFFFFFFFFFFFFF0E
:10405000FFFFFFFFFFFFFFFFFFFFFFFFFFFFFFFF70
:10406000FFFFFFFFFFFFFFFFFFFFFFFFFFFFFFFF60
:104070003CE77063B363B87CF56311434D32EA29C2
:10408000882126190519051904110411E41083006B
:10409000A308728CFFFFFFFFFFFFFFFFFFFFFFFF83
:1040A000FFFFFFFFFFFFFFFFFFFFFFFFFFFFFFFF20
:1040B000FFFFFFFFFFFFFFFFFFFFFFFFFFFFDBDE55
:1040C0004B3AF042356C544BB1322E2AEB21A921E8
:1040D00067190519041104110411041104110519BB
:1040E000E4104200AF73FFFFFFFFFFFFFFFFFFFF82
:1040F000FFFFFFFFFFFFFFFFFFFFFFFFFFFFFFFFD0
:10410000FFFFFFFFFFFFFFFFFFFFFFFF5DEF093234
:104110004C32104B8F324F2A2E2ACC198919892103
:104120004719051904110411C410C4100411041115
:104130000411E41042003184FFFFFFFFFFFFFFFF87
:10414000FFFFFFFFFFFFFFFFFFFFFFFFFFFFFFFF7F
:10415000FFFFFFFFFFFFFFFFFFFFFFFFEC524719CD
:104160004C320B2AEC21EC210C22915BEE4A061119
:1041700026190419E410E410A7296621A3080519DB
:1041800004110411E4108200F7BDFFFFFFFFFFFFE1
:10419000FFFFFFFFFFFFFFFFFFFFFFFFFFFFFFFF2F
:1041A000FFFFFFFFFFFFFFFFFFFF35A5830888210B
:1041B00088218921AA218A216B42718CFFFF728C90
:1041C00083080411C4082942FBDE5DEFEC5A830822
:1041D0000411041104118308E831DFFFFFFFFFFF22
:1041E000FFFFFFFFFFFFFFFFFFFFFFFFFFFFFFFFDF
:1041F000FFFFFFFFFFFFFFFFBEF7C731C410251908
:10420000261947194719A8298A52284A55ADFFFF90
:10421000E831A30805194D6B4D6BFFFF7DEF45217C
:10422000C410041104110411620076ADFFFFFFFFFA
:10423000FFFFFFFFFFFFFFFFFFFFFFFFFFFFFFFF8E
:10424000FFFFFFFFFFFFFFFF96B562000411041997
:1042500005110519C4088B4AB6B55DEFF7BDFFFF20
:104260008E6B62002942AA5A0842FFFFFFFFCC5220
:104270008308041104110411A308AD52FFFFFFFFCE
:10428000FFFFFFFFFFFFFFFFFFFFFFFFFFFF1CE739
:10429000FFFFFFFFFFFFFFFF4E63620004110411E9
:1042A0000411E41062008E63FFFFFFFFFFFFFFFFBA
:1042B000CF730100F39C2C6396B5FFFFFFFF2D5BCE
:1042C0008300041104110411E41067213DEFFFFF86
:1042D000FFFFFFFFFFFFFFFFF8BDB7B59EEFCB521B
:1042E000B394FFFFFFFFDFFFE831A30804110411BF
:1042F00004110411A3084942FFF7FFF7FFFFFFFF76
:104300006A4A01007284FFFFFFFFFFF7DFEF093AFF
:10431000A3080411041104110411051118BEFFFFB4
:10432000FFFFFFFFFFFFFFFFF07B6200E831C731B7
:10433000410035A5FFFF5DEF4621C41004110411B3
:1043400004110411E410A308769DFFF7FFFFB7AD39
:10435000A308A308C7319EE7FFF7FFF776A5A308D8
:10436000E4100411041104110511051135A5FFFF16
:10437000FFFFFFFFFFFFFFFFDBDEA7298300C41065
:10438000C410C4101CE79EEF0511E41004110411C1
:10439000041104110419C408E510D16BD16BC508D0
:1043A0006400A50843002B32779DB3842519C410FF
:1043B000041104110411041125192609359DFFFF6C
:1043C000FFFFFFFFFFFFFFFFFFFFAF736200041956
:1043D000051982000D5B8E9B6210051104110411FA
:1043E0000419E41085000511C439815A407B229CD0
:1043F00043AC03A4839B82728249C218A400C50007
:10440000E41004190411051947196711EC5ABEFF8D
:10441000FFFFFFFFFFFFFFFFDFFFDBDEC410E41045
:1044200004110511A41801C08388E40005190419BA
:10443000C5084421438323D542FEE4FE27FF07FF3E
:10444000A4FE64FE03FEA3FDE2FC42EC83B32462FF
:10445000E510C40804192619A81987210090D3BCB7
:10446000FFFFFFFFFFFFFFFFDFFFFFFF107C4200AA
:1044700005190511832801D044F8A348E400C508B4
:10448000445A02EDE2FD02FE66FE74FFB8FF73FFC0
:10449000E7F6A6F645F6A4F5C3FC62FCC2FCC2FC36
:1044A000E3CBC449061188198701A49001F8EC9A5E
:1044B000FFFFFFFFFFFFFFFFFFFFFFFFBEF7E8313A
:1044C00083000509824001C023F885F0A348A400B9
:1044D000445A02FD23CCC2DC04FE28FE48F646F610
:1044E00024F6E4F564FDE3FC62FCC2FC02E402DCB9
:1044F000E2FCA47A48016701C47824F802F884B089
:104500007DE7FFFFFFFFFFFFFFFFFFFFFFFFDBDE9A
:104510002519A300C43802E022D844F8A6F8A478EC
:104520006300432183728339829B21F561FD22FD63
:10453000E2FCA2FC42FC42FC42FC22AB8341C3925F
:10454000045226012519A49844F823F802F8A4D0AF
:104550009EEFFFFFFFFFFFFFFFFFFFFFFFFFFFFFDC
:104560009AD68729A50043B822F823E065F8E8F831
:1045700007C983484200A30084006329A27A62B37A
:10458000A2CB62D302BB828A8339A400E500E50096
:10459000E508C46064D844F824F823F802F8838856
:1045A000DBC6FFFFFFFFFFFFFFFFFFFFFFFFFFFF78
:1045B000FFFF3DE7505B083123E843F844F065F81E
:1045C00009F9ABF989D10689A348421802004200D3
:1045D00061008200620062008300A320C450A588AD
:1045E00085D865F844F844F823F823F803D08210FE
:1045F000C7295DEFFFFFFFFFFFFFFFFFFFFFFFFF8B
:10460000FFFFFFFFFFFF6C32A53802D823F865F8E3
:1046100066F8A7F84AF90CFA4DFA4CEA0BD2A9B998
:1046200068B147A927B107B907D1E7E8C7F8A7F8E4
:1046300065F865F844F823F803F802D0A3280509C3
:10464000C408EC5AFFFFFFFFFFFFFFFFFFFFFFFF64
:10465000FFFFFFFFFBDE0519C400A741E6C003F81A
:1046600086F8A7F887F886F8C7F829F98AF9ABF928
:10467000ABF98BF96AF929F908F9C7F8A6F886F8B1
:1046800065F864F823F802F006B12529E400E41087
:1046900025192519149DFFFFFFFFFFFFFFFFFFFFF7
:1046A000FFFFFFFF96AD620082083595BACE8BA260
:1046B00044D025F887F8A7F8C7F8A7F887F886F850
:1046C00086F886F887F8A7F8A7F8A6F885F865F8B9
:1046D00064F824F064B80D93BBB6CF63830804116B
:1046E000E4106621493A5DEFFFFFFFFFFFFFFFFF88
:1046F000FFFFFFFFD3944200E410BBCEFFFFBEE7F5
:1047000076B5CCAA07C145E045F846F866F886F8C4
:1047100086F886F886F865F845F865F865E844D0C7
:1047200043A8018882903CD7FFEF55958308041178
:10473000041105194619B394FFFFFFFFFFFFFFFFA8
:10474000FFFFFFFFB394410086215DDFFFFFFFFF06
:10475000FFFFDFE77AC6D3B44EB32AC268D1E6E0E2
:10476000A6E8A5E8A5E8E6D888C906A922A802A86F
:1047700000A000C800D8F7E5FFE7F8ADC410E410CA
:104780000411E41005118B4AFFFFFFFFFFFFFFFF3D
:10479000FFFFFFFF55A54100A7295DDFFFF7FFFFE2
:1047A000FFFFFFFFFFFFFFFFFFEF7DDFDBCE59CEF7
:1047B000F8CDD7CDF7C579CEFBBEABA203F045F857
:1047C00042D043E800F072D4FFDF39AEE410E410C9
:1047D0000411E41005118729FFFFFFFFFFFFFFFF12
:1047E000FFFFFFFF59CE830846211CD7FFF7FFFFCD
:1047F000FFFFFFFFFFFFFFFFFFFFFFFFFFFFFFFFC9
:10480000FFFFFFFFFFFFFFFFFFEF8BBA04F845F844
:1048100062E044F000F88EDBFFDFF8A5C410E4107E
:10482000E4100411E4102519FFFFFFFFFFFFFFFF55
:10483000FFFFFFFFBEF78729830839B6FFF7DFF7D1
:10484000FFFFFFFFFFFFFFFFFFFFFFFFFFFFFFFF78
:10485000FFFFFFFFFFFFFFFFBEE74ABA03F845F87F
:1048600064F844F800F86EE3FFD7F48C8308041171
:10487000E410E410E4100519FFFFFFFFFFFFFFFF46
:10488000FFFFFFFFFFFFEF7300007284FFEFBEEF3B
:10489000DFFFFFFFFFFFFFFFFFFFFFFFFFFFFFFF48
:1048A000FFFFFFFFFFFFFFFFDFE78BBA03F845F8CD
:1048B00045F823F800F8D3D4FFD74E5B2100293AFE
:1048C00055A58308C4102519FFFFFFFFFFFFFFFF59
:1048D000FFFFFFFFFFFFFBDEA308E8319EDF9EE73F
:1048E000BFEFFFFFFFFFFFFFFFFFFFFFFFFFFFFF28
:1048F000FFFFFFFFFFFFFFFFFFF751BC02E003F8E0
:1049000003F043E0ECC27ECFFCBE46212100D394ED
:10491000FFFF518400008729FFFFFFFFFFFFFFFF1C
:10492000FFFFFFFFFFFFFFFF51840000F48CFFEF4C
:104930009EE7BFEFDFFFFFFFFFFFFFFFFFFFFFFF70
:10494000FFFFFFFFFFFFFFFFFFFF3DDF55BD52BC35
:1049500072BCB7B55DC7FFDFF06B0000093ABFF767
:10496000FFFFFFFF149D55A5FFFFFFFFFFFFFFFFA8
:10497000FFFFFFFFFFFFFFFFFFFFAC4AA408BBBE26
:10498000DFE77EE7BEEFDFF7DFFFFFFFFFFFFFFFA1
:10499000FFFFFFFFFFFFFFFFDFFFDFF7FFEFDFDFBF
:1049A000BFD79ED7DFDFD8A583082611DBD6FFFF50
:1049B000FFFFFFFFFFFFFFFFFFFFFFFFFFFFFFFF07
:1049C000FFFFFFFFFFFFFFFF79EE8BDC2131A92105
:1049D0003DCFBFDF7EDF9EE7BEEFBFEFDFF7DFF744
:1049E000DFF7DFF7DFF7BFEFBEEF9EE77EDF5ED7D3
:1049F0005ED7DFDF9AB626194208EDA3BFFFFFFF9F
:104A0000FFFFFFFFFFFFFFFFFFFFFFFFFFFFFFFFB6
:104A1000FFFFFFFFFFFF74DDC0DB00FE42EE02423E
:104A200089217BB6DFDF7ED77EDF7EDF9EE79EE7D4
:104A30009EE79EE79EE77EDF7EDF5DD75DD79EDF48
:104A4000FFE7F8A50711E31802C560FDE6D3DBEE2A
:104A5000FFFFFFFFFFFFFFFFFFFFFFFFFFFFFFFF66
:104A6000FFFFFFFF9EF784BAC1FC42FE82FEA2FE5A
:104A70008183452174745EC7DFDF7ED75ED75DD743
:104A80005ED75ED75DD75DD75ED79EDFFFE73DC7B8
:104A9000F1638408425226E629FF86FEE0F36AC3EA
:104AA000FFFFFFFFFFFFFFFFFFFFFFFFFFFFFFFF16
:104AB000FFFFFFFF18DEC1D2A2FD22FE42FE42FE32
:104AC00062FEE2D4416A494253743BA63EC7BFD757
:104AD000BFD7BFD7BFDFBFD73EC71AA6F263A7298C
:104AE000824122B462FE83FEAAFE0FFF67FD63BA15
:104AF0003CEFFFFFFFFFFFFFFFFFFFFFFFFFFFFF99
:104B0000FFFFFFFF9AE680D221FDC2FDE2F5C2F56C
:104B100082F582FD62FD61DC219B846AE96A2C6377
:104B2000AF6311746E632C63895A0452817AC2CBCD
:104B3000E2FC62FD82FDC2FDC2FDE4FD24FD62CA0D
:104B40001CE7FFFFFFFFFFFFFFFFFFFFFFFFFFFF70
:104B5000FFFFFFFFFFFFB1CC81D2C0F3C1FC02FD1C
:104B600002FDE2FCC2FCC2FC81FC80FBC0C9A48146
:104B700035AD59CE719C218100DAA1FB82FCA2FCEB
:104B800082FCA2FC02FD22FDE2FC00FC60DA90CC7B
:104B9000FFFFFFFFFFFFFFFFFFFFFFFFFFFFFFFF25
:104BA000FFFFFFFFFFFFFFFF59DE0DC406CBE4D27E
:104BB00003DB03DBE3DAC3D2A4C209B3D2BC9EF7A2
:104BC000FFFFFFFFFFFFFBE60EB4A6BA83D2E3E2CE
:104BD00002EB22EB22E303DBE4D26AC3B6D5FFFF8C
:104BE000FFFFFFFFFFFFFFFF344C0008284C0008C9
:104BF000184C0008084C00080000000001020304E3
:104C00000102030406070809526F746174696F6E2C
:104C10003A32373000000000526F746174696F6E71
:104C20003A31383000000000526F746174696F6E61
:104C30003A393000526F746174696F6E3A30000017
:104C4000604C0008000000202C000000E801000873
:104C50008C4C00082C0000207406000004020008A0
:104C600000F8E0071F00E0FF1FF800000024F40038
:104C7000000000000000000001020304060708090C
:0C4C800000000000000000000000000028
:04000005080001AD41
:00000001FF
