:10033C001200037F007EF812025F7FE87E03120337
:10034C00957FE07E0712025F7FE87E031203957FA4
:0F035C001F7E0012025F7FE87E0312039580D49C
:10039500E4FDFCC3ED9FEE6480F8EC648098501595
:1003A500E4FBFA0BBB00010ABA03F8BBE8F50DBD87
:0503B50000010C80DED8
:0103BA002220
:1003BB00E4FDFCC3ED9FEE6480F8EC64809850156F
:1003CB00E4FBFA0BBB00010AEB64014A70F50DBDAF
:0503DB0000010C80DEB2
:0103E00022FA
:0A045B004200000000420002FFFF13
:10041B007E80EE60135F6004D2958002C295C29716
:08042B00D297EEC313FE80EA34
:0104330022A6
:0A046600C292C29312041BD293222B
:100400002FE03400FF120411A3E0900012FFE02F50
:01041000FFEC
:0A041100D292C29312041BD2932270
:10043400AD07AC06C293D292ECFF12041BAF0512B7
:05044400041BD293220D
:08047900120466AF0502041134
:0904700090000BA3E0FF020466FA
:08025F00900013EEF0A3EFF094
:10026700900005E024FFFB900004E034FFFA9000C3
:1002770007E024FFFE900006E034FF90001BF0A388
:10028700CEF0E4FDFCFFFE1202D4C293D292E4FD4D
:10029700FCD3900005E09D900004E09C402CE4FB1B
:1002A700FAD3900007E09B900006E09A4015900073
:1002B70013E0FF12041BA3E0FF12041B0BBB00019A
:0C02C7000A80DE0DBD00010C80C7D29340
:0102D3002208
:10036B00AB07AA068D828C83C006C007AE83AF8213
:10037B0090001BEEF0A3EFF0D007D0061202D49042
:0A038B000000E0FEA3E0FF020434CE
:10044900C2B37F147E00120395D2B37F147E0002DB
:02045900039509
:100003001204497F36120466E4FF1204117F3A1288
:1000130004667F051204117FB21204667F0C12047A
:1000230011120411E4FF1204117F3312041112049C
:10003300117FB71204667F351204117FBB12046669
:100043007F171204117FC01204667F2C1204117FE4
:10005300C21204667F011204117FC31204667F1269
:100063001204117FC41204667F201204117FC6128A
:1000730004667F0F1204117FD01204667FA412045A
:10008300117FA11204117FE01204667FD0120411C4
:100093007F041204117F0D1204117F111204117FCA
:1000A300131204117F2B1204117F3F1204117F548A
:1000B3001204117F4C1204117F181204117F0D12C8
:1000C30004117F0B1204117F1F1204117F231204EA
:1000D300117FE11204667FD01204117F0412041110
:1000E3007F0C1204117F111204117F131204117F6C
:1000F3002C1204117F3F1204117F441204117F510B
:100103001204117F2F1204117F1F12041112041104
:100113000F1204117F231204117F211204667F1131
:100123001204667F29120466E4FF120133D2B2225D
:1002D400900015EEF0A3EFF0A3ECF0A3EDF0900086
:1002E4000DA3E0FF120466900011E0FF900016E0F9
:1002F4002F900015E03400FF120411A3E0900011C8
:1003040012040DE02BE43AFF120411E02BFF120457
:100314001190000FA3E0FF120466900012E0FF901A
:100324000018E0900017120400E0FF90001CE09019
:08033400001B1204000204701A
:1003E100AB07AA068D828C83C006C007AE83AF829D
:0F03F10090001BEEF0A3EFF0D007D0060202D46D
:1001330090000DE4F0A3742AF0A3E4F0A3742BF071
:1001430090000BE4F0A3742CF0EF540390000AF03A
:1001530014602414603C14605624037072900004ED
:10016300E4F0A374F0F0A3E4F0A374C6F0E4900009
:1001730011F0A3F0FD8053900004E4F0A374C6F0E3
:10018300A3E4F0A374F0F0E4900011F0A3F07D6019
:100193008038900004E4F0A374F0F0A3E4F0A374B7
:1001A300C6F0E4900011F0A3747AF07DC0801B9038
:1001B3000004E4F0A374C6F0A3E4F0A374F0F09099
:1001C3000011747AF0E4A3F07DA07F361204792243
:030000000201D327
:0C01D300787FE4F6D8FD75810702021A5F
:1001DF0002033CE493A3F8E493A34003F68001F2F7
:1001EF0008DFF48029E493A3F85407240CC8C33321
:1001FF00C4540F4420C8834004F456800146F6DFF0
:10020F00E4800B010204081020408090045BE47E20
:10021F00019360BCA3FF543F30E509541FFEE493E4
:10022F00A360010ECF54C025E060A840B8E493A3AB
:10023F00FAE493A3F8E493A3C8C582C8CAC583CAD6
:10024F00F0A3C8C582C8CAC583CADFE9DEE780BE8E
:010465000096
:00000001FF
