:020000040800F2
:10000000A806002011250008710E0008730E0008D4
:10001000770E00087B0E00087F0E0008000000002D
:10002000000000000000000000000000830E000837
:10003000850E000800000000870E0008890E0008E9
:100040002B2500082B2500082B2500082B25000850
:100050002B2500082B2500082B2500082B25000840
:100060002B2500082B2500082B2500082B25000830
:100070002B2500082B2500082B2500082B25000820
:100080002B2500082B2500082B2500082B25000810
:100090002B2500082B2500082B2500082B25000800
:1000A0002B2500082B2500082B2500082B250008F0
:1000B0002B2500082B2500082B2500082B250008E0
:1000C0002B2500082B2500082B2500082B250008D0
:1000D0002B2500082B2500082B2500082B250008C0
:1000E0002B2500082B2500082B2500082B250008B0
:1000F0002B2500082B2500082B2500082B250008A0
:100100002B2500082B2500082B2500082B2500088F
:100110002B2500082B2500082B2500082B2500087F
:100120002B2500082B2500082B2500082B2500086F
:100130002B2500082B2500082B2500082B2500085F
:100140002B2500082B2500082B2500082B2500084F
:100150002B2500082B2500082B2500082B2500083F
:100160002B2500082B2500082B2500082B2500082F
:100170002B2500082B2500082B2500082B2500081F
:100180002B2500082B25000800F002F800F03CF8B1
:100190000AA090E8000C82448344AAF10107DA45E2
:1001A00001D100F031F8AFF2090EBAE80F0013F0F8
:1001B000010F18BFFB1A43F0010318479C510000C0
:1001C000BC510000103A24BF78C878C1FAD8520751
:1001D00024BF30C830C144BF04680C6070470000C1
:1001E0000023002400250026103A28BF78C1FBD840
:1001F000520728BF30C148BF0B6070471FB502F0DF
:10020000EAFE1FBD10B510BD02F0ACFE1146FFF7AF
:10021000F5FF00F008F802F0CAFE03B4FFF7F2FFA2
:1002200003BC02F0D1FEA82002F0F0F801F065FE58
:1002300013E001F031F800F098FF01F078F801F0D8
:1002400018F901F048FA01F00DFB01F0B4FA01F0E1
:100250005EFC01F08DFC01F0D4FCEAE770B50546C8
:100260000E4614463146284601F09EFD204601F018
:100270005EFD70BD2DE9F05F04460D4616461F4633
:10028000301B401C1FFA80FA781B401C1FFA80FBB1
:100290003B4632462946204601F05CFD4FF00008FF
:1002A0000FE04FF0000906E00A9801F040FD09F167
:1002B00001001FFA80F9D145F6DB08F101001FFAB1
:1002C00080F8D845EDDBFE484088401E83B2FC48EC
:1002D0000088401E82B20021084601F03BFDBDE8C7
:1002E000F09F2DE9FF4F85B081468A46002004909B
:1002F00003900798A0EB09050898A0EB0A06CDF833
:100300000890CDF804A0002D01DD012705E00DB90E
:10031000002702E04FF0FF376D42002E02DD4FF064
:10032000010806E016B94FF0000802E04FF0FF3870
:100330007642B54201DD2C4600E034464FF0000B1A
:1003400021E0019A91B2029A90B201F037FD04982F
:10035000284404900398304403900498A04205DD9B
:100360000498001B04900298384402900398A0421D
:1003700005DD0398001B03900198404401900BF1A8
:1003800001001FFA80FB601C8345DADD09B0BDE87F
:10039000F08F2DE9F04104460D4616461F462B46C8
:1003A000324629462046FFF79CFF3B462246294617
:1003B0002046FFF796FF3B46324639462046FFF778
:1003C00090FF3B46324629463046FFF78AFFBDE89C
:1003D000F081F8B504460D4616461F46B948008818
:1003E0003B463246294600902046FFF743FFF8BDC2
:1003F0002DE9F04104460D4616461F46DDF81880EB
:10040000EA1991B2A21990B24246FFF727FFEA1902
:1004100091B2A21B90B24246FFF720FFEA1B91B2B5
:10042000A21990B24246FFF719FFEA1B91B2A21B34
:1004300090B24246FFF712FFAA1991B2E21990B2A8
:100440004246FFF70BFFAA1991B2E21B90B2424657
:10045000FFF704FFAA1B91B2E21990B24246FFF7E0
:10046000FDFEAA1B91B2E21B90B24246FFF7F6FED8
:10047000BDE8F0812DE9FF4F81B0824617469846CE
:10048000DDF838B0002445464FEA4800C0F10306C5
:10049000BBF1000F1FD01BE0A14608E04B462246EF
:1004A000009750460299FFF7A3FF09F10109A945FA
:1004B000F4DD002E04DA042000FB0460861D06E053
:1004C000601B042101FB006000F10A066D1E641C24
:1004D000AC42E1DD18E015E02B462246009750467D
:1004E0000299FFF785FF002E04DA042000FB046068
:1004F000861D06E0601B042101FB006000F10A0676
:100500006D1E641CAC42E7DD05B0BDE8F08F2DE93F
:10051000F04704460D4616461F46DDE908893B466E
:10052000324629462046FFF7DCFE4B464246394616
:100530003046FFF7D6FE2B46224649464046FFF797
:10054000D0FEBDE8F08702880B8803800A807047E0
:100550002DE9FF4F85B000260027BDF81800BDF833
:100560002010884207DD08A906A8FFF7ECFF07A9BD
:1005700005A8FFF7E8FFBDF82000BDF84C10884241
:1005800007DD08A913A8FFF7DEFF07A912A8FFF7E8
:10059000DAFFBDF81800BDF82010884207DD08A971
:1005A00006A8FFF7D0FF07A905A8FFF7CCFFBDF805
:1005B0001800BDF84C10884238D1BDF814000390E3
:1005C0000490BDF81C00BDF81010884203DABDF895
:1005D0001C00049008E0BDF81C00BDF80C10884217
:1005E00002DDBDF81C000390BDF84800BDF81010F6
:1005F000884203DABDF84800049008E0BDF84800DE
:10060000BDF80C10884202DDBDF8480003902D486B
:1006100000880090BDF81830BDF80C201946BDF8D0
:100620001000FFF727FE09B0BDE8F08FBDF81C00F1
:10063000BDF81410A0EB010BBDF82000BDF8181098
:10064000401A0290BDF84800BDF81410451ABDF8D4
:100650004C00BDF81810A0EB0109BDF84800BDF82A
:100660001C10A0EB010ABDF84C00BDF82010401A88
:100670000190BDF82000BDF84C10884202D1BDF8B1
:10068000208004E0BDF82000401E1FFA80F8BDF86D
:1006900018402CE0029896FBF0F0BDF814100844C6
:1006A00080B2049097FBF9F0BDF81410084480B2B2
:1006B00003905E442F44BDF81000BDF80C1003E019
:1006C000380000201E000020884203DD03A904A892
:1006D000FFF739FFFE48008823460090BDF80C2044
:1006E0002146BDF81000FFF7C5FD601C84B24445EB
:1006F000D0DDBDF82000201A00FB0AF6BDF8180076
:10070000201A00FB05F727E0019896FBF0F0BDF8F2
:100710001C10084480B2049097FBF9F0BDF8141047
:10072000084480B2039056442F44BDF81000BDF831
:100730000C10884203DD03A904A8FFF704FFE44876
:10074000008823460090BDF80C202146BDF810001B
:10075000FFF790FD601C84B2BDF84C008442D3DDED
:1007600000BF60E72DE9FF4F83B081468A4693467C
:10077000DDE91064D64800880290A6F12000C6B2D8
:1007800004EBD47009EB6000401E82B20AEB040057
:10079000401E83B251464846019401F0DBFA12989C
:1007A00050BB002525E00C2C07D106EB4600C949BB
:1007B00001EB800010F8058004E0C74800EB06104C
:1007C00010F8058000270DE008F0010018B1584628
:1007D00001F0ADFA02E0069801F0A9FA4FEA6808C4
:1007E000781CC7B204EBD471B7EB610FECDB681C6B
:1007F000C5B2A542D7DB2DE0002529E00C2C07D19E
:1008000006EB4600B34901EB800010F8058004E0D8
:10081000B14800EB061010F80580002711E0AC4845
:10082000A0F800B008F0010038B10AEB050291B25F
:1008300009EB070290B201F0C1FA4FEA6808781C90
:10084000C7B204EBD471B7EB610FE8DB681CC5B22B
:10085000A542D3DB9E4902980880A0484088401EEC
:1008600083B29E480088401E82B20021084601F0F3
:1008700071FA07B0BDE8F08F2DE9FE4306460F463A
:1008800015461C46DDF828801DE094480088401E6F
:10089000B04204DB91484088401EB84201DABDE80E
:1008A000FE8320788DE821018D48038888480288DE
:1008B00039463046FFF756FF284605EBD07106EB68
:1008C00061018EB2641C20787E2802DC207820280A
:1008D000DBDA00BFE3E710B50246012000E0504339
:1008E0000B1EA1F10104E1B2F9D110BD2DE9FF4FBA
:1008F00083B0074691461E46109C4FF0000A002523
:1009000043E0701B401EC1B20A20FFF7E4FFB9FBB1
:10091000F0F00A21B0FBF1F201FB1208BAF1000F6E
:100920001BD1701EA84218DDB8F1000F13D10020B2
:100930002021A346CDE90014029004EBDB7149109D
:1009400001FB057188B266490B8861490A880499E0
:10095000FFF708FF17E04FF0010A002108F130000F
:10096000C0B2A346CDE90141009004EBDB71491010
:1009700001FB057188B25A490B8855490A880499C8
:10098000FFF7F0FE00BF681CC5B2B542B9DB07B087
:10099000BDE8F08F2DE9FC5F0546884691469A46F2
:1009A000DDF830B000953E20019000245FE004EBBC
:1009B00004104C4911F810009BF80010884253D1E4
:1009C00004EB0410474901EB400040789BF801100C
:1009D000884249D108F10F0083B205F10F0082B2BD
:1009E0004146284601F0B6F900263BE0002734E0F6
:1009F0000D9890B904EB04103A4901EB4000801CBB
:100A0000805D80213941084018B1484601F08FF9D6
:100A100021E0504601F08BF91DE02D48A0F8009030
:100A200004EB04102F4901EB4000801C805D802105
:100A30003941084018B14146284601F0BFF9681C09
:100A400085B20098281A102805D1009D08F10100F0
:100A50001FFA80F803E0781CC7B2082FC8DB00BF7C
:100A6000701CC6B2202EC1DB00BF601C84B201988E
:100A700084429CDB19484088401E83B21748008896
:100A8000401E82B20021084601F064F9BDE8FC9FD7
:100A90002DE9FC5F0546884691469A46DDF830B060
:100AA000009507200190002476E004EB840000EB21
:100AB00044100D4911F810009BF80010884268D1CD
:100AC00004EB840000EB4410074901EB40000DE00B
:100AD0001E000020E02F00085434000838000020D9
:100AE00020000020443A00088042000840789BF82B
:100AF000011088424DD108F1170083B205F11700AB
:100B000082B24146284601F025F900263FE0002741
:100B100038E00D98A0B904EB840000EB4410D049F4
:100B200001EB4000801C805D80213941084018B1F4
:100B3000484601F0FCF823E0504601F0F8F81FE0C9
:100B4000C848A0F8009004EB840000EB4410C449AE
:100B500001EB4000801C805D80213941084018B1C4
:100B60004146284601F02AF9681C85B20098281AE7
:100B7000182805D1009D08F101001FFA80F803E054
:100B8000781CC7B2082FC4DB00BF701CC6B2482E49
:100B9000BDDB00BF601C84B20198844285DBB24893
:100BA0004088401E83B2B0480088401E82B20021B7
:100BB000084601F0CFF8BDE8FC9F2DE9FC5F054633
:100BC000884691469A46DDF830B0009504200190A1
:100BD00000245FE004EB8410A44911F810009BF896
:100BE0000010884253D104EB8410A04901EB40006F
:100BF00040789BF80110884249D108F11F0083B268
:100C000005F11F0082B24146284601F0A3F80026F4
:100C10003BE0002734E00D9890B904EB8410934931
:100C200001EB4000801C805D80213941084018B1F3
:100C3000484601F07CF821E0504601F078F81DE0CC
:100C40008848A0F8009004EB8410884901EB40002C
:100C5000801C805D80213941084018B141462846FA
:100C600001F0ACF8681C85B20098281A202805D13C
:100C7000009D08F101001FFA80F803E0781CC7B25C
:100C8000082FC8DB00BF701CC6B2802EC1DB00BFBE
:100C9000601C84B2019884429CDB73484088401EEB
:100CA00083B271480088401E82B20021084601F0DC
:100CB00051F8BDE8FC9F2DE9FF4F83B006468846FA
:100CC0009146DDE91147109DB2464FF0000B71E0EF
:100CD000BBF1000F40D104EBD471634A1288A2EB40
:100CE0006101B14204DB60494988091B414502DAD0
:100CF00007B0BDE8F08F2878802802DD4FF0010BA7
:100D000058E028780D2806D108EB04001FFA80F877
:100D100056466D1C1EE0102C0DDD102128788DE844
:100D200083004A4641463046069BFFF71BFD06F10D
:100D3000080086B20EE028788DE891004A464146C8
:100D40003046069BFFF70EFD204604EBD07106EB04
:100D500061018EB26D1C2DE043480088001BB0423B
:100D600004DB41484088001B404500DAC0E74FF0F3
:100D7000000B202C08D1CDE900574A4641463046A9
:100D8000069BFFF71AFF12E0182C08D1CDE9005797
:100D90004A4641463046069BFFF77AFE07E0CDE91A
:100DA00000574A4641463046069BFFF7F3FDAD1C0F
:100DB000301986B2287800288AD100BF98E72DE93B
:100DC000FE4F0E4617469846DDE90D9A0C9C2046CC
:100DD00002F0A6F885B224490988A1EBC50000EB12
:100DE000D071C1F34F0B43463A46314658468DE821
:100DF0001006FFF760FFBDE8FE8F2DE9F05F0746A4
:100E0000884615461E46DDF8289008EB0600401E71
:100E100083B27819401E82B24146384600F09AFFEC
:100E200000240AE019F814B009EB440090F801A07E
:100E30004BEA0A2000F07BFF641C05FB06F0A04291
:100E4000F0DC09484088401E83B207480088401EF5
:100E500082B20021084600F07DFFBDE8F09F00004F
:100E6000804200081E000020380000208644000850
:100E7000704700BFFEE700BFFEE700BFFEE700BF10
:100E8000FEE7704770477047704700000CB50020C0
:100E9000019000907648006840F480307449086002
:100EA00000BF7348006800F4003000900198401CB7
:100EB0000190009818B90198B0F5A04FF1D16C4895
:100EC000006800F4003010B10120009001E0002023
:100ED00000900098012846D165484030006840F0F5
:100EE00080506349403108606248006840F44040E7
:100EF000604908605E48083000685D490831086054
:100F00000846006840F4004008600846006840F465
:100F1000A05008605848091F0860081F006840F08A
:100F20008070091F086000BF5148006800F0007021
:100F30000028F9D040F20570504908604C4808304C
:100F4000006820F003004A4908310860084600683C
:100F500040F00200086000BF45480830006800F01B
:100F60000C000828F8D10CBD10B54548006840F4C5
:100F70007000434908603E48006840F001003C4969
:100F8000086000203A4908310860394800683D4946
:100F90000840374908603C48091D0860081F006880
:100FA00020F48020091F0860002031490C310860BE
:100FB000FFF76CFF4FF0006031498039086010BDC9
:100FC00070B500200022022300240221284D08359C
:100FD0002D6805F00C0020B1042806D0082834D173
:100FE00007E02A4D2A4E356033E02A4D284E356001
:100FF0002FE01F4D2D1D2D68C5F380541C4D2D1D58
:101000002D6805F03F0154B1224DB5FBF1F5184EA6
:10101000361D3668C6F3881605FB06F209E01B4D3F
:10102000B5FBF1F5124E361D3668C6F3881605FB82
:1010300006F20F4D2D1D2D68C5F301456D1C6B008B
:10104000B2FBF3F5124E356003E0104D104E3560E3
:1010500000BF00BF064D08352D68C5F303150E4EC1
:10106000705D0B4D2D68C540094E356070BD0000A8
:10107000003802400070004008544007003C024025
:1010800088ED00E0FFFFF6FE103000240024F4009D
:101090000000002000127A00040000203EB5044643
:1010A0004FF6FF7000F096FE002010211F234FF630
:1010B000FF72CDE9004102900C21FFF780FE002075
:1010C0001021F7A2CDE900210290F948408820388C
:1010D00081B21F234FF6FF720020FFF770FE3EBD66
:1010E0002DE9F04106460F4614461D464FF6FF70A7
:1010F000F04908803B46224639463046FFF7F1F872
:101100002B46324639463046FFF7EBF848F210409E
:10111000E84908806A1E93B291B2721C90B22246CE
:10112000FFF7DFF844F20820E24908802B46224608
:1011300029463046FFF7D5F848F21040DD490880CF
:10114000631E9AB27B1C99B2631E98B22B46FFF7BE
:10115000C8F844F20820D74908802B462246394671
:101160002046FFF7BEF8BDE8F0813EB54EF67D7033
:1011700000F030FECE490988A1F1620404EBD4717D
:10118000491062318AB2CA490988A1F1620505EBAA
:10119000D571C1F34F0055234121FFF7A1FF012075
:1011A0001021C5A21F23CDE9002102904FF61F0296
:1011B00043210020FFF703FEBD490988A1F1620425
:1011C00004EBD471491062318AB2B9490988A1F19E
:1011D000620505EBD571C1F34F0073235F21FFF763
:1011E0007FFF01201021B8A24EF67D73CDE90021CA
:1011F0000290002261211046FFF7E1FDAC49098809
:10120000A1F1620404EBD471491062318AB2A84999
:101210000988A1F1620505EBD571C1F34F00912357
:101220007D21FFF75DFF01201021ABA24EF67D73FB
:10123000CDE9002102901F227F210020FFF7BFFD92
:101240009B490988A1F1620404EBD4714910623111
:101250008AB297490988A1F1620505EBD571C1F3FE
:101260004F00AF239B21FFF73BFF012010219EA2DF
:101270004EF67D73CDE9002102904FF478429D2116
:101280001020FFF79CFD40F2DC5001F021F94FF4F3
:10129000FA7001F01DF93EBD0EB597A0FFF7FEFEF6
:1012A0000120102198A21F23CDE900210290DA022B
:1012B0004E210020FFF783FD012010218EA21F2365
:1012C000CDE900210290DA025F210020FFF777FDCF
:1012D000012010218FA21F23CDE9002102904FF49D
:1012E000FC6270210020FFF76AFD012010218DA211
:1012F0001F23CDE9002102904FF4FC6281210020E0
:10130000FFF75DFD0120102188A21F23CDE90021F8
:1013100002901A4692210020FFF751FD40F2DC5066
:1013200001F0D6F840F2DC5001F0D2F80EBD0EB557
:101330004FF6FF7000905E484088401E83B25C48C4
:101340000088401E82B200210846FEF793FF01206C
:10135000102179A24FF6E073CDE90021029000221E
:101360001E212820FFF7A7FC4FF47A7001F0B0F897
:10137000002000904E484088401E83B24C480088B0
:10138000401E82B200210846FEF774FF01201021A2
:101390006BA24FF6E073CDE9002102904FF6FF7289
:1013A0001E212820FFF787FC4FF47A7001F090F897
:1013B0004FF4784000903E484088401E83B23C483D
:1013C0000088401E82B200210846FEF753FF01202C
:1013D00010215DA24FF6E073CDE9002102901F229B
:1013E0001E212820FFF767FC4FF4487001F070F8C9
:1013F0004FF4FC6000902E484088401E83B22C4879
:101400000088401E82B200210846FEF733FF01200B
:1014100010214EA24FF6E073CDE9002102901F2269
:101420001E212820FFF747FC4FF4487001F050F8C8
:101430001F2000901E484088401E83B21C48008830
:10144000401E82B200210846FEF714FF0120102141
:1014500040A24FF6E073CDE9002102904FF47842AC
:101460001E212820FFF727FC4FF4487001F030F8C8
:101470000EBD2DE9F843002438A0FFF70FFE4FF60C
:10148000FF7000900A484088203883B208480088DE
:10149000401E82B21E210020FEF7ECFE00BFB0E02D
:1014A0007777772E6C636477696B692E636F6D0055
:1014B000380000201E000020CDBCD0CECFD4CABE44
:1014C000B2E2CAD400000000B4BFC9ABCCEEB3E4B2
:1014D000B2E2CAD400000000D6D0CEC4CFD4CABE77
:1014E000B2E2CAD400000000CDBCC6ACCFD4CABEA4
:1014F000B2E2CAD400000000D7DBBACFB2E2CAD44D
:10150000B3CCD0F200000000C8ABB6AFB5E7D7D37C
:1015100000000000312E323822204743394130315B
:101520000000000032343058323430003230323271
:101530002D30392D31360000574849544500000000
:10154000424C41434B000000524544004752454540
:101550004E000000424C554500000000475549BE72
:10156000D8D0CECCEEB3E4B2E2CAD400FE4830F814
:101570001400FE490880DFF8F8C3BCF8025005EB00
:10158000D57C4FEA6C0CACF1280C04EB840909EB18
:10159000C409CC440CF11E0C1FFA8CF3DFF8D0C345
:1015A000BCF8006006EBD67C4FEA6C0CACF1280C62
:1015B0000CEB041C0CF11E0C1FFA8CF2DFF8B0C30C
:1015C000BCF8027007EBD77C4FEA6C0CACF1280C2E
:1015D00004EB840909EBC409CC441FFA8CF1DFF851
:1015E00090C3BCF8008008EBD87C4FEA6C0CACF1DF
:1015F000280C0CEB041C1FFA8CF0FEF7CAFE601CD2
:10160000C4B2052CB2DB40F2DC5000F061FF4FF6B3
:10161000FF700090D6484088203883B2D4480088B4
:10162000401E82B21E210020FEF724FE00244AE064
:10163000CD4830F81400CD490880DFF834C3BCF839
:10164000025005EBD57C4FEA6C0CACF1280C04EB96
:10165000840909EBC409CC440CF11E0C1FFA8CF36D
:10166000DFF80CC3BCF8007007EBD77C4FEA6C0CBA
:10167000ACF1280C0CEB041C0CF11E0C1FFA8CF2C4
:10168000DFF8ECC2BCF8028008EBD87C4FEA6C0CA7
:10169000ACF1280C04EB840909EBC409CC441FFA13
:1016A0008CF1DFF8CCC2BCF8006006EBD67C4FEAC8
:1016B0006C0CACF1280C0CEB041C1FFA8CF0FEF740
:1016C00088FE601CC4B2052CB2DB40F2DC5000F096
:1016D000FFFEBDE8F883F8B50024A6A0FFF7DEFC06
:1016E0004FF6FF700090A2484088203883B2A0488F
:1016F0000088401E82B21E210020FEF7BBFD00BF05
:101700001DE000209A4B00905D8805EBD5735B10BF
:10171000193B04EB840707EBC407D919944B1E88C7
:1017200006EBD6735B10283BC4EB0417D8198E4B1D
:1017300033F814200F23FEF79DFE601CC4B2052C65
:10174000DFDB40F2DC5000F0C3FE4FF6FF7000908C
:1017500087484088203883B285480088401E82B27E
:101760001E210020FEF786FD00241DE00120804B95
:1017700000905D8805EBD5735B10193B04EB840783
:1017800007EBC407D9197A4B1E8806EBD6735B109A
:10179000283BC4EB0417D819734B33F814200F23DC
:1017A000FEF768FE601CC4B2052CDFDB40F2DC50A3
:1017B00000F08EFEF8BD0EB572A0FFF76FFC0020A2
:1017C0000C2174A24FF6E073CDE9002102901F2294
:1017D0004D213220FFF76FFA01200C2173A24FF642
:1017E000E073CDE9002102901F2259213220FFF73A
:1017F00062FA00200C2173A24FF6E073CDE90021BC
:1018000002901F2265213220FFF755FA0020102197
:1018100072A24FF6E073CDE9002102901F227221DF
:101820003220FFF748FA0120102170A24FF6E07332
:10183000CDE9002102901F2282213220FFF73BFADE
:10184000002010216DA24FF6E073CDE90021029037
:101850001F2292213220FFF72EFA4FF4966000F0FB
:1018600037FE0EBD2DE9FC5F002469A0FFF716FCD2
:101870004FF6FF7000903E484088203883B23C48C5
:101880000088401E82B21E210020FEF7F3FC00BF3C
:1018900060E0354830F81400344908803448458801
:1018A00005EBD57040100C3804EB440101EBC4018A
:1018B000084481B22E48068806EBD67040100B38DB
:1018C000C4EB0412104480B2DFF8A4C0CDE90001DB
:1018D000BCF8027007EBD77C4FEA6C0CACF1270C1C
:1018E00004EB440B0BEBC40BDC441FFA8CF3DFF866
:1018F00080C0BCF8008008EBD87C4FEA6C0CACF1DF
:101900001A0CC4EB041BDC441FFA8CF2DFF860C035
:10191000BCF8029009EBD97C4FEA6C0CACF10C0CD2
:1019200004EB440B0BEBC40BDC441FFA8CF1DFF827
:1019300040C0BCF800A00AEBDA7C4FEA6C0CACF1BA
:10194000280CC4EB041BDC441FFA8CF0FEF7DFFD0F
:10195000601CC4B2052C9CDB40F2DC5000F0B8FDEA
:101960004FF6FF7000905BE0140000201E00002086
:1019700038000020475549BBADD4B2CCEEB3E4B239
:10198000E2CAD400D3A2CEC4CFD4CABEB2E2CAD473
:1019900000000000365831323A6162636465666760
:1019A0006830313233343536370000003658313242
:1019B0003A41424344454647483031323334353664
:1019C00037000000365831323A7E21402324255E0C
:1019D000262A28295F2B7B7D3A00000038583136B3
:1019E0003A616263646530313233340038583136DD
:1019F0003A4142434445303132333400385831366D
:101A00003A7E21402324255E262A28290000000052
:101A100047554920547269CCEEB3E4B2E2CAD4000F
:101A200094484088203883B292480088401E82B291
:101A30001E210020FEF71EFC002460E08E4830F8D6
:101A400014008E4908808B48458805EBD5704010FE
:101A50000C3804EB440101EBC401084481B2854811
:101A6000068806EBD67040100B38C4EB0412104405
:101A700080B2DFF800C2CDE90001BCF8027007EBCC
:101A8000D77C4FEA6C0CACF1270C04EB440B0BEB4E
:101A9000C40BDC441FFA8CF3DFF8D8C1BCF800801B
:101AA00008EBD87C4FEA6C0CACF11A0CC4EB041BAD
:101AB000DC441FFA8CF2DFF8BCC1BCF8029009EBE1
:101AC000D97C4FEA6C0CACF10C0C04EB440B0BEB27
:101AD000C40BDC441FFA8CF1DFF898C1BCF800A0FD
:101AE0000AEBDA7C4FEA6C0CACF1280CC4EB041B5B
:101AF000DC441FFA8CF0FEF72BFD601CC4B2052CF1
:101B00009CDB40F2DC5000F0E3FCBDE8FC9F0EB52E
:101B1000AFF23C60FFF7C2FA0020102158A24FF646
:101B2000E073CDE9002102901F2252212D20FFF702
:101B3000C2F80120182157A24FF6E073CDE9002129
:101B400002901F2266212D20FFF7B5F801202021E9
:101B500054A24FF6E073CDE9002102901F227F21AD
:101B60002D20FFF7A8F84FF4966000F0B1FC0EBDF1
:101B70000EB5AFF28C60FFF791FA4E4828231A4653
:101B80005A2100903220FFF738F9012010214AA293
:101B90004FF6E073CDE9002102901F2287213E20FD
:101BA000FFF789F8434828231A465A2100906420F9
:101BB000FFF723F9012010213FA24FF6E073CDE992
:101BC000002102901F2287217020FFF774F8394806
:101BD00028231A465A2100909620FFF70EF901207B
:101BE000102135A24FF6E073CDE9002102901F22AB
:101BF0008721A220FFF75FF84FF4966000F068FCA1
:101C00000EBD10B588B000242C4B0FCBCDE90623B8
:101C1000CDE9040100BF26E0204600F036F928A0F7
:101C2000FFF73CFA0121102204A850F824004FF6D7
:101C3000E073CDE9012100901F2223212820FFF726
:101C40003AF81C4828231A46372100901846FFF717
:101C5000D4F84FF47A7000F03BFC4FF47A7000F047
:101C600037FC601CC4B2042CD6DB002000F00DF958
:101C700008B010BD38000020140000201E00002015
:101C800031365831363AC8ABB6AFB5E7D7D3BBB665
:101C9000D3AD000032345832343AD6D0CEC4B2E29A
:101CA000CAD4000033325833323AD7D6CCE5B2E248
:101CB000CAD400009046000851510000105300089B
:101CC000C6C1C4BBD0FDD7AAB2E2CAD4000000008E
:101CD00010B504460020FE490860FE49C1F8B8026C
:101CE000204600F071FB0120F949086010BD10B5D5
:101CF00004460020F64908600120F649C1F8B80200
:101D0000204600F061FB0120F149086010BD70B56C
:101D100005460C462846FFF7DBFFE0B2FFF7E7FF7A
:101D200070BD10B5EC49087AFFF7D2FF10BD10B5B1
:101D300004460020E64908600120E649C1F8B802DF
:101D4000201200F041FBE0B200F03EFB0120E04930
:101D5000086010BD2DE9F04104460D4616461F46A9
:101D6000DD49887AFFF7B4FF2012FFF7C0FFE0B229
:101D7000FFF7BDFF3012FFF7BAFFF0B2FFF7B7FF72
:101D8000D549087BFFF7A4FF2812FFF7B0FFE8B2A0
:101D9000FFF7ADFF3812FFF7AAFFF8B2FFF7A7FF72
:101DA000FFF7BFFFBDE8F08170B504460D462B4636
:101DB000224629462046FFF7CDFF70BD70B5044688
:101DC0000D4629462046FFF7EFFFC4480088FFF77D
:101DD000AEFF70BD70B50446BF484088401E83B258
:101DE000BD480088401E82B200210846FFF7B2FFBE
:101DF0000020B74908600120B649C1F8B8020025A3
:101E00000DE0002606E0201200F0DEFAE0B200F05D
:101E1000DBFA761CB0480088B042F4D86D1CAE489E
:101E20004088A842EDD80120A949086070BD1CB5C2
:101E30000121022000F020FF4FF4704000900120AB
:101E40008DF8040003208DF8050000208DF80600B1
:101E500001208DF807006946A14800F06FFC4FF49F
:101E600070419F4800F0E6FC1CBD10B50020984969
:101E70000C390860142000F02BFB01209549C1F8B3
:101E8000B002142000F024FB10BD10B504462A2037
:101E9000914948812B2088812C20088134B1012C64
:101EA0000DD0022C14D0032C24D11AE0F0208A4942
:101EB0000880488008213620FFF729FF1BE0F0202A
:101EC00085490880488068213620FFF720FF12E00E
:101ED000F020814908804880C8213620FFF717FF8D
:101EE00009E0F0207C4908804880A8213620FFF7CF
:101EF0000EFF00E000BF00BF10BD10B500F048FAB3
:101F0000FFF795FFFFF7B1FFEF20FFF7E1FEEB20B2
:101F1000FFF7DEFE1420FFF7EAFEFE20FFF7D8FEF3
:101F2000EF20FFF7D5FEEB20FFF7D2FE1420FFF7DE
:101F3000DEFE8420FFF7CCFE4020FFF7D8FE852090
:101F4000FFF7C6FEFF20FFF7D2FE8620FFF7C0FE98
:101F5000FF20FFF7CCFE8720FFF7BAFEFF20FFF738
:101F6000C6FE8820FFF7B4FE0A20FFF7C0FE8920D6
:101F7000FFF7AEFE2120FFF7BAFE8A20FFF7A8FE8A
:101F80000020FFF7B4FE8B20FFF7A2FE8020FFF7B2
:101F9000AEFE8C20FFF79CFE0120FFF7A8FE8D20EF
:101FA000FFF796FE0120FFF7A2FE8E20FFF790FEBE
:101FB000FF20FFF79CFE8F20FFF78AFEFF20FFF730
:101FC00096FEB620FFF784FE0020FFF790FE20204B
:101FD000FFF78DFE3620FFF77BFE0820FFF787FE18
:101FE0003A20FFF775FE0520FFF781FE9020FFF7EE
:101FF0006FFE0820FFF77BFE0820FFF778FE082021
:10200000FFF775FE0820FFF772FEBD20FFF760FEA8
:102010000620FFF76CFEBC20FFF75AFE0020FFF7FA
:1020200066FEFF20FFF754FE6020FFF760FE0120F0
:10203000FFF75DFE0420FFF75AFEC320FFF748FEBE
:102040001320FFF754FEC420FFF742FE1320FFF7D2
:102050004EFEC920FFF73CFE2220FFF748FEBE20BF
:10206000FFF736FE1120FFF742FEE120FFF730FEBA
:102070001020FFF73CFE0E20FFF739FEDF20FFF7B0
:1020800027FE2120FFF733FE0C20FFF730FE022051
:10209000FFF72DFEF020FFF71BFE4520FFF727FE80
:1020A0000920FFF724FE0820FFF721FE0820FFF794
:1020B0001EFE2620FFF71BFE2A20FFF718FEF12048
:1020C000FFF706FE4320FFF712FE70200AE0000033
:1020D000BC82404200804042380000201E000020A8
:1020E00000040240FFF703FE7220FFF700FE3620D7
:1020F000FFF7FDFD3720FFF7FAFD6F20FFF7F7FD33
:10210000F220FFF7E5FD4520FFF7F1FD0920FFF77D
:10211000EEFD0820FFF7EBFD0820FFF7E8FD262085
:10212000FFF7E5FD2A20FFF7E2FDF320FFF7D0FDE2
:102130004320FFF7DCFD7020FFF7D9FD7220FFF789
:10214000D6FD3620FFF7D3FD3720FFF7D0FD6F20F7
:10215000FFF7CDFDED20FFF7BBFD1B20FFF7C7FD0F
:102160000B20FFF7C4FDAE20FFF7B2FD7720FFF78D
:10217000BEFDCD20FFF7ACFD6320FFF7B8FD70205A
:10218000FFF7A6FD0720FFF7B2FD0720FFF7AFFD21
:102190000420FFF7ACFD0E20FFF7A9FD0F20FFF78D
:1021A000A6FD0920FFF7A3FD0720FFF7A0FD0820EB
:1021B000FFF79DFD0320FFF79AFDE820FFF788FD5C
:1021C0003420FFF794FD6220FFF782FD1820FFF70F
:1021D0008EFD0D20FFF78BFD7120FFF788FDED20B0
:1021E000FFF785FD7020FFF782FD7020FFF77FFD70
:1021F0001820FFF77CFD0F20FFF779FD7120FFF716
:1022000076FDEF20FFF773FD7020FFF770FD702063
:10221000FFF76DFD6320FFF75BFD1820FFF767FDFB
:102220001120FFF764FD7120FFF761FDF120FFF73A
:102230005EFD7020FFF75BFD7020FFF758FD182052
:10224000FFF755FD1320FFF752FD7120FFF74FFDFB
:10225000F320FFF74CFD7020FFF749FD7020FFF7DA
:1022600046FD6420FFF734FD2820FFF740FD2920BC
:10227000FFF73DFDF120FFF73AFD0120FFF737FDA5
:10228000F120FFF734FD0020FFF731FD0720FFF7B5
:102290002EFD6620FFF71CFD3C20FFF728FD0020E7
:1022A000FFF725FDCD20FFF722FD6720FFF71FFD7B
:1022B0004520FFF71CFD4520FFF719FD1020FFF713
:1022C00016FD0020FFF713FD0020FFF710FD002092
:1022D000FFF70DFD6720FFF7FBFC0020FFF707FD70
:1022E0003C20FFF704FD0020FFF701FD0020FFF771
:1022F000FEFC0020FFF7FBFC0120FFF7F8FC542058
:10230000FFF7F5FC1020FFF7F2FC3220FFF7EFFC9F
:102310009820FFF7ECFC7420FFF7DAFC1020FFF7A1
:10232000E6FC8520FFF7E3FC8020FFF7E0FC0020BF
:10233000FFF7DDFC0020FFF7DAFC4E20FFF7D7FCAB
:102340000020FFF7D4FC9820FFF7C2FC3E20FFF7E7
:10235000CEFC0720FFF7CBFC3520FFF7B9FC21208E
:10236000FFF7B6FC1120FFF7B3FC782000F0B0F8BF
:102370002920FFF7ADFC0020FFF787FD012003496E
:1023800008604FF6FF70FFF725FD10BDB482404294
:102390001CB50121022000F06FFC282000900120D4
:1023A0008DF8040003208DF8050000208DF806004C
:1023B00001208DF807006946114800F0BFF9282177
:1023C0000F4800F037FA1CBD0021082115E000F08D
:1023D00080021AB101220B4B1A6002E00022094B65
:1023E0001A600022074B083B1A600122064BC3F813
:1023F0008C224206100E4A1ED1B20029E7DC70473B
:1024000000040240948240420080404210B50446DD
:102410006FF0040000F0EEF8E11704EB5171C1F326
:10242000C701394A11701046007800EB4001C1EB3A
:10243000C0104FF6FF7101EAC0003449088010BD9A
:102440000146314A12784A434FF0E0235A61002294
:102450009A611A46126942F001021A6100BF4FF0F8
:10246000E022106900F001021AB100F48032002A63
:10247000F5D04FF0E022126922F001024FF0E02384
:102480001A6100229A6170470146204A12884A4325
:102490004FF0E0235A6100229A611A46126942F015
:1024A00001021A6100BF4FF0E022106900F0010242
:1024B0001AB100F48032002AF5D04FF0E022126900
:1024C00022F001024FF0E0231A6100229A61704766
:1024D00070B504464FF4077094FBF0F0C6B24FF4A9
:1024E000077094FBF0F100FB114085B205E04FF45A
:1024F0000770FFF7C9FF701EC6B2002EF7D115B1E5
:102500002846FFF7C1FF70BD2400002026000020F0
:102510000948804709480047FEE7FEE7FEE7FEE777
:10252000FEE7FEE7FEE7FEE7FEE7FEE704480549B3
:10253000054A064B70470000690F00088901000832
:10254000A8000020A8060020A8020020A802002061
:1025500032490143324A1160704770B500210023AF
:102560000F22C4781CB32E4C246804F4E064C4F534
:10257000E064C4F30721C1F10404E3B20A414478E2
:102580009C40E1B28478144021430C07210E254C75
:1025900005786155047804F01F050124AC400578E6
:1025A0006D11AD0005F1E025C5F8004109E00478A2
:1025B00004F01F050124AC401B4D0678761145F848
:1025C000264070BD194A0A400243154B1B1F1A6072
:1025D000704739B1124A121D12680243104B1B1D7D
:1025E0001A6006E00E4A121D126882430C4B1B1D36
:1025F0001A607047042808D14FF0E021096941F0C2
:1026000004014FF0E022116107E04FF0E021096979
:1026100021F004014FF0E022116170470000FA053B
:102620000CED00E000E400E080E100E080FFFF1F2F
:1026300010B504469848844208D10121084600F0AC
:1026400086FB0021012000F082FB76E09348844263
:1026500008D10121022000F07AFB0021022000F0C5
:1026600076FB6AE08E48844208D10121042000F004
:102670006EFB0021042000F06AFB5EE08948844282
:1026800008D10121082000F062FB0021082000F0A1
:102690005EFB52E08448844208D10121102000F002
:1026A00056FB0021102000F052FB46E07F48844298
:1026B00008D10121202000F04AFB0021202000F059
:1026C00046FB3AE07A48844208D10121402000F0DC
:1026D0003EFB0021402000F03AFB2EE0754884428A
:1026E00008D10121802000F032FB0021802000F081
:1026F0002EFB22E07048844208D10121801500F0B1
:1027000026FB0021A01500F022FB16E06B48844256
:1027100008D10121401500F01AFB0021601500F0DE
:1027200016FB0AE06648844207D10121001500F03B
:102730000EFB0021201500F00AFB10BDF0B50A4683
:1027400000210023002400BF3DE0012505FA01F32C
:10275000156805EA03049C4234D105684F0003263E
:10276000BE40B543056015794E00B5400668354357
:1027700005601579012D02D01579022D16D18568D5
:102780004F000326BE40B543856055794E00B540E5
:10279000866835438560456801268E40B5434560AF
:1027A000456896798E40B6B235434560C5684F009E
:1027B0000326BE40B543C560D5794E00B540C66816
:1027C0003543C560491C1029BFD3F0BD4FF6FF71DA
:1027D00001600021017141718171C171704708B5BB
:1027E0004FF480320092009A0A430092009AC2612C
:1027F000C161009AC261C2690092C269009208BDBB
:102800000246002013690B400BB1012000E00020BC
:1028100070470146086980B270470246002053693C
:102820000B400BB1012000E00020704701464869D1
:1028300080B2704701837047418370470AB10183BA
:1028400000E0418370474161704742694A404261FC
:102850007047F0B5002300244D07ED0E02FA05F392
:10286000CE1000F1200555F826504E07F70E0F2622
:10287000BE40B543CF1000F1200646F82750CE10D9
:1028800000F1200555F8265045EA0304CE1000F16A
:10289000200545F82640F0BD00000240000402403B
:1028A00000080240000C02400010024000140240E8
:1028B00000180240001C0240002002400024024098
:1028C00000280240F948006840F00100F74908601C
:1028D0000020F64908310860F4480068F4490840CF
:1028E000F2490860F348091D0860F348EF49843154
:1028F0000860F0481038091D0860EC48006820F4B2
:102900008020EA4908600020E8490C310860E74966
:102910008C31086070470021E44A921C1170114606
:102920000870704710B501460022002300204A11AC
:10293000012A02D1DD4C236808E0022A03D1DB4CD6
:102940007034236802E0D94C7434236801F01F020C
:10295000012494401C400CB1012000E0002010BD77
:1029600038B5002000900024002500BF3120FFF77B
:10297000D9FF05460098401C00900098B0F5A04F84
:1029800001D0002DF2D03120FFF7CCFF08B1012497
:1029900000E00024204638BD01460020C34A1068EC
:1029A00020F0F80040EAC10010607047C349086099
:1029B00070470021BD4A703211701170012802D099
:1029C00004280AD104E00121B84A7032117005E0F0
:1029D0000521B64A7032117000E000BF00BF704799
:1029E000B7490860704770B5049C41EA821501261A
:1029F000C6EB530645EA0645054345EA0465AB4E7A
:102A0000361D356070BDAD4908667047820142EAE7
:102A10000172A64B84331A607047A84988667047D4
:102A200010B5830143EA016343EA02739F4C883483
:102A3000236010BDA14908677047A049C86470476A
:102A400002460020994B0833186820F0EC6042EAF7
:102A500001031843954B0833186070470246002065
:102A6000924B0833186820F0784042EA010318437B
:102A70008E4B083318607047014600208B4A08329D
:102A8000106820F003000843106070478748083042
:102A9000006800F00C00704701460020834A0832AD
:102AA000106820F0F00008431060704701460020D5
:102AB0007E4A0832106820F4E050084310607047E6
:102AC00001460020794A0832106820F4604040EA4C
:102AD000C10010607047F0B50021002200240225DB
:102AE00000260223714F08373F6807F00C0121B11F
:102AF000042905D0082937D105E0724F076036E078
:102B0000714F076033E0694F3F1D3F68C7F3805640
:102B1000664F3F1D3F6807F03F036EB16A4FB7FB3A
:102B2000F3F7DFF888C10CF1040CDCF800C0CCF33B
:102B3000881C07FB0CF40CE0624FB7FBF3F7DFF8DF
:102B40006CC10CF1040CDCF800C0CCF3881C07FB52
:102B50000CF4564F3F1D3F68C7F301477F1C7D00B3
:102B6000B4FBF5F7076002E0564F076000BF00BFF7
:102B70004E4F08373F6807F0F0010909534F7A5C60
:102B80000768D7404760494F08373F6807F4E0516E
:102B9000890A4E4F7A5C4768D7408760434F0837B1
:102BA0003F6807F46041490B484F7A5C4768D7405B
:102BB000C760F0BD002100F44072B2F5407F0AD139
:102BC0003A4A0832116821F4F811414A024011438F
:102BD000364A08321160354A70321268C0F30B036E
:102BE0001A43324B70331A607047354944390860D4
:102BF000704733494039086070473649086070476C
:102C000001460020294A8C32106820F01F004A1E1D
:102C10001043264A8C321060704701460020234A38
:102C20008C32106820F4F8504A1E40EA02201F4AF5
:102C30008C3210607047014600201C4A8C321068AC
:102C400020F4401008431060704701460020174AE6
:102C50008C32106820F44000084310607047014631
:102C60000020124A8C32106820F440300843106073
:102C7000704719490860704739B10C4A3032126800
:102C800002430A4B30331A6006E0084A30321268B9
:102C90008243064B30331A607047F9B1034A34322D
:102CA00012680243014B34331A601CE000380240C2
:102CB000FFFFF6EA103000240030002000004742F9
:102CC000800E47420024F40000127A002800002001
:102CD000FFFCFF0F5C014742E01147428F4A126838
:102CE00082438E4B1A60704739B18C4A121D1268AC
:102CF00002438A4B1B1D1A6006E0884A121D1268A7
:102D00008243864B1B1D1A60704739B1834A0C32CF
:102D100012680243814B0C331A6006E07F4A0C3282
:102D2000126882437D4B0C331A60704739B17B4A7D
:102D3000103212680243794B10331A6006E0774A6A
:102D4000103212688243754B10331A60704739B1E4
:102D5000724A243A12680243704B243B1A6006E020
:102D60006E4A243A126882436C4B243B1A607047C7
:102D700039B16A4A203A12680243684B203B1A6014
:102D800006E0664A203A12688243644B203B1A6090
:102D9000704739B1614A1C3A126802435F4B1C3BD1
:102DA0001A6006E05D4A1C3A126882435B4B1C3B8A
:102DB0001A60704739B1594A143A12680243574BA6
:102DC000143B1A6006E0554A143A12688243534B8A
:102DD000143B1A60704739B1504A103A12680243E6
:102DE0004E4B103B1A6006E04C4A103A1268824380
:102DF0004A4B103B1A60704739B1484A1C3212687E
:102E00000243464B1C331A6006E0444A1C321268E7
:102E10008243424B1C331A60704739B13F4A20321B
:102E2000126802433D4B20331A6006E03B4A2032D1
:102E300012688243394B20331A60704739B1374AE0
:102E4000243212680243354B24331A6006E0334AB9
:102E5000243212688243314B24331A60704739B1EF
:102E60002E4A2C32126802432C4B2C331A6006E097
:102E70002A4A2C3212688243284B2C331A6070473E
:102E800039B1264A303212680243244B30331A607B
:102E900006E0224A303212688243204B30331A60F7
:102EA0007047012808D11D493C31096841F00801EB
:102EB0001A4A3C32116007E018493C31096821F098
:102EC0000801164A3C321160704739B1134A273A5B
:102ED00012780243114B273B1A7006E00F4A273A3B
:102EE000127882430D4B273B1A7070470B484030D5
:102EF000006840F080700949403108607047014621
:102F00000020064A283A12680A400AB1012000E06F
:102F10000020704701492639087070473438024054
:102F200010B5431C02E010F8011B71B18107FAD102
:102F30004FF0013202C88C1A8C4314EAC211F9D046
:102F4000C01A0A0603D0C01E10BDC01A10BD0A0464
:102F500001D0801E10BD0902FCD0401E10BD70477C
:102F600070477047754600F02BF8AE46050069467D
:102F7000534620F00700854618B020B5FFF7D6FA73
:102F8000BDE820404FF000064FF000074FF000086A
:102F90004FF0000B21F00701AC46ACE8C009ACE8EB
:102FA000C009ACE8C009ACE8C0098D46704710B54F
:102FB0000446AFF300802046BDE81040FDF72DB970
:102FC000004870474800002001491820ABBEFEE7CA
:102FD0002600020070474FF04070E1EE100A704783
:102FE00000000000000000000000000000000404D9
:102FF000040404040004000000140A0A0000000095
:1030000000000000000014143F140A3F0A0A0000E8
:1030100000041E1505060C14150F040000001215FF
:103020000D0A142C2A1200000000040A0A1E1515AD
:10303000093600000002020100000000000000004C
:1030400000201008080808080810200000020408E2
:10305000080808080804020000000004150E0E15F8
:103060000400000000000404041F04040400000025
:10307000000000000000000000020201000000004B
:10308000001F000000000000000000000000000021
:1030900000020000001008080804040202020100F7
:1030A00000000E1111111111110E00000000040694
:1030B00004040404040E000000000E1111080402B0
:1030C000011F000000000E11100C1010110E000066
:1030D0000000080C0A0A091E0818000000001F0161
:1030E000010F1010110E000000000E09010F111148
:1030F000110E000000001F0908040404040400006D
:1031000000000E11110E1111110E000000000E1121
:1031100011111E10120E000000000000040000003B
:10312000000400000000000000040000000404008F
:103130000020100804020408102000000000000015
:103140001F00001F000000000002040810201008EB
:103150000402000000000E11110804040004000025
:1031600000000E111915151D011E000000000404B9
:103170000C0A0A1E1233000000000F12120E121267
:10318000120F000000001E1101010101110E0000CC
:1031900000000F1212121212120F000000001F1274
:1031A0000A0E0A02121F000000001F120A0E0A0275
:1031B0000207000000001C1201013911120C00006E
:1031C00000003312121E12121233000000001F04FE
:1031D00004040404041F000000003E080808080856
:1031E00008090700000037120A060A0A1237000011
:1031F0000000070202020202223F000000001B1B27
:103200001B1B15151515000000003B1216161A1A87
:103210001217000000000E1111111111110E000003
:1032200000000F12120E02020207000000000E1131
:1032300011111117190E180000000F12120E0A12A8
:103240001237000000001E1101060810110F0000C7
:1032500000001F1504040404040E000000003312D3
:1032600012121212120C000000003312120A0A0C81
:103270000404000000001515150E0A0A0A0A0000D1
:1032800000001B0A0A04040A0A1B000000001B0AB3
:103290000A040404040E000000001F0908040402CC
:1032A000121F0000001C04040404040404041C0095
:1032B000000202020404080808100000000E0808BA
:1032C0000808080808080E0000040A0000000000B2
:1032D0000000000000000000000000000000003FAF
:1032E00000040000000000000000000000000000DA
:1032F000000C121C123C000000000302020E12120D
:10330000120E000000000000001C1202021C00004F
:1033100000001810101C1212123C000000000000E7
:10332000000C121E021C000000003804041E0404DD
:10333000041E000000000000003C120C021E221CB3
:1033400000000302020E12121237000000000400F7
:1033500000060404040E000000000800000C080829
:103360000808080700000302023A0A0E123700009C
:103370000000070404040404041F0000000000000F
:10338000000F15151515000000000000000F1212A7
:103390001237000000000000000C1212120C000096
:1033A00000000000000F1212120E020700000000C1
:1033B000001C1212121C103800000000001B060234
:1033C0000207000000000000001E020C101E00009A
:1033D00000000004040E04040418000000000000B3
:1033E000001B1212123C0000000000000037120AFD
:1033F0000C040000000000000015150E0A0A000071
:1034000000000000001B0A040A1B0000000000006E
:103410000037120A0C04040300000000001E080418
:10342000041E00000018080808040808080818000E
:10343000080808080808080808080808000604041E
:10344000040804040404060002251800000000001B
:10345000000000000000000000000000000000006C
:103460000000000000000008080808080808000024
:103470001818000000486C24120000000000000032
:10348000000000000000002424247F1212127F128A
:10349000121200000000081C2A2A0A0C1828282AE8
:1034A0002A1C080800000022251515152A58545416
:1034B000542200000000000C1212120A7625291175
:1034C000916E0000000606040300000000000000EA
:1034D000000000000040201010080808080808102C
:1034E00010204000000204080810101010101008EE
:1034F000080402000000000008086B1C1C6B080890
:103500000000000000000000080808087F08080804
:1035100008000000000000000000000000000000A3
:10352000060604030000000000000000FE0000008A
:10353000000000000000000000000000000000008B
:1035400006060000000080404020201010080804FB
:103550000402020000000018244242424242424259
:1035600024180000000000080E08080808080808D1
:10357000083E00000000003C4242422020100804A7
:10358000427E00000000003C4242201820404042A1
:10359000221C0000000000203028242422227E204B
:1035A000207800000000007E0202021A26404042FD
:1035B000221C0000000000382402021A2642424267
:1035C000241800000000007E2222101008080808BD
:1035D000080800000000003C4242422418244242F5
:1035E000423C00000000001824424242645840401F
:1035F000241C00000000000000001818000000005B
:103600001818000000000000000000080000000082
:1036100000080804000000402010080402040810FC
:10362000204000000000000000007F0000007F003C
:1036300000000000000000020408102040201008D4
:10364000040200000000003C4242464020101000EE
:10365000181800000000001C225A555555552D42DF
:10366000221C00000000000808181414243C224208
:1036700042E700000000001F2222221E2242424296
:10368000221F00000000007C4242010101010142B2
:10369000221C00000000001F2242424242424242DD
:1036A000221F00000000003F4212121E12120242AE
:1036B000423F00000000003F4212121E121202029E
:1036C000020700000000003C2222010101712122BA
:1036D000221C0000000000E7424242427E42424279
:1036E00042E700000000003E080808080808080833
:1036F000083E00000000007C101010101010101088
:103700001010110F0000007722120A0E0A12122266
:1037100022770000000000070202020202020202F9
:10372000427F000000000077363636362A2A2A2AE1
:103730002A6B0000000000E346464A4A5252526299
:10374000624700000000001C2241414141414141CB
:10375000221C00000000003F424242423E020202A0
:10376000020700000000001C2241414141414D532D
:10377000321C60000000003F4242423E12122222F0
:1037800042C700000000007C424202041820404270
:10379000423E00000000007F4908080808080808A9
:1037A000081C0000000000E74242424242424242FE
:1037B000423C0000000000E7424222242414141876
:1037C000080800000000006B494949495555362258
:1037D00022220000000000E74224241818182424A4
:1037E00042E70000000000772222141408080808AD
:1037F000081C00000000007E212010100804044274
:10380000423F00000078080808080808080808086F
:1038100008087800000002020404080808101020BC
:1038200020204040001E101010101010101010101A
:1038300010101E00003844000000000000000000CE
:103840000000000000000000000000000000000078
:10385000000000FF0006080000000000000000005B
:1038600000000000000000000000003C42784442DC
:1038700042FC0000000000030202021A26424242FB
:10388000261A000000000000000000384402020276
:10389000443800000000006040404078444242420A
:1038A00064D80000000000000000003C427E0202DC
:1038B000423C0000000000F08808087E0808080864
:1038C000083E0000000000000000007C22221C02D4
:1038D0003C42423C000000030202023A464242429D
:1038E00042E700000000000C0C00000E0808080869
:1038F000083E00000000003030000038202020206A
:103900002020221E0000000302020272120A161278
:10391000227700000000000E0808080808080808C0
:10392000083E0000000000000000007F929292928A
:1039300092B70000000000000000003B46424242F7
:1039400042E70000000000000000003C424242420A
:10395000423C0000000000000000001B26424242E2
:10396000221E02070000000000000078444242428C
:10397000447840E000000000000000774C0404049C
:10398000041F0000000000000000007C42023C40D8
:10399000423E0000000000000008083E0808080839
:1039A0000830000000000000000000634242424274
:1039B00062DC000000000000000000E74224241444
:1039C0000808000000000000000000EB49495555C0
:1039D00022220000000000000000007624181818C1
:1039E000246E000000000000000000E742242414C0
:1039F00018080807000000000000007E22100808D8
:103A0000447E000000C02020202020102020202004
:103A10002020C000101010101010101010101010E6
:103A200010101010000608080808081008080808F8
:103A3000080806000C32C200000000000000000070
:103A400000000000C9EE000027FC140414A481103B
:103A500042084040104017FC2040E0E0215022483E
:103A60002C4620400040DBDA1104112411241124DB
:103A70001124FD24112411241124112411241D24A6
:103A8000E124422402040404CAD002000100000020
:103A90007FFC0100010001003FF8210821082108F6
:103AA00021082128211001000100C8AB00000000FE
:103AB000018002400430180860061FF9010001006F
:103AC00001003FF80100010001007FFEB6AF0000D9
:103AD000000000203E20007C002200227F221022D5
:103AE000102212221222224223423D82009CB5E77C
:103AF0000000010001001FF0610C410441047FFC43
:103B00004104410441047FFC01000102010201FC67
:103B1000D7D3000000003FF80010006000800100D3
:103B200000807FFE00400040002000200020184060
:103B30000780BCBC10201020102013FEFC20102099
:103B4000102015FC18843088D048105010201050D8
:103B500051882606CAF501000120011001107FFCE2
:103B6000038005400540092011102108410481020D
:103B7000010001000100D3D002000200FFFE04009A
:103B800004000FF0081018102FF0481088100FF0E4
:103B90000810081008500820CFDE00007BF84A0803
:103BA000520853F8620852084BF84A444A486A30AF
:103BB00052204210428843064200B9AB0080048084
:103BC00004800840084010202010420882060400AB
:103BD0000440082010203FF010100000CBBE000071
:103BE0003FF8000800087FE8000800081F881088D8
:103BF0001088108810881F88108800280010BBB615
:103C000000800080FC8004FC050449082A40144020
:103C1000104028A024A045108110020804040802C6
:103C2000D3AD00002080133C122402240224F2248D
:103C30001224122412B4132812201020282047FE28
:103C40000000C4FA0900090011FC320454489950DC
:103C500011481244144411401080020051045112C2
:103C600090120FF0B4BF00000020102013FE20209F
:103C700026244A247A241224222423FC7C20002295
:103C800004227822003CC9AB0000000004000FF0C1
:103C9000102020207FFC20842084208420843FF872
:103CA0002000200220021FFECCEE00000000204079
:103CB00023FE204079FC220423FC220423FC22045E
:103CC00023FC3A0465FA01980204B3E40000010001
:103CD00001007FFE02200410040808043FFC044297
:103CE00004400440044208421042607EBED80000F6
:103CF0000000207E3E804880488048FE48827F82C7
:103D000008820C8214FA12842280218040FED0CED8
:103D1000000000007F842208223022C022022204F8
:103D20007FC8223022C222022204220822304040D0
:103D3000BBAD000000007FFE00000FF0111011105D
:103D4000111051125FF25112511251124FF24002F2
:103D50007FFCD4B2000000007FFE47E24812481208
:103D600047E24FF2501250125112511242924472D5
:103D7000580A3FFCCDBC000000003FFE440247F261
:103D80004C225362408243625E1A41824062430287
:103D900040C240223FFCC6AC000000402040204012
:103DA00020403FFE2000200020003FE02010201097
:103DB0002010201040104010CFD4000000003FFC25
:103DC000200420043FFC200420041FF8244414484D
:103DD000144814480C5004407FFECABE0000000086
:103DE0003FFC0000000000007FFE00800890088873
:103DF000108810842084208240820780B2CB00008B
:103E0000002008207FFE002000783F8811080890DD
:103E100009207FFE018003400D30310C4002B5A522
:103E200000000010081004203FF8210421043FFC8A
:103E3000210421043FF801007FFE01000100010080
:103E4000D6D000000100010001003FFC2104210444
:103E500021042104210421043FFC01000100010090
:103E60000100D3A20000000008207FFE08200920E6
:103E700001003FF82108210821081FF40140022019
:103E80000C10700ECEC400000100010000803F7CC9
:103E90000810081004100420022002400180018054
:103EA00002601C18E006D7DB00000000102011FEA5
:103EB0002202220249FC5800300013FE25287924F2
:103EC00001240D24722202A2BACF0000000001805A
:103ED00002400430180860061FF800001FF8200494
:103EE00020042004200420041FF8C1C100000100A8
:103EF00001007FFE00003FF820083FF83FF8400631
:103F000047C24824082008221022603EB6C800009C
:103F1000000000803FFE44105FFC4410441043F05A
:103F200040005FF84408423041C04360BC1EB2E22A
:103F30000000000067C2145205520552C5522552B6
:103F40000552055215521752228222424442483EDF
:103F5000CAD4000000002014101417FE0012001034
:103F6000601013F0109010901090149214EA1F0A31
:103F70000006B3CC0000000019FE72021202120209
:103F80007DFC18001BFE3420502053FE1020102012
:103F9000102013FED0F20000000000803FFE400021
:103FA00047FC4208413040C05FFE4042404240442E
:103FB000404840404440B5F70000000023FE122274
:103FC00002FA0222E22212FE1272128A128A128A65
:103FD00016BA1A421202040EB9E2000001000104EE
:103FE00011080908091009207FFE0440044004401C
:103FF0000440084208421042607CB0E60000000025
:1040000048FE4900490049007EFE4182414479440E
:10401000452845284510452846440382C8A8000085
:104020001000100013FC7D04110419041884348856
:104030005048505010201050108813041402CBF92F
:10404000000000003F7C204020403E40227E224471
:10405000224422443E84208420844084410442043B
:10406000C6C100003FF8200820083FF82410222095
:104070002FF8222022203FFC2220422044208420AE
:104080000820C4BB04407FFC04401FF010101FF048
:1040900010101FF00400FFFE11103FF8D116115050
:1040A00011200100D0FD2080108010FE0100FE00D4
:1040B00021FC20243C2424A024A024BC24A024A04F
:1040C0004560553E8A00D7AA202020202020FDFCF4
:1040D0004020504093FEFC40108011FC1C04F088EE
:1040E0005050102010101010BFAA00007FFC0820B4
:1040F0000820082008200820FFFE082008200820AB
:1041000008201020102020204020D4B4000027FEDA
:104110001420144085FC450445FC150415FC252499
:10412000E42024A829242A2230A00040D2BA00800A
:10413000204017FE11208120423C42441664129414
:104140002348E24822302220225022880306BEA7BC
:104150000FE0082008200FE0082008200FE00000F2
:104160007EFC428442847EFC428442847EFC428403
:10417000CDF800007FFC40044004421452944A549D
:10418000442444244A544A54529461044004401440
:104190004008D5BE1020082008207E20003E0420C4
:1041A0004420442025FC290429040F04F10441047F
:1041B00001FC0104B0B410401020102013FEFA02DC
:1041C000144410401BFE3088D088110810D01020F5
:1041D000105050882304BCFC201020103B7C21147C
:1041E00041FE7A14A27C2710F97C251025FE2210AE
:1041F0002A10350028FE0000D0A310401020102007
:1042000011FEFC00108831043A0254885088905006
:1042100010501020105010881306D7BC01404120C8
:10422000212023FE022016201BFC1220222023FC2A
:10423000E2202220222023FE22000200B4A520201A
:104240002020782049FC91247D24552455247DFC90
:10425000552454207C28542457FE45028C00C3FE6C
:104260001110111017FC1110FC0013F8120817F8A8
:104270001A0833F8D04017FC10A011105208240679
:10428000C9EE0000000000001000000800080C7FCC
:10429000FC04401001C8A0021860423018322318F4
:1042A00012C30014030004030C047FF0080F8008FD
:1042B0000B4078136018332018631818831C1903F7
:1042C00008180300000300000000DBDA0000000013
:1042D000000004100C04180C04108C04108C041042
:1042E0008C04108C04D08C3F108C04108C04108C27
:1042F00004108C04108C04108C04108C05F08C0EAF
:10430000208C78208C20408C00808C01000C0200D6
:104310000C000000CAD000000000000000300000C7
:10432000180000180800001C1FFFE000180000180B
:104330002007FFF004182004182004182004182077
:10434000041820041820041820041820041820043D
:1043500018E0041840001800001800000000D6D033
:104360000000000000000000000000000018000035
:1043700018000018000018003FFFFE301806301823
:10438000063018063018063018063FFFFE301806B3
:1043900000180000180000180000180000180000A5
:1043A0000000000000000000CEC40000000000007B
:1043B000000000003800001C00000600FFFFFF06A0
:1043C00000300600300300600300600180C000C1BF
:1043D0008000E300003600001C0000770003C1E00D
:1043E0001E003C600007000000000000000000000C
:1043F0000000B2E200000000000000000000000029
:1044000040000321FF33398333118333019B33C1D0
:104410009B33719B33199B33019B33019B33119B5E
:104420003319B333303033306C0330C60363830346
:104430002E01BE000000000000000000CAD40000F1
:10444000000000000000000000004000D83000CE56
:104450001800C21C00C001FFFF0000C0F800C01817
:1044600000C019FFC01818401818601918601B18F0
:10447000611E18311C1FB139F01910000F00000027
:10448000000000000000D7D6000000000006000079
:10449000000300000000C0000001C0C0000107C010
:1044A0000001FF00021FFE0007F01C0007C07000A3
:1044B0000F00E0000E03F0001C0FF0003C0F700036
:1044C0003C00E0001800C0000000C0000000C00078
:1044D0000000600000002000000037000001FF0025
:1044E000007FF80007F830001F80300000803000A7
:1044F00000C03000006060000018E000000FC00045
:104500000006000000000000CCE5000000000000F4
:104510000000000000C0000000E0002001B80070B2
:104520003FF80061FFC000C3030001C60600038C12
:10453000060003080C0006080C000E18183F1E1099
:104540001BF31F903F0700803C1C0190707C019082
:1045500060FE01A0C3F801A00FD803A008180360F3
:1045600000180340001803C000180380001803005F
:1045700000180000001800000010000000300000CB
:1045800000300000000000000000B2E20000000067
:10459000000000000000000000000000020C1008F5
:1045A000071FF80403BFF00201BC300303EC300323
:1045B000015C600300D8600300D860038098620348
:1045C00061B8430771B14306313243063376C306FF
:1045D0003A64C7063EECC0063E78C0063C30400652
:1045E0007C70000678E060067BFFF006F7C00006EE
:1045F000E400000640000006000000060000007C09
:1046000000008FF000007C0000000000CAD4000011
:104610000000000000000000000000003F0000005B
:104620007F8000000180000000C0000000C000008A
:1046300000CE038000CFFFC000DD41800FFE0007E9
:10464000FFFC000C00F000180FC03E19FF40F311F2
:10465000BC6083307FE003B1FE2003338020037011
:104660000030036000100360001807C0000C07C092
:1046700000040780000201000003000000010000A8
:10468000000000000000000000000000000000002A
:10469000FFFFFFFFFFFFFFFFFFFFFFFFFFFFFFFF2A
:1046A000FFFFFFFFFFFFFFFFFFFFFFFFFFFFBEF763
:1046B000FFFFDEFF38C6928C8E6B6E6B107C96AD62
:1046C0003CE7FFFFFFFFFFFFFFFFFFFFFFFFFFFFD5
:1046D000FFFFFFFFFFFFFFFFFFFFFFFFFFFFFFFFEA
:1046E000FFFFFFFFFFFFFFFFFFFFFFFFFFFFFFFFDA
:1046F000FFFFFFFFFFFFFFFFFFFFFFFFFFFF5DEF7C
:10470000159D4F636C420A328829461925194521A7
:10471000E8318E6B38C6FFFFFFFFFFFFFFFFFFFF93
:10472000FFFFFFFFFFFFFFFFFFFFFFFFFFFFFFFF99
:10473000FFFFFFFFFFFFFFFFFFFFFFFFFFFFFFFF89
:10474000FFFFFFFFFFFFFFFFFFFFFFFF36A5105337
:10475000104B51530F4B6C3AE93167212519E41086
:10476000A30862008308CB529AD6FFFFFFFFFFFF2A
:10477000FFFFFFFFFFFFFFFFFFFFFFFFFFFFFFFF49
:10478000FFFFFFFFFFFFFFFFFFFFFFFFFFFFFFFF39
:10479000FFFFFFFFFFFFFFFF3CE77063B363B87CE1
:1047A000F56311434D32EA298821261905190519A7
:1047B00004110411E4108300A308728CFFFFFFFFB3
:1047C000FFFFFFFFFFFFFFFFFFFFFFFFFFFFFFFFF9
:1047D000FFFFFFFFFFFFFFFFFFFFFFFFFFFFFFFFE9
:1047E000FFFFFFFFFFFFDBDE4B3AF042356C544B1F
:1047F000B1322E2AEB21A9216719051904110411E0
:104800000411041104110519E4104200AF73FFFFF5
:10481000FFFFFFFFFFFFFFFFFFFFFFFFFFFFFFFFA8
:10482000FFFFFFFFFFFFFFFFFFFFFFFFFFFFFFFF98
:10483000FFFFFFFF5DEF09324C32104B8F324F2AE2
:104840002E2ACC1989198921471905190411041137
:10485000C410C410041104110411E4104200318486
:10486000FFFFFFFFFFFFFFFFFFFFFFFFFFFFFFFF58
:10487000FFFFFFFFFFFFFFFFFFFFFFFFFFFFFFFF48
:10488000FFFFFFFFEC5247194C320B2AEC21EC21C1
:104890000C22915BEE4A061126190419E410E4106B
:1048A000A7296621A308051904110411E410820048
:1048B000F7BDFFFFFFFFFFFFFFFFFFFFFFFFFFFF52
:1048C000FFFFFFFFFFFFFFFFFFFFFFFFFFFFFFFFF8
:1048D000FFFF35A58308882188218921AA218A2103
:1048E0006B42718CFFFF728C83080411C40829424B
:1048F000FBDE5DEFEC5A83080411041104118308F8
:10490000E831DFFFFFFFFFFFFFFFFFFFFFFFFFFFBC
:10491000FFFFFFFFFFFFFFFFFFFFFFFFFFFFFFFFA7
:10492000BEF7C731C4102519261947194719A829F8
:104930008A52284A55ADFFFFE831A30805194D6B8F
:104940004D6BFFFF7DEF4521C410041104110411CC
:10495000620076ADFFFFFFFFFFFFFFFFFFFFFFFFDE
:10496000FFFFFFFFFFFFFFFFFFFFFFFFFFFFFFFF57
:1049700096B562000411041905110519C4088B4A83
:10498000B6B55DEFF7BDFFFF8E6B62002942AA5AF4
:104990000842FFFFFFFFCC528308041104110411E9
:1049A000A308AD52FFFFFFFFFFFFFFFFFFFFFFFF69
:1049B000FFFFFFFFFFFF1CE7FFFFFFFFFFFFFFFF02
:1049C0004E636200041104110411E41062008E634E
:1049D000FFFFFFFFFFFFFFFFCF730100F39C2C637E
:1049E00096B5FFFFFFFF2D5B830004110411041136
:1049F000E41067213DEFFFFFFFFFFFFFFFFFFFFF19
:104A0000F8BDB7B59EEFCB52B394FFFFFFFFDFFFBA
:104A1000E831A3080411041104110411A308494248
:104A2000FFF7FFF7FFFFFFFF6A4A01007284FFFFF5
:104A3000FFFFFFF7DFEF093AA30804110411041187
:104A40000411051118BEFFFFFFFFFFFFFFFFFFFF6F
:104A5000F07B6200E831C731410035A5FFFF5DEF13
:104A60004621C4100411041104110411E410A30818
:104A7000769DFFF7FFFFB7ADA308A308C7319EE7F8
:104A8000FFF7FFF776A5A308E41004110411041141
:104A90000511051135A5FFFFFFFFFFFFFFFFFFFF1A
:104AA000DBDEA7298300C410C410C4101CE79EEFEE
:104AB0000511E41004110411041104110419C408AF
:104AC000E510D16BD16BC5086400A50843002B32FB
:104AD000779DB3842519C410041104110411041125
:104AE00025192609359DFFFFFFFFFFFFFFFFFFFF91
:104AF000FFFFAF7362000419051982000D5B8E9BE6
:104B000062100511041104110419E4108500051147
:104B1000C439815A407B229C43AC03A4839B82729C
:104B20008249C218A400C500E41004190411051933
:104B300047196711EC5ABEFFFFFFFFFFFFFFFFFFA2
:104B4000DFFFDBDEC410E41004110511A41801C05E
:104B50008388E40005190419C5084421438323D53B
:104B600042FEE4FE27FF07FFA4FE64FE03FEA3FD52
:104B7000E2FC42EC83B32462E510C4080419261950
:104B8000A81987210090D3BCFFFFFFFFFFFFFFFFA5
:104B9000DFFFFFFF107C420005190511832801D0BB
:104BA00044F8A348E400C508445A02EDE2FD02FEC1
:104BB00066FE74FFB8FF73FFE7F6A6F645F6A4F5A8
:104BC000C3FC62FCC2FCC2FCE3CBC44906118819D9
:104BD0008701A49001F8EC9AFFFFFFFFFFFFFFFFA2
:104BE000FFFFFFFFBEF7E83183000509824001C0E7
:104BF00023F885F0A348A400445A02FD23CCC2DC6C
:104C000004FE28FE48F646F624F6E4F564FDE3FCCF
:104C100062FCC2FC02E402DCE2FCA47A4801670107
:104C2000C47824F802F884B07DE7FFFFFFFFFFFFA0
:104C3000FFFFFFFFFFFFDBDE2519A300C43802E002
:104C400022D844F8A6F8A4786300432183728339FC
:104C5000829B21F561FD22FDE2FCA2FC42FC42FCAC
:104C600042FC22AB8341C392045226012519A49829
:104C700044F823F802F8A4D09EEFFFFFFFFFFFFFE8
:104C8000FFFFFFFFFFFFFFFF9AD68729A50043B86C
:104C900022F823E065F8E8F807C983484200A3003A
:104CA00084006329A27A62B3A2CB62D302BB828A58
:104CB0008339A400E500E500E508C46064D844F841
:104CC00024F823F802F88388DBC6FFFFFFFFFFFF0D
:104CD000FFFFFFFFFFFFFFFFFFFF3DE7505B0831D6
:104CE00023E843F844F065F809F9ABF989D106895E
:104CF000A348421802004200610082006200620084
:104D00008300A320C450A58885D865F844F844F8EA
:104D100023F823F803D08210C7295DEFFFFFFFFFC0
:104D2000FFFFFFFFFFFFFFFFFFFFFFFFFFFF6C32F3
:104D3000A53802D823F865F866F8A7F84AF90CFAFE
:104D40004DFA4CEA0BD2A9B968B147A927B107B906
:104D500007D1E7E8C7F8A7F865F865F844F823F83D
:104D600003F802D0A3280509C408EC5AFFFFFFFF8F
:104D7000FFFFFFFFFFFFFFFFFFFFFFFFFBDE051948
:104D8000C400A741E6C003F886F8A7F887F886F8BC
:104D9000C7F829F98AF9ABF9ABF98BF96AF929F95E
:104DA00008F9C7F8A6F886F865F864F823F802F061
:104DB00006B12529E400E41025192519149DFFFFEB
:104DC000FFFFFFFFFFFFFFFFFFFFFFFF96AD62004A
:104DD00082083595BACE8BA244D025F887F8A7F87B
:104DE000C7F8A7F887F886F886F886F887F8A7F84E
:104DF000A7F8A6F885F865F864F824F064B80D9370
:104E0000BBB6CF6383080411E4106621493A5DEF15
:104E1000FFFFFFFFFFFFFFFFFFFFFFFFD3944200F5
:104E2000E410BBCEFFFFBEE776B5CCAA07C145E0D4
:104E300045F846F866F886F886F886F886F865F844
:104E400045F865F865E844D043A8018882903CD7CE
:104E5000FFEF559583080411041105194619B39401
:104E6000FFFFFFFFFFFFFFFFFFFFFFFFB3944100C6
:104E700086215DDFFFFFFFFFFFFFDFE77AC6D3B4C8
:104E80004EB32AC268D1E6E0A6E8A5E8A5E8E6D8D0
:104E900088C906A922A802A800A000C800D8F7E582
:104EA000FFE7F8ADC410E4100411E41005118B4ABB
:104EB000FFFFFFFFFFFFFFFFFFFFFFFF55A54100C3
:104EC000A7295DDFFFF7FFFFFFFFFFFFFFFFFFFFEA
:104ED000FFEF7DDFDBCE59CEF8CDD7CDF7C579CE4C
:104EE000FBBEABA203F045F842D043E800F072D419
:104EF000FFDF39AEE410E4100411E4100511872936
:104F0000FFFFFFFFFFFFFFFFFFFFFFFF59CE8308FB
:104F100046211CD7FFF7FFFFFFFFFFFFFFFFFFFF4B
:104F2000FFFFFFFFFFFFFFFFFFFFFFFFFFFFFFFF91
:104F3000FFEF8BBA04F845F862E044F000F88EDB2E
:104F4000FFDFF8A5C410E410E4100411E4102519E3
:104F5000FFFFFFFFFFFFFFFFFFFFFFFFBEF78729F8
:104F6000830839B6FFF7DFF7FFFFFFFFFFFFFFFF03
:104F7000FFFFFFFFFFFFFFFFFFFFFFFFFFFFFFFF41
:104F8000BEE74ABA03F845F864F844F800F86EE35F
:104F9000FFD7F48C83080411E410E410E410051921
:104FA000FFFFFFFFFFFFFFFFFFFFFFFFFFFFEF73AD
:104FB00000007284FFEFBEEFDFFFFFFFFFFFFFFF88
:104FC000FFFFFFFFFFFFFFFFFFFFFFFFFFFFFFFFF1
:104FD000DFE78BBA03F845F845F823F800F8D3D497
:104FE000FFD74E5B2100293A55A58308C410251927
:104FF000FFFFFFFFFFFFFFFFFFFFFFFFFFFFFBDEE6
:10500000A308E8319EDF9EE7BFEFFFFFFFFFFFFF32
:10501000FFFFFFFFFFFFFFFFFFFFFFFFFFFFFFFFA0
:10502000FFF751BC02E003F803F043E0ECC27ECF8F
:10503000FCBE46212100D394FFFF51840000872944
:10504000FFFFFFFFFFFFFFFFFFFFFFFFFFFFFFFF70
:1050500051840000F48CFFEF9EE7BFEFDFFFFFFFFE
:10506000FFFFFFFFFFFFFFFFFFFFFFFFFFFFFFFF50
:10507000FFFF3DDF55BD52BC72BCB7B55DC7FFDF5A
:10508000F06B0000093ABFF7FFFFFFFF149D55A525
:10509000FFFFFFFFFFFFFFFFFFFFFFFFFFFFFFFF20
:1050A000FFFFAC4AA408BBBEDFE77EE7BEEFDFF739
:1050B000DFFFFFFFFFFFFFFFFFFFFFFFFFFFFFFF20
:1050C000DFFFDFF7FFEFDFDFBFD79ED7DFDFD8A53A
:1050D00083082611DBD6FFFFFFFFFFFFFFFFFFFF67
:1050E000FFFFFFFFFFFFFFFFFFFFFFFFFFFFFFFFD0
:1050F00079EE8BDC2131A9213DCFBFDF7EDF9EE73A
:10510000BEEFBFEFDFF7DFF7DFF7DFF7DFF7BFEF68
:10511000BEEF9EE77EDF5ED75ED7DFDF9AB6261949
:105120004208EDA3BFFFFFFFFFFFFFFFFFFFFFFFF1
:10513000FFFFFFFFFFFFFFFFFFFFFFFFFFFF74DD2C
:10514000C0DB00FE42EE024289217BB6DFDF7ED764
:105150007EDF7EDF9EE79EE79EE79EE79EE77EDF9F
:105160007EDF5DD75DD79EDFFFE7F8A50711E31867
:1051700002C560FDE6D3DBEEFFFFFFFFFFFFFFFF91
:10518000FFFFFFFFFFFFFFFFFFFFFFFF9EF784BA58
:10519000C1FC42FE82FEA2FE8183452174745EC77B
:1051A000DFDF7ED75ED75DD75ED75ED75DD75DD7B1
:1051B0005ED79EDFFFE73DC7F1638408425226E6D3
:1051C00029FF86FEE0F36AC3FFFFFFFFFFFFFFFF3B
:1051D000FFFFFFFFFFFFFFFFFFFFFFFF18DEC1D252
:1051E000A2FD22FE42FE42FE62FEE2D4416A494234
:1051F00053743BA63EC7BFD7BFD7BFD7BFDFBFD70C
:105200003EC71AA6F263A729824122B462FE83FE3A
:10521000AAFE0FFF67FD63BA3CEFFFFFFFFFFFFF32
:10522000FFFFFFFFFFFFFFFFFFFFFFFF9AE680D2B8
:1052300021FDC2FDE2F5C2F582F582FD62FD61DC71
:10524000219B846AE96A2C63AF6311746E632C63DB
:10525000895A0452817AC2CBE2FC62FD82FDC2FD12
:10526000C2FDE4FD24FD62CA1CE7FFFFFFFFFFFF54
:10527000FFFFFFFFFFFFFFFFFFFFFFFFFFFFB1CCBF
:1052800081D2C0F3C1FC02FD02FDE2FCC2FCC2FC03
:1052900081FC80FBC0C9A48135AD59CE719C2181B0
:1052A00000DAA1FB82FCA2FC82FCA2FC02FD22FD32
:1052B000E2FC00FC60DA90CCFFFFFFFFFFFFFFFF86
:1052C000FFFFFFFFFFFFFFFFFFFFFFFFFFFFFFFFEE
:1052D00059DE0DC406CBE4D203DB03DBE3DAC3D231
:1052E000A4C209B3D2BC9EF7FFFFFFFFFFFFFBE69E
:1052F0000EB4A6BA83D2E3E202EB22EB22E303DB95
:10530000E4D26AC3B6D5FFFFFFFFFFFFFFFFFFFF39
:105310004C53000840530008305300082053000845
:10532000526F746174696F6E3A323730000000005A
:10533000526F746174696F6E3A313830000000004A
:10534000526F746174696F6E3A393000526F7461D4
:1053500074696F6E3A300000785300080000002036
:1053600038000000C4010008B053000838000020D5
:1053700070060000E0010008007A030A0000000047
:1053800000000000010203040607080900F8E00716
:105390001F00E0FF1FF80000FFFF000000000000FA
:1053A00000000000010203040102030406070809CB
:040000050800018965
:00000001FF
