:020000040800F2
:10000000D02F0020050200088D250008931C000851
:100010008925000889030008E93100080000000074
:10002000000000000000000000000000912900080E
:1000300031040008000000008F250008A12A0008F4
:100040001F0200081F0200081F0200081F0200080C
:100050001F0200081F0200081F0200081F020008FC
:100060001F0200081F0200081F0200081F020008EC
:100070001F0200081F0200081F0200081F020008DC
:100080001F0200081F0200081F0200081F020008CC
:100090001F0200081F0200081F0200081F020008BC
:1000A0001F0200081F0200081F0200081F020008AC
:1000B0001F0200081F0200081F0200081F0200089C
:1000C0001F0200081F0200081F0200081F0200088C
:1000D0001F0200081F0200081F0200081F0200087C
:1000E0001F0200081F0200081F0200081F0200086C
:1000F0001F0200081F0200081F0200081F0200085C
:100100001F0200081F0200081F0200081F0200084B
:100110001F0200081F0200081F0200081F0200083B
:100120001F0200081F0200081F0200081F0200082B
:1001300000F002F800F03CF80AA090E8000C8244BD
:100140008344AAF10107DA4501D100F031F8AFF29A
:10015000090EBAE80F0013F0010F18BFFB1A43F0A5
:1001600001031847A85A0000C85A0000103A24BFDB
:1001700078C878C1FAD8520724BF30C830C144BF0C
:1001800004680C607047000000230024002500264E
:10019000103A28BF78C1FBD8520728BF30C148BFEA
:1001A0000B6070471FB500F062F81FBD10B510BDA1
:1001B00000F0AFF81146FFF7F5FF03F0FCF800F090
:1001C000CDF803B4FFF7F2FF03BC00F0D7F800004E
:1001D0000B49D1F800C04A685CF8043B1068184429
:1001E00042F8040B8C4528BFA1F1DC0C8A4228BFE1
:1001F000A1F1DC02C1F800C04A6020F00040704765
:10020000682900200948804709480047FEE7FEE7C3
:10021000FEE7FEE7FEE7FEE7FEE7FEE7FEE7FEE7B6
:1002200004480549054A064B70470000A92A000802
:1002300031010008D0290020D02F0020D02B002031
:10024000D02B00200B4910B5A1F17C020A4CC2E969
:100250003712372106E000EB104342F82130074BFC
:1002600000FB03400B1EA1F10101F4DC10BD0120D5
:10027000E8E7000008290020E119D666CD0D01004D
:1002800010B5431C02E010F8011B71B18107FAD1CF
:100290004FF0013202C88C1A8C4314EAC211F9D013
:1002A000C01A0A0603D0C01E10BDC01A10BD0A0431
:1002B00001D0801E10BD0902FCD0401E10BD4FF0C1
:1002C000000200B5134694469646203922BFA0E8A6
:1002D0000C50A0E80C50B1F12001BFF4F7AF0907B2
:1002E00028BFA0E80C5048BF0CC05DF804EB8900A3
:1002F00028BF40F8042B08BF704748BF20F8022BE6
:1003000011F0804F18BF00F8012B704770477047FD
:100310007047754600F02CF8AE4605006946534616
:1003200020F00700854618B020B5FFF779FFBDE83B
:1003300020404FF000064FF000074FF000084FF04C
:10034000000B21F00701AC46ACE8C009ACE8C009DD
:10035000ACE8C009ACE8C0098D46704710B504464A
:10036000AFF300802046BDE81040FFF72ABF000031
:10037000004870477029002070470000014918208C
:10038000ABBEFEE72600020000BFFEE70EB517A0D9
:1003900000F098F80020102118A24FF6E073CDE984
:1003A000002102901F2252212D2002F0F3FA012099
:1003B000182117A24FF6E073CDE9002102901F2209
:1003C00066212D2002F0E6FA0120202114A24FF62A
:1003D000E073CDE9002102901F227F212D2002F041
:1003E000D9FA4FF4966002F06BFF0EBDD6D0CEC4A2
:1003F000CFD4CABEB2E2CAD40000000031365831B0
:10040000363AC8ABB6AFB5E7D7D3BBB6D3AD00006D
:1004100032345832343AD6D0CEC4B2E2CAD4000014
:1004200033325833323AD7D6CCE5B2E2CAD40000E0
:10043000704700002DE9F04106460F4614461D4660
:100440004FF6FF701E4908803B462246394630462B
:1004500001F04AFC2B4632463946304601F044FC56
:1004600048F21040164908806A1E93B291B2721C7D
:1004700090B2224601F038FC44F20820104908806E
:100480002B4622462946304601F02EFC48F2104009
:100490000B490880631E9AB27B1C99B2631E98B206
:1004A0002B4601F021FC44F20820054908802B4628
:1004B00022463946204601F017FCBDE8F0810000D5
:1004C000120000203EB504464FF6FF7001F0E4FB39
:1004D00077488079002837D11F2000907448008821
:1004E000401E82B21C230021084601F083FC1F201D
:1004F00000906F484088401E83B26D480088401EBF
:1005000082B26B484088103881B2002001F072FC42
:10051000002010211F234FF6FF72CDE90041029009
:100520000C2100F06FFC0020102162A2CDE9002117
:1005300002905F484088103801B21F234FF6FF72C7
:10054000002000F05FFCB2E059488079022837D1E2
:100550001F20009056480088401E82B210230021C0
:10056000084601F047FC1F20009051484088401E7B
:1005700083B24F480088401E82B24D4840881E38E2
:1005800081B2002001F036FC002010211F234FF61D
:10059000FF72CDE900410290014600F033FC0020DB
:1005A000102144A2CDE900210290414840881E3824
:1005B00001B21F234FF6FF72002000F023FC76E00B
:1005C0003B488079012838D11F20009038480088A6
:1005D000401E82B21C230021084601F00BFC1F20A4
:1005E000009033484088401E83B231480088401E46
:1005F00082B22F484088203881B2002001F0FAFBF7
:10060000002010211F234FF6FF72CDE90041029018
:100610000C21152000F0F6FB0020102125A2CDE9C9
:100620000021029022484088203801B21F234FF653
:10063000FF72152000F0E6FB39E01F2000901C48F7
:100640000088401E82B21C230021084601F0D2FB24
:100650001F20009016484088401E83B2144800882E
:10066000401E82B212484088203881B2002001F03A
:10067000C1FB002010211F234FF6FF72CDE900417E
:1006800002900C216FF0140000F0BCFB0020102140
:1006900008A2CDE90021029005484088203801B227
:1006A0001F234FF6FF726FF0140000F0ABFB3EBD4E
:1006B000242800207777772E6C636477696B692E26
:1006C000636F6D002DE9F04704460D4616461F4640
:1006D000DDE908893B4632462946204601F004FB05
:1006E0004B4642463946304601F0FEFA2B4622463A
:1006F0004946404601F0F8FABDE8F0870EB52BA058
:10070000FFF7E0FE00200C212CA24FF6E073CDE9AC
:10071000002102901F224D21322002F03BF90120DE
:100720000C212CA24FF6E073CDE9002102901F228C
:100730005921322002F02EF900200C212BA24FF675
:10074000E073CDE9002102901F226521322002F0E2
:1007500021F9002010212BA24FF6E073CDE90021F2
:1007600002901F227221322002F014F90120102180
:1007700028A24FF6E073CDE9002102901F228221CA
:10078000322002F007F90020102126A24FF6E07374
:10079000CDE9002102901F229221322002F0FAF8C6
:1007A0004FF4966002F08CFD0EBD0000D3A2CEC4C3
:1007B000CFD4CABEB2E2CAD40000000036583132EB
:1007C0003A61626364656667683031323334353666
:1007D00037000000365831323A41424344454647DB
:1007E0004830313233343536370000003658313234
:1007F0003A7E21402324255E262A28295F2B7B7DF3
:100800003A000000385831363A616263646530312D
:1008100032333400385831363A414243444530315E
:1008200032333400385831363A7E21402324255E55
:10083000262A2829000000002DE9FF4F85B0002658
:100840000027BDF81800BDF82010884207DD08A970
:1008500006A802F029FD07A905A802F025FDBDF8AC
:100860002000BDF84C10884207DD08A913A802F04B
:100870001BFD07A912A802F017FDBDF81800BDF86E
:100880002010884207DD08A906A802F00DFD07A97F
:1008900005A802F009FDBDF81800BDF84C1088420B
:1008A00038D1BDF8140003900490BDF81C00BDF8C9
:1008B0001010884203DABDF81C00049008E0BDF86F
:1008C0001C00BDF80C10884202DDBDF81C0003902E
:1008D000BDF84800BDF81010884203DABDF84800A2
:1008E000049008E0BDF84800BDF80C10884202DD15
:1008F000BDF848000390534800880090BDF81830B8
:10090000BDF80C201946BDF8100001F073FA09B0CB
:10091000BDE8F08FBDF81C00BDF81410A0EB010B72
:10092000BDF82000BDF81810401A0290BDF848002C
:10093000BDF81410451ABDF84C00BDF81810A0EB16
:100940000109BDF84800BDF81C10A0EB010ABDF874
:100950004C00BDF82010401A0190BDF82000BDF8F1
:100960004C10884202D1BDF8208004E0BDF8200080
:10097000401E1FFA80F8BDF8184027E0029896FB49
:10098000F0F0BDF81410084480B2049097FBF9F021
:10099000BDF81410084480B203905E442F44BDF8A3
:1009A0001000BDF80C10884203DD03A904A802F072
:1009B0007BFC2448008823460090BDF80C2021468B
:1009C000BDF8100001F016FA601C84B24445D5DD74
:1009D000BDF82000201A00FB0AF6BDF81800201A06
:1009E00000FB05F727E0019896FBF0F0BDF81C101E
:1009F000084480B2049097FBF9F0BDF81410084445
:100A000080B2039056442F44BDF81000BDF80C107E
:100A1000884203DD03A904A802F046FC09480088C7
:100A200023460090BDF80C202146BDF8100001F0CF
:100A3000E1F9601C84B2BDF84C008442D3DD00BFF4
:100A400065E70000120000202DE9FC5F074688469C
:100A500091469A46DDF830B000974B200190002671
:100A60006BE006EB06103D4911F810009BF80010F2
:100A700088425FD106EB0610384901EB4000407810
:100A80009BF80110884255D10D9840BB08F10F002A
:100A900083B207F10F0082B24146384601F04EFBA7
:100AA000002419E0002513E006EB06102B4901EBAA
:100AB0004000801C005D80212941084018B1484653
:100AC00001F0CEFC02E0504601F0CAFC681CC5B241
:100AD000082DE9DB601CC4B2202CE3DB2AE00024F3
:100AE00026E000251FE01E48A0F8009006EB061047
:100AF0001A4901EB4000801C005D8021294108401B
:100B000018B14146384601F047F9781C87B2009881
:100B1000381A102805D1009F08F101001FFA80F84B
:100B200003E0681CC5B2082DDDDB00BF601CC4B249
:100B3000202CD6DB00BF701C86B20198864290DB69
:100B400008484088401E83B206480088401E82B292
:100B50000021084601F0F2FABDE8FC9F4041000880
:100B600012000020242800202DE9FC5F074688465B
:100B700091469A46DDF830B0009707200190002694
:100B800073E006EB860000EB4610404911F81000B8
:100B90009BF80010884265D106EB860000EB4610FA
:100BA0003A4901EB400040789BF80110884259D146
:100BB0000D9850BB08F1170083B207F1170082B2FD
:100BC0004146384601F0BAFA00241BE0002515E042
:100BD00006EB860000EB46102C4901EB4000801C20
:100BE000005D80212941084018B1484601F038FCD9
:100BF00002E0504601F034FC681CC5B2082DE7DB6A
:100C0000601CC4B2482CE1DB2CE0002428E0002565
:100C100021E01F48A0F8009006EB860000EB46108C
:100C20001A4901EB4000801C005D802129410840E9
:100C300018B14146384601F0AFF8781C87B20098E9
:100C4000381A182805D1009F08F101001FFA80F812
:100C500003E0681CC5B2082DDBDB00BF601CC4B21A
:100C6000482CD4DB00BF701C86B20198864288DB1A
:100C700008484088401E83B206480088401E82B261
:100C80000021084601F05AFABDE8FC9F364B0008E7
:100C900012000020242800202DE9FC5F074688462A
:100CA00091469A46DDF830B0009704200190002666
:100CB0006BE006EB86103D4911F810009BF8001020
:100CC00088425FD106EB8610384901EB400040783E
:100CD0009BF80110884255D10D9840BB08F11F00C8
:100CE00083B207F11F0082B24146384601F026FA6E
:100CF000002419E0002513E006EB86102B4901EBD8
:100D00004000801C005D80212941084018B1484600
:100D100001F0A6FB02E0504601F0A2FB681CC5B240
:100D2000082DE9DB601CC4B2802CE3DB2AE0002440
:100D300026E000251FE01E48A0F8009006EB861074
:100D40001A4901EB4000801C005D802129410840C8
:100D500018B14146384601F01FF8781C87B2009858
:100D6000381A202805D1009F08F101001FFA80F8E9
:100D700003E0681CC5B2082DDDDB00BF601CC4B2F7
:100D8000802CD6DB00BF701C86B20198864290DBB7
:100D900008484088401E83B206480088401E82B240
:100DA0000021084601F0CAF9BDE8FC9F3C4D00084F
:100DB000120000202428002070B505460E46144677
:100DC0003146284601F0B0F9204601F049FB70BDDC
:100DD0002DE9F04106460F4614461D46DDF8188001
:100DE0007819401E83B23019401E82B2394630460F
:100DF00001F0A4F904FB05F04100404601F056FB68
:100E0000BDE8F0812DE9FF4F83B004460D469046C2
:100E1000DDE9119A109E3046FFF732FA87B20A498F
:100E20000988A1EBC70000EBD071C1F34F0BA9B249
:100E300004EB0B0290B28DE840064246069B01F09F
:100E4000A9FD07B0BDE8F08F242800202DE9F84760
:100E5000024600239C467BE14FF0010808FA03F4A8
:100E6000D1F8008008EA0400A0427DD1DFF8F4A2A6
:100E7000D1F80480A8EB0A09D0453AD014DCB8F1C7
:100E8000030F50D009DCB8F1000F31D0B8F1010FD9
:100E90001CD0B8F1020F49D120E0B8F1110F18D0E1
:100EA000B8F1120F42D11EE0B9F5881F25D006DC3B
:100EB000B9F5803F20D0B9F5801F37D11AE0B9F5D8
:100EC000001F18D0B9F5041F30D117E0D1F80CC0BD
:100ED0002DE0D1F80C8008F1040C28E0D1F80C804A
:100EE00008F1080C23E0D1F80C8008F10C0C1EE08E
:100EF00000BF00BF00BF00BF00BF00BFD1F8088027
:100F0000B8F1000F02D14FF0040C0BE0D1F80880CB
:100F1000B8F1010F03D14FF0080C146102E04FF05B
:100F2000080C546103E04FF0000C00E000BF00BF6C
:100F3000FF2801D8904601E002F104084646FF2848
:100F400002D84FEA830803E0A3F108084FEA8808B3
:100F50004746D6F800804FF00F0909FA07F928EA4A
:100F600009080CFA07F900E07AE048EA0908C6F82F
:100F70000080D1F8048008F08058B8F1805F6FD10C
:100F800000BFDFF8E481D8F8188048F00108DFF8E6
:100F9000D891C9F81880C846D8F8188008F0010818
:100FA000CDF8008000BF00BF4FEAB9384FEA93097F
:100FB00058F829504FEA83784FEA18794FF00F0814
:100FC00008FA09F825EA0805DFF8A081424502D1B0
:100FD0004FF0000824E0DFF89881424502D14FF03D
:100FE00001081DE0DFF88C81424502D14FF0020874
:100FF00016E0DFF88481424502D14FF003080FE08C
:10100000DFF87881424502D14FF0040808E0DFF8AC
:101010007081424502D14FF0050801E04FF006080B
:101020004FEA83794FEA197908FA09F848EA050581
:10103000DFF850814FEA930948F82950D1F804802D
:1010400008F48038B8F5803F0BD1DFF83C81D8F840
:10105000008048EA0008DFF83091C9F800800AE013
:1010600075E0DFF82481D8F8008028EA0008DFF86E
:101070001891C9F80080D1F8048008F40038B8F558
:10108000003F0ED1DFF8008108F10408D8F8008095
:1010900048EA0008DFF8F09009F10409C9F8008077
:1010A0000DE0DFF8E48008F10408D8F8008028EAB1
:1010B0000008DFF8D49009F10409C9F80080D1F8DC
:1010C000048008F48018B8F5801F0ED1DFF8B880CE
:1010D00008F10808D8F8008048EA0008DFF8A8906E
:1010E00009F10809C9F800800DE0DFF89C8008F1DB
:1010F0000808D8F8008028EA0008DFF88C9009F189
:101100000809C9F80080D1F8048008F40018B8F57F
:10111000001F0ED1DFF8708008F10C08D8F80080AD
:1011200048EA0008DFF8609009F10C09C9F800806E
:101130000DE0DFF8548008F10C08D8F8008028EAA8
:101140000008DFF8449009F10C09C9F800805B1C25
:10115000D1F8008028FA03F8B8F1000F7FF47CAED4
:10116000BDE8F8870000111000100240000801409F
:10117000000C014000100140001401400018014023
:10118000001C0140080001400004014001480068C3
:1011900070470000080000200348006803490978F0
:1011A0000844014908607047080000201000002032
:1011B00010B50848006840F0100006490860052096
:1011C00000F070F80F2000F007F800F02BF8002076
:1011D00010BD00000020024070B504460E480078A3
:1011E0004FF47A71B1FBF0F00C490968B1FBF0F5EE
:1011F000284600F034FD08B1012070BD102C07D244
:1012000000222146501E00F00EF80548046001E05F
:101210000120F2E70020F0E710000020000000208D
:101220000C00002070472DE9F05F80460D46164601
:10123000002701F0DBFF074639462A46334601F016
:101240000700C0F1070ABAF1040F02D94FF0040AEF
:1012500001E0C0F1070AD14600F1040ABAF1070F14
:1012600002D24FF0000A01E0A0F1030AD4464FF089
:10127000010A0AFA09FAAAF1010A0AEA020A0AFAB2
:101280000CFA4FF0010B0BFA0CFBABF1010B0BEA64
:10129000030B4AEA0B042146404601F0AFFFBDE8CC
:1012A000F09F000000BF00F00702064B19684FF6E0
:1012B000FF031940044B0B4343EA0221014B196021
:1012C00000BF70470CED00E00000FA0570B5044661
:1012D0000D460CB9012070BD5A48006800F00700A7
:1012E000A8420ED25748006820F00700284355490D
:1012F00008600846006800F00700A84201D00120FD
:10130000E9E7207800F0020002281DD1207800F0E3
:101310000400042805D14C48406840F4E0604A4984
:101320004860207800F00800082805D14648406849
:1013300040F46050444948604348406820F0F00061
:10134000A168084340494860207800F0010078B364
:101350006068012806D13C48006800F4003090B96C
:101360000120B8E76068022806D13748006800F01D
:10137000007040B90120AEE73348006800F0020079
:1013800008B90120A7E73048406820F003006168F1
:1013900008432D494860FFF7F9FE064609E0FFF7CC
:1013A000F5FE801B41F28831884202D9032092E782
:1013B00007E02548406800F00C006168B0EB810F41
:1013C000EDD12048006800F00700A8420ED91D4862
:1013D000006820F0070028431A49086008460068A2
:1013E00000F00700A84201D0012074E7207800F047
:1013F0000400042807D11448406820F4E060E16844
:10140000084311494860207800F00800082808D1F6
:101410000D48406820F46050216940EAC1000A4943
:10142000486000F019F808494968C1F30311074AF8
:10143000515CC8400649086006480068FFF7CCFECA
:10144000002048E70020024000100240C436000897
:10145000000000200C000020F0B585B00FF26C0CED
:101460009CE8E01001A8A0E8E0101CA52D680095FC
:1014700000210022002300240020194D696801F09A
:101480000C05F5B1042D02D0082D19D101E0154845
:1014900019E001ADC1F38346AC5D01F4803555B16F
:1014A0000F4D6D68C5F340451DF805200D4D654392
:1014B000B5FBF2F302E00C4D04FB05F3184602E025
:1014C00000BF084800BF00BF05B0F0BD020304051F
:1014D000060708090A0B0C0D0E0F10100102000080
:1014E0000010024000127A0000093D00F8B50446E1
:1014F0000CB90120F8BD207800F00100002878D058
:10150000F848406800F00C0004280CD0F54840680A
:1015100000F00C00082811D1F248406800F4803037
:10152000B0F5803F0AD1EF48006800F40030002891
:101530005FD0606800285CD10120DBE700BF6068F5
:10154000B0F5803F06D1E748006840F48030E549B7
:10155000086028E0606858B9E248006820F48030EC
:10156000E04908600846006820F4802008601AE01E
:101570006068B0F5A02F0BD1DA48006840F48020F5
:10158000D84908600846006840F4803008600AE0E6
:10159000D448006820F48030D249086008460068CA
:1015A00020F48020086000BF606888B1FFF7EEFD7E
:1015B000054606E0FFF7EAFD401B642801D9032039
:1015C00098E7C848006800F400300028F2D010E026
:1015D000FFF7DCFD054606E0FFF7D8FD401B642859
:1015E00001D9032086E7BF48006800F400300028D6
:1015F000F2D1207800F00200022857D1B9484068A3
:1016000000F00C0050B1B748406800F00C0008280A
:1016100018D1B448406800F4803098B9B1480068E7
:1016200000F0020020B12069012801D0012061E70B
:10163000AC48006820F0F800616940EAC100A9499F
:10164000086033E02069E8B10120A7490860FFF78E
:101650009DFD054606E0FFF799FD401B022801D9D4
:10166000032047E79F48006800F002000028F2D0FE
:101670009C48006820F0F800616940EAC10099497F
:10168000086013E0002098490860FFF77FFD0546D9
:1016900006E0FFF77BFD401B022801D9032029E764
:1016A0009048006800F002000028F2D1207800F095
:1016B000080008282DD1A069B8B101208B49086025
:1016C000FFF764FD054606E0FFF760FD401B0228BA
:1016D00001D903200EE78348406A00F00200002889
:1016E000F2D0012000F0A8FF13E000207F4908603D
:1016F000FFF74CFD054606E0FFF748FD401B0228BA
:1017000001D90320F6E67748406A00F0020000287D
:10171000F2D1207800F00400042873D1002771482A
:10172000C06900F0805070B900BF6E48C06940F0D9
:1017300080506C49C8610846C06900F08050009034
:1017400000BF00BF01276A48006800F48070B0B98C
:101750006748006840F4807065490860FFF716FD2F
:10176000054606E0FFF712FD401B642801D903205F
:10177000C0E65F48006800F480700028F2D000BF27
:10178000E068012806D15748006A40F00100554939
:10179000086227E0E06858B95248006A20F001006A
:1017A000504908620846006A20F00400086219E007
:1017B000E06805280BD14B48006A40F00400494915
:1017C00008620846006A40F0010008620AE04548E5
:1017D000006A20F00100434908620846006A20F0D0
:1017E0000400086200BFE068A0B1FFF7CFFC054627
:1017F00009E0FFF7CBFC401B41F28831884202D957
:10180000032077E622E03748006A00F00200002853
:10181000EFD012E0FFF7BAFC054608E0FFF7B6FC90
:10182000401B41F28831884201D9032062E62D48ED
:10183000006A00F002000028F0D1012F05D12948EC
:10184000C06920F080502749C86100BFE069C8B373
:101850002448406800F00C00082860D0E0690228A5
:1018600048D1002020490866FFF790FC054606E0B5
:10187000FFF78CFC401B022801D903203AE61948E7
:10188000006800F000700028F2D1206AB0F5803FB7
:1018900007D11448406820F40030A168084311497A
:1018A0004860D4E9080108430E49496821F47411DD
:1018B00008430C49486001200B490866FFF766FCA5
:1018C000054607E03DE0FFF761FC401B022801D917
:1018D00003200FE60348006800F000700028F2D0F3
:1018E0002FE000000010024000004242800442420B
:1018F00000700040002014490866FFF747FC0546C9
:1019000006E0FFF743FC401B022801D90320F1E564
:101910000E48006800F000700028F2D111E0E06984
:10192000012800D1E6E50948466806F48031206ABE
:10193000814204D106F47011606A814201D0012015
:10194000D8E50020D6E50000000042420010024029
:1019500010B504460CB9012010BD606A38B9606842
:10196000B0F5827F00D105E00021E16102E00021B5
:1019700021616161A06AB0F5005F00D100BF94F8F9
:10198000510028B9002084F85000204600F04AF8A1
:10199000022084F851002068006820F0400021688F
:1019A0000860A08800F48270218901F40441084392
:1019B000A18901F400610843217C01F00201084380
:1019C000217D01F001010843218B01F400710843DE
:1019D000217F01F0380108432021095D01F08001D9
:1019E0000843218D01F40051084321680860042157
:1019F000A06901EA104021684860A06AB0F5005F64
:101A000003D1A08D80B2216808612068C06920F4EC
:101A100000602168C86100206065012084F85100E1
:101A2000002099E710B586B0044610492068884226
:101A30001AD100BF0E48806940F008000C49886147
:101A40000846806900F00800019000BF00BF4FF415
:101A50006040029002200390012004900320059032
:101A600002A90448FFF7F2F906B010BD00380040A3
:101A700000100240000C01402DE9F84F0446884652
:101A800016461D464FF0000A00BF94F8500001288A
:101A900002D10220BDE8F88F012084F8500000BF79
:101AA000FFF774FB0746B14694F85100012802D0B5
:101AB0004FF0020AC9E0B8F1000F00D016B94FF09C
:101AC000010AC2E0032084F8510000206065C4F8D8
:101AD0003080A686E686A063A087E08760642064E5
:101AE000A068B0F5004F0BD12068006820F04000DE
:101AF000216808602068006840F480402168086020
:101B0000A06AB0F5005F0DD100BF2068006820F426
:101B10000050216808602068006840F40050216887
:101B2000086000BF2068006800F04000402805D031
:101B30002068006840F0400021680860E068B0F567
:101B4000006F2FD1606810B1B9F1010F09D1206B7E
:101B500000882168C860206B801C2063E08E401ED6
:101B6000E0861BE02068806800F0020002280AD1AD
:101B7000206B00882168C860206B801C2063E08E89
:101B8000401EE0860AE0FFF701FBC01BA84201D31C
:101B9000681C00B915B94FF0030A56E0E08E002822
:101BA000E0D12EE0606810B1B9F1010F09D1206BCE
:101BB000007821680873206B401C2063E08E401E73
:101BC000E0861BE02068806800F0020002280AD14D
:101BD000206B007821680873206B401C2063E08E26
:101BE000401EE0860AE0FFF7D1FAC01BA84201D3ED
:101BF000681C00B915B94FF0030A26E0E08E0028F2
:101C0000E0D1A06AB0F5005F05D12068006840F41B
:101C10008050216808603A462946204600F0A0FD21
:101C200008B120206065A06850B900BF0020009076
:101C30002068C068009020688068009000BF00BFE6
:101C4000606D08B14FF0010A00BF012084F8510017
:101C500000BF002084F8500000BF50461AE770B55E
:101C600004462546681EB0F1807F01D301200FE0B5
:101C7000681E4FF0E02148610F214FF0FF3001F066
:101C8000BDFA00204FF0E0218861072008610020A4
:101C900070BD00BFFEE7000001B582B0012002A9BF
:101CA000CDE9001006484088401E83B204480088F1
:101CB000401E82B20021084600F0AEF80EBD0000C2
:101CC00024280020F8B504460D4616461F46054850
:101CD00000883B46324629460090204600F08AF8AC
:101CE000F8BD0000120000202DE9FF4F85B08146AD
:101CF0008A460020049003900798A0EB09050898F5
:101D0000A0EB0A06CDF80890CDF804A0002D01DD67
:101D1000012705E00DB9002702E04FF0FF376D42C3
:101D2000002E02DD4FF0010806E016B94FF0000862
:101D300002E04FF0FF387642B54201DD2C4600E06C
:101D400034464FF0000B21E0019A91B2029A90B212
:101D500000F022F80498284404900398304403903B
:101D60000498A04205DD0498001B049002983844B2
:101D700002900398A04205DD0398001B0390019890
:101D8000404401900BF101001FFA80FB601C834569
:101D9000DADD09B0BDE8F08F70B504460D4629467E
:101DA000204600F0C1F90248008800F059FB70BDE0
:101DB000120000202DE9F04104460D4616461F464C
:101DC0002B46324629462046FFF78EFF3B462246E9
:101DD00029462046FFF788FF3B46324639462046D3
:101DE000FFF782FF3B46324629463046FFF77CFF2D
:101DF000BDE8F0812DE9FC4104460D4616461F461C
:101E0000012008A93B463246CDE90010294620466C
:101E100000F002F8BDE8FC812DE9FF5F0746884627
:101E20009146DDF838A00025AB460024A9EB070158
:101E3000002901DB0A4600E04A42521C039BA3EB47
:101E40000800002801DB034600E043425B1C02FB64
:101E500003F64A4641463846039B00F06FF94FF4BB
:101E600000601F4908604010091F08602EE0B6F5A9
:101E7000A05F02D94FF4A05000E0304685B20F9821
:101E800001280BD1002406E0BAF80000154921F81A
:101E90001400601C84B2AC42F6DB0EE000240AE0C1
:101EA0000BEB8B000AEBC02030F814000D4921F831
:101EB0001400601C84B2AC42F2DB2946094800F0F1
:101EC00055FD761B0BF101001FFA80FB002ECED1D1
:101ED0004FF400600249091F0860BDE8FF9F000041
:101EE000140C01402400002000B585B000BF1D483F
:101EF000806940F008001B4988610846806900F04D
:101F00000800009000BF00BF032004900120029051
:101F100003904002019001A91348FEF797FF4FF488
:101F20000060019001A91048FEF790FF4FF4806017
:101F3000019001A90C48FEF789FF4FF480500190F1
:101F400001A90948FEF782FF4FF4007006491031DD
:101F5000086080000860401008608000086005B0DC
:101F600000BD000000100240000C014010B500F060
:101F7000BDFBFFF7B9FF00F0C3F8362000F05CFAB4
:101F8000002000F045FA3A2000F056FA052000F053
:101F90003FFAB22000F050FA0C2000F039FA0C2081
:101FA00000F036FA002000F033FA332000F030FA67
:101FB000332000F02DFAB72000F03EFA352000F073
:101FC00027FABB2000F038FA172000F021FAC020D1
:101FD00000F032FA2C2000F01BFAC22000F02CFA9C
:101FE000012000F015FAC32000F026FA122000F0BC
:101FF0000FFAC42000F020FA202000F009FAC620D1
:1020000000F01AFA0F2000F003FAD02000F014FAC2
:10201000A42000F0FDF9A12000F0FAF9E02000F082
:102020000BFAD02000F0F4F9042000F0F1F90D20B3
:1020300000F0EEF9112000F0EBF9132000F0E8F9C0
:102040002B2000F0E5F93F2000F0E2F9542000F0E9
:10205000DFF94C2000F0DCF9182000F0D9F90D2050
:1020600000F0D6F90B2000F0D3F91F2000F0D0F9D2
:10207000232000F0CDF9E12000F0DEF9D02000F0BF
:10208000C7F9042000F0C4F90C2000F0C1F91120B8
:1020900000F0BEF9132000F0BBF92C2000F0B8F9D5
:1020A0003F2000F0B5F9442000F0B2F9512000F0D3
:1020B000AFF92F2000F0ACF91F2000F0A9F91F2084
:1020C00000F0A6F9202000F0A3F9232000F0A0F9E9
:1020D000212000F0B1F9112000F0AEF9292000F024
:1020E000ABF9002000F0F8F94FF4007003490860E4
:1020F0004FF6FF70FFF7D0FD10BD0000100C01403F
:1021000010B54FF4805007490860142001F0D8F84A
:102110004FF480500349091F0860142001F0D0F8E3
:1021200010BD0000140C014070B504460D462B464E
:1021300022462946204600F001F870BD2DE9F04105
:1021400004460D4616461F461F49887A00F074F96A
:102150001D49897B2144C1F3072000F059F91A4930
:10216000897B2144C8B200F053F91749897B314477
:10217000C1F3072000F04CF91349897B3144C8B200
:1021800000F046F91049087B00F056F90E49C97B6A
:102190002944C1F3072000F03BF90B49C97B2944CE
:1021A000C8B200F035F90849C97B3944C1F30720AA
:1021B00000F02EF90449C97B3944C8B200F028F96F
:1021C00000F062F9BDE8F081242800202DE9FF4FDE
:1021D00083B081468A469346DDE910644148008811
:1021E0000290A6F12000C6B21298002839D104EB63
:1021F000D47009EB6000401E82B20AEB0400401E5E
:1022000083B2514648460194FFF798FF002525E028
:102210000C2C07D106EB4600334901EB800010F887
:10222000058004E0314800EB061010F80580002717
:102230000DE008F0010018B1584600F011F902E075
:10224000069800F00DF94FEA6808781CC7B204EB55
:10225000D471B7EB610FECDB681CC5B2A542D7DBCC
:102260002DE0002529E00C2C07D106EB46001E4985
:1022700001EB800010F8058004E01C4800EB06101C
:1022800010F80580002711E01648A0F800B008F00B
:10229000010038B10AEB050291B209EB070290B2D6
:1022A000FFF77AFD4FEA6808781CC7B204EBD471D7
:1022B000B7EB610FE8DB681CC5B2A542D3DB094967
:1022C000029808800A484088401E83B20848008867
:1022D000401E82B200210846FFF730FF07B0BDE87C
:1022E000F08F000012000020DC360008503B000890
:1022F000242800202DE9FF4F83B0074691461E4653
:10230000109C4FF0000A002543E0701B401EC1B234
:102310000A2001F099F9B9FBF0F00A21B0FBF1F2C3
:1023200001FB1208BAF1000F1BD1701EA84218DD84
:10233000B8F1000F13D100202021A346CDE90014ED
:10234000029004EBDB71491001FB057188B213495F
:102350000B8813490A880499FFF738FF17E04FF0FC
:10236000010A002108F13000C0B2A346CDE90141C5
:10237000009004EBDB71491001FB057188B207493D
:102380000B8807490A880499FFF720FF00BF681CE3
:10239000C5B2B542B9DB07B0BDE8F08F140000202C
:1023A000120000202DE9FE4306460F4615461C4646
:1023B000DDF828801DE013480088401EB04204DB91
:1023C00010484088401EB84201DABDE8FE832078FC
:1023D0008DE821010C4803880C48028839463046B4
:1023E000FFF7F4FE284605EBD07106EB61018EB2D3
:1023F000641C20787E2802DC20782028DBDA00BFED
:10240000E3E7000024280020140000201200002030
:1024100010B504464FF40060064908604010091FDB
:102420000860204600F058FA4FF400600149091F87
:10243000086010BD140C014010B504464FF4006054
:102440000649086040100860204600F045FA4FF445
:1024500000600249091F086010BD0000140C014013
:1024600010B504464FF40060064908604010091F8B
:102470000860204600F04CFA4FF400600149091F43
:10248000086010BD140C014010B50249087AFFF72E
:10249000D3FF10BD2428002070B505460C46284601
:1024A000FFF7CAFFE0B2FFF7B3FF70BD70B5044697
:1024B0000D464FF40060074908604010091F08608E
:1024C0002946204600F044FA4FF400600149091FF4
:1024D000086070BD140C014010B504462A2029493B
:1024E00048812B2088812C2008812046E11704EBAD
:1024F00091718910A4EB8101224A91711046807973
:1025000030B1012811D002281CD0032836D127E091
:10251000F0201C490880C620488000208873C873BA
:1025200000213620FFF7B8FF29E0C62015490880B2
:10253000F020488000208873C87360213620FFF7A0
:10254000ABFF1CE0F0200F490880C6204880002027
:1025500088737A20C873C0213620FFF79DFF0EE0F4
:10256000C62008490880F02048807A20887300201F
:10257000C873A0213620FFF78FFF00E000BF00BF27
:1025800010BD00002428002000BFFEE77047704700
:102590000EB523A0FDF796FF254828231A465A2199
:1025A00000903220FEF714FC0120102121A24FF6EA
:1025B000E073CDE9002102901F2287213E2000F028
:1025C000E9F91B4828231A465A2100906420FEF797
:1025D000FFFB0120102117A24FF6E073CDE9002187
:1025E00002901F228721702000F0D4F91048282380
:1025F0001A465A2100909620FEF7EAFB012010218E
:102600000CA24FF6E073CDE9002102901F22872132
:10261000A22000F0BFF94FF4966000F051FE0EBD0D
:10262000CDBCC6ACCFD4CABEB2E2CAD40000000052
:10263000444F00085151000008B508490968C9080D
:102640004FF47A72B1FBF2F14143009100BF00BF39
:1026500000994A1E00920029F9D108BD000000200F
:1026600010B588B000241B4B0FCBCDE90623CDE974
:10267000040100BF26E02046FFF72EFF16A0FDF75D
:1026800021FF0121102204A850F824004FF6E07326
:10269000CDE9012100901F222321282000F07AF9A2
:1026A000114828231A46372100901846FEF790FB60
:1026B0004FF47A7000F004FE4FF47A7000F000FEE0
:1026C000601CC4B2042CD6DB0020FFF705FF08B065
:1026D00010BD0000C45B0008C6C1C4BBD0FDD7AAB2
:1026E000B2E2CAD400000000444F000808B500BFA1
:1026F0001848C06940F480401649C8610846C0695E
:1027000000F48040009000BF00BF134813490860E8
:102710004FF482704860002110488160C16002213E
:10272000016101214161490281610021C1610162B0
:10273000416281620721C162FFF70AF90748006818
:10274000006840F04000054909680860FF2000F07B
:10275000C3F808BD001002400038004034280020B3
:10276000F8B504460D4616462B4600228021204629
:10277000009600F045F828B1606D40F020006065DB
:102780000320F8BD0020FCE74FF400610C48C16055
:102790000068006820F0400009490968086008489E
:1027A0000068006840F40060054909680860044852
:1027B0000068006840F040000149096808607047FF
:1027C0003428002000210D48C1600068006820F016
:1027D00040000A490968086008480068006820F459
:1027E000006006490968086004480068006840F015
:1027F0004000024909680860704700003428002042
:102800002DE9F84F04460D4690461E46DDF8289007
:10281000FEF7BCFCA0EB0900371AFEF7B7FC8246B6
:102820002C480068C0F3CB307843009045E0701C22
:10283000002842D0FEF7AAFCA0EB0A00B84200D262
:10284000A7BB2068406820F0E0002168486060680D
:10285000B0F5827F0DD1A068B0F5004F03D0A0681D
:10286000B0F5806F05D12068006820F04000216835
:102870000860A06AB0F5005F0DD100BF2068006855
:1028800020F40050216808602068006840F400507F
:102890002168086000BF012084F8510000BF0020BB
:1028A00084F8500000BF0320BDE8F88FFFE70098D0
:1028B00000B900270098401E0090206880682840DA
:1028C000A84201D1012000E000204045AFD1002006
:1028D000EAE7000000000020014600BF0B48006846
:1028E000806800F002000028F8D008480068C16045
:1028F00000BF06480068806800F001000028F8D09A
:1029000002480068C068C0B2704700003428002048
:1029100000B50246FFF738FF00BF0C48006880682A
:1029200000F002000028F8D008480068C26000BF2C
:1029300006480068806800F001000028F8D0FFF722
:1029400041FF02480068C06880B200BD3428002002
:1029500070B504460D46AAB24FF47A732146024878
:10296000FFF78AF870BD00003428002070B50446D7
:102970000D46FFF709FFAAB24FF47A7321460348C8
:10298000FFF77AF8FFF71EFF70BD00003428002023
:10299000704700002DE9FF4F83B0064688469146F8
:1029A000DDE91147109DB2464FF0000B71E0BBF11D
:1029B000000F40D104EBD471384A1288A2EB6101B8
:1029C000B14204DB35494988091B414502DA07B0A9
:1029D000BDE8F08F2878802802DD4FF0010B58E029
:1029E00028780D2806D108EB04001FFA80F8564617
:1029F0006D1C1EE0102C0DDD102128788DE8830061
:102A00004A4641463046069BFFF7E0FB06F10800C8
:102A100086B20EE028788DE891004A46414630465D
:102A2000069BFFF7D3FB204604EBD07106EB610158
:102A30008EB26D1C2DE019480088001BB04204DBEB
:102A400016484088001B404500DAC0E74FF0000BF5
:102A5000202C08D1CDE900574A4641463046069B16
:102A6000FEF71AF912E0182C08D1CDE900574A46B2
:102A700041463046069BFEF777F807E0CDE9005760
:102A80004A4641463046069BFDF7DEFFAD1C301935
:102A900086B2287800288AD100BF98E72428002031
:102AA00010B5FEF779FB10BD70470000F8B50024A3
:102AB00036A0FDF707FD4FF6FF70009037484088BD
:102AC000203883B235480088401E82B21E21002083
:102AD000FFF790F900BF1DE00020304B00905D88AB
:102AE00005EBD5735B10193B04EB840707EBC407B8
:102AF000D9192A4B1E8806EBD6735B10283BC4EB12
:102B00000417D819264B33F814200F2300F006FCC5
:102B1000601CC4B2052CDFDB40F2DC5000F0D0FBBF
:102B20004FF6FF7000901D484088203883B21B4844
:102B30000088401E82B21E210020FFF75BF90024AE
:102B40001DE00120154B00905D8805EBD5735B10EF
:102B5000193B04EB840707EBC407D9190F4B1E88F8
:102B600006EBD6735B10283BC4EB0417D8190C4B4B
:102B700033F814200F2300F0D1FB601CC4B2052CE5
:102B8000DFDB40F2DC5000F09BFBF8BD475549BB52
:102B9000ADD4B2CCEEB3E4B2E2CAD4002428002013
:102BA000180000200EB54FF6FF7000905F48408877
:102BB000401E83B25D480088401E82B20021084654
:102BC000FFF718F90120102159A24FF6E073CDE963
:102BD0000021029000221E212820FFF7DBFE4FF487
:102BE0007A7000F06DFB0020009050484088401E35
:102BF00083B24E480088401E82B200210846FFF78B
:102C0000F9F8012010214CA24FF6E073CDE9002124
:102C100002904FF6FF721E212820FFF7BBFE4FF4F3
:102C20007A7000F04DFB4FF4784000903F484088A8
:102C3000401E83B23D480088401E82B200210846F3
:102C4000FFF7D8F8012010213DA24FF6E073CDE93F
:102C5000002102901F221E212820FFF79BFE4FF427
:102C6000487000F02DFB4FF4FC6000902F48408826
:102C7000401E83B22D480088401E82B200210846C3
:102C8000FFF7B8F8012010212EA24FF6E073CDE92E
:102C9000002102901F221E212820FFF77BFE4FF407
:102CA000487000F00DFB1F20009020484088401E17
:102CB00083B21E480088401E82B200210846FFF7FA
:102CC00099F80120102121A24FF6E073CDE90021EF
:102CD00002904FF478421E212820FFF75BFE4FF44C
:102CE000487000F0EDFA48F2304000900F484088FC
:102CF000401E83B20D480088401E82B20021084663
:102D0000FFF778F80120102112A24FF6E073CDE909
:102D1000002102904FF478421E212820FFF73AFE4E
:102D20004FF47A7000F0CCFA0EBD00002428002089
:102D30005748495445000000424C41434B000000B5
:102D400052454400475245454E000000424C55450F
:102D500000000000475241590000000038B523A090
:102D6000FDF7B0FB1F20254908802548FDF76AFACA
:102D7000012024A31022642100902820FFF712FBD9
:102D8000012025A31022782100902820FFF70AFBBC
:102D90004FF4784019490880002424E0FDF718FA20
:102DA00042F2107190FBF1F201FB12051020052395
:102DB0002A46642100905A20FFF79CFAFDF708FA92
:102DC000322190FBF1F201FB1205102005232A4667
:102DD000782100905A20FFF78DFA4FF4FA7000F036
:102DE0006FFA601CC4B20F2CD8DB38BDB6AFCCACC8
:102DF000CAFDD7D6CFD4CABE000000001200002002
:102E000040E20100504D322E353A20202020202073
:102E100075672F6D3300000020205445503A202064
:102E200020202020430000002DE9F843002464A066
:102E3000FDF748FB4FF6FF7000906548408820384A
:102E400083B263480088401E82B21E210020FEF734
:102E5000D1FF00BF4AE05F4830F814005E490880A7
:102E6000DFF86CC1BCF8025005EBD57C4FEA6C0C66
:102E7000ACF1280C04EB840909EBC409CC440CF137
:102E80001E0C1FFA8CF3DFF848C1BCF8006006EB9B
:102E9000D67C4FEA6C0CACF1280C0CEB041C0CF14A
:102EA0001E0C1FFA8CF2DFF828C1BCF8027007EB89
:102EB000D77C4FEA6C0CACF1280C04EB840909EBCD
:102EC000C409CC441FFA8CF1DFF804C1BCF80080BF
:102ED00008EBD87C4FEA6C0CACF1280C0CEB041C12
:102EE0001FFA8CF0FEF766FF601CC4B2052CB2DB43
:102EF00040F2DC5000F0E4F94FF6FF7000903448E7
:102F00004088203883B232480088401E82B21E2199
:102F10000020FEF76FFF00244AE02E4830F814002E
:102F20002D490880DFF8A8C0BCF8025005EBD57C1D
:102F30004FEA6C0CACF1280C04EB840909EBC409D2
:102F4000CC440CF11E0C1FFA8CF3DFF884C0BCF8E3
:102F5000007007EBD77C4FEA6C0CACF1280C0CEB43
:102F6000041C0CF11E0C1FFA8CF2DFF864C0BCF8D4
:102F7000028008EBD87C4FEA6C0CACF1280C04EB17
:102F8000840909EBC409CC441FFA8CF1DFF840C076
:102F9000BCF8006006EBD67C4FEA6C0CACF1280C58
:102FA0000CEB041C1FFA8CF0FEF78CFE601CC4B204
:102FB000052CB2DB40F2DC5000F082F9BDE8F8836A
:102FC000475549BED8D0CECCEEB3E4B2E2CAD40065
:102FD0002428002018000020120000202DE9FC5FAA
:102FE00000247AA0FDF76EFA4FF6FF7000907B4840
:102FF0004088203883B279480088401E82B21E2162
:103000000020FEF7F7FE00BF60E0754830F81400BE
:10301000744908807148458805EBD57040100C381C
:1030200004EB440101EBC401084481B26B480688FB
:1030300006EBD67040100B38C4EB0412104480B27B
:10304000DFF898C1CDE90001BCF8027007EBD77C2E
:103050004FEA6C0CACF1270C04EB440B0BEBC40BEC
:10306000DC441FFA8CF3DFF874C1BCF8008008EB75
:10307000D87C4FEA6C0CACF11A0CC4EB041BDC449A
:103080001FFA8CF2DFF854C1BCF8029009EBD97C2E
:103090004FEA6C0CACF10C0C04EB440B0BEBC40BC7
:1030A000DC441FFA8CF1DFF834C1BCF800A00AEB55
:1030B000DA7C4FEA6C0CACF1280CC4EB041BDC444A
:1030C0001FFA8CF0FDF7FEFA601CC4B2052C9CDBE5
:1030D00040F2DC5000F0F4F84FF6FF7000903F48EB
:1030E0004088203883B23D480088401E82B21E21AD
:1030F0000020FEF77FFE002460E0394830F814001D
:10310000384908803548458805EBD57040100C38A3
:1031100004EB440101EBC401084481B22F48068846
:1031200006EBD67040100B38C4EB0412104480B28A
:10313000DFF8A8C0CDE90001BCF8027007EBD77C2E
:103140004FEA6C0CACF1270C04EB440B0BEBC40BFB
:10315000DC441FFA8CF3DFF884C0BCF8008008EB75
:10316000D87C4FEA6C0CACF11A0CC4EB041BDC44A9
:103170001FFA8CF2DFF864C0BCF8029009EBD97C2E
:103180004FEA6C0CACF10C0C04EB440B0BEBC40BD6
:10319000DC441FFA8CF1DFF844C0BCF800A00AEB55
:1031A000DA7C4FEA6C0CACF1280CC4EB041BDC4459
:1031B0001FFA8CF0FDF740FB601CC4B2052C9CDBB1
:1031C00040F2DC5000F07CF8BDE8FC9F47554920F8
:1031D000547269CCEEB3E4B2E2CAD40024280020D1
:1031E000180000201200002000BFFEE7024800681F
:1031F000C0F30220704700000CED00E010B500287D
:1032000004DB0A07130E054A135406E00A07140EDE
:10321000034A00F00F031B1FD45410BD00E400E06C
:1032200018ED00E02DE9F04104460D4616461F4614
:10323000DDF81880EA1991B2A21990B24246FDF762
:10324000BBFDEA1991B2A21B90B24246FDF7B4FD54
:10325000EA1B91B2A21990B24246FDF7ADFDEA1BFE
:1032600091B2A21B90B24246FDF7A6FDAA1991B2F7
:10327000E21990B24246FDF79FFDAA1991B2E21BF6
:1032800090B24246FDF798FDAA1B91B2E21990B2A6
:103290004246FDF791FDAA1B91B2E21B90B2424655
:1032A000FDF78AFDBDE8F08102880B8803800A8063
:1032B00070470000014908607047000004000020CA
:1032C00010B504464FF47A7104FB01F000F002F8E7
:1032D00010BD000070B5034600224FF0E02675696E
:1032E0000D4E366803FB06F44FF0E026B16910E09E
:1032F0004FF0E026B06988420BD0884202D20E1A05
:10330000324402E02E1A0E4432440146A24200D357
:1033100000E0EDE700BF70BD040000202DE9FF4F85
:1033200081B0824617469846DDF838B000244546FD
:103330004FEA4800C0F10306BBF1000F1FD01BE0AD
:10334000A14608E04B462246009750460299FFF7F7
:1033500069FF09F10109A945F4DD002E04DA042012
:1033600000FB0460861D06E0601B042101FB006079
:1033700000F10A066D1E641CAC42E1DD18E015E0A8
:103380002B462246009750460299FFF74BFF002E2E
:1033900004DA042000FB0460861D06E0601B0421A3
:1033A00001FB006000F10A066D1E641CAC42E7DD03
:1033B00005B0BDE8F08FFDF7FBFE4FF4E01000F024
:1033C0004EF94820FFF776FFFEF7D0FD15E000F03C
:1033D00015F800F07FF8FFF7E5FBFFF725FDFFF795
:1033E00065FBFFF7FBFDFDF789F9FCF7CFFFFFF762
:1033F000CFF8FFF7B3FCFFF733F9E8E70EB525A0E8
:10340000FDF760F80120102126A21F23CDE900213D
:103410000290DA024E210020FDF7F4FC0120102179
:103420001CA21F23CDE900210290DA025F210020B7
:10343000FDF7E8FC012010211DA21F23CDE900218A
:1034400002904FF4FC6270210020FDF7DBFC0120AC
:1034500010211BA21F23CDE9002102904FF4FC6232
:1034600081210020FDF7CEFC0120102116A21F2390
:10347000CDE9002102901A4692210020FDF7C2FCFE
:1034800040F2DC50FFF71CFF40F2DC50FFF718FF62
:103490000EBD0000D7DBBACFB2E2CAD4B3CCD0F2B3
:1034A00000000000C8ABB6AFB5E7D7D300000000FE
:1034B000302E3936222053543737393648320000FF
:1034C0003234305831393800323032332D30392DE2
:1034D000303900003EB54EF67D70FEF7DDFB494900
:1034E0000988A1F1620404EBD471491062318AB2F7
:1034F00044490988A1F1620505EBD571C1F34F007C
:1035000055234121FCF796FF012010213EA21F23E5
:10351000CDE9002102904FF61F0243210020FDF764
:1035200071FC38490988A1F1620404EBD471491097
:1035300062318AB233490988A1F1620505EBD57180
:10354000C1F34F0073235F21FCF774FF01201021AA
:1035500031A24EF67D73CDE9002102900022612157
:103560001046FDF74FFC27490988A1F1620404EBDE
:10357000D471491062318AB222490988A1F16205E9
:1035800005EBD571C1F34F0091237D21FCF752FF6C
:103590000120102124A24EF67D73CDE90021029076
:1035A0001F227F210020FDF72DFC16490988A1F17B
:1035B000620404EBD471491062318AB2114909885E
:1035C000A1F1620505EBD571C1F34F00AF239B213B
:1035D000FCF730FF0120102117A24EF67D73CDE9D4
:1035E000002102904FF478429D210020FDF70AFC53
:1035F00040F2DC50FFF764FE4FF4FA70FFF760FE14
:103600003EBD000024280020CDBCD0CECFD4CABE01
:10361000B2E2CAD400000000B4BFC9ABCCEEB3E440
:10362000B2E2CAD400000000D6D0CEC4CFD4CABE05
:10363000B2E2CAD400000000CDBCC6ACCFD4CABE32
:10364000B2E2CAD40000000010B50246012000E03A
:1036500050430B1EA1F10104E1B2F9D110BD30B508
:103660008FB005460124282105A8FCF728FE142167
:103670006846FCF724FE0120059000040690002017
:10368000079002200C90C1030D910E9505A8FDF73F
:103690002DFF04460CB100BFFEE70F200090022072
:1036A0000190002002904FF480600390002004906D
:1036B00002216846FDF70AFE04460CB100BFFEE792
:1036C0000FB030BD00000000000000000102030444
:1036D00006070809000000000102030400000000C2
:1036E00000000000000000000000040404040404C2
:1036F0000004000000140A0A00000000000000009E
:10370000000014143F140A3F0A0A000000041E15AA
:1037100005060C14150F0400000012150D0A142CD8
:103720002A1200000000040A0A1E151509360000BE
:10373000000202010000000000000000002010084C
:1037400008080808081020000002040808080808F3
:103750000804020000000004150E0E15040000000D
:1037600000000404041F0404040000000000000022
:10377000000000000002020100000000001F000025
:103780000000000000000000000000000002000037
:1037900000100808080404020202010000000E11D3
:1037A00011111111110E000000000406040404049C
:1037B000040E000000000E1111080402011F000099
:1037C00000000E11100C1010110E00000000080C6B
:1037D0000A0A091E0818000000001F01010F10103E
:1037E000110E000000000E09010F1111110E000052
:1037F00000001F09080404040404000000000E1166
:10380000110E1111110E000000000E1111111E10E9
:10381000120E000000000000040000000004000080
:103820000000000000040000000404000020100854
:103830000402040810200000000000001F00001F08
:10384000000000000002040810201008040200001C
:1038500000000E11110804040004000000000E1105
:103860001915151D011E0000000004040C0A0A1E93
:103870001233000000000F12120E1212120F00007D
:1038800000001E1101010101110E000000000F12C5
:1038900012121212120F000000001F120A0E0A026A
:1038A000121F000000001F120A0E0A020207000089
:1038B00000001C1201013911120C0000000033122B
:1038C000121E12121233000000001F04040404042C
:1038D000041F000000003E08080808080809070047
:1038E000000037120A060A0A123700000000070219
:1038F00002020202223F000000001B1B1B1B1515C9
:103900001515000000003B1216161A1A12170000B7
:1039100000000E1111111111110E000000000F1204
:10392000120E02020207000000000E111111111701
:10393000190E180000000F12120E0A1212370000A2
:1039400000001E1101060810110F000000001F15D5
:1039500004040404040E00000000331212121212B8
:10396000120C000000003312120A0A0C04040000BA
:1039700000001515150E0A0A0A0A000000001B0AAD
:103980000A04040A0A1B000000001B0A0A040404BB
:10399000040E000000001F0908040402121F0000AA
:1039A000001C04040404040404041C0000020202B9
:1039B0000404080808100000000E08080808080899
:1039C00008080E0000040A000000000000000000CB
:1039D00000000000000000000000003F00040000A4
:1039E000000000000000000000000000000C121C9D
:1039F000123C000000000302020E1212120E000020
:103A000000000000001C1202021C00000000181040
:103A1000101C1212123C000000000000000C121ECC
:103A2000021C000000003804041E0404041E0000F0
:103A300000000000003C120C021E221C00000302C9
:103A4000020E1212123700000000040000060404E7
:103A5000040E000000000800000C08080808080711
:103A600000000302023A0A0E1237000000000704A9
:103A700004040404041F000000000000000F1515DA
:103A80001515000000000000000F12121237000090
:103A900000000000000C1212120C000000000000D8
:103AA000000F1212120E020700000000001C12127A
:103AB000121C103800000000001B06020207000064
:103AC00000000000001E020C101E00000000000498
:103AD000040E04040418000000000000001B121271
:103AE000123C0000000000000037120A0C04000025
:103AF000000000000015150E0A0A0000000000007A
:103B0000001B0A040A1B0000000000000037120A14
:103B10000C04040300000000001E0804041E000042
:103B20000018080808040808080818000808080809
:103B30000808080808080808000604040408040423
:103B40000404060002251800000000000000000028
:103B50000000000000000000000000000000000065
:103B600000000008080808080808000018180000ED
:103B700000486C241200000000000000000000005B
:103B80000000002424247F1212127F12121200005F
:103B90000000081C2A2A0A0C1828282A2A1C0808AF
:103BA00000000022251515152A58545454220000EF
:103BB0000000000C1212120A76252911916E0000E5
:103BC00000060604030000000000000000000000E2
:103BD00000402010100808080808081010204000B5
:103BE0000002040808101010101010080804020049
:103BF0000000000008086B1C1C6B08080000000097
:103C000000000000080808087F08080808000000F5
:103C10000000000000000000000000000606040391
:103C20000000000000000000FE0000000000000096
:103C30000000000000000000000000000606000078
:103C400000008040402020101008080404020200F8
:103C5000000000182442424242424242241800001E
:103C6000000000080E08080808080808083E0000C0
:103C70000000003C4242422020100804427E000026
:103C80000000003C4242201820404042221C00001C
:103C9000000000203028242422227E2020780000EA
:103CA0000000007E0202021A26404042221C000050
:103CB000000000382402021A264242422418000062
:103CC0000000007E222210100808080808080000E2
:103CD0000000003C4242422418244242423C000080
:103CE000000000182442424264584040241C000056
:103CF0000000000000001818000000001818000064
:103D00000000000000000008000000000008080497
:103D100000000040201008040204081020400000A9
:103D20000000000000007F0000007F000000000095
:103D300000000002040810204020100804020000C7
:103D40000000003C424246402010100018180000BD
:103D50000000001C225A555555552D42221C0000CA
:103D60000000000808181414243C224242E7000016
:103D70000000001F2222221E22424242221F000077
:103D80000000007C4242010101010142221C0000AE
:103D90000000001F2242424242424242221F0000D3
:103DA0000000003F4212121E12120242423F000067
:103DB0000000003F4212121E12120202020700000F
:103DC0000000003C2222010101712122221C00007E
:103DD000000000E7424242427E42424242E7000087
:103DE0000000003E0808080808080808083E00000F
:103DF0000000007C10101010101010101010110F87
:103E00000000007722120A0E0A1212222277000006
:103E1000000000070202020202020202427F0000CA
:103E200000000077363636362A2A2A2A2A6B000006
:103E3000000000E346464A4A52525262624700007E
:103E40000000001C2241414141414141221C00002F
:103E50000000003F424242423E02020202070000CE
:103E60000000001C2241414141414D53321C600081
:103E70000000003F4242423E1212222242C700008E
:103E80000000007C4242020418204042423E0000F2
:103E90000000007F4908080808080808081C0000FE
:103EA000000000E74242424242424242423C00009D
:103EB000000000E7424222242414141808080000DD
:103EC0000000006B4949494955553622222200001D
:103ED000000000E7422424181818242442E70000B8
:103EE000000000772222141408080808081C0000AB
:103EF0000000007E2120101008040442423F000010
:103F00000078080808080808080808080808780061
:103F1000000002020404080808101020202040407D
:103F2000001E1010101010101010101010101E0095
:103F30000038440000000000000000000000000005
:103F4000000000000000000000000000000000FF72
:103F50000006080000000000000000000000000053
:103F6000000000000000003C4278444242FC000097
:103F7000000000030202021A26424242261A0000F2
:103F80000000000000000038440202024438000033
:103F900000000060404040784442424264D8000043
:103FA000000000000000003C427E0202423C000093
:103FB000000000F08808087E08080808083E000095
:103FC000000000000000007C22221C023C42423C17
:103FD000000000030202023A4642424242E7000069
:103FE0000000000C0C00000E08080808083E000045
:103FF0000000003030000038202020202020221E29
:104000000000000302020272120A16122277000058
:104010000000000E0808080808080808083E00000C
:10402000000000000000007F9292929292B7000080
:10403000000000000000003B4642424242E7000010
:10404000000000000000003C42424242423C0000AE
:10405000000000000000001B26424242221E020710
:10406000000000000000007844424242447840E0F2
:1040700000000000000000774C040404041F00004E
:10408000000000000000007C42023C40423E000074
:10409000000000000008083E08080808083000007A
:1040A00000000000000000634242424262DC000067
:1040B00000000000000000E742242414080800006B
:1040C00000000000000000EB494955552222000085
:1040D000000000000000007624181818246E00006C
:1040E00000000000000000E742242414180808071C
:1040F000000000000000007E22100808447E00003E
:1041000000C0202020202010202020202020C000BF
:10411000101010101010101010101010101010109F
:10412000000608080808081008080808080806001B
:104130000C32C2000000000000000000000000007F
:10414000C9EE000027FC140414A48110420840406A
:10415000104017FC2040E0E0215022482C4620402F
:104160000040DBDA11041124112411241124FD2450
:10417000112411241124112411241D24E12442248A
:1041800002040404CAD00200010000007FFC010008
:10419000010001003FF821082108210821082128F9
:1041A000211001000100C8AB0000000001800240A6
:1041B0000430180860061FF90100010001003FF8F3
:1041C0000100010001007FFEB6AF000000000020EA
:1041D0003E20007C002200227F2210221022122288
:1041E0001222224223423D82009CB5E700000100DA
:1041F00001001FF0610C410441047FFC41044104B3
:1042000041047FFC01000102010201FCD7D3000040
:1042100000003FF8001000600080010000807FFE79
:104220000040004000200020002018400780BCBC57
:1042300010201020102013FEFC201020102015FC50
:1042400018843088D048105010201050518826060D
:10425000CAF501000120011001107FFC0380054018
:1042600005400920111021084104810201000100CC
:104270000100D3D002000200FFFE040004000FF092
:10428000081018102FF0481088100FF008100810B0
:1042900008500820CFDE00007BF84A08520853F887
:1042A000620852084BF84A444A486A305220421089
:1042B000428843064200B9AB008004800480084075
:1042C0000840102020104208820604000440082004
:1042D00010203FF010100000CBBE00003FF8000897
:1042E00000087FE8000800081F88108810881088E0
:1042F00010881F88108800280010BBB6008000803E
:10430000FC8004FC050449082A401440104028A001
:1043100024A045108110020804040802D3AD000057
:104320002080133C122402240224F224122412249A
:1043300012B4132812201020282047FE0000C4FACF
:104340000900090011FC32045448995011481244E4
:1043500014441140108002005104511290120FF0C9
:10436000B4BF00000020102013FE202026244A2481
:104370007A241224222423FC7C2000220422782286
:10438000003CC9AB0000000004000FF0102020200A
:104390007FFC20842084208420843FF82000200299
:1043A00020021FFECCEE00000000204023FE204033
:1043B00079FC220423FC220423FC220423FC3A047B
:1043C00065FA01980204B3E40000010001007FFED9
:1043D00002200410040808043FFC04420440044086
:1043E000044208421042607EBED800000000207ED9
:1043F0003E804880488048FE48827F8208820C8246
:1044000014FA12842280218040FED0CE00000000E9
:104410007F842208223022C0220222047FC8223058
:1044200022C222022204220822304040BBAD0000FA
:1044300000007FFE00000FF011101110111051123A
:104440005FF25112511251124FF240027FFCD4B26E
:10445000000000007FFE47E24812481247E24FF298
:10446000501250125112511242924472580A3FFC9B
:10447000CDBC000000003FFE440247F24C225362D4
:10448000408243625E1A41824062430240C240223F
:104490003FFCC6AC000000402040204020403FFED2
:1044A0002000200020003FE02010201020102010CD
:1044B00040104010CFD4000000003FFC2004200436
:1044C0003FFC200420041FF82444144814481448D6
:1044D0000C5004407FFECABE000000003FFC0000FC
:1044E000000000007FFE008008900888108810847B
:1044F0002084208240820780B2CB00000020082068
:104500007FFE002000783F881108089009207FFE78
:10451000018003400D30310C4002B5A500000010B1
:10452000081004203FF8210421043FFC2104210449
:104530003FF801007FFE010001000100D6D000001D
:104540000100010001003FFC210421042104210499
:10455000210421043FFC0100010001000100D3A25D
:104560000000000008207FFE0820092001003FF81D
:104570002108210821081FF4014002200C10700EB0
:10458000CEC400000100010000803F7C081008102C
:1045900004100420022002400180018002601C18E7
:1045A000E006D7DB00000000102011FE22022202EC
:1045B00049FC5800300013FE2528792401240D24DD
:1045C000722202A2BACF0000000001800240043033
:1045D000180860061FF800001FF8200420042004BB
:1045E000200420041FF8C1C10000010001007FFE6B
:1045F00000003FF820083FF83FF8400647C2482433
:10460000082008221022603EB6C80000000000808A
:104610003FFE44105FFC4410441043F040005FF83C
:104620004408423041C04360BC1EB2E200000000BA
:1046300067C2145205520552C55225520552055201
:1046400015521752228222424442483ECAD40000E8
:1046500000002014101417FE00120010601013F058
:10466000109010901090149214EA1F0A0006B3CC18
:104670000000000019FE7202120212027DFC1800F6
:104680001BFE3420502053FE10201020102013FE5B
:10469000D0F20000000000803FFE400047FC4208CE
:1046A000413040C05FFE40424042404440484040AC
:1046B0004440B5F70000000023FE122202FA022255
:1046C000E22212FE1272128A128A128A16BA1A4252
:1046D0001202040EB9E200000100010411080908E9
:1046E000091009207FFE04400440044004400842B1
:1046F00008421042607CB0E60000000048FE49001D
:10470000490049007EFE41824144794445284528BC
:104710004510452846440382C8A800001000100038
:1047200013FC7D0411041904188434885048505037
:1047300010201050108813041402CBF90000000060
:104740003F7C204020403E40227E2244224422449E
:104750003E8420842084408441044204C6C1000079
:104760003FF8200820083FF8241022202FF82220AC
:1047700022203FFC22204220442084200820C4BB69
:1047800004407FFC04401FF010101FF010101FF0B9
:104790000400FFFE11103FF8D11611501120010046
:1047A000D0FD2080108010FE0100FE0021FC20249E
:1047B0003C2424A024A024BC24A024A04560553E71
:1047C0008A00D7AA202020202020FDFC4020504035
:1047D00093FEFC40108011FC1C04F0885050102007
:1047E00010101010BFAA00007FFC0820082008202D
:1047F00008200820FFFE082008200820082010209C
:10480000102020204020D4B4000027FE14201440A3
:1048100085FC450445FC150415FC2524E42024A84A
:1048200029242A2230A00040D2BA0080204017FE5E
:1048300011208120423C4244166412942348E248ED
:1048400022302220225022880306BEA70FE0082033
:1048500008200FE0082008200FE000007EFC4284C2
:1048600042847EFC428442847EFC4284CDF8000077
:104870007FFC40044004421452944A54442444248B
:104880004A544A5452946104400440144008D5BE2E
:104890001020082008207E20003E042044204420D0
:1048A00025FC290429040F04F104410401FC01043E
:1048B000B0B410401020102013FEFA02144410402F
:1048C0001BFE3088D088110810D01020105050885E
:1048D0002304BCFC201020103B7C211441FE7A14E0
:1048E000A27C2710F97C251025FE22102A10350005
:1048F00028FE0000D0A310401020102011FEFC0064
:10490000108831043A02548850889050105010207A
:10491000105010881306D7BC01404120212023FEEF
:10492000022016201BFC1220222023FCE220222041
:10493000222023FE22000200B4A52020202078207F
:1049400049FC91247D24552455247DFC5524542074
:104950007C28542457FE45028C00C3FE1110111010
:1049600017FC1110FC0013F8120817F81A0833F896
:10497000D04017FC10A0111052082406B6C1002028
:10498000202011FC1020002003FEF0021094105093
:104990001110109013FE1428184410820302BACD8F
:1049A00004000E007800087C0844FF4408441844C2
:1049B0001C442A442A444844887C084408000800CF
:1049C000D1D5100008FE7F102220147C7F4444546F
:1049D0004854525444544854515442284424884220
:1049E0003082D6B5084008400FFC1040104033F824
:1049F000320853F8920813F8120813F81208120834
:104A00001FFE1000C8DD020001007FFE4002882466
:104A100011102288044008203018DFF61010101002
:104A200010101FF01010D6A70100010001007FFC3C
:104A30000100010001003FF0101008200440028036
:104A4000010006C01830E00EB3D610201020102050
:104A500011FCFC20102013FE1008180833FED008AB
:104A600010881048100850282010B5E302000200FA
:104A7000020003FC020002003FF020102010201072
:104A80003FF000002488224442448004CCAC010062
:104A900001007FFC0100028004400A203118C0069A
:104AA0000100088848844812481287F00000CAFDB7
:104AB000082049202A20083EFF442A44494488A46B
:104AC0001028FE2822104210642818283444C2827C
:104AD000D7D6020001007FFE400280041FE00040A4
:104AE00000800100FFFE010001000100010005003F
:104AF0000200CDCB03F82208120813F802080208BE
:104B0000F3F8124412281210128813041204280019
:104B100047FE0000B3F6010001002108210821082A
:104B200021083FF80108010001004104410441044B
:104B300041047FFC0004C9EE0000000000001000EA
:104B4000000800080C7FFC04401001C8A002186097
:104B500042301832231812C30014030004030C045B
:104B60007FF0080F80080B4078136018332018631B
:104B70001818831C19030818030000030000000024
:104B8000DBDA00000000000004100C04180C041014
:104B90008C04108C04108C04108C04D08C3F108C6E
:104BA00004108C04108C04108C04108C04108C04E1
:104BB000108C05F08C0E208C78208C20408C00808E
:104BC0008C01000C02000C000000CAD000000000A4
:104BD000000000300000180000180800001C1FFF33
:104BE000E000180000182007FFF004182004182027
:104BF0000418200418200418200418200418200485
:104C000018200418200418E00418400018000018A8
:104C100000000000D6D000000000000000000000EE
:104C200000000018000018000018000018003FFFE6
:104C3000FE301806301806301806301806301806F0
:104C40003FFFFE3018060018000018000018000092
:104C50001800001800000000000000000000CEC492
:104C6000000000000000000000003800001C0000F0
:104C70000600FFFFFF06003006003003006003005F
:104C8000600180C000C18000E300003600001C000D
:104C900000770003C1E01E003C6000070000000038
:104CA0000000000000000000B2E200000000000070
:104CB00000000000000040000321FF33398333115E
:104CC0008333019B33C19B33719B33199B33019B0E
:104CD00033019B33119B3319B333303033306C03C2
:104CE00030C6036383032E01BE00000000000000F5
:104CF0000000CAD400000000000000000000000016
:104D00004000D83000CE1800C21C00C001FFFF00D8
:104D100000C0F800C01800C019FFC01818401818CB
:104D2000601918601B18611E18311C1FB139F01969
:104D300010000F000000000000000000D7D60000A7
:104D4000000000060000000300000000C000000199
:104D5000C0C0000107C00001FF00021FFE0007F0F5
:104D60001C0007C070000F00E0000E03F0001C0FD5
:104D7000F0003C0F70003C00E0001800C000000094
:104D8000C0000000C0000000600000002000000023
:104D900037000001FF00007FF80007F830001F8097
:104DA00030000080300000C030000060600000185B
:104DB000E000000FC0000006000000000000CCE58D
:104DC0000000000000000000000000C0000000E043
:104DD000002001B800703FF80061FFC000C303006D
:104DE00001C60600038C060003080C0006080C0030
:104DF0000E18183F1E101BF31F903F0700803C1C2D
:104E00000190707C019060FE01A0C3F801A00FD852
:104E100003A00818036000180340001803C000181E
:104E200003800018030000180000001800000010A4
:104E30000000003000000030000000000000000012
:104E4000B2E20000000000000000000000000000CE
:104E50000000020C1008071FF80403BFF00201BC99
:104E6000300303EC3003015C600300D8600300D81A
:104E700060038098620361B8430771B14306313221
:104E800043063376C3063A64C7063EECC0063E7856
:104E9000C0063C3040067C70000678E060067BFF70
:104EA000F006F7C00006E40000064000000600001F
:104EB00000060000007C00008FF000007C00000075
:104EC0000000CAD400000000000000000000000044
:104ED00000003F0000007F8000000180000000C053
:104EE000000000C0000000CE038000CFFFC000DD46
:104EF00041800FFE0007FFFC000C00F000180FC0FF
:104F00003E19FF40F311BC6083307FE003B1FE2007
:104F1000033380200370003003600010036000182A
:104F200007C0000C07C00004078000020100000356
:104F30000000000100000000000000000000000070
:104F400000000000FFFFFFFFFFFFFFFFFFFFFFFF6D
:104F5000FFFFFFFFFFFFFFFFFFFFFFFFFFFFFFFF61
:104F6000FFFFFFFFFFFFFFDEC6388C926B8E6B6E7C
:104F70007C10AD96E73CFFFFFFFFFFFFFFFFFFFF49
:104F8000FFFFFFFFFFFFFFFFFFFFFFFFFFFFFFFF31
:104F9000FFFFFFFFFFFFFFFFFFFFFFFFFFFFFFFF21
:104FA000FFFFFFFFFFFFFFFFFFFFFFFFFFFFFFFF11
:104FB000FFFFEF5D9D15634F426C320A2988194649
:104FC0001925214531E86B8EBE18FFFFFFFFFFFF5B
:104FD000FFFFFFFFFFFFFFFFFFFFFFFFFFFFFFFFE1
:104FE000FFFFFFFFFFFFFFFFFFFFFFFFFFFFFFFFD1
:104FF000FFFFFFFFFFFFFFFFFFFFFFFFFFFFFFDFE1
:105000009CF5530F4B1053514B0F3A6C31E921670C
:10501000192510E408A3006208834A8AC659FFFFD5
:10502000FFFFFFFFFFFFFFFFFFFFFFFFFFFFFFFF90
:10503000FFFFFFFFFFFFFFFFFFFFFFFFFFFFFFFF80
:10504000FFFFFFFFFFFFFFFFFFFFFFFFE71C5B4FBF
:1050500063B37CB863F54311324D29EA21881926E0
:10506000190519051104110410E4008308A38C72BA
:10507000FFFFFFFFFFFFFFFFFFFFFFFFFFFFFFFF40
:10508000FFFFFFFFFFFFFFFFFFFFFFFFFFFFFFFF30
:10509000FFFFFFFFFFFFFFFFFFFFDEDB3A4B42F0AA
:1050A0006C354B5432B12A2E21EB21A91967190511
:1050B00011041104110411041104190510E4004233
:1050C00073AFFFFFFFFFFFFFFFFFFFFFFFFFFFFFCC
:1050D000FFFFFFFFFFFFFFFFFFFFFFFFFFFFFFFFE0
:1050E000FFFFFFFFFFFFFFFFEF5D3209324C4B1068
:1050F000328F2A4F2A2E19CC19892189194719056F
:105100001104110410C410C411041104110410E49A
:1051100000428431FFFFFFFFFFFFFFFFFFFFFFFFA4
:10512000FFFFFFFFFFFFFFFFFFFFFFFFFFFFFFFF8F
:10513000FFFFFFFFFFFFFFFF52EC1947324C2A0B26
:1051400021EC21EC220C5B914AEE11061926190480
:1051500010E410E429A7216608A31905110411041D
:1051600010E40082BDF7FFFFFFFFFFFFFFFFFFFF1F
:10517000FFFFFFFFFFFFFFFFFFFFFFFFFFFFFFFF3F
:10518000FFFFFFFFFFFFA5350883218821882189C4
:1051900021AA218A426B8C71FFFF8C720883110453
:1051A00008C44229DEFBEF5D5AEC088311041104A8
:1051B0001104088331E8FFDFFFFFFFFFFFFFFFFF60
:1051C000FFFFFFFFFFFFFFFFFFFFFFFFFFFFFFFFEF
:1051D000FFFFFFFFF7BE31C710C419251926194775
:1051E000194729A8528A4A28AD55FFFF31E808A37C
:1051F00019056B4D6B4DFFFFEF7D214510C4110468
:10520000110411040062AD76FFFFFFFFFFFFFFFFF7
:10521000FFFFFFFFFFFFFFFFFFFFFFFFFFFFFFFF9E
:10522000FFFFFFFFB596006211041904110519056F
:1052300008C44A8BB5B6EF5DBDF7FFFF6B8E006209
:1052400042295AAA4208FFFFFFFF52CC08831104EB
:105250001104110408A352ADFFFFFFFFFFFFFFFF82
:10526000FFFFFFFFF7BEFFFFFFDFDEDBFFFFFFFFFC
:10527000FFFFFFFF634E006211041104110410E4EC
:105280000062638EFFFFFFFFFFFFFFFF73CF000190
:105290009CF3632CB596FFFFFFFF5B2D0083110489
:1052A0001104110410E42167EF3DFFFFFFFFFFFF32
:1052B000FFFFFFFFB5B7AD76EF7D52CB94B3FFFF95
:1052C000FFFFFFDF31E808A31104110411041104EA
:1052D00008A34249F7FFF7FFFFFFFFFF4A6A0001FB
:1052E0008472FFFFFFFFF7FFEFDF3A0908A3110405
:1052F0001104110411041105BE18FFFFFFFFFFFF89
:10530000FFFFFFFF7BF0006231E831C70041A535A8
:10531000FFFFEF5D214610C41104110411041104B4
:1053200010E408A39D76F7FFFFFFADB708A308A31D
:1053300031C7E79EF7FFF7FFA57608A310E4110435
:105340001104110411051105A535FFFFFFFFFFFF33
:10535000FFFFFFFFDEDB29A7008310C410C410C4C9
:10536000E71CEF9E110510E411041104110411044F
:10537000190408C410E56BD16BD108C5006408A5F9
:105380000043322B9D7784B3192510C411041104F6
:1053900011041104192509269D35FFFFFFFFFFFFAA
:1053A000FFFFFFFFFFFF73AF0062190419050082C2
:1053B0005B0D9B8E1062110511041104190410E499
:1053C0000085110539C45A817B409C22AC43A4035B
:1053D0009B837282498218C200A400C510E419049C
:1053E00011041905194711675AECFFBEFFFFFFFFB3
:1053F000FFFFFFFFFFDFD6DB10C410E4110411052F
:1054000018A4C001888300E41905190408C52144C3
:105410008343D523FE42FEE4FF27FF07FEA4FE647C
:10542000FE03FDA3FCE2EC42B383622410E508C452
:105430001904192619A821879000BCD3FFFFFFFF8C
:10544000FFFFFFFFFFFFFFFF7BF000421905110583
:105450002883D001F84448A300E408C55A44ED026B
:10546000FDE2FE02FE66FF74FFB8FF73F6E7F6A6E4
:10547000F645F5A4FCC3FC62FCC2FCC2CBE349C404
:1054800011061988018790A4F8019AECFFFFFFFF2D
:10549000FFFFFFFFFFFFFFFFF79E31E800830905D5
:1054A0004082C001F823F08548A300A45A44FD02BD
:1054B000CC23DCC2FE04FE28F648F646F624F5E4CA
:1054C000FD64FCE3FC62FCC2E402DC02FCE27AA4C0
:1054D0000148016778C4F824F802B084E77DFFFF33
:1054E000FFFFFFFFFFFFFFFFFFFFDEDB192500A32C
:1054F00038C4E002D822F844F8A678A40063214317
:10550000728339839B82F521FD61FD22FCE2FCA2BE
:10551000FC42FC42FC42AB22418392C3520401266E
:10552000192598A4F844F823F802D0A4EF9EFFFFB1
:10553000FFFFFFFFFFFFFFFFFFFFFFFFD69A298757
:1055400000A5B843F822E023F865F8E8C9074883C6
:10555000004200A3008429637AA2B362CBA2D36283
:10556000BB028A82398300A400E500E508E560C437
:10557000D864F844F824F823F8028883C6DBFFFFD8
:10558000FFFFFFFFFFFFFFFFFFFFFFFFFFFFE73D05
:105590005B503108E823F843F044F865F909F9ABAA
:1055A000D189890648A318420002004200610082A6
:1055B00000620062008320A350C488A5D885F865E6
:1055C000F844F844F823F823D003108229C7EF5D8C
:1055D000FFFFFFFFFFFFFFFFFFFFFFFFFFFFFFFFDB
:1055E000FFFF326C38A5D802F823F865F866F8A7F3
:1055F000F94AFA0CFA4DEA4CD20BB9A9B168A9479D
:10560000B127B907D107E8E7F8C7F8A7F865F86543
:10561000F844F823F803D00228A3090508C45AEC7B
:10562000FFFFFFFFFFFFFFFFFFFFFFFFFFFFFFFF8A
:10563000DEFB190500C441A7C0E6F803F886F8A709
:10564000F887F886F8C7F929F98AF9ABF9ABF98B2D
:10565000F96AF929F908F8C7F8A6F886F865F86430
:10566000F823F002B106292500E410E419251925D4
:105670009D14FFFFFFFFFFFFFFFFFFFFFFFFFFFF87
:10568000AD96006208829535CEBAA28BD044F8253B
:10569000F887F8A7F8C7F8A7F887F886F886F88695
:1056A000F887F8A7F8A7F8A6F885F865F864F02455
:1056B000B864930DB6BB63CF0883110410E4216670
:1056C0003A49EF5DFFFFFFFFFFFFFFFFFFFFFFFF17
:1056D00094D3004210E4CEBBFFFFE7BEB576AACC60
:1056E000C107E045F845F846F866F886F886F8867A
:1056F000F886F865F845F865E865D044A843880160
:105700009082D73CEFFF95550883110411041905C9
:10571000194694B3FFFFFFFFFFFFFFFFFFFFFFFFEF
:1057200094B300412186DF5DFFFFFFFFFFFFE7DF4E
:10573000C67AB4D3B34EC22AD168E0E6E8A6E8A59B
:10574000E8A5D8E6C988A906A822A802A000C80032
:10575000D800E5F7E7FFADF810C410E4110410E439
:1057600011054A8BFFFFFFFFFFFFFFFFFFFFFFFF5A
:10577000A555004129A7DF5DF7FFFFFFFFFFFFFFF2
:10578000FFFFFFFFEFFFDF7DCEDBCE59CDF8CDD79A
:10579000C5F7CE79BEFBA2ABF003F845D042E84393
:1057A000F000D472DFFFAE3910E410E4110410E40D
:1057B00011052987FFFFFFFFFFFFFFFFFFFFFFFF2F
:1057C000CE5908832146D71CF7FFFFFFFFFFFFFFDD
:1057D000FFFFFFFFFFFFFFFFFFFFFFFFFFFFFFFFD9
:1057E000FFFFFFFFEFFFBA8BF804F845E062F044DB
:1057F000F800DB8EDFFFA5F810C410E410E41104FC
:1058000010E41925FFFFFFFFFFFFFFFFFFFFFFFF72
:10581000F7BE29870883B639F7FFF7DFFFFFFFFFE1
:10582000FFFFFFFFFFFFFFFFFFFFFFFFFFFFFFFF88
:10583000FFFFFFFFE7BEBA4AF803F845F864F844F3
:10584000F800E36ED7FF8CF40883110410E410E431
:1058500010E41905FFFFFFFFFFFFFFFFFFFFFFFF42
:10586000FFFF73EF00008472EFFFEFBEFFDFFFFF6B
:10587000FFFFFFFFFFFFFFFFFFFFFFFFFFFFFFFF38
:10588000FFFFFFFFE7DFBA8BF803F845F845F82381
:10589000F800D4D3D7FF5B4E00213A29A5550883E1
:1058A00010C41925FFFFFFFFFFFFFFFFFFFFFFFFF2
:1058B000FFFFDEFB08A331E8DF9EE79EEFBFFFFF9F
:1058C000FFFFFFFFFFFFFFFFFFFFFFFFFFFFFFFFE8
:1058D000FFFFFFFFF7FFBC51E002F803F003E043D6
:1058E000C2ECCF7EBEFC2146002194D3FFFF845141
:1058F00000002987FFFFFFFFFFFFFFFFFFFFFFFF04
:10590000FFFFFFFF845100008CF4EFFFE79EEFBF25
:10591000FFDFFFFFFFFFFFFFFFFFFFFFFFFFFFFFB7
:10592000FFFFFFFFFFFFDF3DBD55BC52BC72B5B7A7
:10593000C75DDFFF6BF000003A09F7BFFFFFFFFF15
:105940009D14A555FFFFFFFFFFFFFFFFFFFFFFFFB8
:10595000FFFFFFFFFFFF4AAC08A4BEBBE7DFE77E07
:10596000EFBEF7DFFFDFFFFFFFFFFFFFFFFFFFFFE0
:10597000FFFFFFFFFFDFF7DFEFFFDFDFD7BFD79EC0
:10598000DFDFA5D808831126D6DBFFFFFFFFFFFF6F
:10599000FFFFFFFFFFFFFFFFFFFFFFFFFFFFFFFF17
:1059A000FFFFFFFFEE79DC8B312121A9CF3DDFBF67
:1059B000DF7EE79EEFBEEFBFF7DFF7DFF7DFF7DF52
:1059C000F7DFEFBFEFBEE79EDF7ED75ED75EDFDF9C
:1059D000B69A19260842A3EDFFBFFFFFFFFFFFFFA6
:1059E000FFFFFFFFFFFFFFFFFFFFFFFFFFFFFFFFC7
:1059F000FFFFDD74DBC0FE00EE4242022189B67B70
:105A0000DFDFD77EDF7EDF7EE79EE79EE79EE79EB5
:105A1000E79EDF7EDF7ED75DD75DDF9EE7FFA5F8DF
:105A2000110718E3C502FD60D3E6EEDBFFFFFFFFC1
:105A3000FFFFFFFFFFFFFFFFFFFFFFFFFFFFFFFF76
:105A4000F79EBA84FCC1FE42FE82FEA283812145FC
:105A50007474C75EDFDFD77ED75ED75DD75ED75E53
:105A6000D75DD75DD75EDF9EE7FFC73D63F1088452
:105A70005242E626FF29FE86F3E0C36AFFFFFFFFDE
:105A8000FFFFFFFFFFFFFFFFFFFFFFFFFFFFFFFF26
:105A9000DE18D2C1FDA2FE22FE42FE42FE62D4E228
:105AA0006A4142497453A63BC73ED7BFD7BFD7BF51
:105AB000DFBFD7BFC73EA61A63F229A74182B4222F
:105AC000FE62FE83FEAAFF0FFD67BA63EF3CFFFF95
:105AD000FFFFFFFFFFFFFFFFFFFFFFFFFFFFFFFFD6
