:020000040800F2
:10000000200700243903000869380008912E0008F1
:10001000450300082F040008B9470008000000004D
:10002000000000000000000000000000F33E000897
:10003000F5040008000000006B380008F9400008D3
:100040005303000853030008530300085303000838
:100050005303000853030008530300085303000828
:100060005303000853030008530300085303000818
:100070005303000853030008530300085303000808
:1000800053030008530300085303000853030008F8
:1000900053030008530300085303000853030008E8
:1000A00053030008530300085303000853030008D8
:1000B00053030008530300085303000853030008C8
:1000C00053030008530300085303000853030008B8
:1000D00053030008530300085303000853030008A8
:1000E00053030008530300080000000053030008F6
:1000F0005303000853030008530300085303000888
:100100005303000853030008530300085303000877
:100110005303000853030008530300085303000867
:100120005303000853030008530300085303000857
:100130005303000853030008530300085303000847
:1001400000000000000000000000000000000000AF
:100150005303000853030008530300085303000827
:100160005303000853030008530300085303000817
:100170005303000853030008530300080000000065
:1001800053030008530300085303000853030008F7
:1001900053030008530300085303000853030008E7
:1001A00053030008530300085303000853030008D7
:1001B00053030008530300085303000853030008C7
:1001C00053030008530300085303000853030008B7
:1001D00053030008530300085303000853030008A7
:1001E0005303000853030008530300085303000897
:1001F0005303000853030008530300085303000887
:100200005303000853030008530300085303000876
:100210005303000853030008530300085303000866
:1002200053030008530300085303000800000000B4
:1002300053030008530300080000000053030008A4
:100240005303000853030008530300085303000836
:100250005303000853030008530300085303000826
:100260005303000853030008530300085303000816
:100270005303000853030008530300080000000064
:1002800053030008000000005303000800000000B2
:10029000000000005303000800F002F800F03CF8F2
:1002A0000AA090E8000C82448344AAF10107DA45D1
:1002B00001D100F031F8AFF2090EBAE80F0013F0E7
:1002C000010F18BFFB1A43F001031847C46D00006B
:1002D000E46D0000103A24BF78C878C1FAD85207FC
:1002E00024BF30C830C144BF04680C6070470000B0
:1002F0000023002400250026103A28BF78C1FBD82F
:10030000520728BF30C148BF0B6070471FB504F0CB
:100310008DFC1FBD10B510BD00F050F81146FFF761
:10032000F5FF04F036FB00F06EF803B4FFF7F2FFC0
:1003300003BC00F075F800000948804709480047F1
:10034000FEE7FEE7FEE7FEE7FEE7FEE7FEE7FEE785
:10035000FEE7FEE704480549054A064B70470000E2
:100360000141000899020008200100242007002410
:10037000200300242003002410B5431C02E010F8E1
:10038000011B71B18107FAD14FF0013202C88C1AFA
:100390008C4314EAC211F9D0C01A0A0603D0C01E59
:1003A00010BDC01A10BD0A0401D0801E10BD090284
:1003B000FCD0401E10BD704770477047754600F076
:1003C0002BF8AE4605006946534620F007008546E7
:1003D00018B020B5FFF7BEFFBDE820404FF0000683
:1003E0004FF000074FF000084FF0000B21F007011D
:1003F000AC46ACE8C009ACE8C009ACE8C009ACE860
:10040000C0098D46704710B50446AFF30080204602
:10041000BDE81040FFF789BF00487047C0000024C6
:1004200001491820ABBEFEE726000200704700BF5E
:10043000FEE7000010B503F031FC03F0E1FB0348D8
:10044000006840F004000149086010BD9CEF00E026
:100450000EB517A000F098F80020102118A24FF652
:10046000E073CDE9002102901F2252212D2003F0DC
:1004700041FD0120182117A24FF6E073CDE90021BC
:1004800002901F2266212D2003F034FD012020213F
:1004900014A24FF6E073CDE9002102901F227F21C4
:1004A0002D2003F027FD4FF4966004F0F5F90EBD02
:1004B000D6D0CEC4CFD4CABEB2E2CAD400000000A7
:1004C00031365831363AC8ABB6AFB5E7D7D3BBB63D
:1004D000D3AD000032345832343AD6D0CEC4B2E272
:1004E000CAD4000033325833323AD7D6CCE5B2E220
:1004F000CAD40000704700002DE9F04106460F46BF
:1005000014461D464FF6FF701E4908803B462246A2
:100510003946304602F008FD2B4632463946304611
:1005200002F002FD48F21040164908806A1E93B29C
:1005300091B2721C90B2224602F0F6FC44F20820FE
:10054000104908802B4622462946304602F0ECFC32
:1005500048F210400B490880631E9AB27B1C99B286
:10056000631E98B22B4602F0DFFC44F208200549D6
:1005700008802B4622463946204602F0D5FCBDE8CD
:10058000F0810000220000243EB504464FF6FF70C3
:1005900002F080FC002010211F234FF6FF72CDE9EE
:1005A000004102900C2100F0B1FB0020102107A2B5
:1005B000CDE90021029009484088203881B21F23EC
:1005C0004FF6FF72002000F0A1FB3EBD7777772E3B
:1005D0006C636477696B692E636F6D00280000247B
:1005E0002DE9F04704460D4616461F46DDE9088909
:1005F0003B4632462946204602F096FC4B46424690
:100600003946304602F090FC2B4622464946404689
:1006100002F08AFCBDE8F0870EB52BA0FFF7B4FF0F
:1006200000200C212CA24FF6E073CDE900210290AE
:100630001F224D21322003F05DFC01200C212CA251
:100640004FF6E073CDE9002102901F22592132209C
:1006500003F050FC00200C212BA24FF6E073CDE9F3
:10066000002102901F226521322003F043FC00206C
:1006700010212BA24FF6E073CDE9002102901F223A
:100680007221322003F036FC0120102128A24FF6FF
:10069000E073CDE9002102901F228221322003F075
:1006A00029FC0020102126A24FF6E073CDE900219D
:1006B00002901F229221322003F01CFC4FF496601E
:1006C00004F0EAF80EBD0000D3A2CEC4CFD4CABE57
:1006D000B2E2CAD400000000365831323A61626397
:1006E0006465666768303132333435363700000070
:1006F000365831323A414243444546474830313218
:100700003334353637000000365831323A7E2140D6
:100710002324255E262A28295F2B7B7D3A000000B2
:10072000385831363A6162636465303132333400AF
:10073000385831363A41424344453031323334003F
:10074000385831363A7E21402324255E262A28292E
:10075000000000002DE9FF4F85B000260027BDF8FE
:100760001800BDF82010884207DD08A906A804F08B
:1007700083F807A905A804F07FF8BDF82000BDF8AC
:100780004C10884207DD08A913A804F075F807A9E2
:1007900012A804F071F8BDF81800BDF820108842C6
:1007A00007DD08A906A804F067F807A905A804F062
:1007B00063F8BDF81800BDF84C10884238D1BDF878
:1007C000140003900490BDF81C00BDF8101088427E
:1007D00003DABDF81C00049008E0BDF81C00BDF869
:1007E0000C10884202DDBDF81C000390BDF84800E3
:1007F000BDF81010884203DABDF84800049008E004
:10080000BDF84800BDF80C10884202DDBDF8480074
:100810000390534800880090BDF81830BDF80C20B4
:100820001946BDF8100002F005FC09B0BDE8F08FD4
:10083000BDF81C00BDF81410A0EB010BBDF82000A2
:10084000BDF81810401A0290BDF84800BDF8141009
:10085000451ABDF84C00BDF81810A0EB0109BDF811
:100860004800BDF81C10A0EB010ABDF84C00BDF813
:100870002010401A0190BDF82000BDF84C108842AD
:1008800002D1BDF8208004E0BDF82000401E1FFA10
:1008900080F8BDF8184027E0029896FBF0F0BDF80C
:1008A0001410084480B2049097FBF9F0BDF81410BE
:1008B000084480B203905E442F44BDF81000BDF898
:1008C0000C10884203DD03A904A803F0D5FF2448D7
:1008D000008823460090BDF80C202146BDF810008A
:1008E00002F0A8FB601C84B24445D5DDBDF82000B1
:1008F000201A00FB0AF6BDF81800201A00FB05F7C5
:1009000027E0019896FBF0F0BDF81C10084480B277
:10091000049097FBF9F0BDF81410084480B20390DE
:1009200056442F44BDF81000BDF80C10884203DD7A
:1009300003A904A803F0A0FF0948008823460090FB
:10094000BDF80C202146BDF8100002F073FB601CBE
:1009500084B2BDF84C008442D3DD00BF65E70000DF
:10096000220000242DE9FC5F0546884691469A4600
:10097000DDF830B000954020019000245FE004EBEA
:100980000410374911F810009BF80010884253D129
:1009900004EB0410324901EB400040789BF8011051
:1009A000884249D108F10F0083B205F10F0082B2ED
:1009B0004146284602F002FE00263BE0002734E0D4
:1009C0000D9890B904EB0410254901EB4000801C00
:1009D000805D80213941084018B1484602F028FF67
:1009E00021E0504602F024FF1DE01E48A0F80090D0
:1009F00004EB04101A4901EB4000801C805D80214B
:100A00003941084018B14146284602F0E5FA681C11
:100A100085B20098281A102805D1009D08F1010020
:100A20001FFA80F803E0781CC7B2082FC8DB00BFAC
:100A3000701CC6B2202EC1DB00BF601C84B20198BE
:100A400084429CDB08484088401E83B206480088E8
:100A5000401E82B20021084602F0B0FDBDE8FC9FB6
:100A6000CA56000822000024280000242DE9FC5F5B
:100A70000546884691469A46DDF830B00095072035
:100A80000190002467E004EB840000EB44103A4935
:100A900011F810009BF80010884259D104EB840033
:100AA00000EB4410344901EB400040789BF8011002
:100AB00088424DD108F1170083B205F1170082B2C8
:100AC0004146284602F07AFD00263FE0002738E044
:100AD0000D98A0B904EB840000EB4410264901EB0B
:100AE0004000801C805D80213941084018B1484693
:100AF00002F09EFE23E0504602F09AFE1FE01F48DF
:100B0000A0F8009004EB840000EB44101A4901EBBC
:100B10004000801C805D80213941084018B1414669
:100B2000284602F059FA681C85B20098281A18283D
:100B300005D1009D08F101001FFA80F803E0781C40
:100B4000C7B2082FC4DB00BF701CC6B2482EBDDB85
:100B500000BF601C84B20198844294DB084840883E
:100B6000401E83B206480088401E82B2002108461B
:100B700002F024FDBDE8FC9F4A5F0008220000242B
:100B8000280000242DE9FC5F0546884691469A46D8
:100B9000DDF830B000950420019000245FE004EB04
:100BA0008410374911F810009BF80010884253D187
:100BB00004EB8410324901EB400040789BF80110AF
:100BC000884249D108F11F0083B205F11F0082B2AB
:100BD0004146284602F0F2FC00263BE0002734E0C4
:100BE0000D9890B904EB8410254901EB4000801C5E
:100BF000805D80213941084018B1484602F018FE56
:100C000021E0504602F014FE1DE01E48A0F80090BE
:100C100004EB84101A4901EB4000801C805D8021A8
:100C20003941084018B14146284602F0D5F9681C00
:100C300085B20098281A202805D1009D08F10100EE
:100C40001FFA80F803E0781CC7B2082FC8DB00BF8A
:100C5000701CC6B2802EC1DB00BF601C84B201983C
:100C600084429CDB08484088401E83B206480088C6
:100C7000401E82B20021084602F0A0FCBDE8FC9FA5
:100C800050610008220000242800002470B50546A9
:100C90000E4614463146284602F086FC204602F0F5
:100CA000C7FD70BD2DE9F05F0746884615461E4614
:100CB000DDF8289008EB0600401E83B27819401E2C
:100CC00082B24146384602F079FC00240AE019F865
:100CD00014B009EB440090F801A04BEA0A2002F09E
:100CE000A7FD641C05FB06F0A042F0DC0648408826
:100CF000401E83B204480088401E82B2002108468C
:100D000002F05CFCBDE8F09F280000242DE9FE4FB6
:100D10000E4617469846DDE90D9A0C9C2046FFF7D3
:100D20002BFB85B208490988A1EBC50000EBD07107
:100D3000C1F34F0B43463A46314658468DE81006FC
:100D400003F0D8F8BDE8FE8F2800002403480068AF
:100D500040F001000149086070470000200400587D
:100D6000F8B502460B460021002600240020824DE3
:100D700000BFFCE0012707FA01F61F6807EA060436
:100D8000B4427CD15F68022F02D05F68122F1AD163
:100D90004FEAD10C02F1200757F82C004F074FEA19
:100DA000D76C0F2707FA0CF7B8434FEA417C4FEA9C
:100DB000DC6C1F6907FA0CF738434FEAD10C02F1DB
:100DC000200747F82C0010684FEA410C032707FA68
:100DD0000CF7B8431F7907F003074FEA410C07FAF5
:100DE0000CF7384310605F68012F08D05F68022F4E
:100DF00005D05F68112F02D05F68122F17D190685D
:100E00004FEA410C032707FA0CF7B8434FEA410CAD
:100E1000DF6807FA0CF738439060506801278F406D
:100E2000B8431F79C7F300178F4038435060D0682C
:100E30004FEA410C032707FA0CF7B8434FEA410C7D
:100E40009F6807FA0CF73843D0605F6807F0805757
:100E5000B7F1805F95D100BF484F3F6847F0020768
:100E6000DFF818C1CCF8007067463F6807F002074A
:100E7000009700BF00BF424F4FEA910C00E075E0C1
:100E800057F82C008F074FEA177C0F2707FA0CF74B
:100E9000B8433C4FBA4201D100272DE03A4FBA4245
:100EA00001D1012728E0394FBA4201D1022723E0BE
:100EB000374FBA4201D103271EE0364FBA4201D163
:100EC000042719E0344FBA4201D1052714E0334F0B
:100ED000BA4201D106270FE0314FBA4201D10727AC
:100EE0000AE0304FBA4201D1082705E02E4FBA423E
:100EF00001D1092700E00A274FEA817C4FEA1C7CD8
:100F000007FA0CF738431E4F4FEA910C47F82C00B4
:100F10002868A0435F6807F48037B7F5803F00D1A9
:100F2000204328606868A0435F6807F40037B7F57E
:100F3000003F00D1204368604FF0B0473868A043BD
:100F40005F6807F48017B7F5801F00D120434FF08A
:100F5000B04738607868A0435F6807F40017B7F5BA
:100F6000001F00D120434FF0B0477860491C102982
:100F7000FFF400AFF8BD000080000058F4440258B0
:100F800008040058000002580004025800080258E3
:100F9000000C0258001002580014025800180258A1
:100FA000001C025800200258002402580AB1018394
:100FB00000E041837047000001480068704700006E
:100FC00018000024034800680349097808440149CF
:100FD00008607047180000242000002410B503208A
:100FE00000F06EF80F2000F007F808B1012010BDE6
:100FF00000F028F80020FAE770B504460E480078A3
:101000004FF47A71B1FBF0F00C490968B1FBF0F5CF
:10101000284601F023FF08B1012070BD102C07D233
:1010200000222146501E00F00EF80548046001E041
:101030000120F2E70020F0E7200000240000002457
:101040001C00002470472DE9F05F80460D461646CF
:1010500003F0B4FB074639462A46334601F0070041
:10106000C0F1070ABAF1040F02D94FF0040A01E0F7
:10107000C0F1070AD14600F1040ABAF1070F02D203
:101080004FF0000A01E0A0F1030AD4464FF0010A34
:101090000AFA09FAAAF1010A0AEA020A0AFA0CFA99
:1010A0004FF0010B0BFA0CFBABF1010B0BEA030B3E
:1010B0004AEA0B042146404603F088FBBDE8F09F56
:1010C00000BF00F00702064B19684FF6FF031940F6
:1010D000044B0B4343EA0221014B196000BF7047E8
:1010E0000CED00E00000FA052DE9F0410446002572
:1010F0000026206800F00060B0F1006F30D1606E13
:1011000048B1B0F5801F0DD0B0F5001F10D0B0F57C
:10111000401F15D113E0F948006840F40030F7494A
:1011200008600FE00221201D02F0F4FB054609E0F3
:10113000022104F1240002F085FC054602E001E0F2
:10114000012500BF00BF55B9EC482430006820F4E9
:101150004010616E0843E9492431086000E02E43E5
:10116000208800F48070B0F5807F2DD1606D052857
:101170001AD2DFE800F0030A10171800DF480068F1
:1011800040F40030DD49086010E00021201D02F02D
:10119000C1FB05460AE0002104F1240002F052FCE4
:1011A000054603E002E001E0012500BF00BF55B99C
:1011B000D2482430006820F00700616D0843CF4911
:1011C0002431086000E02E43208800F40070B0F560
:1011D000007F33D1A06D802817D003DC40B14028B8
:1011E0001CD10CE0C02817D0B0F5807F16D114E0D8
:1011F000C248006840F40030C049086010E0002197
:10120000201D02F087FB05460AE0002104F12400BE
:1012100002F018FC054603E002E001E0012500BFF2
:1012200000BF55B9B5482430006820F4E070A16DC6
:101230000843B2492431086000E02E43208800F4BE
:101240008060B0F5806F38D1D4F8A400B0F5800F7D
:1012500019D004DC50B1B0F5001F1DD10DE0B0F580
:10126000C00F17D0B0F5000F16D114E0A3480068E6
:1012700040F40030A149086010E00021201D02F078
:1012800049FB05460AE0002104F1240002F0DAFBE4
:10129000054603E002E001E0012500BF00BF5DB9A3
:1012A00096482C30006820F46000D4F8A41008435D
:1012B00092492C31086000E02E43208800F4006041
:1012C000B0F5006F38D1D4F8A800B0F1007F19D084
:1012D00004DC50B1B0F1807F1DD10DE0B0F1407F52
:1012E00017D0B0F1806F16D114E08448006840F444
:1012F00000308249086010E00021201D02F00AFB46
:1013000005460AE0002104F1240002F09BFB05469B
:1013100003E002E001E0012500BF00BF5DB97748AE
:101320002C30006820F0E060D4F8A810084373491E
:101330002C31086000E02E43206800F00070B0F10E
:10134000007F27D1A06CA0B1102804D0202809D09C
:1013500030280FD10CE06948006840F4003067493C
:10136000086009E00221201D02F0D4FA054603E0DE
:1013700002E001E0012500BF00BF55B95F48203001
:10138000006820F03000A16C08435C4920310860FF
:1013900000E02E43208800F48050B0F5805F36D105
:1013A000E06DB0F5005F19D004DC50B1B0F5805F9E
:1013B0001DD10DE0B0F5405F17D0B0F5804F16D1CC
:1013C00014E04E48006840F400304C49086010E0DA
:1013D0000021201D02F09EFA05460AE0002104F1DA
:1013E000240002F02FFB054603E002E001E00125A6
:1013F00000BF00BF55B941482430006820F4E040E8
:10140000E16D08433D492431086000E02E43208807
:1014100000F40050B0F5005F34D1206EB0F5403FCD
:101420001DD007DC68B1B0F5803F0BD0B0F5003FB0
:1014300018D10DE0B0F5802F12D0B0F5A02F11D14A
:101440000FE011E00121201D02F064FA05460BE0D7
:10145000012104F1240002F0F5FA054604E003E05E
:1014600002E001E0012500BF00BF55B92348243048
:10147000006820F4E020216E0843204924310860F0
:1014800000E02E43208800F48040B0F5804F38D132
:10149000D4F8AC00B0F1405F1DD007DC68B1B0F10A
:1014A000805F0BD0B0F1005F18D10DE0B0F1804F3C
:1014B00012D0B0F1A04F11D10FE011E00121201D99
:1014C00002F028FA05460BE0012104F1240002F0A5
:1014D000B9FA054604E003E002E001E0012500BF9F
:1014E00000BF6DB905482C30006820F0E040D4F80A
:1014F000AC10084301492C31086002E02C4402582A
:101500002E43208800F40040B0F5004F26D1E06E55
:1015100098B1B0F1805F03D0B0F1005F0ED106E06A
:10152000FA48006840F40030F849086008E00121FA
:10153000201D02F0EFF9054602E001E0012500BFA1
:1015400000BF55B9F1482430006820F04050E16EEA
:101550000843EE492431086000E02E43206800F083
:101560008070B0F1807F27D1606CA0B1012804D0D9
:10157000022809D003280FD10CE0E448006840F4A9
:101580000030E249086009E00221201D02F0C2F9A2
:10159000054603E002E001E0012500BF00BF55B9A8
:1015A000DA482030006820F00300616C0843D74916
:1015B0002031086000E02E43206800F48000B0F580
:1015C000800F7DD1D248006840F48070D049086017
:1015D000FFF7F2FC074606E0FFF7EEFCC01B6428AD
:1015E00001D9032505E0CA48006800F4807000288E
:1015F000F2D000BF8DBBC5484430006800F4407095
:10160000B4F8B01001F44071884214D0BF4844309F
:10161000006820F44078BD484430006840F48030D1
:10162000BA49443108600846006820F480300860F8
:101630000846C0F80080D4F8B000B0F5807F15D11E
:10164000FFF7BAFC074609E0FFF7B6FCC01B41F202
:101650008831884202D9032507E038E0AB4844309E
:101660000068C0F340000028EED000BF4DBB00BFB3
:10167000B4F8B00000F44070B0F5407F0ED1A3483C
:101680001C38006820F47C51A24AD4F8B000104005
:1016900041EA10109D491C39086007E09B481C383E
:1016A000006820F47C5099491C3908609748443000
:1016B0000068B4F8B010C1F30B010843934901E08E
:1016C00006E002E04431086002E02E4300E02E43D1
:1016D000207800F0010068B3A06F182819D005DC4D
:1016E00048B1082808D0102816D10BE0202811D0C6
:1016F000282811D10FE011E00121201D02F00AF984
:1017000005460BE0012104F1240002F09BF9054697
:1017100004E003E002E001E0012500BF00BF55B98D
:101720007A482830006820F03800A16F08437749D4
:101730002831086000E02E43207800F002000228E3
:1017400028D1606F062815D2DFE800F003040A11E3
:10175000121311E00121201D02F0DCF805460BE018
:10176000012104F1240002F06DF9054604E003E0D4
:1017700002E001E0012500BF00BF55B963482830F1
:10178000006820F00700616F084360492831086055
:1017900000E02E43207800F0040004282AD1D4F879
:1017A0009000062815D2DFE800F003040A11121396
:1017B00011E00121201D02F0ADF805460BE00121EA
:1017C00004F1240002F03EF9054604E003E002E0E3
:1017D00001E0012500BF00BF5DB94C482C30006816
:1017E00020F00700D4F89010084348492C310860D5
:1017F00000E02E43207800F02000202836D1D4F8D5
:101800008C00B0F1405F1DD007DC68B1B0F1805FA3
:101810000BD0B0F1005F18D10DE0B0F1804F12D0C5
:10182000B0F1A04F11D10FE011E00021201D02F016
:1018300071F805460BE0022104F1240002F002F9E0
:10184000054604E003E002E001E0012500BF00BF1F
:101850005DB92E482830006820F0E040D4F88C10A4
:1018600008432A492831086000E02E43207800F020
:101870004000402836D1D4F89800B0F5406F1DD014
:1018800007DC68B1B0F5806F0BD0B0F5006F18D1F0
:101890000DE0B0F5805F12D0B0F5A05F11D10FE080
:1018A00011E00021201D02F035F805460BE0022171
:1018B00004F1240002F0C6F8054604E003E002E06B
:1018C00001E0012500BF00BF5DB910482C30006861
:1018D00020F4E050D4F8981008430C492C310860EB
:1018E00000E02E43207800F0800080283BD1D4F81F
:1018F0009C00B0F5C04F24D00EDCA0B1B0F5005F65
:1019000012D0B0F5804F1FD114E000002C440258D3
:1019100000480258FFFCFF0FB0F5004F12D0B0F5A1
:10192000204F11D10FE011E00021201D01F0F2FF46
:1019300005460BE0022104F1240002F083F805467D
:1019400004E003E002E001E0012500BF00BF4DB963
:10195000B248006820F46040D4F89C100843AF49B6
:10196000086000E02E43207800F00800082816D117
:10197000D4F88000B0F5805F06D1022104F1240084
:1019800002F060F806430AE0A448001F006820F453
:101990004050D4F880100843A049091F08602078FF
:1019A00000F01000102814D1D4F89400B0F5807F16
:1019B00006D1022104F1240002F044F8064308E0B5
:1019C0009648006820F44070D4F894100843934976
:1019D0000860206800F40020B0F5002F26D1D4F86C
:1019E000A00030B1B0F5803F09D0B0F5003F0ED176
:1019F0000CE00021201D01F08DFF054609E00221C9
:101A000004F1240002F01EF8054602E001E0012581
:101A100000BF00BF4DB98148006820F44030D4F8C1
:101A2000A01008437D49086000E02E43206800F4C0
:101A30008020B0F5802F2DD1D4F88400B0F5801F20
:101A400006D0B0F5001F0CD0B0F5401F11D10FE04B
:101A500072482C38006840F4003070492C39086016
:101A600009E0012104F1240001F0ECFF054602E049
:101A700001E0012500BF00BF5DB96848001F006894
:101A800020F44010D4F8841008436449091F08600A
:101A900000E02E43206800F48030B0F5803F24D170
:101AA000E06C18B1B0F5803F0FD108E05B482C38EE
:101AB000006840F4003059492C39086007E00221E1
:101AC000201D01F027FF054601E0012500BF00BFF2
:101AD00055B952480C38006820F48030E16C084356
:101AE0004E490C39086000E02E43206800F0005099
:101AF000B0F1005F05D1022104F1240001F0A2FF42
:101B00000643206800F40030B0F5003F27D1E06FB5
:101B1000A0B1B0F5807F06D0B0F5007F0CD0B0F555
:101B2000407F0CD109E03D482C38006840F400307B
:101B30003A492C39086004E003E002E001E00125A5
:101B400000BF00BF55B93548001F006820F4407041
:101B5000E16F08433149091F086000E02E43206807
:101B600000F48010B0F5801F09D12C4808380068B7
:101B700020F00040216F0843284908390860206898
:101B800000F08050B0F1805F0AD1244848380068E6
:101B900020F48040D4F8B410084320494839086044
:101BA000206800F40010B0F5001F09D11B48083868
:101BB000006820F08070A16E084318490839086059
:101BC000206800F08040B0F1804F11D100BF134871
:101BD0004838006820F40040104948390860084639
:101BE0000068D4F8B81008430C494839086000BFB1
:101BF000206800F00040B0F1004F09D107480C38D0
:101C0000006820F04050216D084304490C390860F9
:101C100016B90020BDE8F0810120FBE758440258C6
:101C200070B504460D4600268D48006800F0070098
:101C3000A8420ED28A48006820F00700284388494D
:101C400008600846006800F00700A84201D00120A3
:101C500070BD207800F00200022807D1814800689A
:101C600020F00F00E16808437E490860207800F00A
:101C70000100002851D07B48006820F47060A16802
:101C80000843784908606068022807D17548183809
:101C90000068C0F34040F8B90120D9E76068032824
:101CA00007D1704818380068C0F34060A0B901201F
:101CB000CEE76068012807D16A4818380068C0F389
:101CC000002048B90120C3E7664818380068C0F30F
:101CD000800008B90120BBE762480838006820F09E
:101CE0000700616808435F4908390860FFF764F935
:101CF00006466068022811D108E0FFF75DF9801BF5
:101D000041F28831884201D90320A1E755480838BB
:101D1000006800F038001028EFD13AE0606803282E
:101D200011D108E0FFF748F9801B41F28831884261
:101D300001D903208CE74B480838006800F03800D0
:101D40001828EFD125E06068012811D108E0FFF7DD
:101D500033F9801B41F28831884201D9032077E7AB
:101D600040480838006800F038000828EFD110E03B
:101D700008E0FFF721F9801B41F28831884201D940
:101D8000032065E737480838006800F0380000286D
:101D9000EFD13348006800F00700A8420ED9304860
:101DA000006820F0070028432D49086008460068B5
:101DB00000F00700A84201D0012049E7207800F098
:101DC0000400042807D12748006820F0700021692A
:101DD000084324490860207800F00800082809D149
:101DE0002048001D006820F07000616908431D490B
:101DF000091D0860207800F01000102809D119484A
:101E0000001D006820F4E060A16908431549091D20
:101E10000860207800F02000202809D111480830FF
:101E2000006820F07000E16908430E49083108603D
:101E300000F01EF80B49096801F470614FF48072DC
:101E400092FAA2F2B2FA82F2D140074A515CC8403B
:101E5000064908600F20FFF7CFF80020F8E60000E1
:101E60000020005218440258886300080000002433
:101E700070B5012500EE905A0022012100230024B4
:101E8000DFED861AB0EE610ADFED841AB0EE611A5A
:101E90000020834D2D6805F0380535B1082D15D08B
:101EA000102D15D0182D7CD114E07D4D103D2D68DE
:101EB000C5F3401545B17A4D103D2D68C5F3C106F7
:101EC000784D25FA06F000E07648E5E07648E3E054
:101ED0007648E1E0724D18352D6805F00302704D2B
:101EE00018352D68C5F305116D4D1C352D6805F0AD
:101EF00001036B4D24352D68C5F3CC0515FB03F5A7
:101F000001EE905AF8EE611AB0EE610A22B1012A90
:101F10004FD0022A7DD16BE0614D103D2D68C5F395
:101F200040152DB35E4D103D2D68C5F3C1065D4DC6
:101F300025FA06F4B4FBF1F501EE905AB8EE612AE9
:101F4000DFED5B1AC0EE212A554D20352D68C5F313
:101F5000080501EE905AF8EE611A72EEA11AF7EE3A
:101F6000002A71EEA21A62EE211AB0EE611A1FE089
:101F70004C4DB5FBF1F501EE905AB8EE612ADFED5C
:101F80004C1AC0EE212A464D20352D68C5F30805B0
:101F900001EE905AF8EE611A72EEA11AF7EE002ADD
:101FA00000E077E071EEA21A62EE211AB0EE611A3B
:101FB0005EE03D4DB5FBF1F501EE905AB8EE612AB9
:101FC000DFED3B1AC0EE212A354D20352D68C5F3D3
:101FD000080501EE905AF8EE611A72EEA11AF7EEBA
:101FE000002A71EEA21A62EE211AB0EE611A3FE0E9
:101FF0002E4DB5FBF1F501EE905AB8EE612ADFEDFA
:102000002C1AC0EE212A264D20352D68C5F308056F
:1020100000E00EE001EE905AF8EE611A72EEA11A9D
:10202000F7EE002A71EEA21A62EE211AB0EE611AE2
:102030001EE01D4DB5FBF1F501EE905AF8EE612A58
:10204000DFED1B1A80EE212A154D20352D68C5F3D2
:10205000080501EE905AF8EE611A72EE211AB7EEF9
:10206000002A71EE821A62EEA11AB0EE611A00BF68
:1020700000BF0B4D20352D68C5F346256D1C00EEC5
:10208000905AF8EE601A81EE212AFCEEC21A11EE87
:10209000900A01E0044800BF00BF70BD00000000CE
:1020A000104402580090D00300093D0040787D01A3
:1020B0000000004670B504460025207800F00100BD
:1020C000002872D0F948006800F0380010280CD0C1
:1020D000F648006800F03800182812D1F34818308C
:1020E000006800F0030002280BD1F04810380068A7
:1020F000C0F3404000286DD0606800286AD10120FC
:1021000070BD00BF6068B0F5803F08D1E748103867
:10211000006840F48030E549103908602EE06068BE
:1021200068B9E2481038006820F48030DF4910397F
:1021300008600846006820F4802008601EE060689F
:10214000B0F5A02F0DD1D9481038006840F4802098
:10215000D649103908600846006840F480300860AD
:102160000CE0D2481038006820F48030CF49103994
:1021700008600846006820F48020086000BF60689E
:10218000A0B1FEF719FF054608E0FEF715FF401B5A
:1021900041F28831884201D90320B1E7C3481038A1
:1021A0000068C0F340400028EFD013E0FEF704FFC2
:1021B000054608E0FEF700FF401B41F288318842E7
:1021C00001D903209CE7B94810380068C0F34040AB
:1021D0000028EFD1207800F00200022847D1B34850
:1021E000006800F0380058B1B048006800F03800CE
:1021F00018283ED1AD481830006800F00300B8BB85
:10220000AA4810380068C0F3800018B1E06808B927
:10221000012075E7A5481038006820F01900E16832
:102220000843A24910390860FEF7C6FE054606E0DD
:10223000FEF7C2FE401B022801D9032060E79B483D
:1022400010380068C0F380000028F1D097480C389F
:10225000006820F47C304FF47C3292FAA2F2B2FA99
:1022600082F221699140084390490C3908604AE0A4
:10227000FFE7E06868B38D481038006820F0190067
:10228000E1680843894910390860FEF795FE054664
:1022900006E0FEF791FE401B022801D903202FE73C
:1022A000824810380068C0F380000028F1D07F48D1
:1022B0000C38006820F47C304FF47C3292FAA2F2A1
:1022C000B2FA82F221699140084378490C390860DA
:1022D00019E076481038006820F001007349103981
:1022E0000860FEF769FE054606E0FEF765FE401B46
:1022F000022801D9032003E76C4810380068C0F3B6
:1023000080000028F1D1207800F01000102877D14B
:102310006648006800F0380008280CD06348006860
:1023200000F03800182823D160481830006800F009
:10233000030001281CD15D4810380068C0F300205C
:1023400020B1E069802801D00120D9E657480C3837
:10235000006820F0F8404FF0F84292FAA2F2B2FA88
:1023600082F2216A9140084350490C39086047E0E5
:10237000E06958B34D481038006840F080004B4980
:1023800010390860FEF718FE054606E0FEF714FE59
:10239000401B022801D90320B2E6444810380068E7
:1023A000C0F300200028F1D040480C38006820F02D
:1023B000F8404FF0F84292FAA2F2B2FA82F2216AA1
:1023C0009140084339490C39086019E03748103802
:1023D000006820F08000354910390860FEF7ECFDF8
:1023E000054606E0FEF7E8FD401B022801D9032060
:1023F00086E62E4810380068C0F300200028F1D18E
:10240000207800F00800082836D16069D0B127484C
:102410006430006840F00100244964310860FEF730
:10242000CBFD054606E0FEF7C7FD401B022801D99B
:10243000032065E61D4864300068C0F340000028B2
:10244000F1D019E019486430006820F00100174904
:1024500064310860FEF7B0FD054606E0FEF7ACFD0E
:10246000401B022801D903204AE610486430006866
:10247000C0F340000028F1D1207800F0200020288F
:1024800034D1A069D8B109481038006840F48050B0
:10249000064910390860FEF78FFD054608E0FEF793
:1024A0008BFD401B022803D9032029E61044025863
:1024B000AF480068C0F340300028F0D016E0AC48C8
:1024C000006820F48050AA490860FEF775FD0546B3
:1024D00006E0FEF771FD401B022801D903200FE63C
:1024E000A3480068C0F340300028F2D1207800F003
:1024F000040004287DD19F48006840F480709D4905
:102500000860FEF759FD054606E0FEF755FD401B45
:10251000642801D90320F3E59648006800F4807030
:102520000028F2D000BFA068012808D19048703080
:10253000006840F001008E49703108602DE0A0680D
:1025400068B98B487030006820F00100884970310C
:1025500008600846006820F0040008601DE0A068DC
:1025600005280DD182487030006840F00400804991
:10257000703108600846006840F0010008600CE017
:102580007B487030006820F00100794970310860A4
:102590000846006820F00400086000BFA068A0B1F1
:1025A000FEF70AFD054608E0FEF706FD401B41F276
:1025B0008831884201D90320A2E56D487030006857
:1025C000C0F340000028EFD013E0FEF7F5FC05460D
:1025D00008E0FEF7F1FC401B41F28831884201D946
:1025E00003208DE5624870300068C0F34000002889
:1025F000EFD1606A00287CD05D481030006800F0A0
:102600003800182876D0606A022874D158480068CB
:1026100020F0807056490860FEF7CEFC054606E0C3
:10262000FEF7CAFC401B022801D9032068E5504888
:102630000068C0F340600028F2D100BFD4E90A105E
:1026400041EA00104A492831096840F2F3329143C7
:102650000843474928310860208E401EC0F3080017
:10266000616B491E4FF47E4202EA41210843218FEB
:10267000491ED20102EA014108433C21095D491E7D
:10268000120202EA0161084339493031086000BF93
:10269000081D00684FF6F87188434FF6F87292FAF9
:1026A000A2F2B2FA82F2A16C91400843304934316F
:1026B00008602F482C30006820F00C00216C084383
:1026C0002B492C3108600846006820F00200616C3C
:1026D000084327492C3108600846006840F48030E0
:1026E00008600846006840F400300860084600684A
:1026F00002E03BE038E01FE040F48020086008463C
:10270000006840F0010008601948006840F08070DF
:1027100017490860FEF750FC054606E0FEF74CFC42
:10272000401B022801D90320EAE411480068C0F3E5
:1027300040600028F2D019E00D48006820F0807059
:102740000B490860FEF738FC054606E0FEF734FC4E
:10275000401B022801D90320D2E405480068C0F3D9
:1027600040600028F2D101E00120C9E40020C7E464
:10277000004402580048025870B50446002500265F
:102780000CB9012070BD606A00B900BFA06AB0F545
:10279000800F00D100BF8E49206888420CD08D493F
:1027A0002068884208D08C492068884204D0E068BC
:1027B0000F2801D90120E5E7204601F06DFB064610
:1027C00083492068884209D082492068884205D020
:1027D00081492068884201D0082E0DD87C492068A4
:1027E000884207D07B492068884203D07A49206814
:1027F000884203D1102E01D90120C3E7A06AB0F5A9
:10280000800F1DD17249206888420DD0714920681F
:10281000884209D070492068884205D0206BB0F505
:10282000702F01D90120ADE7206B10B9A0890504F4
:1028300000E0256BE068B0EB154F01D90120A1E75E
:1028400094F8810028B9002084F88000204600F028
:10285000C5F8022084F881002068006820F001009B
:1028600021680860A069B0F1806F0BD16068B0F595
:10287000800F07D1A06B28B92068006840F4805011
:1028800021680860A16AE06908432843E16B0843B6
:10289000E168084321688860616A606B0843A16B46
:1028A0000843A16908432169084361690843216A13
:1028B000084361680843E16C0843A1680843A16CC0
:1028C0000843A16D08432168C860A06AB0F5800F75
:1028D0004DD1206C012806D12068006840F40040EA
:1028E0002168086005E02068006820F40040216845
:1028F0000860606C012806D12068006840F48040C0
:102900002168086005E02068006820F480402168A4
:1029100008602F49206888420AD02E4920688842E2
:1029200006D02D492068884202D0B5F5702F0ED010
:1029300027492068884207D026492068884203D06A
:1029400025492068884209D1B5F5F81F06D12068CD
:10295000006840F400502168086005E020680068C5
:1029600020F40050216808602168E06A086460680B
:1029700088B9A06A38B92068806820F4C05040F453
:102980000060216888602068806820F4C06040F49E
:102990008060216888602068006D20F00100216857
:1029A0000865606800F48000B0F5800F07D12068EA
:1029B000C06820F00040616D08432168C8600020B5
:1029C000C4F88400012084F881000020DAE60000C9
:1029D0000030014000380040003C004010B5B6B067
:1029E000044600BF1A48006840F002001849086019
:1029F0000846006800F00200019000BF00BF00BF61
:102A000013480830006840F48040114908310860DC
:102A10000846006800F48040019000BF00BF4FF4FA
:102A2000805002900020199002A8FEF75DFB4FF441
:102A30006040319002203290012033900320349086
:102A40000520359031A90348FEF78AF936B010BD4C
:102A5000E0440258000402582DE9F84F0446884625
:102A600091461D460A9E0027BA4600BF94F8800092
:102A7000012802D10220BDE8F88F012084F88000EF
:102A800000BFFEF799FA074694F88100012812D09A
:102A90006068B0F5800F05D1A06818B994F881007E
:102AA000042808D04FF0020A00BF002084F88000FC
:102AB00000BF5046DFE7B8F1000F03D0B9F1000FB7
:102AC00000D045B94FF0010A00BF002084F8800013
:102AD00000BF5046CFE794F88100042802D00520BB
:102AE00084F881000020C4F88400C4F86490A4F83D
:102AF0006A50A4F86850C4F85C80A4F86250A4F846
:102B0000605020676067206840686FF30F002843BB
:102B1000216848602068006840F001002168086072
:102B20006068B0F5800F05D12068006840F400703F
:102B300021680860E0680F284CD942E0B4F86200D0
:102B400088B12068406900F0020002280BD1E06DD6
:102B5000006821680862E06D001DE065B4F862005D
:102B6000401EA4F86200B4F86A0088B12068406989
:102B700048F20801084058B12068006B616E086097
:102B8000606E001D6066B4F86A00401EA4F86A001A
:102B9000701CB0B1FEF710FAC01BB04211D3204632
:102BA00001F0FCF800BF002084F8800000BFD4F8DA
:102BB000840040F48070C4F88400012084F881000F
:102BC00059E7B4F862000028B8D1B4F86A000028C8
:102BD000B4D10FE1E068072871D966E0B4F862006B
:102BE00020B32068406900F0020002281ED1B4F82A
:102BF000620001280ED9E06B60B1E06D00682168C9
:102C00000862E06D001DE065B4F86200801EA4F863
:102C100062000BE0E06D008821680884E06D801C94
:102C2000E065B4F86200401EA4F86200B4F86A00DF
:102C300010B32068406900F46040E8B12068406942
:102C400000F4004060B12068006B616E0860606E47
:102C5000001D6066B4F86A00801EA4F86A000BE0EC
:102C60002068008E616E0880606E801C6066B4F81B
:102C70006A00401EA4F86A00701CB0B1FEF79CF90F
:102C8000C01BB04211D3204601F088F800BF0020DD
:102C900084F8800000BFD4F8840040F48070C4F849
:102CA0008400012084F88100E5E6B4F86200002881
:102CB00094D1B4F86A00002890D19BE0FFE790E03F
:102CC000B4F8620058B32068406900F0020002289E
:102CD00033D1B4F8620003280FD9E06B40280CD937
:102CE000E06D006821680862E06D001DE065B4F8E1
:102CF0006200001FA4F862001FE0B4F8620001281F
:102D00000ED9E06B60B1E06D008821680884E06D49
:102D1000801CE065B4F86200801EA4F862000CE03C
:102D2000E06D0078216881F82000E06D401CE065CE
:102D3000B4F86200401EA4F86200B4F86A0048B318
:102D40002068406900F4604020B32068406900F4C6
:102D5000004060B12068006B616E0860606E001D0D
:102D60006066B4F86A00001FA4F86A0020E02068DA
:102D7000406900F4C040B0F5005F0CD92068008EB7
:102D8000616E0880606E801C6066B4F86A00801E08
:102D9000A4F86A000CE0206890F83000616E0870BA
:102DA000606E401C6066B4F86A00401EA4F86A00B9
:102DB000701CB0B1FEF700F9C01BB04211D3204621
:102DC00000F0ECFF00BF002084F8800000BFD4F8C2
:102DD000840040F48070C4F88400012084F88100ED
:102DE00049E6B4F8620000287FF46AAFB4F86A00DC
:102DF0000028F9D13B46002208212046009601F028
:102E000058F828B1D4F8840040F02000C4F88400B9
:102E1000204600F0C3FF00BF002084F8800000BF00
:102E2000012084F88100D4F8840008B1012022E652
:102E3000002020E6042808D14FF0E021096941F084
:102E400004014FF0E022116107E04FF0E021096931
:102E500021F004014FF0E0221161704770B5044683
:102E60002546681EB0F1807F01D301200FE0681E67
:102E70004FF0E02148610F214FF0FF3001F0A6FC38
:102E800000204FF0E021886107200861002070BD1C
:102E900000BFFEE770B5044618484088401E83B264
:102EA00016480088401E82B20021084600F086FBCA
:102EB00000224FF400611248FEF778F80122202129
:102EC0000F48FEF773F800250DE0002606E02012FB
:102ED00000F054FFE0B200F051FF761C0748008874
:102EE000B042F4D86D1C05484088A842EDD80122B4
:102EF000D1020348FEF75AF870BD000028000024F4
:102F0000000C0258F8B504460D4616461F46054803
:102F100000883B46324629460090204600F08AF859
:102F2000F8BD0000220000242DE9FF4F85B0814646
:102F30008A460020049003900798A0EB09050898A2
:102F4000A0EB0A06CDF80890CDF804A0002D01DD15
:102F5000012705E00DB9002702E04FF0FF376D4271
:102F6000002E02DD4FF0010806E016B94FF0000810
:102F700002E04FF0FF387642B54201DD2C4600E01A
:102F800034464FF0000B21E0019A91B2029A90B2C0
:102F900000F022F8049828440490039830440390E9
:102FA0000498A04205DD0498001B04900298384460
:102FB00002900398A04205DD0398001B039001983E
:102FC000404401900BF101001FFA80FB601C834517
:102FD000DADD09B0BDE8F08F70B504460D4629462C
:102FE000204600F0E1FA0248008800F021FC70BDA4
:102FF000220000242DE9F04104460D4616461F46E6
:103000002B46324629462046FFF78EFF3B46224696
:1030100029462046FFF788FF3B4632463946204680
:10302000FFF782FF3B46324629463046FFF77CFFDA
:10303000BDE8F0812DE9F05F04460D4616461F46B7
:10304000301B401C1FFA80FA781B401C1FFA80FBC3
:103050003B4632462946204600F0B0FA4FF00008C1
:103060000FE04FF0000906E00A9800F0E1FB09F1DB
:1030700001001FFA80F9D145F6DB08F101001FFAC3
:1030800080F8D845EDDB07484088401E83B20548EC
:103090000088401E82B20021084600F08FFABDE889
:1030A000F09F00002800002400B587B000BF104842
:1030B000006840F008000E4908600846006800F00B
:1030C0000800019000BF00BF4FF4C35002900120E0
:1030D000039004900320059002A90648FDF740FEE6
:1030E00001224FF4C3510348FDF760FF07B000BD54
:1030F000E0440258000C025810B500F00DFEFFF736
:10310000D3FF00F03BFAEF2000F02EFBEB2000F0A5
:103110002BFB142000F010FBFE2000F025FBEF201D
:1031200000F022FBEB2000F01FFB142000F004FB5A
:10313000842000F019FB402000F0FEFA852000F00A
:1031400013FBFF2000F0F8FA862000F00DFBFF20B3
:1031500000F0F2FA872000F007FBFF2000F0ECFA05
:10316000882000F001FB0A2000F0E6FA892000F038
:10317000FBFA212000F0E0FA8A2000F0F5FA0020A6
:1031800000F0DAFA8B2000F0EFFA802000F0D4FA99
:103190008C2000F0E9FA012000F0CEFA8D2000F03A
:1031A000E3FA012000F0C8FA8E2000F0DDFAFF20DB
:1031B00000F0C2FA8F2000F0D7FAFF2000F0BCFA2E
:1031C000B62000F0D1FA002000F0B6FA202000F07E
:1031D000B3FA362000F0C8FA082000F0ADFA3A2021
:1031E00000F0C2FA052000F0A7FA902000F0BCFA27
:1031F000082000F0A1FA082000F09EFA082000F054
:103200009BFA082000F098FABD2000F0ADFA0620E5
:1032100000F092FABC2000F0A7FA002000F08CFA2F
:10322000FF2000F0A1FA602000F086FA012000F0F3
:1032300083FA042000F080FAC32000F095FA1320EE
:1032400000F07AFAC42000F08FFA132000F074FA2C
:10325000C92000F089FA222000F06EFABE2000F0AA
:1032600083FA112000F068FAE12000F07DFA1020C6
:1032700000F062FA0E2000F05FFADF2000F074FA2E
:10328000212000F059FA0C2000F056FA022000F03C
:1032900053FAF02000F068FA452000F04DFA0920BA
:1032A00000F04AFA082000F047FA082000F044FA3B
:1032B000262000F041FA2A2000F03EFAF12000F02A
:1032C00053FA432000F038FA702000F035FA7220EB
:1032D00000F032FA362000F02FFA372000F02CFAF6
:1032E0006F2000F029FAF22000F03EFA452000F0AD
:1032F00023FA092000F020FA082000F01DFA082027
:1033000000F01AFA262000F017FA2A2000F014FA2A
:10331000F32000F029FA432000F00EFA702000F0AC
:103320000BFA722000F008FA362000F005FA372078
:1033300000F002FA6F2000F0FFF9ED2000F014FA1F
:103340001B2000F0F9F90B2000F0F6F9AE2000F098
:103350000BFA772000F0F0F9CD2000F005FA632099
:1033600000F0EAF9702000F0FFF9072000F0E4F91E
:10337000072000F0E1F9042000F0DEF90E2000F053
:10338000DBF90F2000F0D8F9092000F0D5F907206B
:1033900000F0D2F9082000F0CFF9032000F0CCF9BA
:1033A000E82000F0E1F9342000F0C6F9622000F0D6
:1033B000DBF9182000F0C0F90D2000F0BDF97120F4
:1033C00000F0BAF9ED2000F0B7F9702000F0B4F980
:1033D000702000F0B1F9182000F0AEF90F2000F0D5
:1033E000ABF9712000F0A8F9EF2000F0A5F97020EA
:1033F00000F0A2F9702000F09FF9632000F0B4F90A
:10340000182000F099F9112000F096F9712000F0D1
:1034100093F9F12000F090F9702000F08DF9702000
:1034200000F08AF9182000F087F9132000F084F9E1
:10343000712000F081F9F32000F07EF9702000F097
:103440007BF9702000F078F9642000F08DF92820D5
:1034500000F072F9292000F06FF9F12000F06CF90A
:10346000012000F069F9F12000F066F9002000F079
:1034700063F9072000F060F9662000F075F93C2040
:1034800000F05AF9002000F057F9CD2000F054F96F
:10349000672000F051F9452000F04EF9452000F07A
:1034A0004BF9102000F048F9002000F045F9002009
:1034B00000F042F9002000F03FF9672000F054F9D5
:1034C000002000F039F93C2000F036F9002000F02F
:1034D00033F9002000F030F9002000F02DF9012030
:1034E00000F02AF9542000F027F9102000F024F908
:1034F000322000F021F9982000F01EF9742000F02D
:1035000033F9102000F018F9852000F015F980201B
:1035100000F012F9002000F00FF9002000F00CF983
:103520004E2000F009F9002000F006F9982000F084
:103530001BF93E2000F000F9072000F0FDF83520CF
:1035400000F012F9212000F00FF9112000F00CF921
:10355000782001F0A1F9292000F006F9002000F000
:103560002DF9012240210448FDF720FD4FF6FF70A0
:10357000FFF790FC10BD0000000C025810B50022AF
:103580004FF480510748FDF711FD142001F084F934
:10359000012211030348FDF709FD142001F07CF915
:1035A00010BD0000000C025870B504460D462B46B5
:1035B00022462946204600F001F870BD2DE9F04171
:1035C00004460D4616461F461149887A00F0CCF88D
:1035D000201200F0B1F8E0B200F0AEF8301200F0C6
:1035E000ABF8F0B200F0A8F80949087B00F0BCF88D
:1035F000281200F0A1F8E8B200F09EF8381200F0AE
:103600009BF8F8B200F098F800F0C6F8BDE8F08139
:10361000280000242DE9FF4F83B081468A46934657
:10362000DDE91064404800880290A6F12000C6B28F
:1036300004EBD47009EB6000401E82B20AEB040078
:10364000401E83B2514648460194FFF7B7FF1298D7
:1036500050BB002525E00C2C07D106EB4600334972
:1036600001EB800010F8058004E0314800EB061003
:1036700010F8058000270DE008F0010018B1584649
:1036800000F0D6F802E0069800F0D2F84FEA680899
:10369000781CC7B204EBD471B7EB610FECDB681C8C
:1036A000C5B2A542D7DB2DE0002529E00C2C07D1BF
:1036B00006EB46001D4901EB800010F8058004E090
:1036C0001B4800EB061010F80580002711E0164893
:1036D000A0F800B008F0010038B10AEB050291B281
:1036E00009EB070290B2FFF777FC4FEA6808781CF5
:1036F000C7B204EBD471B7EB610FE8DB681CC5B24D
:10370000A542D3DB0849029808800A484088401E39
:1037100083B208480088401E82B200210846FFF7A5
:103720004DFF07B0BDE8F08F22000024664C000872
:10373000DA5000082800002410B5044600224FF497
:1037400000610848FDF732FC012220210548FDF701
:103750002DFC204600F012FB0122D1020148FDF7AA
:1037600025FC10BD000C025810B5044600224FF491
:1037700000610848FDF71AFC002220210548FDF7EA
:1037800015FC204600F0FAFA0122D1020148FDF7AB
:103790000DFC10BD000C025810B50249087AFFF765
:1037A000E3FF10BD2800002470B505460C462846EE
:1037B000FFF7DAFFE0B2FFF7BFFF70BD10B50446B8
:1037C0002A201A4948812B2088812C20088134B175
:1037D000012C0DD0022C14D0032C24D11AE0F0209F
:1037E00012490880488008213620FFF7DDFF1BE0E2
:1037F000F0200E490880488068213620FFF7D4FF6A
:1038000012E0F020094908804880C8213620FFF7DF
:10381000CBFF09E0F020054908804880A821362028
:10382000FFF7C2FF00E000BF00BF10BD280000246A
:1038300010B5044600224FF400610A48FDF7B6FBBC
:10384000012220210748FDF7B1FB201200F096FA73
:10385000E0B200F093FA0122D1020248FDF7A6FB84
:1038600010BD0000000C0258704770470EB523A031
:10387000FCF78AFE254828231A465A210090322058
:10388000FDF710FA0120102121A24FF6E073CDE9D7
:10389000002102901F2287213E2000F02BFB1B48B5
:1038A00028231A465A2100906420FDF7FBF90120D5
:1038B000102117A24FF6E073CDE9002102901F22DC
:1038C0008721702000F016FB104828231A465A2141
:1038D00000909620FDF7E6F9012010210CA24FF68A
:1038E000E073CDE9002102901F228721A22000F081
:1038F00001FB4FF4966000F0CFFF0EBDCDBCC6AC0F
:10390000CFD4CABEB2E2CAD400000000C863000827
:10391000515100002DE9F04104460E460027484869
:10392000006800F00300032802D10120BDE8F08107
:1039300043482838006820F08060414928390860F1
:10394000FDF73AFB054606E0FDF736FB401B022873
:1039500001D90320EAE73A4828380068C0F3C0607C
:103960000028F1D100BF3648006820F47C3021687F
:1039700040EA013032490860A088401EC0F30800C8
:10398000A168491E4FF47E4202EA41210843A18901
:10399000491ED20102EA01410843217C491E12025C
:1039A00002EA0161084326491031086000BF24483B
:1039B000001D006820F0C000616908432049091D0E
:1039C00008600846006820F02000A16908431C49EF
:1039D000091D08602EB90846006840F40020086000
:1039E00012E0012E08D11648001D006840F4801036
:1039F0001349091D086007E01148001D006840F4E4
:103A000000100F49091D08600D482838006840F073
:103A100080600B4928390860FDF7CEFA054606E0BC
:103A2000FDF7CAFA401B022801D903207EE70448AB
:103A300028380068C0F3C0600028F1D0384675E728
:103A4000284402582DE9F04104460E460027484814
:103A5000006800F00300032802D10120BDE8F081D6
:103A600043482838006820F08050414928390860D0
:103A7000FDF7A2FA054606E0FDF79EFA401B022874
:103A800001D90320EAE73A4828380068C0F34070BB
:103A90000028F1D100BF3648006820F07C702188F2
:103AA00040EA015032490860A088401EC0F3080077
:103AB000A168491E4FF47E4202EA41210843A189D0
:103AC000491ED20102EA01410843217C491E12022B
:103AD00002EA0161084326491831086000BF244802
:103AE000001D006820F44060616908432049091DF9
:103AF00008600846006820F40070A16908431C496A
:103B0000091D08602EB90846006840F4800008606E
:103B100012E0012E08D11648001D006840F4000094
:103B20001349091D086007E01148001D006840F0B6
:103B300080700F49091D08600D482838006840F062
:103B400080500B4928390860FDF736FA054606E033
:103B5000FDF732FA401B022801D903207EE7044812
:103B600028380068C0F340700028F1D0384675E767
:103B70002844025810B588B000241B4B0FCBCDE968
:103B80000623CDE9040100BF26E02046FFF716FE1C
:103B900016A0FCF7F9FC0121102204A850F824001B
:103BA0004FF6E073CDE9012100901F222321282048
:103BB00000F0A0F9114828231A4637210090184632
:103BC000FDF770F84FF47A7000F066FE4FF47A70EB
:103BD00000F062FE601CC4B2042CD6DB0020FFF7AC
:103BE000EDFD08B010BD000048700008C6C1C4BBA0
:103BF000D0FDD7AAB2E2CAD400000000C863000812
:103C000010B50023234C236000BF00BF00BFBFF3EB
:103C10004F8F00BF00BF00BF231F1868C0F34E3195
:103C200000BFC0F3C90200BF43F6E07303EA4113CB
:103C30004FF0404404EA82742343174C236000BFD2
:103C400000BF131EA2F10102EED10B1EA1F1010172
:103C5000E7D100BF00BF00BFBFF34F8F00BF00BF61
:103C600000BF0C4B703B1B6843F48033094C703C25
:103C7000236000BF00BF00BFBFF34F8F00BF00BF76
:103C800000BF00BF00BF00BFBFF36F8F00BF00BF0A
:103C900000BF10BD84ED00E060EF00E000BF00BF9A
:103CA00000BFBFF34F8F00BF00BF00BF00BF00BF0A
:103CB00000BFBFF36F8F00BF00BF00BF00201449DB
:103CC000086000BF00BF00BFBFF34F8F00BF00BF41
:103CD00000BF00BF00BF00BFBFF36F8F00BF00BFBA
:103CE00000BF0C48006840F400300A49086000BF7B
:103CF00000BF00BFBFF34F8F00BF00BF00BF00BFBA
:103D000000BF00BFBFF36F8F00BF00BF00BF704791
:103D100050EF00E014ED00E010B5164816490860B9
:103D20004FF4800048600021134881600721C16082
:103D30004FF00071016149104161890081610021EA
:103D400041634FF0004141658908C1610021016272
:103D5000416281620721C162FEF70EFD06480068DC
:103D6000006840F00100044909680860FF2000F085
:103D700005F810BD003800403800002401B582B0BD
:103D80004FF47A70012301AA02A900900248FEF7BD
:103D900063FE9DF804000EBD3800002402685169DE
:103DA0000268926942F0080203689A6102689269A7
:103DB00042F0100203689A610268126822F0010260
:103DC00003681A600268126940F26B339A43036811
:103DD0001A610268926822F4404203689A6090F87F
:103DE0008120042A0ED001F020025AB1D0F884209C
:103DF00042F08002C0F884200268926942F02002FA
:103E000003689A6190F88120032A21D001F04002D2
:103E10005AB1D0F8842042F00402C0F8842002682D
:103E2000926942F0400203689A61826AB2F5800F9B
:103E30000ED101F080025AB1D0F8842042F0020283
:103E4000C0F884200268926942F0800203689A6197
:103E500001F400725AB1D0F8842042F00102C0F897
:103E600084200268926942F4007203689A6101F446
:103E700080725AB1D0F8842042F00802C0F8842041
:103E80000268926942F4807203689A610022A0F885
:103E90006220A0F86A20704710B501460124C86B63
:103EA00004EB5013C868421CD01DC20802FB03F08B
:103EB00010BD2DE9F04106460C4617469846069D72
:103EC0000BE0681C48B12DB1FDF776F8A0EB0800B7
:103ED000A84202D90320BDE8F08130684069204043
:103EE000A04201D1012000E00020B842E9D000202A
:103EF000F1E770472DE9FF4F83B0064688469146AB
:103F0000DDE91147109DB2464FF0000B71E0BBF1A7
:103F1000000F40D104EBD471384A1288A2EB610142
:103F2000B14204DB35494988091B414502DA07B033
:103F3000BDE8F08F2878802802DD4FF0010B58E0B3
:103F400028780D2806D108EB04001FFA80F85646A1
:103F50006D1C1EE0102C0DDD102128788DE88300EB
:103F60004A4641463046069BFFF754FB06F10800DF
:103F700086B20EE028788DE891004A4641463046E8
:103F8000069BFFF747FB204604EBD07106EB61016F
:103F90008EB26D1C2DE019480088001BB04204DB76
:103FA00016484088001B404500DAC0E74FF0000B80
:103FB000202C08D1CDE900574A4641463046069BA1
:103FC000FCF7E0FD12E0182C08D1CDE900574A4675
:103FD00041463046069BFCF749FD07E0CDE9005716
:103FE0004A4641463046069BFCF7BCFCAD1C3019E6
:103FF00086B2287800288AD100BF98E728000024DC
:104000002DE9F0419CB080460C4615461E4600271F
:104010003748006820F004003549086000BF0020E0
:10402000009033480C30006840F4404030490C3177
:1040300008600846006800F44040009000BF00BFE0
:1040400000BF2B480C30006800F40050B0F5005F52
:10405000F7D1012001900004029000200490089004
:1040600002200A9002210B91CDF834800C940E9519
:104070000F96002112910821119101A8FEF71AF85C
:1040800007460FB100BFFEE73F20149003201590B4
:1040900000201690082017904020199000011A90D7
:1040A0004020189050201B90022114A8FDF7B8FD65
:1040B00007460FB100BFFEE70E48006840F08000E1
:1040C0000C49086000BF0B48F430006840F0020063
:1040D0000849F43108600846006800F002000090CA
:1040E00000BF00BFFCF732FE1CB0BDE8F08100004D
:1040F0000C4802580044025810B5FCF763FF10BD8D
:104100002048006840F470001E4908601E4800689E
:1041100040F001001C49086000201B491031086074
:1041200019480068194908401749086000201649D5
:1041300018310860091D0860091D086012492831FE
:104140000860091D0860091D0860091D0860091D37
:104150000860091D0860091D0860091D08600A48FB
:10416000006820F48020084908600020064960317A
:104170000860012006490860C006024980390860CD
:104180007047000088ED00E0004402587FEDF6EA39
:1041900008810051F8B5002436A0FCF7F5F94FF678
:1041A000FF70009037484088203883B23548008837
:1041B000401E82B21E210020FEF73CFF00BF1DE022
:1041C0000020304B00905D8805EBD5735B10193BE8
:1041D00004EB840707EBC407D9192A4B1E8806EBAA
:1041E000D6735B10283BC4EB0417D819264B33F861
:1041F00014200F2300F080FB601CC4B2052CDFDB11
:1042000040F2DC5000F048FB4FF6FF7000901D4874
:104210004088203883B21B480088401E82B21E218D
:104220000020FEF707FF00241DE00120154B009041
:104230005D8805EBD5735B10193B04EB840707EB36
:10424000C407D9190F4B1E8806EBD6735B10283BA9
:10425000C4EB0417D8190C4B33F814200F2300F0CB
:104260004BFB601CC4B2052CDFDB40F2DC5000F0DD
:1042700013FBF8BD475549BBADD4B2CCEEB3E4B2A5
:10428000E2CAD40028000024080000240EB54FF62E
:10429000FF7000904E484088401E83B24C48008812
:1042A000401E82B200210846FEF7C4FE0120102104
:1042B00048A24FF6E073CDE90021029000221E21B2
:1042C0002820FFF717FE4FF47A7000F0E5FA00207F
:1042D00000903F484088401E83B23D480088401E01
:1042E00082B200210846FEF7A5FE012010213BA264
:1042F0004FF6E073CDE9002102904FF6FF721E21C8
:104300002820FFF7F7FD4FF47A7000F0C5FA4FF45C
:10431000784000902E484088401E83B22C48008888
:10432000401E82B200210846FEF784FE01201021C3
:104330002CA24FF6E073CDE9002102901F221E212E
:104340002820FFF7D7FD4FF4487000F0A5FA4FF48E
:10435000FC6000901E484088401E83B21C480088C4
:10436000401E82B200210846FEF764FE01201021A3
:104370001DA24FF6E073CDE9002102901F221E21FD
:104380002820FFF7B7FD4FF4487000F085FA1F2092
:1043900000900F484088401E83B20D480088401EA0
:1043A00082B200210846FEF745FE0120102110A22E
:1043B0004FF6E073CDE9002102904FF478421E21C0
:1043C0002820FFF797FD4FF4487000F065FA0EBD06
:1043D000280000245748495445000000424C4143FE
:1043E0004B00000052454400475245454E00000036
:1043F000424C5545000000002DE9F843002464A01C
:10440000FCF7C2F84FF6FF700090654840882038EE
:1044100083B263480088401E82B21E210020FEF74E
:1044200009FE00BF4AE05F4830F814005E4908808A
:10443000DFF86CC1BCF8025005EBD57C4FEA6C0C80
:10444000ACF1280C04EB840909EBC409CC440CF151
:104450001E0C1FFA8CF3DFF848C1BCF8006006EBB5
:10446000D67C4FEA6C0CACF1280C0CEB041C0CF164
:104470001E0C1FFA8CF2DFF828C1BCF8027007EBA3
:10448000D77C4FEA6C0CACF1280C04EB840909EBE7
:10449000C409CC441FFA8CF1DFF804C1BCF80080D9
:1044A00008EBD87C4FEA6C0CACF1280C0CEB041C2C
:1044B0001FFA8CF0FEF79EFD601CC4B2052CB2DB27
:1044C00040F2DC5000F0E8F94FF6FF7000903448FD
:1044D0004088203883B232480088401E82B21E21B4
:1044E0000020FEF7A7FD00244AE02E4830F8140013
:1044F0002D490880DFF8A8C0BCF8025005EBD57C38
:104500004FEA6C0CACF1280C04EB840909EBC409EC
:10451000CC440CF11E0C1FFA8CF3DFF884C0BCF8FD
:10452000007007EBD77C4FEA6C0CACF1280C0CEB5D
:10453000041C0CF11E0C1FFA8CF2DFF864C0BCF8EE
:10454000028008EBD87C4FEA6C0CACF1280C04EB31
:10455000840909EBC409CC441FFA8CF1DFF840C090
:10456000BCF8006006EBD67C4FEA6C0CACF1280C72
:104570000CEB041C1FFA8CF0FEF7C4FC601CC4B2E8
:10458000052CB2DB40F2DC5000F086F9BDE8F88380
:10459000475549BED8D0CECCEEB3E4B2E2CAD4007F
:1045A0002800002408000024220000242DE9FC5FDC
:1045B00000247AA0FBF7E8FF4FF6FF7000907B48DD
:1045C0004088203883B279480088401E82B21E217C
:1045D0000020FEF72FFD00BF60E0754830F81400A2
:1045E000744908807148458805EBD57040100C3837
:1045F00004EB440101EBC401084481B26B48068816
:1046000006EBD67040100B38C4EB0412104480B295
:10461000DFF898C1CDE90001BCF8027007EBD77C48
:104620004FEA6C0CACF1270C04EB440B0BEBC40B06
:10463000DC441FFA8CF3DFF874C1BCF8008008EB8F
:10464000D87C4FEA6C0CACF11A0CC4EB041BDC44B4
:104650001FFA8CF2DFF854C1BCF8029009EBD97C48
:104660004FEA6C0CACF10C0C04EB440B0BEBC40BE1
:10467000DC441FFA8CF1DFF834C1BCF800A00AEB6F
:10468000DA7C4FEA6C0CACF1280CC4EB041BDC4464
:104690001FFA8CF0FBF7A4FF601CC4B2052C9CDB56
:1046A00040F2DC5000F0F8F84FF6FF7000903F4801
:1046B0004088203883B23D480088401E82B21E21C7
:1046C0000020FEF7B7FC002460E0394830F8140001
:1046D000384908803548458805EBD57040100C38BE
:1046E00004EB440101EBC401084481B22F48068861
:1046F00006EBD67040100B38C4EB0412104480B2A5
:10470000DFF8A8C0CDE90001BCF8027007EBD77C48
:104710004FEA6C0CACF1270C04EB440B0BEBC40B15
:10472000DC441FFA8CF3DFF884C0BCF8008008EB8F
:10473000D87C4FEA6C0CACF11A0CC4EB041BDC44C3
:104740001FFA8CF2DFF864C0BCF8029009EBD97C48
:104750004FEA6C0CACF10C0C04EB440B0BEBC40BF0
:10476000DC441FFA8CF1DFF844C0BCF800A00AEB6F
:10477000DA7C4FEA6C0CACF1280CC4EB041BDC4473
:104780001FFA8CF0FBF7E6FF601CC4B2052C9CDB23
:1047900040F2DC5000F080F8BDE8FC9F475549200E
:1047A000547269CCEEB3E4B2E2CAD400280000240B
:1047B000080000242200002400BFFEE70248006831
:1047C000C0F30220704700000CED00E010B5002897
:1047D00004DB0A07130E054A135406E00A07140EF9
:1047E000034A00F00F031B1FD45410BD00E400E087
:1047F00018ED00E02DE9F04104460D4616461F462F
:10480000DDF81880EA1991B2A21990B24246FCF77D
:104810003DFAEA1991B2A21B90B24246FCF736FA71
:10482000EA1B91B2A21990B24246FCF72FFAEA1B9A
:1048300091B2A21B90B24246FCF728FAAA1991B293
:10484000E21990B24246FCF721FAAA1991B2E21B92
:1048500090B24246FCF71AFAAA1B91B2E21990B242
:104860004246FCF713FAAA1B91B2E21B90B24246F1
:10487000FCF70CFABDE8F08102880B8803800A80FF
:104880007047000010B504460420FEF7D3FA014833
:10489000046010BD1400002430B50446002504E077
:1048A0004FF47A7000F004F86D1CA542F8D330BDC7
:1048B00070B5034600224FF0E02675690D4E36684C
:1048C00003FB06F44FF0E026B16910E04FF0E0265C
:1048D000B06988420BD0884202D20E1A324402E0FC
:1048E0002E1A0E4432440146A24200D300E0EDE706
:1048F00000BF70BD140000242DE9FF4F81B0824637
:1049000017469846DDF838B0002445464FEA48007F
:10491000C0F10306BBF1000F1FD01BE0A14608E069
:104920004B462246009750460299FFF763FF09F174
:104930000109A945F4DD002E04DA042000FB04601F
:10494000861D06E0601B042101FB006000F10A06E1
:104950006D1E641CAC42E1DD18E015E02B462246DA
:10496000009750460299FFF745FF002E04DA042015
:1049700000FB0460861D06E0601B042101FB006053
:1049800000F10A066D1E641CAC42E7DD05B0BDE80F
:10499000F08FFBF74FFDFCF721FB042302220521DA
:1049A000A020FFF72DFB4FF4C870FFF76BFFFEF759
:1049B000A3FB13E000F014F800F07EF8FFF766FCAC
:1049C000FFF71AFDFFF7E6FBFFF7F0FDFBF724FE0C
:1049D000FBF73EFDFEF74AFFFFF7CCF8EAE70000E1
:1049E0000EB525A0FBF7D0FD0120102126A21F2324
:1049F000CDE900210290DA024E210020FCF786F971
:104A0000012010211CA21F23CDE900210290DA020F
:104A10005F210020FCF77AF9012010211DA21F233D
:104A2000CDE9002102904FF4FC6270210020FCF7D8
:104A30006DF9012010211BA21F23CDE90021029056
:104A40004FF4FC6281210020FCF760F90120102165
:104A500016A21F23CDE9002102901A4692210020C0
:104A6000FCF754F940F2DC50FFF716FF40F2DC503F
:104A7000FFF712FF0EBD0000D7DBBACFB2E2CAD4F7
:104A8000B3CCD0F200000000C8ABB6AFB5E7D7D3C7
:104A900000000000312E32382220474339413031A6
:104AA00000000000323430583234300032303232BC
:104AB0002D30392D313600003EB54EF67D70FEF7B3
:104AC000E9F949490988A1F1620404EBD47149105C
:104AD00062318AB244490988A1F1620505EBD571BA
:104AE000C1F34F0055234121FBF706FD01201021A2
:104AF0003EA21F23CDE9002102904FF61F02432161
:104B00000020FCF703F938490988A1F1620404EB9D
:104B1000D471491062318AB233490988A1F1620522
:104B200005EBD571C1F34F0073235F21FBF7E4FC64
:104B30000120102131A24EF67D73CDE900210290B3
:104B4000002261211046FCF7E1F827490988A1F10C
:104B5000620404EBD471491062318AB22249098897
:104B6000A1F1620505EBD571C1F34F0091237D21C1
:104B7000FBF7C2FC0120102124A24EF67D73CDE983
:104B8000002102901F227F210020FCF7BFF8164968
:104B90000988A1F1620404EBD471491062318AB230
:104BA00011490988A1F1620505EBD571C1F34F00E8
:104BB000AF239B21FBF7A0FC0120102117A24EF68A
:104BC0007D73CDE9002102904FF478429D211020A1
:104BD000FCF79CF840F2DC50FFF75EFE4FF4FA70F1
:104BE000FFF75AFE3EBD000028000024CDBCD0CE09
:104BF000CFD4CABEB2E2CAD400000000B4BFC9AB71
:104C0000CCEEB3E4B2E2CAD400000000D6D0CEC4E9
:104C1000CFD4CABEB2E2CAD400000000CDBCC6AC3C
:104C2000CFD4CABEB2E2CAD4000000004FF0407038
:104C3000E1EE100A704701000200040006000800BF
:104C40000A000C001000200040008000000101005C
:104C500002000400060008000A000C0010002000FA
:104C60004000800000010000000000000000000083
:104C70000000000004040404040400040000001404
:104C80000A0A0000000000000000000014143F1495
:104C90000A3F0A0A000000041E1505060C14150F31
:104CA0000400000012150D0A142C2A120000000046
:104CB000040A0A1E15150936000000020201000050
:104CC0000000000000000020100808080808081074
:104CD0002000000204080808080808040200000078
:104CE0000004150E0E150400000000000404041F4B
:104CF00004040400000000000000000000000002A6
:104D0000020100000000001F000000000000000081
:104D10000000000000000002000000100808080465
:104D200004020202010000000E1111111111110EF6
:104D300000000000040604040404040E0000000047
:104D40000E1111080402011F000000000E11100CCA
:104D50001010110E00000000080C0A0A091E0818A5
:104D6000000000001F01010F1010110E00000000D4
:104D70000E09010F1111110E000000001F09080497
:104D800004040404000000000E11110E1111110E94
:104D9000000000000E1111111E10120E0000000084
:104DA00000000400000000040000000000000004F7
:104DB0000000000404000020100804020408102071
:104DC0000000000000001F00001F000000000002A3
:104DD0000408102010080402000000000E11110841
:104DE00004040004000000000E111915151D011E19
:104DF0000000000004040C0A0A1E12330000000028
:104E00000F12120E1212120F000000001E110101EB
:104E10000101110E000000000F1212121212120FE7
:104E2000000000001F120A0E0A02121F00000000FC
:104E30001F120A0E0A020207000000001C120101E4
:104E40003911120C000000003312121E121212331C
:104E5000000000001F0404040404041F00000000FC
:104E60003E080808080808090700000037120A066B
:104E70000A0A123700000000070202020202223F63
:104E8000000000001B1B1B1B151515150000000062
:104E90003B1216161A1A1217000000000E111111FB
:104EA0001111110E000000000F12120E0202020773
:104EB000000000000E1111111117190E180000004A
:104EC0000F12120E0A121237000000001E11010606
:104ED0000810110F000000001F1504040404040E44
:104EE00000000000331212121212120C0000000017
:104EF0003312120A0A0C0404000000001515150EE6
:104F00000A0A0A0A000000001B0A0A04040A0A1B13
:104F1000000000001B0A0A040404040E0000000044
:104F20001F0908040402121F0000001C04040404EA
:104F3000040404041C00000202020404080808100F
:104F40000000000E08080808080808080E00000401
:104F50000A00000000000000000000000000000047
:104F600000000000003F00040000000000000000FE
:104F7000000000000000000C121C123C00000000A9
:104F80000302020E1212120E000000000000001CAC
:104F90001202021C000000001810101C1212123C19
:104FA000000000000000000C121E021C00000000A7
:104FB0003804041E0404041E000000000000003C2D
:104FC000120C021E221C00000302020E12121237E3
:104FD00000000000040000060404040E00000000AD
:104FE0000800000C08080808080700000302023A3D
:104FF0000A0E123700000000070404040404041F12
:10500000000000000000000F15151515000000003D
:105010000000000F12121237000000000000000C08
:105020001212120C000000000000000F1212120EEB
:10503000020700000000001C1212121C10380000B1
:105040000000001B06020207000000000000001E16
:10505000020C101E000000000004040E04040418DA
:10506000000000000000001B1212123C00000000B3
:1050700000000037120A0C040000000000000015B8
:10508000150E0A0A000000000000001B0A040A1B9B
:105090000000000000000037120A0C0404030000A6
:1050A0000000001E0804041E000000180808080480
:1050B0000808080818000808080808080808080868
:1050C0000808000604040408040404040600022579
:1050D00018000000000000000000000000000000B8
:1050E00000000000000000000000000000080808A8
:1050F0000808080800001818000000486C24120076
:105100000000000000000000000000000024242433
:105110007F1212127F12121200000000081C2A2AAD
:105120000A0C1828282A2A1C080800000022251525
:1051300015152A585454542200000000000C121275
:10514000120A76252911916E00000006060403005C
:1051500000000000000000000000004020101008C7
:105160000808080808101020400000020408081071
:1051700010101010100808040200000000000808B9
:105180006B1C1C6B080800000000000000000808F1
:1051900008087F0808080800000000000000000060
:1051A00000000000000006060403000000000000EC
:1051B0000000FE00000000000000000000000000F1
:1051C00000000000000006060000000080404020B3
:1051D00020101008080404020200000000182442F5
:1051E00042424242424224180000000000080E08D9
:1051F000080808080808083E00000000003C424279
:10520000422020100804427E00000000003C424280
:10521000201820404042221C0000000000203028BE
:10522000242422227E20207800000000007E02023A
:10523000021A26404042221C0000000000382402CE
:10524000021A26424242241800000000007E222258
:10525000101008080808080800000000003C42423E
:10526000422418244242423C00000000001824421C
:10527000424264584040241C00000000000000002E
:1052800018180000000018180000000000000000BE
:105290000008000000000008080400000040201082
:1052A0000804020408102040000000000000000074
:1052B0007F0000007F0000000000000000020408E2
:1052C000102040201008040200000000003C424270
:1052D000464020101000181800000000001C225A40
:1052E000555555552D42221C000000000008081895
:1052F0001414243C224242E700000000001F222236
:10530000221E22424242221F00000000007C424234
:10531000010101010142221C00000000001F224285
:10532000424242424242221F00000000003F42121D
:10533000121E12120242423F00000000003F4212C1
:10534000121E12120202020700000000003C22227C
:10535000010101712122221C0000000000E74242ED
:1053600042427E42424242E700000000003E0808FE
:10537000080808080808083E00000000007C10101B
:105380001010101010101010110F000000772212D2
:105390000A0E0A1212222277000000000007020201
:1053A000020202020202427F00000000007736364D
:1053B00036362A2A2A2A2A6B0000000000E34646D5
:1053C0004A4A52525262624700000000001C2241C9
:1053D000414141414141221C00000000003F424246
:1053E00042423E020202020700000000001C22416D
:1053F000414141414D53321C60000000003F424298
:10540000423E1212222242C700000000007C4242AB
:10541000020418204042423E00000000007F49087C
:10542000080808080808081C0000000000E74242BD
:10543000424242424242423C0000000000E74242F7
:10544000222424141418080800000000006B4949A5
:1054500049495555362222220000000000E7422427
:1054600024181818242442E70000000000772222A4
:10547000141408080808081C00000000007E212001
:10548000101008040442423F000000780808080891
:105490000808080808080808780000000202040448
:1054A00008080810102020204040001E1010101086
:1054B00010101010101010101E00003844000000D2
:1054C00000000000000000000000000000000000DC
:1054D000000000000000000000FF000608000000BF
:1054E00000000000000000000000000000000000BC
:1054F000003C4278444242FC0000000000030202EB
:10550000021A26424242261A000000000000000053
:1055100000384402020244380000000000604040AD
:1055200040784442424264D800000000000000007D
:10553000003C427E0202423C0000000000F088086D
:10554000087E08080808083E00000000000000006F
:10555000007C22221C023C42423C0000000302026A
:10556000023A4642424242E700000000000C0C00B2
:10557000000E08080808083E000000000030300057
:105580000038202020202020221E000000030202DC
:105590000272120A1612227700000000000E08089C
:1055A000080808080808083E000000000000000085
:1055B000007F9292929292B70000000000000000DB
:1055C000003B4642424242E700000000000000006B
:1055D000003C42424242423C000000000000000009
:1055E000001B26424242221E02070000000000006B
:1055F000007844424242447840E00000000000004D
:1056000000774C040404041F0000000000000000A8
:10561000007C42023C40423E0000000000000008C6
:10562000083E0808080808300000000000000000DC
:1056300000634242424262DC0000000000000000C1
:1056400000E74224241408080000000000000000C5
:1056500000EB4949555522220000000000000000DF
:10566000007624181818246E0000000000000000C6
:1056700000E7422424141808080700000000000076
:10568000007E22100808447E000000C02020202058
:105690002010202020202020C000101010101010FA
:1056A0001010101010101010101000060808080834
:1056B000081008080808080806000C32C20000009C
:1056C00000000000000000000000C9EE000027FC00
:1056D000140414A4811042084040104017FC2040DC
:1056E000E0E0215022482C4620400040DBDA110443
:1056F0001124112411241124FD2411241124112416
:10570000112411241D24E124422402040404CAD0DB
:105710000200010000007FFC0100010001003FF8D1
:105720002108210821082108212821100100010059
:10573000C8AB000000000180024004301808600679
:105740001FF90100010001003FF801000100010004
:105750007FFEB6AF0000000000203E20007C00224B
:1057600000227F22102210221222122222422342E1
:105770003D82009CB5E70000010001001FF0610CB4
:10578000410441047FFC4104410441047FFC0100C9
:105790000102010201FCD7D3000000003FF8001015
:1057A00000600080010000807FFE0040004000207B
:1057B0000020002018400780BCBC102010201020C2
:1057C00013FEFC201020102015FC18843088D048CF
:1057D00010501020105051882606CAF501000120F3
:1057E000011001107FFC03800540054009201110C5
:1057F000210841048102010001000100D3D0020010
:105800000200FFFE040004000FF0081018102FF033
:10581000481088100FF00810081008500820CFDE3C
:1058200000007BF84A08520853F8620852084BF807
:105830004A444A486A305220421042884306420095
:10584000B9AB00800480048008400840102020107C
:105850004208820604000440082010203FF0101087
:105860000000CBBE00003FF8000800087FE80008F9
:1058700000081F8810881088108810881F881088DA
:1058800000280010BBB600800080FC8004FC0504EA
:1058900049082A401440104028A024A04510811037
:1058A000020804040802D3AD00002080133C122437
:1058B00002240224F2241224122412B413281220E7
:1058C0001020282047FE0000C4FA0900090011FC3E
:1058D0003204544899501148124414441140108025
:1058E00002005104511290120FF0B4BF00000020CA
:1058F000102013FE202026244A247A241224222455
:1059000023FC7C20002204227822003CC9AB00004A
:10591000000004000FF0102020207FFC2084208451
:10592000208420843FF82000200220021FFECCEEBD
:1059300000000000204023FE204079FC220423FCCC
:10594000220423FC220423FC3A0465FA0198020491
:10595000B3E40000010001007FFE022004100408EF
:1059600008043FFC04420440044004420842104240
:10597000607EBED800000000207E3E8048804880C7
:1059800048FE48827F8208820C8214FA12842280A8
:10599000218040FED0CE000000007F84220822300B
:1059A00022C0220222047FC8223022C22202220404
:1059B000220822304040BBAD000000007FFE000006
:1059C0000FF011101110111051125FF251125112FB
:1059D00051124FF240027FFCD4B2000000007FFE63
:1059E00047E24812481247E24FF250125012511249
:1059F000511242924472580A3FFCCDBC0000000094
:105A00003FFE440247F24C225362408243625E1AD8
:105A100041824062430240C240223FFCC6AC0000CB
:105A200000402040204020403FFE20002000200079
:105A30003FE0201020102010201040104010CFD444
:105A4000000000003FFC200420043FFC2004200450
:105A50001FF824441448144814480C5004407FFE96
:105A6000CABE000000003FFC0000000000007FFEF6
:105A7000008008900888108810842084208240824A
:105A80000780B2CB0000002008207FFE00200078B5
:105A90003F881108089009207FFE018003400D30E7
:105AA000310C4002B5A500000010081004203FF89A
:105AB000210421043FFC210421043FF801007FFE62
:105AC000010001000100D6D000000100010001002A
:105AD0003FFC2104210421042104210421043FFC72
