:1059610053B1FB43B204122A2E12512E1247E612F2
:10597100428E12409A12466B123337124E2812543D
:0959810043124F361252DE80E0A1
:1016F5007777772E6C636477696B692E636F6D00FE
:10170500CDBCD0CECFD4CABEB2E2CAD400B4BFC914
:10171500ABCCEEB3E4B2E2CAD400D6D0CEC4CFD4BB
:10172500CABEB2E2CAD400CDBCC6ACCFD4CABEB222
:10173500E2CAD400D7DBBACFB2E2CAD4B3CCD0F276
:1017450000C8ABB6AFB5E7D7D300312E323822206B
:101755004743394130310032343058323430003269
:101765003032322D30392D31360057484954450035
:10177500424C41434B0052454400475245454E00BB
:10178500424C554500475549BED8D0CECCEEB3E4C2
:10179500B2E2CAD400475549BBADD4B2CCEEB3E4EE
:1017A500B2E2CAD400D3A2CEC4CFD4CABEB2E2CA72
:1017B500D400365831323A616263646566676830D1
:1017C5003132333435363700365831323A414243B7
:1017D500444546474830313233343536370036587C
:1017E50031323A7E21402324255E262A28295F2B83
:1017F5007B7D3A00385831363A6162636465303131
:1018050032333400385831363A4142434445303159
:1018150032333400385831363A7E21402324255E50
:10182500262A28290047554920547269CCEEB3E48D
:10183500B2E2CAD40031365831363AC8ABB6AFB584
:10184500E7D7D3BBB6D3AD0032345832343AD6D00D
:10185500CEC4B2E2CAD40033325833323AD7D6CCEA
:10186500E5B2E2CAD400515100526F746174696FD8
:101875006E3A3000526F746174696F6E3A39300098
:10188500526F746174696F6E3A31383000526F74FB
:101895006174696F6E3A32373000C6C1C4BBBDC7CB
:1018A500B6C800FFFFFFFFFFFFFFFFFFFFFFFFFFC2
:1018B500FFFFFFFFFFFFFFFFFFFFFFFFFFFFFFFF33
:1018C500FFBEF7FFFFDEFF38C6928C8E6B6E6B1086
:1018D5007C96AD3CE7FFFFFFFFFFFFFFFFFFFFFF2C
:1018E500FFFFFFFFFFFFFFFFFFFFFFFFFFFFFFFF03
:1018F500FFFFFFFFFFFFFFFFFFFFFFFFFFFFFFFFF3
:10190500FFFFFFFFFFFFFFFFFFFFFFFFFFFFFFFFE2
:10191500FF5DEF159D4F636C420A328829461925F4
:10192500194521E8318E6B38C6FFFFFFFFFFFFFF2A
:10193500FFFFFFFFFFFFFFFFFFFFFFFFFFFFFFFFB2
:10194500FFFFFFFFFFFFFFFFFFFFFFFFFFFFFFFFA2
:10195500FFFFFFFFFFFFFFFFFFFFFFFFFFFFFF365B
:10196500A51053104B51530F4B6C3AE931672125A4
:1019750019E410A30862008308CB529AD6FFFFFF33
:10198500FFFFFFFFFFFFFFFFFFFFFFFFFFFFFFFF62
:10199500FFFFFFFFFFFFFFFFFFFFFFFFFFFFFFFF52
:1019A500FFFFFFFFFFFFFFFFFFFFFF3CE77063B394
:1019B50063B87CF56311434D32EA29882126190560
:1019C50019051904110411E4108300A308728CFF92
:1019D500FFFFFFFFFFFFFFFFFFFFFFFFFFFFFFFF12
:1019E500FFFFFFFFFFFFFFFFFFFFFFFFFFFFFFFF02
:1019F500FFFFFFFFFFFFFFFFFFDBDE4B3AF0423546
:101A05006C544BB1322E2AEB21A921671905190413
:101A15001104110411041104110519E4104200AF59
:101A250073FFFFFFFFFFFFFFFFFFFFFFFFFFFFFF4D
:101A3500FFFFFFFFFFFFFFFFFFFFFFFFFFFFFFFFB1
:101A4500FFFFFFFFFFFFFF5DEF09324C32104B8FA9
:101A5500324F2A2E2ACC19891989214719051904CB
:101A6500110411C410C410041104110411E410422E
:101A7500003184FFFFFFFFFFFFFFFFFFFFFFFFFFB9
:101A8500FFFFFFFFFFFFFFFFFFFFFFFFFFFFFFFF61
:101A9500FFFFFFFFFFFFFFEC5247194C320B2AEC0B
:101AA50021EC210C22915BEE4A061126190419E45A
:101AB50010E410A7296621A308051904110411E4EF
:101AC500108200F7BDFFFFFFFFFFFFFFFFFFFFFFD6
:101AD500FFFFFFFFFFFFFFFFFFFFFFFFFFFFFFFF11
:101AE500FFFFFFFFFF35A58308882188218921AAEB
:101AF500218A216B42718CFFFF728C83080411C40B
:101B0500082942FBDE5DEFEC5A8308041104110439
:101B1500118308E831DFFFFFFFFFFFFFFFFFFFFF36
:101B2500FFFFFFFFFFFFFFFFFFFFFFFFFFFFFFFFC0
:101B3500FFFFFFBEF7C731C41025192619471947FE
:101B450019A8298A52284A55ADFFFFE831A308058F
:101B5500194D6B4D6BFFFF7DEF4521C4100411043A
:101B6500110411620076ADFFFFFFFFFFFFFFFFFFCE
:101B7500FFFFFFFFFFFFFFFFFFFFFFFFFFFFFFFF70
:101B8500FFFFFF96B562000411041905110519C47C
:101B9500088B4AB6B55DEFF7BDFFFF8E6B62002976
:101BA50042AA5A0842FFFFFFFFCC528308041104E2
:101BB500110411A308AD52FFFFFFFFFFFFFFFFFF59
:101BC500FFFFFFFFFFFFFFFFFF1CE7FFFFFFFFFF1B
:101BD500FFFFFF4E636200041104110411E410625B
:101BE500008E63FFFFFFFFFFFFFFFFCF730100F3D1
:101BF5009C2C6396B5FFFFFFFF2D5B83000411044A
:101C0500110411E41067213DEFFFFFFFFFFFFFFF08
:101C1500FFFFFFF8BDB7B59EEFCB52B394FFFFFFB3
:101C2500FFDFFFE831A3080411041104110411A317
:101C3500084942FFF7FFF7FFFFFFFF6A4A010072FD
:101C450084FFFFFFFFFFF7DFEF093AA30804110444
:101C55001104110411051118BEFFFFFFFFFFFFFF5F
:101C6500FFFFFFF07B6200E831C731410035A5FF7A
:101C7500FF5DEF4621C4100411041104110411E4A1
:101C850010A308769DFFF7FFFFB7ADA308A308C70C
:101C9500319EE7FFF7FFF776A5A308E410041104CA
:101CA5001104110511051135A5FFFFFFFFFFFFFF0A
:101CB500FFFFFFDBDEA7298300C410C410C4101C7E
:101CC500E79EEF0511E41004110411041104110439
:101CD50019C408E510D16BD16BC5086400A508438C
:101CE500002B32779DB3842519C410041104110407
:101CF50011041125192609359DFFFFFFFFFFFFFF81
:101D0500FFFFFFFFFFAF7362000419051982000D85
:101D15005B8E9B62100511041104110419E41085F2
:101D2500000511C439815A407B229C43AC03A4832E
:101D35009B82728249C218A400C500E410041904EC
:101D450011051947196711EC5ABEFFFFFFFFFFFF89
:101D5500FFFFFFDFFFDBDEC410E41004110511A453
:101D65001801C08388E40005190419C508442143F6
:101D75008323D542FEE4FE27FF07FFA4FE64FE038E
:101D8500FEA3FDE2FC42EC83B32462E510C4080423
:101D9500192619A81987210090D3BCFFFFFFFFFF63
:101DA500FFFFFFDFFFFFFF107C42000519051183D0
:101DB5002801D044F8A348E400C508445A02EDE2DE
:101DC500FD02FE66FE74FFB8FF73FFE7F6A6F64553
:101DD500F6A4F5C3FC62FCC2FCC2FCE3CBC4490615
:101DE5001188198701A49001F8EC9AFFFFFFFFFF06
:101DF500FFFFFFFFFFFFFFBEF7E831830005098204
:101E05004001C023F885F0A348A400445A02FD23ED
:101E1500CCC2DC04FE28FE48F646F624F6E4F5645A
:101E2500FDE3FC62FCC2FC02E402DCE2FCA47A48AD
:101E3500016701C47824F802F884B07DE7FFFFFF4D
:101E4500FFFFFFFFFFFFFFFFFFDBDE2519A300C438
:101E55003802E022D844F8A6F8A478630043218329
:101E6500728339829B21F561FD22FDE2FCA2FC42D1
:101E7500FC42FC42FC22AB8341C39204522601255D
:101E850019A49844F823F802F8A4D09EEFFFFFFFA9
:101E9500FFFFFFFFFFFFFFFFFFFFFF9AD68729A583
:101EA5000043B822F823E065F8E8F807C9834842FB
:101EB50000A30084006329A27A62B3A2CB62D30295
:101EC500BB828A8339A400E500E500E508C46064A7
:101ED500D844F824F823F802F88388DBC6FFFFFF0F
:101EE500FFFFFFFFFFFFFFFFFFFFFFFFFF3DE75086
:101EF5005B083123E843F844F065F809F9ABF98943
:101F0500D10689A34842180200420061008200629E
:101F15000062008300A320C450A58885D865F844D5
:101F2500F844F823F823F803D08210C7295DEFFFA2
:101F3500FFFFFFFFFFFFFFFFFFFFFFFFFFFFFFFFAC
:101F4500FF6C32A53802D823F865F866F8A7F84A79
:101F5500F90CFA4DFA4CEA0BD2A9B968B147A92791
:101F6500B107B907D1E7E8C7F8A7F865F865F844F8
:101F7500F823F803F802D0A3280509C408EC5AFF92
:101F8500FFFFFFFFFFFFFFFFFFFFFFFFFFFFFFFB60
:101F9500DE0519C400A741E6C003F886F8A7F8874F
:101FA500F886F8C7F829F98AF9ABF9ABF98BF96A1C
:101FB500F929F908F9C7F8A6F886F865F864F82349
:101FC500F802F006B12529E400E4102519251914B5
:101FD5009DFFFFFFFFFFFFFFFFFFFFFFFFFFFF96D7
:101FE500AD620082083595BACE8BA244D025F8871C
:101FF500F8A7F8C7F8A7F887F886F886F886F88767
:10200500F8A7F8A7F8A6F885F865F864F824F06449
:10201500B80D93BBB6CF6383080411E4106621495C
:102025003A5DEFFFFFFFFFFFFFFFFFFFFFFFFFD35E
:10203500944200E410BBCEFFFFBEE776B5CCAA07FD
:10204500C145E045F846F866F886F886F886F886CC
:10205500F865F845F865F865E844D043A801888235
:10206500903CD7FFEF5595830804110411051946D7
:1020750019B394FFFFFFFFFFFFFFFFFFFFFFFFB354
:1020850094410086215DDFFFFFFFFFFFFFDFE77A59
:10209500C6D3B44EB32AC268D1E6E0A6E8A5E8A542
:1020A500E8E6D888C906A922A802A800A000C800A9
:1020B500D8F7E5FFE7F8ADC410E4100411E4100506
:1020C500118B4AFFFFFFFFFFFFFFFFFFFFFFFF55DC
:1020D500A54100A7295DDFFFF7FFFFFFFFFFFFFF1A
:1020E500FFFFFFFFEF7DDFDBCE59CEF8CDD7CDF774
:1020F500C579CEFBBEABA203F045F842D043E8005C
:10210500F072D4FFDF39AEE410E4100411E41005D9
:10211500118729FFFFFFFFFFFFFFFFFFFFFFFF59AC
:10212500CE830846211CD7FFF7FFFFFFFFFFFFFF08
:10213500FFFFFFFFFFFFFFFFFFFFFFFFFFFFFFFFAA
:10214500FFFFFFFFEF8BBA04F845F862E044F000AB
:10215500F88EDBFFDFF8A5C410E410E4100411E4E9
:10216500102519FFFFFFFFFFFFFFFFFFFFFFFFBE6A
:10217500F78729830839B6FFF7DFF7FFFFFFFFFF72
:10218500FFFFFFFFFFFFFFFFFFFFFFFFFFFFFFFF5A
:10219500FFFFFFBEE74ABA03F845F864F844F800C4
:1021A500F86EE3FFD7F48C83080411E410E410E41F
:1021B500100519FFFFFFFFFFFFFFFFFFFFFFFFFFF9
:1021C500FFEF7300007284FFEFBEEFDFFFFFFFFF3D
:1021D500FFFFFFFFFFFFFFFFFFFFFFFFFFFFFFFF0A
:1021E500FFFFFFDFE78BBA03F845F845F823F80052
:1021F500F8D3D4FFD74E5B2100293A55A58308C4EF
:10220500102519FFFFFFFFFFFFFFFFFFFFFFFFFF88
:10221500FFFBDEA308E8319EDF9EE7BFEFFFFFFF70
:10222500FFFFFFFFFFFFFFFFFFFFFFFFFFFFFFFFB9
:10223500FFFFFFFFF751BC02E003F803F043E0ECBA
:10224500C27ECFFCBE46212100D394FFFF518400FE
:10225500008729FFFFFFFFFFFFFFFFFFFFFFFFFFD6
:10226500FFFFFF51840000F48CFFEF9EE7BFEFDF17
:10227500FFFFFFFFFFFFFFFFFFFFFFFFFFFFFFFF69
:10228500FFFFFFFFFF3DDF55BD52BC72BCB7B55D1B
:10229500C7FFDFF06B0000093ABFF7FFFFFFFF1430
:1022A5009D55A5FFFFFFFFFFFFFFFFFFFFFFFFFF9F
:1022B500FFFFFFFFFFAC4AA408BBBEDFE77EE7BE1A
:1022C500EFDFF7DFFFFFFFFFFFFFFFFFFFFFFFFF71
:1022D500FFFFFFDFFFDFF7FFEFDFDFBFD79ED7DFB2
:1022E500DFD8A583082611DBD6FFFFFFFFFFFFFF21
:1022F500FFFFFFFFFFFFFFFFFFFFFFFFFFFFFFFFE9
:10230500FFFFFF79EE8BDC2131A9213DCFBFDF7EB9
:10231500DF9EE7BEEFBFEFDFF7DFF7DFF7DFF7DFC2
:10232500F7BFEFBEEF9EE77EDF5ED75ED7DFDF9AB2
:10233500B626194208EDA3BFFFFFFFFFFFFFFFFF12
:10234500FFFFFFFFFFFFFFFFFFFFFFFFFFFFFFFF98
:10235500FF74DDC0DB00FE42EE024289217BB6DF61
:10236500DF7ED77EDF7EDF9EE79EE79EE79EE79EC8
:10237500E77EDF7EDF5DD75DD79EDFFFE7F8A50748
:1023850011E31802C560FDE6D3DBEEFFFFFFFFFF9B
:10239500FFFFFFFFFFFFFFFFFFFFFFFFFFFFFF9EA9
:1023A500F784BAC1FC42FE82FEA2FE8183452174F8
:1023B500745EC7DFDF7ED75ED75DD75ED75ED75D3C
:1023C500D75DD75ED79EDFFFE73DC7F1638408423F
:1023D5005226E629FF86FEE0F36AC3FFFFFFFFFFF3
:1023E500FFFFFFFFFFFFFFFFFFFFFFFFFFFFFF18DF
:1023F500DEC1D2A2FD22FE42FE42FE62FEE2D441D1
:102405006A494253743BA63EC7BFD7BFD7BFD7BFA4
:10241500DFBFD73EC71AA6F263A729824122B4625D
:10242500FE83FEAAFE0FFF67FD63BA3CEFFFFFFFC9
:10243500FFFFFFFFFFFFFFFFFFFFFFFFFFFFFF9A0C
:10244500E680D221FDC2FDE2F5C2F582F582FD628C
:10245500FD61DC219B846AE96A2C63AF6311746EAC
:10246500632C63895A0452817AC2CBE2FC62FD82F5
:10247500FDC2FDC2FDE4FD24FD62CA1CE7FFFFFFAE
:10248500FFFFFFFFFFFFFFFFFFFFFFFFFFFFFFFF57
:10249500FFB1CC81D2C0F3C1FC02FD02FDE2FCC25A
:1024A500FCC2FC81FC80FBC0C9A48135AD59CE714D
:1024B5009C218100DAA1FB82FCA2FC82FCA2FC0229
:1024C500FD22FDE2FC00FC60DA90CCFFFFFFFFFF80
:1024D500FFFFFFFFFFFFFFFFFFFFFFFFFFFFFFFF07
:1024E500FFFFFF59DE0DC406CBE4D203DB03DBE3BC
:1024F500DAC3D2A4C209B3D2BC9EF7FFFFFFFFFF28
:10250500FFFBE60EB4A6BA83D2E3E202EB22EB228E
:10251500E303DBE4D26AC3B6D5FFFFFFFFFFFFFF8E
:0F252500FFFFFFFF186EFF1879FF1885FF189250
:0D5A33004A0067F80007E0001FFFE0F81FC1
:10566F0090000DEBF0A3EAF0A3E9F074FFFFFE1238
:10567F00575E900016E4F0A3741FF090000DE0F950
:10568F00A3E0FAA3E0900018C9F0A3EAF0A3E9F0B1
:10569F00A37410F0E4A3F074FFFBFA7D0C7C00E41C
:1056AF00FFFE1254D6900050E024E0FD90004FE032
:1056BF0034FFFC900016E4F0A3741FF0A374FFF006
:1056CF00A37416F0A374F5F0A37410F0E4A3F074B0
:0956DF00FFFBFAE4FFFE0254D6C1
:10495B00900004EAF0A3EBF0900000EEF0A3EFF070
:10496B00A3ECF0A3EDF074FF900049F0A3F0C007A7
:10497B00900004E0FAA3E0FB900002E0FFA3E090BC
:10498B000013CFF0A3EFF0D007124480900000E0AB
:10499B00FAA3E0FBFFAE02C007A3E0FCA3E0FD908F
:1049AB000006E0FFA3E0900013CFF0A3EFF0D007D9
:1049BB001244809000497484F0A37410F0900001AD
:1049CB00E02401FF900000E03400FEC006C0079019
:1049DB000007E024FFFD900006E034FFFC9000048C
:1049EB00E0FAA3E0FBA3E0FEA3E024FFFFEE34FF1D
:1049FB00900013F0A3EFF0D007D006124480900084
:104A0B00497442F0A37408F0900006E0FCA3E0FDAB
:104A1B00900004E0FAA3E0FBA3E0FFA3E0900013F7
:104A2B00CFF0A3EFF0900000E0FEA3E0FF12448074
:104A3B009000497484F0A37410F0900005E024FFFB
:104A4B00FB900004E034FFFAAF03FEC007900003B5
:104A5B00E02401FD900002E03400FC900006E0FF32
:104A6B00A3E0900013CFF0A3EFF0D0071244809097
:104A7B0000497442F0A37408F0900004E0FAA3E03C
:104A8B00FBFFAE02C007900002E0FCA3E0FD90002C
:104A9B0006E0FFA3E0900013CFF0A3EFF0D00702E6
:024AAB00448045
:1047E6007F7D7EEF12575E90004EE0249EFF900084
:1047F6004DE034FFC313FEEF13FFC0062462FBE453
:104806003EFA900006E4F0A37455F0D0067D417C94
:104816000012495B900016E4F0A3741FF0A374FF26
:10482600F0A37417F0A37405F0A37410F0A3740139
:10483600F07B1F7AF87D437C00E4FFFE1254D6908D
:10484600004EE0249EFF90004DE034FFC313FEEFC0
:1048560013FFC0062462FBE43EFA900006E4F0A3D0
:104866007473F0D0067D5F7C0012495B900016746D
:10487600EFF0A3747DF0A374FFF0A37417F0A37494
:1048860012F0A37410F0A37401F0E4FBFA7D61FC4E
:10489600FFFE1254D690004EE0249EFF90004DE09D
:1048A60034FFC313FEEF13FFC0062462FBE43EFA97
:1048B600900006E4F0A37491F0D0067D7D7C001292
:1048C600495B90001674EFF0A3747DF0A374FFF0BB
:1048D600A37417F0A3741FF0A37410F0A37401F06F
:1048E6007B1F7A007D7F7C00E4FFFE1254D6900089
:1048F6004EE0249EFF90004DE034FFC313FEEF13FD
:10490600FFC0062462FBE43EFA900006E4F0A374BE
:10491600AFF0D0067D9B7C0012495B90001674EFC9
:10492600F0A3747DF0A374FFF0A37417F0A3742CA6
:10493600F0A37410F0A37401F07B007AF87D9D7CDF
:1049460000E4FFFE1254D67FDC7E0512598A7FF4FE
:054956007E0102598AF8
:10512E007BFF7A17793912566F900016E4F0A3744C
:10513E001FF0A374FFF0A37417F0A37446F0A374CA
:10514E0010F0A37401F07B007AF87D4E7C00E4FF32
:10515E00FE1254D6900016E4F0A3741FF0A374FF51
:10516E00F0A37417F0A37439F0A37410F0A37401B4
:10517E00F07B007AF87D5F7C00E4FFFE1254D6903F
:10518E000016E4F0A3741FF0A374FFF0A37417F0DD
:10519E00A3744FF0A37410F0A37401F07BE07A07B0
:1051AE007D707C00E4FFFE1254D6900016E4F0A34E
:1051BE00741FF0A374FFF0A37417F0A3745CF0A334
:1051CE007410F0A37401F07BE07A077D817C00E41B
:1051DE00FFFE1254D6900016E4F0A3741FF0A374D1
:1051EE00FFF0A37417F0A37464F0A37410F0A3740B
:1051FE0001F07B1F7A007D927C00E4FFFE1254D6F4
:0E520E007FDC7E0512598A7FDC7E0502598AFC
:10428E0090004EE024FFFB90004DE034FFFA9000CA
:10429E0050E024FFFE90004FE034FF90002FF0A37B
:1042AE00CEF074FFA3F0A3F0E4FDFCFFFE124C1E53
:1042BE0090002374FFF0A374E0F0A374FFF0A374D6
:1042CE0017F0A3746FF0A37410F0A37401F0E4FB65
:1042DE00FA7D1EFC7F28FE1230967FE87E0312596F
:1042EE008A90004EE024FFFB90004DE034FFFA90E0
:1042FE000050E024FFFE90004FE034FF90002FF0BE
:10430E00A3CEF0E4A3F0A3F0FDFCFFFE124C1E9032
:10431E00002374FFF0A374E0F0A374FFF0A37417EE
:10432E00F0A37475F0A37410F0A37401F074FFFB86
:10433E00FA7D1E7C007F287E001230967FE87E0379
:10434E0012598A90004EE024FFFB90004DE034FF9E
:10435E00FA900050E024FFFE90004FE034FF9000F2
:10436E002FF0A3CEF0A374F8F0A3E4F0FDFCFFFE53
:10437E00124C1E90002374FFF0A374E0F0A374FFA0
:10438E00F0A37417F0A3747BF0A37410F0A3740160
:10439E00F07B1F7A007D1E7C007F287E00123096F7
:1043AE007F207E0312598A90004EE024FFFB90007E
:1043BE004DE034FFFA900050E024FFFE90004FE0F5
:1043CE0034FF90002FF0A3CEF0A37407F0A374E097
:1043DE00F0E4FDFCFFFE124C1E90002374FFF0A3D0
:1043EE0074E0F0A374FFF0A37417F0A3747FF0A32E
:1043FE007410F0A37401F07B1F7A007D1E7C007F89
:10440E00287E001230967F207E0312598A90004E2D
:10441E00E024FFFB90004DE034FFFA900050E024C2
:10442E00FFFE90004FE034FF90002FF0A3CEF0A3DC
:10443E00E4F0A3741FF0E4FDFCFFFE124C1E90008E
:10444E002374FFF0A374E0F0A374FFF0A37417F0CD
:10445E00A37485F0A37410F0A37401F07B007AF8B6
:10446E007D1E7C007F287E001230967F207E030208
:02447E00598A59
:10409A00E4900000F07BFF7A17798A12566F90003D
:1040AA004EE024FFFB90004DE034FFFA900050E010
:1040BA0024E0FE90004FE034FF90002FF0A3CEF0F2
:1040CA0074FFA3F0A3F07D1E7C00E4FFFE124C1ED9
:1040DA00E4900000F0900000E0FD25E02467F582FE
:1040EA00E43400F583E0FFA3E0900049CFF0A3EFAA
:1040FA00F090004DE0C313FEA3E01324D8FBEE3486
:10410A00FFFAED75F010A42BFFE5F03AFEC006C0E9
:10411A0007A3E0C313FEA3E01324D8FDEE34FFFC8B
:10412A00900000E0F975F00DA42DFDE5F03CFCC00F
:10413A0004C00590004DE0C313FCA3E013FDE9752C
:10414A00F010A42DFFE5F03CCF24F6FBEF34FFFA84
:10415A00A3E0C313FCA3E013FDE975F00DA42DFF42
:10416A00E5F03CCF24F6CF34FF900007F0A3EFF040
:10417A00D005D004D007D006125399900000E0046D
:10418A00F0E0C3940550030240DF7FDC7E0512593C
:10419A008A90004EE024FFFB90004DE034FFFA9035
:1041AA000050E024E0FE90004FE034FF90002FF032
:1041BA00A3CEF074FFA3F0A3F07D1E7C00E4FFFE03
:1041CA00124C1EE4900000F0900000E0FD25E0246F
:1041DA0067F582E43400F583E0FFA3E0900049CF5D
:1041EA00F0A3EFF090004DE0C313FEA3E01324D830
:1041FA00FBEE34FFFAED75F010A42BFFE5F03AFE62
:10420A00C006C007A3E0C313FEA3E01324D8FDEE43
:10421A0034FFFC900000E0F975F00DA42DFDE5F0E7
:10422A003CFCC004C00590004DE0C313FCA3E0139E
:10423A00FDE975F010A42DFFE5F03CCF24F6FBEF65
:10424A0034FFFAA3E0C313FCA3E013FDE975F00DF4
:10425A00A42DFFE5F03CCF24F6CF34FF900007F001
:10426A00A3EFF0D005D004D007D0061259D690009B
:10427A0000E004F0E0C3940550030241D27FDC7EE3
:04428A000502598A46
:10466B00E4900000F07BFF7A17799A12566F900056
:10467B004EE024FFFB90004DE034FFFA900050E039
:10468B0024E0FE90004FE034FF90002FF0A3CEF01B
:10469B0074FFA3F0A3F07D1E7C00E4FFFE124C1E02
:1046AB00E4900000F0900000E0FBC39405506E9086
:1046BB00004DE0C313FEA3E01324D8FDEE34FFFC42
:1046CB00900000E0FA75F00FA42DFFE5F03CFEC062
:1046DB0006C00790004FE0C313FEA3E01324E7FDD1
:1046EB00EE34FFFCEA75F00DA42DFDE5F03CFCEB80
:1046FB0025E02467F582E43400F583E0FAA3E0FBC0
:10470B00900007E4F0A3740FF0E4A3F0A3F0D0073C
:10471B00D006123EA4900000E004F080887FDC7E7F
:10472B000512598A90004EE024FFFB90004DE034B7
:10473B00FFFA900050E024E0FE90004FE034FF9031
:10474B00002FF0A3CEF074FFA3F0A3F07D1E7C002E
:10475B00E4FFFE124C1EE4900000F0900000E0FB22
:10476B00C39405506F90004DE0C313FEA3E01324D8
:10477B00D8FDEE34FFFC900000E0FA75F00FA42D8D
:10478B00FFE5F03CFEC006C00790004FE0C313FEF0
:10479B00A3E01324E7FDEE34FFFCEA75F00DA42D26
:1047AB00FDE5F03CFCEB25E02467F582E43400F5F5
:1047BB0083E0FAA3E0FB900007E4F0A3740FF0A3EF
:1047CB00E4F0A304F0D007D006123EA4900000E062
:0B47DB0004F080877FDC7E0502598A15
:104E28007BFF7A1779AA12566F90002374FFF0A3BC
:104E380074E0F0A374FFF0A37417F0A374B7F0A3A1
:104E4800740CF0E4A3F07B1FFA7D4DFC7F32FE1258
:104E5800309690002374FFF0A374E0F0A374FFF081
:104E6800A37417F0A374CDF0A3740CF0A37401F02D
:104E78007B1F7A007D597C007F327E00123096902D
:104E8800002374FFF0A374E0F0A374FFF0A3741779
:104E9800F0A374E3F0A3740CF0E4A3F07B1FFA7D95
:104EA80065FC7F32FE12309690002374FFF0A374E5
:104EB800E0F0A374FFF0A37417F0A374F9F0A374DF
:104EC80010F0E4A3F07B1FFA7D72FC7F32FE1230F3
:104ED8009690002374FFF0A374E0F0A374FFF0A38E
:104EE8007418F0A37409F0A37410F0A37401F07B94
:104EF8001F7A007D827C007F327E001230969000FF
:104F08002374FFF0A374E0F0A374FFF0A37418F007
:104F1800A37419F0A37410F0E4A3F07B1FFA7D9238
:0E4F2800FC7F32FE1230967FB07E0402598A62
:10333700E4900000F07BFF7A18792A12566F90000C
:103347004EE024FFFB90004DE034FFFA900050E080
:1033570024E0FE90004FE034FF90002FF0A3CEF062
:1033670074FFA3F0A3F07D1E7C00E4FFFE124C1E49
:10337700E4900000F0900000E0F9C39405400302D8
:10338700347DE925E02467F582E43400F583E0FF26
:10339700A3E0900049CFF0A3EFF090004DE0C313F6
:1033A700FAA3E013FB24D8FDEA34FFFCE975F00F1C
:1033B700A42DFFE5F03CFEC006C007A3E0C313FE43
:1033C700A3E01324F4FDEE34FFFCE975F00BA42D04
:1033D700FDE5F03CFCC004C005EB24E6FDEA34FF44
:1033E700FCE975F00FA42DFBE5F03CFAC002C00321
:1033F70090004FE0C313FEA3E01324D9FDEE34FF82
:10340700FCE975F00BA42DFDE5F03CFCC005C004FC
:1034170090004DE0C313FEA3E01324F5FDEE34FF47
:10342700FCE975F00FA42DFDE5F03CFCA3E0C31308
:10343700FEA3E01324F4FBEE34FFFAE975F00BA4C6
:103447002BFEE5F03A90000BF0A3CEF0900009ECCC
:10345700F0A3EDF0900007D0E0F0A3D0E0F0D003A8
:10346700D002D005D004D007D0061256E89000004D
:10347700E004F002337C7FDC7E0512598A90004E0F
:10348700E024FFFB90004DE034FFFA900050E02469
:10349700E0FE90004FE034FF90002FF0A3CEF074D1
:1034A700FFA3F0A3F07D1E7C00E4FFFE124C1EE498
:1034B700900000F0900000E0F9C394054003023546
:1034C700BCE925E02467F582E43400F583E0FFA337
:1034D700E0900049CFF0A3EFF090004DE0C313FA5E
:1034E700A3E013FB24D8FDEA34FFFCE975F00FA431
:1034F7002DFFE5F03CFEC006C007A3E0C313FEA303
:10350700E01324F4FDEE34FFFCE975F00BA42DFD68
:10351700E5F03CFCC004C005EB24E6FDEA34FFFC03
:10352700E975F00FA42DFBE5F03CFAC002C003904B
:10353700004FE0C313FEA3E01324D9FDEE34FFFCD4
:10354700E975F00BA42DFDE5F03CFCC005C0049027
:10355700004DE0C313FEA3E01324F5FDEE34FFFC9A
:10356700E975F00FA42DFDE5F03CFCA3E0C313FEC5
:10357700A3E01324F4FBEE34FFFAE975F00BA42B58
:10358700FEE5F03A90000BF0A3CEF0900009ECF0C6
:10359700A3EDF0900007D0E0F0A3D0E0F0D003D087
:1035A70002D005D004D007D006122534900000E0E1
:0C35B70004F00234BB7FDC7E0502598A60
:105443007BFF7A17791F12566F90002374FFF0A326
:1054530074E0F0A374FFF0A37418F0A3743AF0A3FC
:105463007410F0E4A3F07B1FFA7D52FC7F2DFE1233
:10547300309690002374FFF0A374E0F0A374FFF060
:10548300A37418F0A3744DF0A37418F0A37401F07F
:105493007B1F7A007D667C007F2D7E001230969004
:1054A300002374FFF0A374E0F0A374FFF0A3741857
:1054B300F0A3745CF0A37420F0A37401F07B1F7A53
:1054C300007D7F7C007F2D7E001230967FB07E04AE
:0354D30002598AF1
:104F36007BFF7A17792C12566F900013E4F0A37456
:104F460028F0A374FFF0A37418F0A374A8F07B28CC
:104F56007A007D5A7C007F327E0012503990002301
:104F660074FFF0A374E0F0A374FFF0A37418F0A329
:104F7600746BF0A37410F0A37401F07B1F7A007DAC
:104F8600877C007F3E7E00123096900013E4F0A3EB
:104F96007428F0A374FFF0A37418F0A374A8F07B30
:104FA600287A007D5A7C007F647E0012503990007A
:104FB6002374FFF0A374E0F0A374FFF0A37418F059
:104FC600A3746BF0A37410F0A37401F07B1F7A0036
:104FD6007D877C007F707E00123096900013E4F08F
:104FE600A37428F0A374FFF0A37418F0A374A8F0B8
:104FF6007B287A007D5A7C007F967E00125039907D
:10500600002374FFF0A374E0F0A374FFF0A37418F8
:10501600F0A3746BF0A37410F0A37401F07B1F7AF5
:10502600007D877C007FA27E001230967FB07E04D2
:0350360002598A92
:1052DE00E4900000F078017C007D017BFF7A257957
:1052EE0028FE7F0C122E52E4900000F0900000E099
:1052FE00FFC3940440030253941255F47BFF7A18B3
:10530E00799F12566F900000E075F003A42401F50A
:10531E0082E43400F583E0F9A3E0FAA3E0900025DF
:10532E00C9F0A3EAF0A3E9F090002374FFF0A37490
:10533E00E0F09000287410F0A37401F07B1F7A0047
:10534E007D237C007F287E00123096900013E4F0BF
:10535E00A37428F0A374FFF0A37418F0A374A8F03C
:10536E007B287A007D377C007F287E001250397FA3
:10537E00E87E0312598A7FE87E0312598A90000054
:0B538E00E004F00252FAE4FF0255F4C4
:1000030000000000000000000000000000000404E5
:10001300040404040004000000140A0A00000000A1
:1000230000000000000014143F140A3F0A0A0000F5
:1000330000041E1505060C14150F0400000012150C
:100043000D0A142C2A1200000000040A0A1E1515BA
:100053000936000000020201000000000000000059
:1000630000201008080808080810200000020408EF
:10007300080808080804020000000004150E0E1505
:100083000400000000000404041F04040400000032
:100093000000000000000000000202010000000058
:1000A300001F00000000000000000000000000002E
:1000B3000002000000100808080404020202010004
:1000C30000000E1111111111110E000000000406A1
:1000D30004040404040E000000000E1111080402BD
:1000E300011F000000000E11100C1010110E000073
:1000F3000000080C0A0A091E0818000000001F016E
:10010300010F1010110E000000000E09010F111154
:10011300110E000000001F09080404040404000079
:1001230000000E11110E1111110E000000000E112E
:1001330011111E10120E0000000000000400000048
:10014300000400000000000000040000000404009C
:100153000020100804020408102000000000000022
:100163001F00001F000000000002040810201008F8
:100173000402000000000E11110804040004000032
:1001830000000E111915151D011E000000000404C6
:100193000C0A0A1E1233000000000F12120E121274
:1001A300120F000000001E1101010101110E0000D9
:1001B30000000F1212121212120F000000001F1281
:1001C3000A0E0A02121F000000001F120A0E0A0282
:1001D3000207000000001C1201013911120C00007B
:1001E30000003312121E12121233000000001F040B
:1001F30004040404041F000000003E080808080863
:1002030008090700000037120A060A0A123700001D
:100213000000070202020202223F000000001B1B33
:100223001B1B15151515000000003B1216161A1A94
:100233001217000000000E1111111111110E000010
:1002430000000F12120E02020207000000000E113E
:1002530011111117190E180000000F12120E0A12B5
:100263001237000000001E1101060810110F0000D4
:1002730000001F1504040404040E000000003312E0
:1002830012121212120C000000003312120A0A0C8E
:100293000404000000001515150E0A0A0A0A0000DE
:1002A30000001B0A0A04040A0A1B000000001B0AC0
:1002B3000A040404040E000000001F0908040402D9
:1002C300121F0000001C04040404040404041C00A2
:1002D300000202020404080808100000000E0808C7
:1002E3000808080808080E0000040A0000000000BF
:1002F3000000000000000000000000000000003FBC
:1003030000040000000000000000000000000000E6
:10031300000C121C123C000000000302020E121219
:10032300120E000000000000001C1202021C00005C
:1003330000001810101C1212123C000000000000F4
:10034300000C121E021C000000003804041E0404EA
:10035300041E000000000000003C120C021E221CC0
:1003630000000302020E1212123700000000040004
:1003730000060404040E000000000800000C080836
:100383000808080700000302023A0A0E12370000A9
:100393000000070404040404041F0000000000001C
:1003A300000F15151515000000000000000F1212B4
:1003B3001237000000000000000C1212120C0000A3
:1003C30000000000000F1212120E020700000000CE
:1003D300001C1212121C103800000000001B060241
:1003E3000207000000000000001E020C101E0000A7
:1003F30000000004040E04040418000000000000C0
:10040300001B1212123C0000000000000037120A09
:100413000C040000000000000015150E0A0A00007D
:1004230000000000001B0A040A1B0000000000007B
:100433000037120A0C04040300000000001E080425
:10044300041E00000018080808040808080818001B
:10045300080808080808080808080808000604042B
:100463000408040404040600022518000000000028
:100473000000000000000000000000000000000079
:100483000000000000000008080808080808000031
:100493001818000000486C2412000000000000003F
:1004A300000000000000002424247F1212127F1297
:1004B300121200000000081C2A2A0A0C1828282AF5
:1004C3002A1C080800000022251515152A58545423
:1004D300542200000000000C1212120A7625291182
:1004E300916E0000000606040300000000000000F7
:1004F3000000000000402010100808080808081039
:1005030010204000000204080810101010101008FA
:10051300080402000000000008086B1C1C6B08089C
:100523000000000000000000080808087F08080811
:1005330008000000000000000000000000000000B0
:10054300060604030000000000000000FE00000097
:100553000000000000000000000000000000000098
:100563000606000000008040402020101008080408
:100573000402020000000018244242424242424266
:1005830024180000000000080E08080808080808DE
:10059300083E00000000003C4242422020100804B4
:1005A300427E00000000003C4242201820404042AE
:1005B300221C0000000000203028242422227E2058
:1005C300207800000000007E0202021A264040420A
:1005D300221C0000000000382402021A2642424274
:1005E300241800000000007E2222101008080808CA
:1005F300080800000000003C424242241824424202
:10060300423C00000000001824424242645840402B
:10061300241C000000000000000018180000000067
:10062300181800000000000000000008000000008F
:100633000008080400000040201008040204081009
:10064300204000000000000000007F0000007F0049
:1006530000000000000000020408102040201008E1
:10066300040200000000003C4242464020101000FB
:10067300181800000000001C225A555555552D42EC
:10068300221C00000000000808181414243C224215
:1006930042E700000000001F2222221E22424242A3
:1006A300221F00000000007C4242010101010142BF
:1006B300221C00000000001F2242424242424242EA
:1006C300221F00000000003F4212121E12120242BB
:1006D300423F00000000003F4212121E12120202AB
:1006E300020700000000003C2222010101712122C7
:1006F300221C0000000000E7424242427E42424286
:1007030042E700000000003E08080808080808083F
:10071300083E00000000007C101010101010101094
:100723001010110F0000007722120A0E0A12122273
:100733002277000000000007020202020202020206
:10074300427F000000000077363636362A2A2A2AEE
:100753002A6B0000000000E346464A4A52525262A6
:10076300624700000000001C2241414141414141D8
:10077300221C00000000003F424242423E020202AD
:10078300020700000000001C2241414141414D533A
:10079300321C60000000003F4242423E12122222FD
:1007A30042C700000000007C42420204182040427D
:1007B300423E00000000007F4908080808080808B6
:1007C300081C0000000000E742424242424242420B
:1007D300423C0000000000E7424222242414141883
:1007E300080800000000006B494949495555362265
:1007F30022220000000000E74224241818182424B1
:1008030042E70000000000772222141408080808B9
:10081300081C00000000007E212010100804044280
:10082300423F00000078080808080808080808087C
:1008330008087800000002020404080808101020C9
:1008430020204040001E1010101010101010101027
:1008530010101E00003844000000000000000000DB
:100863000000000000000000000000000000000085
:10087300000000FF00060800000000000000000068
:1008830000000000000000000000003C42784442E9
:1008930042FC0000000000030202021A2642424208
:1008A300261A000000000000000000384402020283
:1008B3004438000000000060404040784442424217
:1008C30064D80000000000000000003C427E0202E9
:1008D300423C0000000000F08808087E0808080871
:1008E300083E0000000000000000007C22221C02E1
:1008F3003C42423C000000030202023A46424242AA
:1009030042E700000000000C0C00000E0808080875
:10091300083E000000000030300000382020202076
:100923002020221E0000000302020272120A161285
:10093300227700000000000E0808080808080808CD
:10094300083E0000000000000000007F9292929297
:1009530092B70000000000000000003B4642424204
:1009630042E70000000000000000003C4242424217
:10097300423C0000000000000000001B26424242EF
:10098300221E020700000000000000784442424299
:10099300447840E000000000000000774C040404A9
:1009A300041F0000000000000000007C42023C40E5
:1009B300423E0000000000000008083E0808080846
:1009C3000830000000000000000000634242424281
:1009D30062DC000000000000000000E74224241451
:1009E3000808000000000000000000EB49495555CD
:1009F30022220000000000000000007624181818CE
:100A0300246E000000000000000000E742242414CC
:100A130018080807000000000000007E22100808E4
:100A2300447E000000C02020202020102020202011
:100A33002020C000101010101010101010101010F3
:100A43001010101000060808080808100808080805
:100A5300080806000C32C20000000000000000007D
:100A630000000000C9EE000027FC140414A4811048
:100A730042084040104017FC2040E0E0215022484B
:100A83002C4620400040DBDA1104112411241124E8
:100A93001124FD24112411241124112411241D24B3
:100AA300E124422402040404CAD00200010000002D
:100AB3007FFC0100010001003FF821082108210803
:100AC30021082128211001000100C8AB000000000B
:100AD300018002400430180860061FF9010001007C
:100AE30001003FF80100010001007FFEB6AF0000E6
:100AF300000000203E20007C002200227F221022E2
:100B0300102212221222224223423D82009CB5E788
:100B13000000010001001FF0610C410441047FFC4F
:100B23004104410441047FFC01000102010201FC74
:100B3300D7D3000000003FF80010006000800100E0
:100B430000807FFE0040004000200020002018406D
:100B53000780BCBC00000000104013FE10407C4026
:100B6300104013FC1104190830885050106010D045
:100B730013087C06CAF500000100013001080100DA
:100B83007FFE018003400540052009101108210460
:100B9300410201000100D3D00000010002007FFEEA
:100BA300040008001FFC700490041FFC10041004D0
:100BB3001FFC10041004103CCFDE000000007BFC7F
:100BC3004A044A044BFC52044A044BFC4A404A443C
:100BD3007A2842304210420843C6B9AB00000000F5
:100BE30004400420081010101008210442020220BF
:100BF30004100810080810081FFC0004CBBE0000F6
:100C030000003FFC000400043FF400043FE4202400
:100C130020242024202420241FC40004007CBBB6ED
:100C23000000000000807EFC02A202A222A4152480
:100C330014240C300C300C481248228442840102E4
:100C4300D3AD000000002398246414440444644496
:100C5300144414441444144415C4125C1040284032
:100C630047FEC4FA00000000120013FE24222522CE
:100C7300652862242224242020E0050814842444C7
:100C8300241A47F2B4BF00000020102013FE2020D6
:100C930026244A247A241224222423FC7C200022A2
:100CA30004227822003CC9AB0000000004000FF0CE
:100CB300102020207FFC20842084208420843FF87F
:100CC3002000200220021FFECCEE00000000204086
:100CD30023FE204079FC220423FC220423FC22046B
:100CE30023FC3A0465FA01980204B3E4000001000E
:100CF30001007FFE02200410040808043FFC0442A4
:100D030004400440044208421042607EBED8000002
:100D13000000207E3E804880488048FE48827F82D3
:100D230008820C8214FA12842280218040FED0CEE5
:100D3300000000007F842208223022C02202220405
:100D43007FC8223022C222022204220822304040DD
:100D5300BBAD000000007FFE00000FF0111011106A
:100D6300111051125FF25112511251124FF24002FF
:100D73007FFCD4B2000000007FFE47E24812481215
:100D830047E24FF2501250125112511242924472E2
:100D9300580A3FFCC800000000007FFC0000000070
:100DA300000000003FF80000000000000000000009
:100DB300FFFE00000000BDC7080008001FE0202060
:100DC3004040BFF8210821083FF8210821083FF8D7
:100DD3002108410841288010CDBC000000003FFEDF
:100DE300440247F24C225362408243625E1A4182BC
:100DF3004062430240C240223FFCC6AC00000040B8
:100E03002040204020403FFE2000200020003FE003
:100E1300201020102010201040104010CFD40000CC
:100E230000003FFC200420043FFC200420041FF8A2
:100E330024441448144814480C5004407FFECABE8E
:100E4300000000003FFC0000000000007FFE008067
:100E530008900888108810842084208240820780AC
:100E6300B2CB0000002008207FFE002000783F88DE
:100E73001108089009207FFE018003400D30310CDA
:100E83004002B5A500000010081004203FF821041B
:100E930021043FFC210421043FF801007FFE0100EF
:100EA30001000100D6D000000100010001003FFC59
:100EB3002104210421042104210421043FFC010015
:100EC300010001000100D3A20000000008207FFE02
:100ED3000820092001003FF82108210821081FF4F8
:100EE300014002200C10700ECEC40000010001006E
:100EF30000803F7C081008100410042002200240E8
:100F03000180018002601C18E006D7DB00000000AE
:100F1300102011FE2202220249FC5800300013FE69
:100F23002528792401240D24722202A2BACF0000BD
:100F33000000018002400430180860061FF800001A
:100F43001FF8200420042004200420041FF8C1C13A
:100F53000000010001007FFE00003FF820083FF879
:100F63003FF8400647C24824082008221022603E6A
:100F7300B6C80000000000803FFE44105FFC441030
:100F8300441043F040005FF84408423041C04360DE
:100F9300BC1EB2E20000000067C2145205520552A3
:100FA300C55225520552055215521752228222422A
:100FB3004442483ECAD4000000002014101417FE17
:100FC30000120010601013F0109010901090149203
:100FD30014EA1F0A0006B3CC0000000019FE7202D7
:100FE300120212027DFC18001BFE3420502053FE17
:100FF30010201020102013FED0F20000000000800B
:101003003FFE400047FC4208413040C05FFE404283
:1010130040424044404840404440B5F7000000008F
:1010230023FE122202FA0222E22212FE1272128A14
:10103300128A128A16BA1A421202040EB9E2000088
:101043000100010411080908091009207FFE04406A
:10105300044004400440084208421042607CB0E669
:101063000000000048FE4900490049007EFE41821D
:101073004144794445284528451045284644038280
:10108300C8A800001000100013FC7D04110419040B
:10109300188434885048505010201050108813047E
:1010A3001402CBF9000000003F7C204020403E406A
:1010B300227E2244224422443E842084208440848D
:1010C30041044204C6C100003FF8200820083FF84D
:1010D300241022202FF8222022203FFC222042200D
:1010E300442084200820C4BB04407FFC04401FF03C
:1010F30010101FF010101FF00400FFFE11103FF836
:10110300D116115011200100D0002080108010FE54
:101113000100FE0021FC20243C2424A024A024BCA4
:1011230024A024A04560553E8A00D7AA2020202071
:101133002020FDFC4020504093FEFC40108011FC19
:101143001C04F0885050102010101010BFAA00008B
:101153007FFC08200820082008200820FFFE082024
:101163000820082008201020102020204020D4B47C
:10117300000027FE1420144085FC450445FC15049B
:1011830015FC2524E42024A829242A2230A0004089
:10119300D2BA0080204017FE11208120423C4244F5
:1011A300166412942348E2482230222022502288D7
:1011B3000306BEA70FE0082008200FE00820082040
:1011C3000FE000007EFC428442847EFC4284428421
:1011D3007EFC4284CDF800007FFC400440044214AE
:1011E30052944A54442444244A544A545294610421
:1011F300400440144008D5BE1020082008207E205B
:10120300003E04204420442025FC290429040F0423
:10121300F104410401FC0104B0B41040102010207B
:1012230013FEFA02144410401BFE3088D0881108C4
:1012330010D01020105050882304BCFC2010201024
:101243003B7C211441FE7A14A27C2710F97C2510E3
:1012530025FE22102A10350028FE0000D0A31040DE
:101263001020102011FEFC00108831043A0254882B
:101273005088905010501020105010881306D7BC7F
:1012830001404120212023FE022016201BFC1220B6
:10129300222023FCE2202220222023FE220002001F
:1012A300B4A520202020782049FC91247D245524B6
:1012B30055247DFC552454207C28542457FE450294
:1012C3008C00C3FE1110111017FC1110FC0013F851
:1012D300120817F81A0833F8D04017FC10A01110A1
:1012E30052082406C9EE00000000000010000008A8
:1012F30000080C7FFC04401001C8A00218604230B3
:101303001832231812C30014030004030C047FF0E3
:10131300080F80080B4078136018332018631818DF
:10132300831C190308180300000300000000DBDA24
:1013330000000000000004100C04180C04108C04BE
:10134300108C04108C04108C04D08C3F108C04106F
:101353008C04108C04108C04108C04108C04108CDE
:1013630005F08C0E208C78208C20408C00808C0122
:10137300000C02000C000000CAD0000000000000B6
:1013830000300000180000180800001C1FFFE000D8
:10139300180000182007FFF0041820041820041870
:1013A30020041820041820041820041820041820EE
:1013B3000418200418E00418400018000018000066
:1013C3000000D6D000000000000000000000000074
:1013D3000018000018000018000018003FFFFE303E
:1013E30018063018063018063018063018063FFF66
:1013F300FE3018060018000018000018000018003E
:10140300001800000000000000000000CEC400002F
:1014130000000000000000003800001C000006006F
:10142300FFFFFF0600300600300300600300600189
:1014330080C000C18000E300003600001C0000777C
:101443000003C1E01E003C60000700000000000034
:10145300000000000000B2E20000000000000000F5
:101463000000000040000321FF333983331183332D
:10147300019B33C19B33719B33199B33019B330115
:101483009B33119B3319B333303033306C0330C685
:10149300036383032E01BE00000000000000000070
:1014A300CAD400000000000000000000000040005B
:1014B300D83000CE1800C21C00C001FFFF0000C0DE
:1014C300F800C01800C019FFC01818401818601998
:1014D30018601B18611E18311C1FB139F019100058
:1014E3000F000000000000000000D7D6000000003D
:1014F30000060000000300000000C0000001C0C09F
:10150300000107C00001FF00021FFE0007F01C00DE
:1015130007C070000F00E0000E03F0001C0FF00086
:101523003C0F70003C00E0001800C0000000C00049
:101533000000C00000006000000020000000370031
:101543000001FF00007FF80007F830001F80300023
:101553000080300000C03000006060000018E00030
:10156300000FC0000006000000000000CCE50000F2
:10157300000000000000000000C0000000E00020A8
:1015830001B800703FF80061FFC000C3030001C64B
:101593000600038C060003080C0006080C000E1856
:1015A300183F1E101BF31F903F0700803C1C019047
:1015B300707C019060FE01A0C3F801A00FD803A0C6
:1015C3000818036000180340001803C000180380C4
:1015D30000180300001800000018000000100000AD
:1015E3000030000000300000000000000000B2E204
:1015F30000000000000000000000000000000000E8
:10160300020C1008071FF80403BFF00201BC3003EB
:1016130003EC3003015C600300D8600300D860036F
:101623008098620361B8430771B1430631324306C0
:101633003376C3063A64C7063EECC0063E78C0065E
:101643003C3040067C70000678E060067BFFF006C5
:10165300F7C00006E4000006400000060000000694
:101663000000007C00008FF000007C000000000000
:10167300CAD40000000000000000000000000000C9
:101683003F0000007F8000000180000000C00000D8
:1016930000C0000000CE038000CFFFC000DD41800A
:1016A3000FFE0007FFFC000C00F000180FC03E19EE
:1016B300FF40F311BC6083307FE003B1FE200333AE
:1016C300802003700030036000100360001807C01F
:1016D300000C07C0000407800002010000030000A3
:1016E30000010000000000000000000000000000F6
:0216F3000000F5
:10590400900017FEE0FCA3E0FD900016E02DFD9052
:0D5914000015E03CFC90001BE0FAA3E0FB56
:1059210090001DEAF0A3EBF01259FB90001DE0FE80
:06593100A3E0FF025A4B47
:104BEA00900011E0FCA3E0FD90000FE0FAA3E0FBC7
:104BFA00A3E0FFA3E090002FCFF0A3EFF0900049CD
:104C0A00E0FFA3E0900031CFF0A3EFF090000DE0B9
:044C1A00FEA3E0FF16
:0E4C1E00900029EEF0A3EFF0A3ECF0A3EDF070
:104C2C00900029E0FEA3E0FFC3EB9FFFEA9ECF2498
:104C3C0001CF3400900037F0A3EFF090002BE0FE92
:104C4C00A3E0FFC3900030E09FFF90002FE09ECFC9
:104C5C002401CF3400900039F0A3EFF090002BE04A
:104C6C00FCA3E0FD90002FE0FFA3E0900047CFF005
:104C7C00A3EFF0900029E0FEA3E0FF12582AE49085
:104C8C000033F0A3F0900039E0FEA3E0FFC39000E6
:104C9C0034E09F900033E09E5047E4900035F0A341
:104CAC00F0900037E0FEA3E0FFC3900036E09F9049
:104CBC000035E09E501B900031E0FEA3E0FF125A3D
:104CCC004B900036E004F070D8900035E004F08092
:104CDC00D0900034E004F070AC900033E004F0802D
:104CEC00A490004EE024FFFB90004DE034FFFA90BE
:104CFC000050E024FFFE90004FE034FF900047F09E
:0B4D0C00A3CEF0E4FDFCFFFE02582ADD
:0E44800090000DEEF0A3EFF0A3ECF0A3EDF032
:10448E00E4900017F0A3F0A3F0A3F090000DE0FE6F
:10449E00A3E0FFC3EB9FFFEA9E90001BF0A3EFF09B
:1044AE0090000FE0FAA3E0FBC3900014E09BFE9097
:1044BE000013E09A90001DF0A3CEF090000DE0FFE7
:1044CE00A3E0900025CFF0A3EFF0A3EAF0A3EBF06A
:1044DE0090001BE0FEA3E0FFD39400EE6480948076
:1044EE00400A900021E4F0A304F08021EF4E700802
:1044FE00900021F0A3F0801574FF900021F0A3F03E
:10450E00C3E49FFFE49E90001BF0A3EFF090001D0C
:10451E00E0FEA3E0FFD39400EE64809480400A9006
:10452E000023E4F0A304F08021EF4E7008900023E6
:10453E00F0A3F0801574FF900023F0A3F0C3E49F66
:10454E00FFE49E90001DF0A3EFF090001DE0FEA38F
:10455E00E0FF90001BE0FCA3E0FDD39FEE6480F82B
:10456E00EC64809890001F4007ECF0A3EDF08005FE
:10457E00EEF0A3EFF0E4900015F0A3F0900020E031
:10458E002401FF90001FE03400FED3900016E09F40
:10459E00900015E09E400302466A900025E0FEA3BF
:1045AE00E0FFA3E0FCA3E0FD12593790001BE0FEF4
:1045BE00A3E0FF900018E02FF0900017E03EF0907F
:1045CE00001DE0FEA3E0FF90001AE02FF09000190E
:1045DE00E03EF090001FE0FEA3E0FF900017E0FC2D
:1045EE00A3E0FDD39FEE6480F8EC6480984020ED4C
:1045FE009FFFEC9E900017F0A3EFF0900021E0FEDD
:10460E00A3E0FF900026E02FF0900025E03EF09012
:10461E00001FE0FEA3E0FF900019E0FCA3E0FDD335
:10462E009FEE6480F8EC6480984020ED9FFFEC9E36
:10463E00900019F0A3EFF0900023E0FEA3E0FF90AE
:10464E000028E02FF0900027E03EF0900016E004E6
:0C465E00F07006900015E004F002458AA0
:01466A00222D
:10539900900005EAF0A3EBF0900001EEF0A3EFF026
:1053A900A3ECF0A3EDF0C007A3E0FAA3E0FB9000A3
:1053B90003E0FFA3E0900013CFF0A3EFF0D00712B2
:1053C9004480900001E0FAA3E0FBFFAE02C007A30E
:1053D900E0FCA3E0FD900007E0FFA3E0900013CFFD
:1053E900F0A3EFF0D007124480900007E0FCA3E09F
:1053F900FD900005E0FAA3E0FBA3E0FFA3E0900025
:1054090013CFF0A3EFF0900001E0FEA3E0FF1244F8
:1054190080900005E0FAA3E0FBFFAE02C007900010
:1054290003E0FCA3E0FD900007E0FFA3E090001378
:0A543900CFF0A3EFF0D0070244808B
:1059D600C007900007E0FFA3E090002FCFF0A3EFF1
:1059E600F0900049E0FFA3E0900031CFF0A3EFF084
:0559F600D007024C1E69
:104AAD00900019F0A3EFF0900005E0FFA3E0900057
:0E4ABD001BCFF0A3EFF0900001E0FEA3E0FF9E
:104ACB00900015ECF0A3EDF0900013EEF0A3EFF0D7
:104ADB00900017EAF0A3EBF02FFFEE3AA312590761
:104AEB00900017E0FEA3E0FFC3900014E09FFF903F
:104AFB000013E09EFE900019125908900017E0FE7B
:104B0B00A3E0FF900014E02FFF900013E03EFE9017
:104B1B000019E0FCA3E0FDC3900016E09DFD9000A2
:104B2B0015E09C125918900017E0FEA3E0FFC3900C
:104B3B000014E09FFF900013E09EFE900019E0FC34
:104B4B00A3E0FDC3900016E09DFD900015E09C12C4
:104B5B005918900019E0FEA3E0FF900014E02FFF1E
:104B6B00900013E03E125904900019E0FEA3E0FF01
:104B7B00C3900014E09FFF900013E09E1259049025
:104B8B000019E0FEA3E0FF900014E02FFF9000134C
:104B9B00E03EFE900017E0FCA3E0FDC3900016E0A2
:104BAB009DFD900015E09C125918900019E0FEA392
:104BBB00E0FFC3900014E09FFF900013E09EFE9077
:104BCB000017E0FCA3E0FDC3900016E09DFD9000F4
:0F4BDB0015E09CFC90001BE0FAA3E0FB025921BF
:103EA400900001EEF0A3EFF0A3ECF0A3EDF0A3EA91
:043EB400F0A3EBF09C
:103EB800E490000BF0A3F0900007E0FEA3E0FF9071
:103EC800000DEEF0A3EFF025E0FFEE33FEC3740320
:103ED8009F900012F0E49E900011F0900009E070AD
:103EE80002A3E07003023FE790000DE0FEA3E0FFAD
:103EF80090000BE0FCA3E0FDD39FEE6480F8EC6437
:103F08008098400302409990000FECF0A3EDF090E8
:103F1800000DE0FEA3E0FFD3900010E09FEE648068
:103F2800F890000FE0648098502B900003E0FCA309
:103F3800E0FD90000BE0FAA3E0FB90000FE0FFA388
:103F4800E0CF124AAD900010E004F070C290000F6C
:103F5800E004F080BA900011E0FCA3E0FDC3EC643B
:103F6800809480502390000BE0FEA3E07802C333D6
:103F7800CE33CED8F92DFFEC3ECF2406CF340090B7
:103F88000011F0A3EFF0804390000DE0FEA3E0FFE6
:103F9800C390000CE09FFF90000BE09EFEEF7802BC
:103FA800C333CE33CED8F9FF900012E02FFF900034
:103FB80011E03ECF240ACF3400F0A3EFF090000EBA
:103FC800E024FFF090000DE034FFF090000CE004D6
:103FD800F06003023EF090000BE004F0023EF09027
:103FE800000DE0FEA3E0FF90000BE0FAA3E0FBD396
:103FF8009FEE6480F8EA648098400302409990003C
:1040080003E0FCA3E0FDEE124AAD900011E0FCA332
:10401800E0FDC3EC64809480502390000BE0FEA385
:10402800E07802C333CE33CED8F92DFFEC3ECF244F
:1040380006CF3400900011F0A3EFF0804390000DFC
:10404800E0FEA3E0FFC390000CE09FFF90000BE0B0
:104058009EFEEF7802C333CE33CED8F9FF9000121C
:10406800E02FFF900011E03ECF240ACF3400F0A3E8
:10407800EFF090000EE024FFF090000DE034FFF028
:1040880090000CE004F0700690000BE004F0023F92
:01409800E740
:014099002204
:1056E800900001EEF0A3EFF0A3ECF0A3EDF0A3EA35
:1056F800F0A3EBF0C007A3E0FFA3E0900013CFF006
:10570800A3EFF0D007124480900007E0FCA3E0FD6F
:10571800A3E0FAA3E0FBA3E0FFA3E0900013CFF01F
:10572800A3EFF0900005E0FEA3E0FF124480900094
:105738000BE0FCA3E0FD900001E0FAA3E0FBA3E08E
:10574800FFA3E0900013CFF0A3EFF0900009E0FE74
:06575800A3E0FF02448003
:1057D30090002C7401F0A37400F0A37407F07B0114
:0457E3007A007903CC
:0B57E700900029EBF0A3EAF0A3E9F02A
:1057F200122EE6FFAEF090002CE0FBA3E0FAA3E04D
:10580200F9122EE6FD900029E0FBA3E0FAA3E0F9ED
:10581200E5F08DF0122F1190002CE0FBA3E0FAA32B
:08582200E0F9EE8FF0022F11F6
:10253400900001EEF0A3EFF0A3ECF0A3EDF0A3EA1A
:04254400F0A3EBF025
:1025480090002112305900000000900025123059E7
:1025580000000000900007E0FEA3E0FF900003E009
:10256800FCA3E0D39FEC9E401A1257D390002C7422
:1025780001F0A37400F0A37405F07B017A007901DF
:102588001257E790000BE0FEA3E0FF900007E0FC85
:10259800A3E0D39FEC9E402E90002C7401F0A3740E
:1025A80000F0A37407F07B017A00790B1257E790CB
:1025B800002C7401F0A37400F0A37405F07B017A79
:1025C8000079091257E7900007E0FEA3E0FF9000AA
:1025D80003E0FCA3E0D39FEC9E401A1257D390006F
:1025E8002C7401F0A37400F0A37405F07B017A0049
:1025F80079011257E790000BE0FEA3E0FF9000037B
:10260800E0FCA3E0FD6F7002EC6E60030226DC9034
:102618000001E0FEA3E0FF90000FEEF0A3EFF090C2
:10262800000DEEF0A3EFF090000DE0FEA3E0FF90A8
:102638000005E0FAA3E0FBC39FEA9E500A90000D54
:10264800EAF0A3EBF0801E90000FE0FEA3E0FFD3BA
:10265800EB9FEA9E400F900005E0FFA3E090000F7B
:10266800CFF0A3EFF090000DE0FEA3E0FF9000098B
:10267800E0FAA3E0FBC39FEA9E500A90000DEAF03F
:10268800A3EBF0801E90000FE0FEA3E0FFD3EB9FCA
:10269800EA9E400F900009E0FFA3E090000FCFF002
:1026A800A3EFF090000FE0FAA3E0FB900003E0FF37
:1026B800A3E090002FCFF0A3EFF0900049E0FFA334
:1026C800E0900031CFF0A3EFF090000DE0FEA3E022
:1026D800FF024C1E900001E0FAA3E0FB900005E029
:1026E800FEA3E0C39BFFEE9A900015F0A3EFF090D5
:1026F8000003E0FEA3E0FF900007E0FCA3E0C39F17
:10270800FFEC9E900017F0A3EFF0900009E0FEA305
:10271800E0C39BFFEE9A900019F0A3EFF09000033E
:10272800E0FEA3E0FF90000BE0FCA3E0C39FFFECFA
:102738009E90001BF0A3EFF0900005E0FEA3E0FFE1
:10274800900009E0FCA3E0C39FFFEC9E90001DF001
:10275800A3EFF0900007E0FAA3E0FB90000BE0FC89
:10276800A3E0FDC39BFEEC9A90001FF0A3CEF0EB14
:10277800B50510EAB5040C900007FFA3E09000131C
:10278800CF8010900007E0FEA3E024FFFFEE34FFA7
:10279800900013F0A3EFF0900003E0FFA3E0900097
:1027A80011CFF0A3EFF0900013E0FEA3E0FF90003C
:1027B80011E0FCA3E0D39FEC9E40030228C89000E0
:1027C80017E0FEA3E0FBAA06EA3395E0F9F89000CB
:1027D80021E0FCA3E0FDA3E0FEA3E0FF1258C090B7
:1027E8000001E0FCA3E02FFFEC3E90000DF0A3EF0A
:1027F800F090001BE0FEA3E0FBAA06EA3395E0F99F
:10280800F8900025E0FCA3E0FDA3E0FEA3E0FF12A2
:1028180058C0900001E0FCA3E02FFFEC3E90000FB1
:10282800F0A3EFF0900021E0F8A3E0F9A3E0FAA309
:10283800E0FB900015E0FEA3E0FFEE3395E0FDFC21
:10284800EB2FFFEA3EFEE93DFDE83CFC900021123B
:10285800304D900025E0F8A3E0F9A3E0FAA3E0FBEF
:10286800900019E0FEA3E0FFEE3395E0FDFCEB2FAE
:10287800FFEA3EFEE93DFDE83CFC90002512304DA4
:1028880090000FE0FEA3E0FF90000DE0FCA3E0D372
:102898009FEC9E401790002C7401F0A37400F0A3E5
:1028A800740FF07B017A00790D1257E7124BEA900A
:1028B8000012E004F07006900011E004F00227AE68
:1028C800900007E0FEA3E0FF900011E0FAA3E0FB10
:1028D800C39FFFEA9EFE90001DE0FCA3E0FD122EC0
:1028E800BEE4FCFD90002112304D900003E0FEA3F1
:1028F800E0FFC3EB9FFFEA9EFE900019E0FCA3E017
:10290800FD122EBEE4FCFD90002512304D90000B08
:10291800E0FEA3E0FF900011E0FCA3E0D39FEC9E53
:102928004003022A2D90001FE0FEA3E0FBAA06EA5E
:102938003395E0F9F8A3E0FCA3E0FDA3E0FEA3E0F3
:10294800FF1258C0900005E0FCA3E02FFFEC3E907A
:10295800000DF0A3EFF090001BE0FEA3E0FBAA0639
:10296800EA3395E0F9F8900025E0FCA3E0FDA3E048
:10297800FEA3E0FF1258C0900001E0FCA3E02FFF87
:10298800EC3E90000FF0A3EFF0900021E0F8A3E0F8
:10299800F9A3E0FAA3E0FB90001DE0FEA3E0FFEE40
:1029A8003395E0FDFCEB2FFFEA3EFEE93DFDE83CF8
:1029B800FC90002112304D900025E0F8A3E0F9A327
:1029C800E0FAA3E0FB900019E0FEA3E0FFEE3395E8
:1029D800E0FDFCEB2FFFEA3EFEE93DFDE83CFC9004
:1029E800002512304D90000FE0FEA3E0FF90000D8F
:1029F800E0FCA3E0D39FEC9E401790002C7401F0FC
:102A0800A37400F0A3740FF07B017A00790D1257BC
:102A1800E7124BEA900012E004F07006900011E013
:052A280004F002291575
:012A2D002286
:103C8C00F0900029E0900037F0900021E0FAA3E0DA
:013C9C00FB2C
:103C9D0090002DEEF0A3EFF0900031EAF0A3EBF0E1
:083CAD0090002FECF0A3EDF0F4
:103CB500900049E0FFA3E090003BCFF0A3EFF09028
:103CC5000035E024E0F0A3E0F9C313FF7E00900087
:103CD5002DE0FAA3E02FFFEE3ACF24FFFBEF34FFF0
:103CE500FAE9FFA3E0F8A3E02FFFEE38CF24FFCFDA
:103CF50034FF900047F0A3EFF090002DE0FEA3E025
:103D0500FF12582A900037E06003023DAC9000395D
:103D1500F0900036E0FF900039E0FEC39F400302BB
:103D25003E6BEFB40C17900035E075F00CA424033E
:103D3500F582E5F03400F583E5822E801A9000398E
:103D4500E0FF900035E075F010A42477F582E5F0EA
:103D55003404F583E5822FF582E43583F583E49316
:103D6500900038F0E490003AF0900036E0C313FF7D
:103D750090003AE0C39F5026900038E030E005906F
:103D850000318003900033E0FEA3E0FF125A4B9010
:103D95000038E0C313F090003AE004F080CB9000C7
:103DA50039E004F0023D16E4900039F0900036E069
:103DB500FF900039E0FEC39F4003023E6BEFB40C59
:103DC50017900035E075F00CA42403F582E5F03476
:103DD50000F583E5822E801A900039E0FF900035CA
:103DE500E075F010A42477F582E5F03404F583E559
:103DF500822FF582E43583F583E493900038F0E46F
:103E050090003AF0900036E0C313FF90003AE0FED0
:103E1500C39F5049900031E0FDA3E0900049CDF0EB
:103E2500A3EDF0900038E030E024EEFF90002EE0A6
:103E35002FFF90002DE03400FE900039E0FD90004A
:103E450030E02DFD90002FE03400FC125937900032
:103E550038E0C313F090003AE004F080A7900039F1
:103E6500E004F0023DB190003BE0FFA3E090004983
:103E7500CFF0A3EFF090004EE024FFFB90004DE063
:103E850034FFFA900050E024FFFE90004FE034FF2D
:0F3E9500900047F0A3CEF0E4FDFCFFFE02582A98
:10521C00900071EEF0A3EFF0A3ECF0A3EDF0A3EB94
:10522C00F0900076E0FBA3E0FAA3E0F9122E78FFF1
:10523C00D3947E40030252DDEFC3942050030252FC
:10524C00DD90004EE024FFFD90004DE034FFFC901B
:10525C000071E0FEA3E0FFD39DEE9C5074900050D3
:10526C00E024FFFB90004FE034FFFA900073E0FC69
:10527C00A3E0FDD39BEC9A505890004BE0FBA3E0CD
:10528C00900033CBF0A3EBF0900076E0FBA3E0FAB8
:10529C00A3E0F9122E78900035F0900075E09000A4
:1052AC0036F0900079E0900037F0900049123C986D
:1052BC00900075E0C313FF900072E02FF090007126
:1052CC00E03400F0900077E475F001122ED0025219
:0252DC002D2281
:0858770090007AEFF0A3EDF0C0
:10587F00A31230590000000190007BE0FF14F0EFFD
:10588F006020A3E0F8A3E0F9A3E0FAA3E0FB900007
:10589F007AE0FFE4FCFDFE122F3090007C12304DB9
:1058AF0080D690007CE0FCA3E0FDA3E0FEA3E0FF28
:0158BF0022C6
:0E4D170090005AEEF0A3EFF0A3ECF0A3EDF045
:104D2500E4900066F0900064F0900062E0FF90006F
:104D350064E0FEC39F4003024E27C3EF9E14FD7F30
:104D45000A125877A804A905AA06AB0790005EE0E9
:104D5500FCA3E0FDA3E0FEA3E0FF122FBBE47B0A6A
:104D6500FAF9F8122FBB900065EBF0A3E0705790AD
:104D75000062E014FF900064E0FEC39F5048A3E08A
:104D8500703E900063E0F9C3138EF0A4FF90005BC2
:104D9500E02FFF90005AE035F0FEC00790005CE080
:104DA500FCA3E0FD900049E0FAA3E0FB90004BE096
:104DB500FFA3E0900033CFF0A3EFF0A37420804D64
:104DC5009000667401F0900063E0F9C313FFA3E05F
:104DD500FEEF8EF0A4FF90005BE02FFF90005AE0FD
:104DE50035F0FEC00790005CE0FCA3E0FD900049B3
:104DF500E0FAA3E0FB90004BE0FFA3E0900033CF87
:104E0500F0A3EFF0900065E02430900035F0A3E9C1
:104E1500F0E4A3F0D007123C9D900064E004F0029A
:024E25004D2E10
:014E27002268
:1035C30090002FECF0A3EDF0A3EAF0A3EBF0900052
:0635D3002DEEF0A3EFF065
:1035D90090003FEEF0A3EFF090003DE4F0A37440BB
:1035E900F0E490003BF0A3F090003DE0FEA3E0FF83
:1035F90090003BE0FCA3E0FDC39FEC9E4003023733
:10360900DC900035E0FBA3E0FAA3E0F9122E78FF85
:10361900900A6775F022ED12308AEC75F022A42524
:1036290083F583E4936F60030237CB900001122E78
:1036390091FF90003BA3E0900A6875F02212308A4E
:10364900EC75F022A42583F583E4936F60030237B8
:10365900CB90002DE0FAA3E0FBFFAE02C006C00745
:10366900A3E0FCA3E0FDEB240FFBE43AFA90002F62
:10367900E0FEA3E0240FFFE43E900047F0A3EFF043
:10368900D007D00612582AE4900039F0E490003AA5
:10369900F090003AE0FFC3940840030237BC900061
:1036A90038E0705AA3E0FE90003BE0FCA3E0900AEA
:1036B9006975F02212308AEC75F022A42583F5830E
:1036C900E5822EF582E43583F583E493FD3395E0B5
:1036D900FC74807E00A807088006CEA2E713CE13EB
:1036E900D8F8FFEE5CFEEF5D4E6005900031800377
:1036F900900033E0FEA3E0FF125A4B0237B390006B
:1037090031E0FFA3E0900049CFF0A3EFF09000393A
:10371900E0FF90003BE0FCA3E0900A6975F02212FB
:10372900308AEC75F022A42583F583E5822FF58292
:10373900E43583F583E493FD3395E0FC90003AE0AA
:10374900FF74807E00A807088006CEA2E713CE1377
:10375900D8F8FFEE5CFEEF5D4E601190002DE0FEA3
:10376900A3E0FFA3E0FCA3E0FD12593790002EE08F
:1037790004F0700690002DE004F090003FE0FEA3F5
:10378900E0FFC390002EE09FFD90002DE09EFCED30
:1037990064104C7015EEF0A3EFF0900030E004F0E7
:1037A900701190002FE004F0800990003AE004F0D5
:1037B90002369A900039E004F0E0C39420500302E5
:1037C900369590003CE004F0700690003BE004F070
:1037D9000235F190004EE024FFFB90004DE034FFEC
:1037E900FA900050E024FFFE90004FE034FF900073
:0D37F90047F0A3CEF0E4FDFCFFFE02582ACD
:1038060090002FECF0A3EDF0A3EAF0A3EBF090000C
:063816002DEEF0A3EFF01F
:10381C0090003FEEF0A3EFF090003DE4F0A37407AE
:10382C00F0E490003BF0A3F090003DE0FEA3E0FF3D
:10383C0090003BE0FCA3E0FDC39FEC9E4003023AEA
:10384C001F900035E0FBA3E0FAA3E0F9122E78FFFD
:10385C009012E775F04AED12308AEC75F04AA42507
:10386C0083F583E4936F6003023A0E900001122EED
:10387C0091FF90003BA3E09012E875F04A12308A59
:10388C00EC75F04AA42583F583E4936F6003023A48
:10389C000E90002DE0FAA3E0FBFFAE02C006C007BD
:1038AC00A3E0FCA3E0FDEB2417FBE43AFA90002F15
:1038BC00E0FEA3E02417FFE43E900047F0A3EFF0F6
:1038CC00D007D00612582AE4900039F0E490003A60
:1038DC00F090003AE0FFC3940840030239FF9000D7
:1038EC0038E0705AA3E0FE90003BE0FCA3E090129D
:1038FC00E975F04A12308AEC75F04AA42583F583F9
:10390C00E5822EF582E43583F583E493FD3395E06F
:10391C00FC74807E00A807088006CEA2E713CE13A5
:10392C00D8F8FFEE5CFEEF5D4E6005900031800331
:10393C00900033E0FEA3E0FF125A4B0239F69000E0
:10394C0031E0FFA3E0900049CFF0A3EFF0900039F5
:10395C00E0FF90003BE0FCA3E09012E975F04A1206
:10396C00308AEC75F04AA42583F583E5822FF58225
:10397C00E43583F583E493FD3395E0FC90003AE065
:10398C00FF74807E00A807088006CEA2E713CE1332
:10399C00D8F8FFEE5CFEEF5D4E601190002DE0FE5E
:1039AC00A3E0FFA3E0FCA3E0FD12593790002EE04A
:1039BC0004F0700690002DE004F090003FE0FEA3B0
:1039CC00E0FFC390002EE09FFD90002DE09EFCEDEB
:1039DC0064184C7015EEF0A3EFF0900030E004F09A
:1039EC00701190002FE004F0800990003AE004F090
:1039FC000238DD900039E004F0E0C3944850030233
:103A0C0038D890003CE004F0700690003BE004F0E5
:103A1C0002383490004EE024FFFB90004DE034FF60
:103A2C00FA900050E024FFFE90004FE034FF90002D
:0D3A3C0047F0A3CEF0E4FDFCFFFE02582A87
:103A490090002FECF0A3EDF0A3EAF0A3EBF09000C7
:063A59002DEEF0A3EFF0DA
:103A5F0090003FEEF0A3EFF090003DE4F0A374046C
:103A6F00F0E490003BF0A3F090003DE0FEA3E0FFF8
:103A7F0090003BE0FCA3E0FDC39FEC9E4003023CA3
:103A8F0062900035E0FBA3E0FAA3E0F9122E78FF75
:103A9F009014ED75F082ED12308AEC75F082A4254A
:103AAF0083F583E4936F6003023C51900001122E63
:103ABF0091FF90003BA3E09014EE75F08212308AD4
:103ACF00EC75F082A42583F583E4936F6003023CC9
:103ADF005190002DE0FAA3E0FBFFAE02C006C00735
:103AEF00A3E0FCA3E0FDEB241FFBE43AFA90002FC8
:103AFF00E0FEA3E0241FFFE43E900047F0A3EFF0A9
:103B0F00D007D00612582AE4900039F0E490003A1A
:103B1F00F090003AE0FFC394084003023C4290004B
:103B2F0038E0705AA3E0FE90003BE0FCA3E0901455
:103B3F00EF75F08212308AEC75F082A42583F5833D
:103B4F00E5822EF582E43583F583E493FD3395E02A
:103B5F00FC74807E00A807088006CEA2E713CE1360
:103B6F00D8F8FFEE5CFEEF5D4E60059000318003EC
:103B7F00900033E0FEA3E0FF125A4B023C39900055
:103B8F0031E0FFA3E0900049CFF0A3EFF0900039B0
:103B9F00E0FF90003BE0FCA3E09014EF75F0821281
:103BAF00308AEC75F082A42583F583E5822FF582A8
:103BBF00E43583F583E493FD3395E0FC90003AE020
:103BCF00FF74807E00A807088006CEA2E713CE13ED
:103BDF00D8F8FFEE5CFEEF5D4E601190002DE0FE19
:103BEF00A3E0FFA3E0FCA3E0FD12593790002EE005
:103BFF0004F0700690002DE004F090003FE0FEA36B
:103C0F00E0FFC390002EE09FFD90002DE09EFCEDA5
:103C1F0064204C7015EEF0A3EFF0900030E004F04C
:103C2F00701190002FE004F0800990003AE004F04A
:103C3F00023B20900039E004F0E0C394805003026F
:103C4F003B1B90003CE004F0700690003BE004F05A
:103C5F00023A7790004EE024FFFB90004DE034FFD6
:103C6F00FA900050E024FFFE90004FE034FF9000E8
:0D3C7F0047F0A3CEF0E4FDFCFFFE02582A42
:1030960090001FECF0A3EDF0A3EAF0A3EBF0900094
:0630A6001DEEF0A3EFF0A7
:1030AC0090002AEEF0A3EFF0E4A3F0900025E0FBF3
:1030BC00A3E0FAA3E0F9122E7870030233369000E5
:1030CC002CE060030231F8900028E0FFC313FDC32D
:1030DC0090004EE09DFD90004DE09400FCD39000DC
:1030EC001EE09D90001DE09C4003023336C390000F
:1030FC0050E09FFF90004FE09400FE90001FE0FC1A
:10310C00A3E0FDD39FEC9E4003023336900025E0F4
:10311C00FBA3E0FAA3E0F9122E78FFD394804008C9
:10312C0090002C7401F08083EFB40D2E900028E0F9
:10313C00FF900020E02FF090001FE03400F0900092
:10314C002AE0FFA3E090001DCFF0A3EFF090002643
:10315C00E475F001122ED00231EB900028E0D394EC
:10316C001090001DE0FEA3E0FF402F900023E0FB39
:10317C00A3E0900033CBF0A3EBF0900025E0FBA391
:10318C00E0FAA3E0F9122E78900035F0A374101237
:10319C003C8C90001EE02408803DA3E0FCA3E0FDE5
:1031AC00900023E0FBA3E0900033CBF0A3EBF09076
:1031BC000025E0FBA3E0FAA3E0F9122E789000358D
:1031CC00F0900028E0900036123C8C900028E0C370
:1031DC0013FF90001EE02FF090001DE03400F090E3
:1031EC000026E475F001122ED00230B7900028E0D2
:1031FC00F9FF7E00C390004EE09FFD90004DE09ED5
:10320C00FCD390001EE09D90001DE09C4003023317
:10321C0036C3900050E09FFF90004FE09EFE900060
:10322C001FE0FCA3E0FDD39FEC9E4003023336E489
:10323C0090002CF0E9B4204290001DE0FEA3E0FFCA
:10324C00900023E0FBA3E0900033CBF0A3EBF090D5
:10325C000025E0F9A3E0FAA3E0900035C9F0A3EA59
:10326C00F0A3E9F0900029E0900038F0900021E004
:10327C00FAA3E0FB123A49023317900028E06418D5
:10328C0090001D7044E0FEA3E0FFA3E0FCA3E0FD72
:10329C00900023E0FBA3E0900033CBF0A3EBF09085
:1032AC000025E0F9A3E0FAA3E0900035C9F0A3EA09
:1032BC00F0A3E9F0900029E0900038F0900021E0B4
:1032CC00FAA3E0FB1238068042E0FEA3E0FFA3E085
:1032DC00FCA3E0FD900023E0FBA3E0900033CBF0D7
:1032EC00A3EBF0900025E0F9A3E0FAA3E090003501
:1032FC00C9F0A3EAF0A3E9F0900029E0900038F0BF
:10330C00900021E0FAA3E0FB1235C3900026E4758F
:10331C00F002122ED0900028E0FF90001EE02FF05B
:0A332C0090001DE03400F00230B7FD
:013336002274
:1054D600900010EEF0A3EFF0A3ECF0A3EDF0A3EA3A
:0454E600F0A3EBF054
:1054EA00900018E0FBA3E0FAA3E0F9125A60EF7803
:1054FA0003C333CE33CED8F9FFC390004EE09FFFEB
:10550A0090004DE09EC313FEEF13FF900011E02FB1
:10551A00FF900010E03EFE900012E0FCA3E0FD9038
:10552A000016E0FBA3E0900023CBF0A3EBF0900081
:10553A0018E0F9A3E0FAA3E0900025C9F0A3EAF085
:10554A00A3E9F090001BE0900028F090001CE09086
:0E555A000029F0900014E0FAA3E0FB02309666
:10503900900011EAF0A3EBF090000DEEF0A3EFF071
:06504900A3ECF0A3EDF062
:10504F00C006C007A3E0FEA3E0FF90000DE0FAA3A7
:10505F00E02FFFEA3ECF24FFFBEF34FFFA9000135F
:10506F00E0FEA3E0FF90000FE0F8A3E02FFFE83E83
:10507F00CF24FFCF34FF900047F0A3EFF0D007D03D
:10508F000612582AE4900018F0A3F0900013E0FCE9
:10509F00A3E0FD900011E0FEA3E0FF122EBEC3902F
:1050AF000019E09F900018E09E504AA3E025E0FF12
:1050BF00900018E033FE900015E0FBA3E0FAA3E0A8
:1050CF00F98F828E83122E9190001BF0E92FF9EA4F
:1050DF003EFA900001122E9190001AF0FEA3E0FD0F
:1050EF00EDFF125A4B900019E004F0709E900018DB
:1050FF00E004F0809690004EE024FFFB90004DE01E
:10510F0034FFFA900050E024FFFE90004FE034FF90
:0F511F00900047F0A3CEF0E4FDFCFFFE02582AFB
:10598A00E4FDFCC3ED9FEE6480F8EC64809850154A
:10599A00E4FBFA0BBB00010ABA03F8BBE8F50DBD3C
:0559AA0000010C80DE8D
:0159AF0022D5
:1059B000E4FDFCC3ED9FEE6480F8EC648098501524
:1059C000E4FBFA0BBB00010AEB64014A70F50DBD64
:0559D00000010C80DE67
:0159D50022AF
:0A5A4000420049000042004BFFFF46
:105A1A007E80EE60135F6004D2958002C295C297C1
:085A2A00D297EEC313FE80EADF
:015A32002251
:075A99007FEF125AA07FEB22
:0A5AA000C292C293125A1AD2932246
:085A7500125A7D7F70125A7D68
:0A5A7D00D292C293125A1AD2932259
:105A4B00AD07AC06C293D292ECFF125A1AAF0512F5
:055A5B005A1AD293224B
:085AB300125AA0AF05025A7D52
:095AAA00900054A3E0FF025AA091
:08575E00900010EEF0A3EFF043
:1057660090004EE024FFFB90004DE034FFFA9000DD
:1057760050E024FFFE90004FE034FF900047F0A376
:10578600CEF0E4FDFCFFFE12582AC293D292E4FD4D
:10579600FCD390004EE09D90004DE09C402CE4FB35
:1057A600FAD3900050E09B90004FE09A401590008D
:1057B60010E0FF125A1AA3E0FF125A1A0BBB00019F
:0C57C6000A80DE0DBD00010C80C7D293EC
:0157D20022B4
:10593700AB07AA068D828C83C006C007AE83AF82F1
:10594700900047EEF0A3EFF0D007D00612582A9048
:0A5957000049E0FEA3E0FF025A4BF6
:105A8700C2B37F147E0012598AD2B37F147E0002FC
:025A9700598A2A
:102A2E00125A87125A997F14125A7D7FFE125AA09B
:102A3E00125A997F14125A7D7F84125AA07F401227
:102A4E005A7D7F85125AA07FFF125A7D7F86125AB9
:102A5E00A07FFF125A7D7F87125AA07FFF125A7DE8
:102A6E007F88125AA07F0A125A7D7F89125AA07F40
:102A7E0021125A7D7F8A125AA0E4FF125A7D7F8B53
:102A8E00125AA07F80125A7D7F8C125AA07F01129B
:102A9E005A7D7F8D125AA07F01125A7D7F8E125A57
:102AAE00A07FFF125A7D7F8F125AA07FFF125A7D90
:102ABE007FB6125AA0E4FF125A7D7F20125A7D7FF4
:102ACE0036125AA07F08125A7D7F3A125AA07F05FD
:102ADE00125A7D7F90125AA07F08125A7D125A7D8B
:102AEE00125A7D125A7D7FBD125AA07F06125A7D50
:102AFE007FBC125AA0E4FF125A7D7FFF125AA07FAC
:102B0E0060125A7D7F01125A7D7F04125A7D7FC357
:102B1E00125AA07F13125A7D7FC4125AA07F13122D
:102B2E005A7D7FC9125AA07F22125A7D7FBE125A39
:102B3E00A07F11125A7D7FE1125AA07F10125A7D8A
:102B4E007F0E125A7D7FDF125AA07F21125A7D7F8F
:102B5E000C125A7D7F02125A7D7FF0125AA07F45C9
:102B6E00125A7D7F09125A7D1F125A7D125A7D7F8D
:102B7E0026125A7D7F2A125A7D7FF1125AA07F4368
:102B8E00125A7D7F70125A7D7F72125A7D7F3612D5
:102B9E005A7D0F125A7D7F6F125A7D7FF2125AA004
:102BAE007F45125A7D7F09125A7D1F125A7D125A85
:102BBE007D7F26125A7D7F2A125A7D7FF3125AA0EC
:102BCE007F43125A7D7F70125A7D7F72125A7D7F1B
:102BDE0036125A7D0F125A7D7F6F125A7D7FED127B
:102BEE005AA07F1B125A7D7F0B125A7D7FAE125A4E
:102BFE00A07F77125A7D7FCD125AA07F63125A7D25
:102C0E007F70125AA07F07125A7D125A7D7F0412CE
:102C1E005A7D7F0E125A7D0F125A7D7F09125A7DF0
:102C2E007F07125A7D0F125A7D7F03125A7D7FE85D
:102C3E00125AA07F34125A7D7F62125AA07F181248
:102C4E005A7D7F0D125A7D7F71125A7D7FED125A79
:102C5E00757F18125A7D7F0F125A7D7F71125A7D21
:102C6E007FEF125A757F63125AA07F18125A7D7F1A
:102C7E0011125A7D7F71125A7D7FF1125A757F188B
:102C8E00125A7D7F13125A7D7F71125A7D7FF31275
:102C9E005A757F64125AA07F28125A7D0F125A7DE0
:102CAE007FF1125A7D7F01125A7D7FF1125A7DE417
:102CBE00FF125A7D7F07125A7D7F66125AA07F3C03
:102CCE00125A7DE4FF125A7D7FCD125A7D7F671214
:102CDE005A7D7F45125A7D125A7D7F10125A7DE41D
:102CEE00FF125A7D125A7D125A7D7F67125AA0E446
:102CFE00FF125A7D7F3C125A7DE4FF125A7D125A02
:102D0E007D125A7D0F125A7D7F54125A7D7F1012FA
:102D1E005A7D7F32125A7D7F98125A7D7F74125AD5
:102D2E00A07F10125A7D7F85125A7D7F80125A7DA8
:102D3E00E4FF125A7D125A7D7F4E125A7DE4FF1225
:102D4E005A7D7F98125AA07F3E125A7D7F07125AE3
:102D5E007D7F35125AA07F21125AA07F11125AA0E0
:102D6E007F787E0012598A7F29125AA0E4FF1255ED
:042D7E00F4D2B222B7
:10582A00900041EEF0A3EFF0900056A3E0FF125A69
:10583A00A0900041E0FF125A7DA3E0FF125A7DEAD0
:10584A00FF125A7DAF03125A7D900058A3E0FF124F
:10585A005AA0ECFF125A7DAF05125A7D900047E01C
:0D586A00FF125A7DA3E0FF125A7D025AAAD8
:1059FB00AB07AA068D828C83C006C007AE83AF822D
:0F5A0B00900047EEF0A3EFF0D007D00602582A24
:1055F400900056E4F0A3742AF0A3E4F0A3742BF013
:10560400900054E4F0A3742CF0EF14601E14602F87
:105614001460402403705390004DE4F0A374F0F040
:10562400A3E4F0A374F0F07D08803A90004DE4F018
:10563400A374F0F0A3E4F0A374F0F07D68802690E6
:10564400004DE4F0A374F0F0A3E4F0A374F0F07D53
:10565400C8801290004DE4F0A374F0F0A3E4F0A32A
:0B56640074F0F07DA87F36125AB322CC
:030000000255683E
:0C556800787FE4F6D8FD7581070255AF8E
:102D8200E709F608DFFA8046E709F208DFFA803E33
:102D920088828C83E709F0A3DFFA8032E309F60820
:102DA200DFFA8078E309F208DFFA807088828C8388
:102DB200E309F0A3DFFA806489828A83E0A3F6083C
:102DC200DFFA805889828A83E0A3F208DFFA804C16
:102DD20080D280FA80C680D4806980F280338010ED
:102DE20080A680EA809A80A880DA80E280CA803356
:102DF20089828A83ECFAE493A3C8C582C8CCC583CE
:102E0200CCF0A3C8C582C8CCC583CCDFE9DEE7809D
:102E12000D89828A83E493A3F608DFF9ECFAA9F01C
:102E2200EDFB2289828A83ECFAE0A3C8C582C8CC72
:102E3200C583CCF0A3C8C582C8CCC583CCDFEADE8B
:102E4200E880DB89828A83E493A3F208DFF980CCED
:102E520088F0EF60010E4E60C388F0ED2402B404E6
:102E62000050B9F582EB2402B4040050AF2323458D
:062E72008223902DD273B3
:102E7800BB010689828A83E0225002E722BBFE0258
:092E8800E32289828A83E493228B
:102E9100BB010CE58229F582E5833AF583E02250F6
:102EA10006E92582F8E622BBFE06E92582F8E22240
:0D2EB100E58229F582E5833AF583E493225A
:102EBE00EF8DF0A4A8F0CF8CF0A428CE8DF0A42E28
:022ECE00FE22E2
:102ED000C5F0F8A3E028F0C5F0F8E582158270028D
:062EE0001583E038F0222A
:102EE600BB010A89828A83E0F5F0A3E022500687B7
:102EF600F009E71922BBFE07E3F5F009E319228979
:0B2F0600828A83E493F5F074019322AB
:102F1100BB010A89828A83F0E5F0A3F0225006F70B
:0F2F210009A7F01922BBFE06F3E5F009F3192208
:102F3000E88FF0A4CC8BF0A42CFCE98EF0A42CFC40
:102F40008AF0EDA42CFCEA8EF0A4CDA8F08BF0A4BE
:102F50002DCC3825F0FDE98FF0A42CCD35F0FCEB1D
:102F60008EF0A4FEA9F0EB8FF0A4CFC5F02ECD39E2
:0F2F7000FEE43CFCEAA42DCE35F0FDE43CFC224F
:102F7F0075F008758200EF2FFFEE33FECD33CDCC09
:102F8F0033CCC58233C5829BED9AEC99E58298408C
:102F9F000CF582EE9BFEED9AFDEC99FC0FD5F0D669
:102FAF00E4CEFBE4CDFAE4CCF9A88222B800C1B993
:102FBF000059BA002DEC8BF084CFCECDFCE5F0CBD1
:102FCF00F97818EF2FFFEE33FEED33FDEC33FCEB0A
:102FDF0033FB10D703994004EB99FB0FD8E5E4F9C5
:102FEF00FA227818EF2FFFEE33FEED33FDEC33FCB2
:102FFF00C933C910D7059BE99A4007EC9BFCE99AA6
:10300F00F90FD8E0E4C9FAE4CCFB2275F010EF2FEA
:10301F00FFEE33FEED33FDCC33CCC833C810D707EA
:10302F009BEC9AE899400AED9BFDEC9AFCE899F825
:0E303F000FD5F0DAE4CDFBE4CCFAE4C8F922B8
:1058C000C2D5E830E70FB2D5E4C39BFBE49AFAE413
:1058D00099F9E498F8EC30E717B2D51258F6122F80
:1058E000BBE4C39BFBE49AFAE499F9E498F88003DB
:1058F000122FBB30D50DE4C39FFFE49EFEE49DFD57
:04590000E49CFC2205
:0C304D00ECF0A3EDF0A3EEF0A3EFF022F6
:10305900A8828583F0D083D082123070123070122A
:103069003070123070E473E493A3C583C5F0C5834F
