:020000040800F2
:1000000098070020B923000805020008070200082D
:100010000B0200080F020008130200080000000095
:1000200000000000000000000000000017020008AF
:1000300019020008000000001B0200081D02000851
:10004000D3230008D3230008D3230008D3230008B8
:10005000D3230008D3230008D3230008D3230008A8
:10006000D3230008D3230008D3230008D323000898
:10007000D3230008D3230008D3230008D323000888
:10008000D3230008D3230008D3230008D323000878
:10009000D3230008D3230008D3230008D323000868
:1000A000D3230008D3230008D3230008D323000858
:1000B000D3230008D3230008D3230008D323000848
:1000C000D3230008D3230008D3230008D323000838
:1000D000D3230008D3230008D3230008D323000828
:1000E000D3230008D3230008D3230008D323000818
:1000F00000F002F800F03CF80AA090E8000C8244FE
:100100008344AAF10107DA4501D100F031F8AFF2DA
:10011000090EBAE80F0013F0010F18BFFB1A43F0E5
:1001200001031847F055000010560000103A24BF94
:1001300078C878C1FAD8520724BF30C830C144BF4C
:1001400004680C607047000000230024002500268E
:10015000103A28BF78C1FBD8520728BF30C148BF2A
:100160000B6070471FB502F0D8FF1FBD10B510BD62
:1001700002F0FEFF1146FFF7F5FF00F023F803F051
:100180001CF803B4FFF7F2FF03BC03F025F80000EE
:100190000B49D1F800C04A685CF8043B1068184469
:1001A00042F8040B8C4528BFA1F1DC0C8A4228BF21
:1001B000A1F1DC02C1F800C04A6020F000407047A5
:1001C0002C0100204FF4A06002F0C0FA02F0E6FE1D
:1001D00001F0F6FF15E001F0F3F801F05AF801F034
:1001E00082F901F043FA01F00DFB01F006FC01F089
:1001F000ADFB01F0FAFC01F029FD01F027FE01F052
:100200006EFDE8E7704700BFFEE700BFFEE700BFF6
:10021000FEE700BFFEE77047704770477047000079
:100220000CB50020019000906C48006840F48030CC
:100230006A49086000BF6948006800F40030009017
:100240000198401C0190009818B90198B0F5A06F72
:10025000F1D16248006800F4003010B10120009034
:1002600001E0002000900098012843D15C4800681C
:1002700040F010005A4908600846006820F003006A
:1002800008600846006840F0020008605348406873
:10029000524948600846406848600846406840F453
:1002A000806048600846406820F47C10486008463A
:1002B000406840F4E81048600846006840F08070EC
:1002C000086000BF4548006800F000700028F9D0C1
:1002D0004248406820F003004049486008464068B2
:1002E00040F00200486000BF3C48406800F00C004D
:1002F0000828F9D10CBD10B5FFF792FF10BD10B55D
:100300003648006840F001003449086008464068FB
:10031000344908403149486008460068324908407D
:100320002E4908600846006820F4802008600846CE
:10033000406820F4FE0048604FF41F008860FFF71B
:10034000DAFF4FF000602949086010BD10B50021A8
:1003500000200022214B5B6803F00C0121B104292D
:1003600006D0082928D107E0214B224C236027E042
:100370001F4B204C236023E0184B5B6803F4701084
:10038000164B5B6803F48032022303EB904022B9E2
:10039000194B4343174C23600DE0104B5B6803F48B
:1003A000003323B1144B4343124C236003E0104B42
:1003B0004343104C236003E00D4B0E4C236000BF01
:1003C00000BF064B5B68C3F303130C4CE15C094BA5
:1003D0001B68CB40074C236010BD0000001002409A
:1003E000002002400000FFF8FFFFF6FE08ED00E0ED
:1003F00000127A000000002000093D0004000020E7
:1004000070B505460E4614463146284601F012FEE8
:10041000204601F0B4FD70BD2DE9F05F04460D46A5
:1004200016461F46301B401C1FFA80FA781B401CE2
:100430001FFA80FB3B4632462946204601F0B4FDB8
:100440004FF000080FE04FF0000906E00A9801F0B5
:1004500096FD09F101001FFA80F9D145F6DB08F19C
:1004600001001FFA80F8D845EDDBFE484088401EA9
:1004700083B2FC480088401E82B20021084601F089
:1004800093FDBDE8F09F2DE9FF4F85B081468A4678
:100490000020049003900798A0EB09050898A0EBB2
:1004A0000A06CDF80890CDF804A0002D01DD012743
:1004B00005E00DB9002702E04FF0FF376D42002E36
:1004C00002DD4FF0010806E016B94FF0000802E027
:1004D0004FF0FF387642B54201DD2C4600E034464D
:1004E0004FF0000B21E0019A91B2029A90B201F014
:1004F000ABFD04982844049003983044039004987A
:10050000A04205DD0498001B049002983844029034
:100510000398A04205DD0398001B03900198404416
:1005200001900BF101001FFA80FB601C8345DADDAE
:1005300009B0BDE8F08F2DE9F04104460D4616469E
:100540001F462B46324629462046FFF79CFF3B4676
:10055000224629462046FFF796FF3B46324639465B
:100560002046FFF790FF3B46324629463046FFF7CC
:100570008AFFBDE8F081F8B504460D4616461F46D1
:10058000B94800883B463246294600902046FFF78E
:1005900043FFF8BD2DE9F04104460D4616461F46BF
:1005A000DDF81880EA1991B2A21990B24246FFF71D
:1005B00027FFEA1991B2A21B90B24246FFF720FF33
:1005C000EA1B91B2A21990B24246FFF719FFEA1B4B
:1005D00091B2A21B90B24246FFF712FFAA1991B244
:1005E000E21990B24246FFF70BFFAA1991B2E21B43
:1005F00090B24246FFF704FFAA1B91B2E21990B2F3
:100600004246FFF7FDFEAA1B91B2E21B90B24246A2
:10061000FFF7F6FEBDE8F0812DE9FF4F81B082467D
:1006200017469846DDF838B0002445464FEA4800A2
:10063000C0F10306BBF1000F1FD01BE0A14608E08C
:100640004B462246009750460299FFF7A3FF09F157
:100650000109A945F4DD002E04DA042000FB046042
:10066000861D06E0601B042101FB006000F10A0604
:100670006D1E641CAC42E1DD18E015E02B462246FD
:10068000009750460299FFF785FF002E04DA0420F8
:1006900000FB0460861D06E0601B042101FB006076
:1006A00000F10A066D1E641CAC42E7DD05B0BDE832
:1006B000F08F2DE9F04704460D4616461F46DDE94A
:1006C00008893B46324629462046FFF7DCFE4B466A
:1006D000424639463046FFF7D6FE2B46224649466B
:1006E0004046FFF7D0FEBDE8F08702880B88038004
:1006F0000A8070472DE9FF4F85B000260027BDF81E
:100700001800BDF82010884207DD08A906A8FFF7E9
:10071000ECFF07A905A8FFF7E8FFBDF82000BDF82A
:100720004C10884207DD08A913A8FFF7DEFF07A9D0
:1007300012A8FFF7DAFFBDF81800BDF820108842B4
:1007400007DD08A906A8FFF7D0FF07A905A8FFF74E
:10075000CCFFBDF81800BDF84C10884238D1BDF868
:10076000140003900490BDF81C00BDF810108842DE
:1007700003DABDF81C00049008E0BDF81C00BDF8C9
:100780000C10884202DDBDF81C000390BDF8480043
:10079000BDF81010884203DABDF84800049008E064
:1007A000BDF84800BDF80C10884202DDBDF84800D5
:1007B00003902D4800880090BDF81830BDF80C203B
:1007C0001946BDF81000FFF727FE09B0BDE8F08F0D
:1007D000BDF81C00BDF81410A0EB010BBDF8200003
:1007E000BDF81810401A0290BDF84800BDF814106A
:1007F000451ABDF84C00BDF81810A0EB0109BDF872
:100800004800BDF81C10A0EB010ABDF84C00BDF873
:100810002010401A0190BDF82000BDF84C1088420D
:1008200002D1BDF8208004E0BDF82000401E1FFA70
:1008300080F8BDF818402CE0029896FBF0F0BDF867
:100840001410084480B2049097FBF9F0BDF814101E
:10085000084480B203905E442F44BDF81000BDF8F8
:100860000C1003E0400000201E000020884203DD41
:1008700003A904A8FFF739FFFE480088234600902B
:10088000BDF80C202146BDF81000FFF7C5FD601C27
:1008900084B24445D0DDBDF82000201A00FB0AF6E2
:1008A000BDF81800201A00FB05F727E0019896FB19
:1008B000F0F0BDF81C10084480B2049097FBF9F0EA
:1008C000BDF81410084480B2039056442F44BDF87C
:1008D0001000BDF80C10884203DD03A904A8FFF73F
:1008E00004FFE448008823460090BDF80C20214610
:1008F000BDF81000FFF790FD601C84B2BDF84C00FD
:100900008442D3DD00BF60E72DE9FF4F83B081460D
:100910008A469346DDE91064D64800880290A6F125
:100920002000C6B204EBD47009EB6000401E82B216
:100930000AEB0400401E83B251464846019401F080
:1009400033FB129850BB002525E00C2C07D106EB99
:100950004600C94901EB800010F8058004E0C74853
:1009600000EB061010F8058000270DE008F00100EC
:1009700018B1584601F003FB02E0069801F0FFFAB7
:100980004FEA6808781CC7B204EBD471B7EB610F6B
:10099000ECDB681CC5B2A542D7DB2DE0002529E0C1
:1009A0000C2C07D106EB4600B34901EB800010F890
:1009B000058004E0B14800EB061010F80580002720
:1009C00011E0AC48A0F800B008F0010038B10AEB23
:1009D000050291B209EB070290B201F035FB4FEA34
:1009E0006808781CC7B204EBD471B7EB610FE8DB81
:1009F000681CC5B2A542D3DB9E4902980880A04876
:100A00004088401E83B29E480088401E82B200216A
:100A1000084601F0C9FA07B0BDE8F08F2DE9FE43A2
:100A200006460F4615461C46DDF828801DE0944812
:100A30000088401EB04204DB91484088401EB84206
:100A400001DABDE8FE8320788DE821018D48038816
:100A50008848028839463046FFF756FF284605EB9E
:100A6000D07106EB61018EB2641C20787E2802DC16
:100A700020782028DBDA00BFE3E710B5024601202A
:100A800000E050430B1EA1F10104E1B2F9D110BD09
:100A90002DE9FF4F83B0074691461E46109C4FF04C
:100AA000000A002543E0701B401EC1B20A20FFF778
:100AB000E4FFB9FBF0F00A21B0FBF1F201FB1208F0
:100AC000BAF1000F1BD1701EA84218DDB8F1000F5B
:100AD00013D100202021A346CDE90014029004EB9D
:100AE000DB71491001FB057188B266490B886149C9
:100AF0000A880499FFF708FF17E04FF0010A002168
:100B000008F13000C0B2A346CDE90141009004EBEA
:100B1000DB71491001FB057188B25A490B885549B0
:100B20000A880499FFF7F0FE00BF681CC5B2B54201
:100B3000B9DB07B0BDE8F08F2DE9FC5F05468846BC
:100B400091469A46DDF830B000954B200190002484
:100B50005FE004EB04104C4911F810009BF8001002
:100B6000884253D104EB0410474901EB4000407820
:100B70009BF80110884249D108F10F0083B205F1BA
:100B80000F0082B24146284601F00EFA00263BE0F3
:100B9000002734E00D9890B904EB04103A4901EBBA
:100BA0004000801C805D80213941084018B14846D2
:100BB00001F0E5F921E0504601F0E1F91DE02D4892
:100BC000A0F8009004EB04102F4901EB4000801CBA
:100BD000805D80213941084018B14146284601F026
:100BE00033FA681C85B20098281A102805D1009D98
:100BF00008F101001FFA80F803E0781CC7B2082F43
:100C0000C8DB00BF701CC6B2202EC1DB00BF601C59
:100C100084B2019884429CDB19484088401E83B20C
:100C200017480088401E82B20021084601F0BCF936
:100C3000BDE8FC9F2DE9FC5F0546884691469A4633
:100C4000DDF830B0009507200190002476E004EB39
:100C5000840000EB44100D4911F810009BF80010BF
:100C6000884268D104EB840000EB4410074901EB93
:100C700040000DE01E000020E43100085836000856
:100C80004000002020000020483C00083E460008AC
:100C900040789BF8011088424DD108F1170083B2CB
:100CA00005F1170082B24146284601F07DF9002681
:100CB0003FE0002738E00D98A0B904EB840000EB7A
:100CC0004410D24901EB4000801C805D80213941F5
:100CD000084018B1484601F052F923E0504601F0AF
:100CE0004EF91FE0CA48A0F8009004EB840000EB26
:100CF0004410C64901EB4000801C805D80213941D1
:100D0000084018B14146284601F09EF9681C85B29A
:100D10000098281A182805D1009D08F101001FFA33
:100D200080F803E0781CC7B2082FC4DB00BF701C3A
:100D3000C6B2482EBDDB00BF601C84B2019884425D
:100D400085DBB4484088401E83B2B2480088401E0C
:100D500082B20021084601F027F9BDE8FC9F2DE989
:100D6000FC5F0546884691469A46DDF830B000950E
:100D70000420019000245FE004EB8410A64911F8E0
:100D800010009BF80010884253D104EB8410A24954
:100D900001EB400040789BF80110884249D108F1EE
:100DA0001F0083B205F11F0082B24146284601F0C0
:100DB000FBF800263BE0002734E00D9890B904EBE7
:100DC0008410954901EB4000801C805D80213941F1
:100DD000084018B1484601F0D2F821E0504601F031
:100DE000CEF81DE08A48A0F8009004EB84108A49F0
:100DF00001EB4000801C805D80213941084018B122
:100E00004146284601F020F9681C85B20098281A4E
:100E1000202805D1009D08F101001FFA80F803E0A9
:100E2000781CC7B2082FC8DB00BF701CC6B2802E6A
:100E3000C1DB00BF601C84B2019884429CDB754812
:100E40004088401E83B273480088401E82B2002151
:100E5000084601F0A9F8BDE8FC9F2DE9FF4F83B0DB
:100E6000064688469146DDE91147109DB2464FF08F
:100E7000000B71E0BBF1000F40D104EBD471654A67
:100E80001288A2EB6101B14204DB62494988091B67
:100E9000414502DA07B0BDE8F08F2878802802DDEE
:100EA0004FF0010B58E028780D2806D108EB04001C
:100EB0001FFA80F856466D1C1EE0102C0DDD102127
:100EC00028788DE883004A4641463046069BFFF766
:100ED0001BFD06F1080086B20EE028788DE891002F
:100EE0004A4641463046069BFFF70EFD204604EB7E
:100EF000D07106EB61018EB26D1C2DE04548008873
:100F0000001BB04204DB43484088001B404500DA28
:100F1000C0E74FF0000B202C08D1CDE900574A461E
:100F200041463046069BFFF71AFF12E0182C08D105
:100F3000CDE900574A4641463046069BFFF77AFE08
:100F400007E0CDE900574A4641463046069BFFF789
:100F5000F3FDAD1C301986B2287800288AD100BF75
:100F600098E72DE9FF4F83B004460D469046DDE932
:100F7000119A109E304602F0D9F887B225490988A7
:100F8000A1EBC70000EBD071C1F34F0BA9B204EB8A
:100F90000B0290B28DE840064246069BFFF75DFFCC
:100FA00007B0BDE8F08F2DE9F05F0746884615468B
:100FB0001E46DDF8289008EB0600401E83B2781923
:100FC000401E82B24146384600F0EEFF00240AE09F
:100FD00019F814B009EB440090F801A04BEA0A207C
:100FE00000F0CDFF641C05FB06F0A042F0DC0948D0
:100FF0004088401E83B207480088401E82B200210C
:10100000084600F0D1FFBDE8F09F00003E46000812
:101010001E00002040000020444800083EB5044661
:101020004FF6FF7001F01CF8FE488079002837D198
:101030001F200090FB480088401E82B21C23002124
:101040000846FFF7E9F91F200090F6484088401E47
:1010500083B2F4480088401E82B2F24840881038BB
:1010600081B20020FFF7D8F9002010211F234FF68E
:10107000FF72CDE9004102900C21FFF772FF0020C2
:101080001021E9A2CDE900210290E64840881038FD
:1010900001B21F234FF6FF720020FFF762FFB2E09C
:1010A000E0488079022837D11F200090DD48008871
:1010B000401E82B2102300210846FFF7ADF91F2021
:1010C0000090D8484088401E83B2D6480088401E11
:1010D00082B2D44840881E3881B20020FFF79CF9C4
:1010E000002010211F234FF6FF72CDE9004102902E
:1010F0000146FFF736FF00201021CBA2CDE90021E9
:101100000290C84840881E3801B21F234FF6FF7274
:101110000020FFF726FF76E0C2488079012838D109
:101120001F200090BF480088401E82B21C2300216F
:101130000846FFF771F91F200090BA484088401E0A
:1011400083B2B8480088401E82B2B6484088203832
:1011500081B20020FFF760F9002010211F234FF615
:10116000FF72CDE9004102900C211520FFF7F9FE36
:1011700000201021ACA2CDE900210290A9484088AE
:10118000203801B21F234FF6FF721520FFF7E9FE4A
:1011900039E01F200090A3480088401E82B21C2323
:1011A00000210846FFF738F91F2000909D4840882D
:1011B000401E83B29B480088401E82B299484088F6
:1011C000203881B20020FFF727F9002010211F23CB
:1011D0004FF6FF72CDE9004102900C216FF0140030
:1011E000FFF7BFFE002010218FA2CDE90021029061
:1011F0008C484088203801B21F234FF6FF726FF0F1
:101200001400FFF7AEFE3EBD2DE9F04106460F4645
:1012100014461D464FF6FF70874908803B4622461C
:1012200039463046FFF72FF92B46324639463046CD
:10123000FFF729F948F210407F4908806A1E93B2EF
:1012400091B2721C90B22246FFF71DF944F20820B9
:10125000794908802B46224629463046FFF713F984
:1012600048F2104074490880631E9AB27B1C99B200
:10127000631E98B22B46FFF706F944F208206E4928
:1012800008802B46224639462046FFF7FCF8BDE889
:10129000F0813EB54EF67D7000F0E2FE61490988AE
:1012A000A1F1620404EBD471491062318AB25D4944
:1012B0000988A1F1620505EBD571C1F34F005523F3
:1012C0004121FFF7A1FF012010215CA21F23CDE9DE
:1012D000002102904FF61F0243210020FFF741FE3C
:1012E00050490988A1F1620404EBD47149106231BC
:1012F0008AB24C490988A1F1620505EBD571C1F3A9
:101300004F0073235F21FFF77FFF012010214FA2C1
:101310004EF67D73CDE90021029000226121104636
:10132000FFF71FFE3F490988A1F1620404EBD47165
:10133000491062318AB23B490988A1F1620505EB87
:10134000D571C1F34F0091237D21FFF75DFF01208F
:10135000102142A24EF67D73CDE9002102901F229A
:101360007F210020FFF7FDFD2E490988A1F16204CD
:1013700004EBD471491062318AB22A490988A1F17B
:10138000620505EBD571C1F34F00AF239B21FFF739
:101390003BFF0120102135A24EF67D73CDE90021DF
:1013A00002904FF478429D210020FFF7DAFD40F2D1
:1013B000DC5001F030FE4FF4FA7001F02CFE3EBD1F
:1013C0000EB52EA0FFF72AFE012010212FA21F2309
:1013D000CDE900210290DA024E210020FFF7C1FD85
:1013E0000120102125A21F23CDE900210290DA025D
:1013F0005F210020FFF7B5FD0120102126A21F2349
:10140000CDE9002102904FF4FC6270210020FFF72B
:10141000A8FD0120102124A21F23CDE90021029064
:1014200046E00000400000207777772E6C636477F9
:10143000696B692E636F6D001E000020CDBCD0CE9D
:10144000CFD4CABEB2E2CAD400000000B4BFC9AB58
:10145000CCEEB3E4B2E2CAD400000000D6D0CEC4D1
:10146000CFD4CABEB2E2CAD400000000CDBCC6AC24
:10147000CFD4CABEB2E2CAD400000000D7DBBACFD4
:10148000B2E2CAD4B3CCD0F200000000C8ABB6AF11
:10149000B5E7D7D300000000302E39362220535450
:1014A0003737393648320000323430583139380055
:1014B0004FF4FC6281210020FFF753FD0120102131
:1014C000FEA21F23CDE9002102901A46922100209E
:1014D000FFF747FD40F2DC5001F09DFD40F2DC508B
:1014E00001F099FD0EBD0EB54FF6FF700090F64865
:1014F0004088401E83B2F4480088401E82B200211A
:101500000846FEF789FF01201021F0A24FF6E07394
:10151000CDE90021029000221E212820FFF79DFC2A
:101520004FF47A7001F077FD00200090E648408883
:10153000401E83B2E4480088401E82B20021084663
:10154000FEF76AFF01201021E2A24FF6E073CDE919
:10155000002102904FF6FF721E212820FFF77DFC2C
:101560004FF47A7001F057FD4FF478400090D64860
:101570004088401E83B2D4480088401E82B20021B9
:101580000846FEF749FF01201021D4A24FF6E07370
:10159000CDE9002102901F221E212820FFF75DFCCB
:1015A0004FF4487001F037FD4FF4FC600090C648DE
:1015B0004088401E83B2C4480088401E82B2002189
:1015C0000846FEF729FF01201021C5A24FF6E0735F
:1015D000CDE9002102901F221E212820FFF73DFCAB
:1015E0004FF4487001F017FD1F200090B648408866
:1015F000401E83B2B4480088401E82B200210846D3
:10160000FEF70AFF01201021B7A24FF6E073CDE9E3
:10161000002102904FF478421E212820FFF71DFC84
:101620004FF4487001F0F7FC48F230400090A648B3
:101630004088401E83B2A4480088401E82B2002128
:101640000846FEF7E9FE01201021A9A24FF6E0733B
:10165000CDE9002102904FF478421E212820FFF7A7
:10166000FCFB4FF47A7001F0D6FC0EBD2DE9F84377
:101670000024A1A0FFF7D2FC4FF6FF700090924823
:101680004088203883B290480088401E82B21E21D4
:101690000020FEF7C1FE00BF4AE09B4830F814006E
:1016A0009A490880DFF820C2BCF8025005EBD57CCF
:1016B0004FEA6C0CACF1280C04EB840909EBC4096B
:1016C000CC440CF11E0C1FFA8CF3DFF8FCC1BCF803
:1016D000006006EBD67C4FEA6C0CACF1280C0CEBEE
:1016E000041C0CF11E0C1FFA8CF2DFF8DCC1BCF8F4
:1016F000027007EBD77C4FEA6C0CACF1280C04EBC2
:10170000840909EBC409CC441FFA8CF1DFF8B8C195
:10171000BCF8008008EBD87C4FEA6C0CACF1280CCC
:101720000CEB041C1FFA8CF0FEF705FF601CC4B222
:10173000052CB2DB40F2DC5001F06DFC4FF6FF707F
:10174000009061484088203883B25F480088401E7E
:1017500082B21E210020FEF75FFE00244AE06A48A4
:1017600030F8140069490880DFF85CC1BCF8025009
:1017700005EBD57C4FEA6C0CACF1280C04EB84092A
:1017800009EBC409CC440CF11E0C1FFA8CF3DFF8F2
:1017900038C1BCF8007007EBD77C4FEA6C0CACF199
:1017A000280C0CEB041C0CF11E0C1FFA8CF2DFF859
:1017B00018C1BCF8028008EBD87C4FEA6C0CACF185
:1017C000280C04EB840909EBC409CC441FFA8CF102
:1017D000DFF8F4C0BCF8006006EBD67C4FEA6C0C76
:1017E000ACF1280C0CEB041C1FFA8CF0FEF7C3FEC6
:1017F000601CC4B2052CB2DB40F2DC5001F00BFCE3
:10180000BDE8F883F8B5002441A0FFF707FC4FF6C8
:10181000FF7000902C484088203883B22A48008806
:10182000401E82B21E210020FEF7F6FD00BF1DE023
:101830000020254B00905D8805EBD5735B10193BAC
:1018400004EB840707EBC407D9191F4B1E8806EB6E
:10185000D6735B10283BC4EB0417D8192A4B33F816
:1018600014200F23FEF7D8FE601CC4B2052CDFDB6A
:1018700040F2DC5001F0CFFB4FF6FF7000901248B1
:101880004088203883B210480088401E82B21E2152
:101890000020FEF7C1FD002451E001200A4B00901A
:1018A0005D8805EBD5735B10193B04EB840707EBF0
:1018B000C407D919044B1E8832E00000323032339D
:1018C0002D30392D30390000400000205748495450
:1018D00045000000424C41434B000000524544008B
:1018E000475245454E000000424C5545000000005F
:1018F0004752415900000000475549BED8D0CECCD0
:10190000EEB3E4B2E2CAD400140000201E000020AE
:10191000475549BBADD4B2CCEEB3E4B2E2CAD40071
:1019200006EBD6735B10283BC4EB0417D819FE4BAB
:1019300033F814200F23FEF76FFE601CC4B2052C91
:10194000ABDB40F2DC5001F066FBF8BD0EB5F7A052
:10195000FFF764FB00200C21F8A24FF6E073CDE9FD
:10196000002102901F224D213220FFF776FA01203C
:101970000C21F8A24FF6E073CDE9002102901F225E
:1019800059213220FFF769FA00200C21F7A24FF607
:10199000E073CDE9002102901F2265213220FFF77C
:1019A0005CFA00201021F7A24FF6E073CDE9002188
:1019B00002901F2272213220FFF74FFA01201021DE
:1019C000F4A24FF6E073CDE9002102901F2282219C
:1019D0003220FFF742FA00201021F2A24FF6E07306
:1019E000CDE9002102901F2292213220FFF735FA23
:1019F0004FF4966001F00FFB0EBD2DE9FC5F002453
:101A0000EDA0FFF70BFB4FF6FF700090EE4840880B
:101A1000203883B2EC480088401E82B21E2100208C
:101A2000FEF7FAFC00BF60E0BF4830F81400E74959
:101A30000880E548458805EBD57040100C3804EB6C
:101A4000440101EBC401084481B2DF48068806EB7B
:101A5000D67040100B38C4EB0412104480B2DFF88B
:101A600068C3CDE90001BCF8027007EBD77C4FEAF0
:101A70006C0CACF1270C04EB440B0BEBC40BDC44FB
:101A80001FFA8CF3DFF840C3BCF8008008EBD87C69
:101A90004FEA6C0CACF11A0CC4EB041BDC441FFACB
:101AA0008CF2DFF824C3BCF8029009EBD97C4FEA32
:101AB0006C0CACF10C0C04EB440B0BEBC40BDC44D6
:101AC0001FFA8CF1DFF800C3BCF800A00AEBDA7C47
:101AD0004FEA6C0CACF1280CC4EB041BDC441FFA7D
:101AE0008CF0FEF7E6FD601CC4B2052C9CDB40F2D6
:101AF000DC5001F090FA4FF6FF700090B248408839
:101B0000203883B2B0480088401E82B21E210020D7
:101B1000FEF782FC002460E0834830F81400AB49F3
:101B20000880A948458805EBD57040100C3804EBB7
:101B3000440101EBC401084481B2A348068806EBC6
:101B4000D67040100B38C4EB0412104480B2DFF89A
:101B500078C2CDE90001BCF8027007EBD77C4FEAF0
:101B60006C0CACF1270C04EB440B0BEBC40BDC440A
:101B70001FFA8CF3DFF850C2BCF8008008EBD87C69
:101B80004FEA6C0CACF11A0CC4EB041BDC441FFADA
:101B90008CF2DFF834C2BCF8029009EBD97C4FEA32
:101BA0006C0CACF10C0C04EB440B0BEBC40BDC44E5
:101BB0001FFA8CF1DFF810C2BCF800A00AEBDA7C47
:101BC0004FEA6C0CACF1280CC4EB041BDC441FFA8C
:101BD0008CF0FEF78FFD601CC4B2052C9CDB40F23C
:101BE000DC5001F018FABDE8FC9F0EB5AFF294701E
:101BF000FFF714FA0020102175A24FF6E073CDE92B
:101C0000002102901F2252212D20FFF726F90120EA
:101C1000182174A24FF6E073CDE9002102901F2233
:101C200066212D20FFF719F90120202171A24FF61E
:101C3000E073CDE9002102901F227F212D20FFF7C4
:101C40000CF94FF4966001F0E6F90EBD0EB5AFF257
:101C5000E470FFF7E3F96B4828231A465A210090F5
:101C60003220FFF7A0F90120102167A24FF6E073A0
:101C7000CDE9002102901F2287213E20FFF7EDF8D9
:101C8000604828231A465A2100906420FFF78BF9F8
:101C9000012010215CA24FF6E073CDE900210290F3
:101CA0001F2287217020FFF7D8F8564828231A46AC
:101CB0005A2100909620FFF776F90120102152A2B8
:101CC0004FF6E073CDE9002102901F228721A22068
:101CD000FFF7C3F84FF4966001F09DF90EBD10B503
:101CE00088B00024494B0FCBCDE90623CDE9040190
:101CF00000BFA3E0204600F00EFA45A0FFF78EF9E2
:101D00000121102204A850F824004FF6E073CDE919
:101D1000012100901F2223212820FFF79EF8394837
:101D200028231A4637217BE014000020D3A2CEC41A
:101D3000CFD4CABEB2E2CAD4000000003658313255
:101D40003A616263646566676830313233343536D0
:101D500037000000365831323A4142434445464745
:101D6000483031323334353637000000365831329E
:101D70003A7E21402324255E262A28295F2B7B7D5D
:101D80003A000000385831363A6162636465303198
:101D900032333400385831363A41424344453031C9
:101DA00032333400385831363A7E21402324255EC0
:101DB000262A28290000000047554920547269CC82
:101DC000EEB3E4B2E2CAD400400000201E000020BE
:101DD00031365831363AC8ABB6AFB5E7D7D3BBB614
:101DE000D3AD000032345832343AD6D0CEC4B2E249
:101DF000CAD4000033325833323AD7D6CCE5B2E2F7
:101E0000CAD400004C4A000851510000CC560008CA
:101E1000C6C1C4BBD0FDD7AAB2E2CAD4000000003C
:101E200000901846FFF7BFF84FF47A7001F0F3F80E
:101E30004FF47A7001F0EFF8601CC4B2042CFFF686
:101E400059AF002000F067F908B010BD38B523A0E5
:101E5000FFF7E4F81F2025490880254801F048F9DC
:101E6000012024A31022642100902820FEF7D6FD33
:101E7000012025A31022782100902820FEF7CEFD16
:101E80004FF4784019490880002424E0FEF780F9D7
:101E900042F2107190FBF1F201FB120510200523B4
:101EA0002A46642100905A20FEF7F2FDFEF770F9F1
:101EB000322190FBF1F201FB1205102005232A4686
:101EC000782100905A20FEF7E3FD4FF4FA7001F0FC
:101ED000A2F8601CC4B20F2CD8DB38BDB6AFCCACB6
:101EE000CAFDD7D6CFD4CABE000000001E00002015
:101EF00040E20100504D322E353A20202020202093
:101F000075672F6D3300000020205445503A202083
:101F1000202020204300000010B504464FF400703C
:101F2000FE49086080200860204600F013FA4FF454
:101F30000070FA49091F086010BD10B504464FF43F
:101F40000070F64908608020091F0860204600F0F4
:101F500001FA4FF40070F149091F086010BD70B517
:101F600005460C462846FFF7D7FFE0B2FFF7E5FF2E
:101F700070BD10B5EA49087AFFF7CEFF10BD10B565
:101F800004464FF40070E54908608020091F08608E
:101F9000201200F0DFF9E0B200F0DCF94FF400703D
:101FA000DE49091F086010BD2DE9F04104460D46C9
:101FB00016461F46DA49887AFFF7AEFFD849897B73
:101FC0002144C1F30720FFF7B8FFD549897B21449D
:101FD000C8B2FFF7B2FFD249897B3144C1F3072071
:101FE000FFF7ABFFCE49897B3144C8B2FFF7A5FFAD
:101FF000CB49087BFFF790FFC949C97B2944C1F34E
:102000000720FFF79AFFC649C97B2944C8B2FFF7EA
:1020100094FFC349C97B3944C1F30720FFF78DFF03
:10202000BF49C97B3944C8B2FFF787FFFFF7A1FF5B
:10203000BDE8F08170B504460D462B462246294680
:102040002046FFF7B1FF70BD70B504460D46294626
:102050002046FFF7EFFFB3480088FFF790FF70BD01
:1020600070B50446AE484088401E83B2AC48008834
:10207000401E82B200210846FFF796FF4FF4007021
:10208000A64908608020091F086000250DE0002691
:1020900006E0201200F05EF9E0B200F05BF9761C79
:1020A0009F480088B042F4D86D1C9D484088A842E3
:1020B000EDD84FF400709949091F086070BD08B54C
:1020C0000121082000F01EFD4FF47070ADF80000F3
:1020D00003208DF8020010208DF8030069468F4818
:1020E000143800F0E9F94FF470718C48143800F09E
:1020F00090FA08BD10B54FF480708849086014202C
:1021000000F089FF4FF480708449091F0860142093
:1021100000F081FF10BD10B504462A208049488197
:102120002B2088812C2008812046E11704EB917137
:102130008910A4EB81017A4A91711046807930B1FF
:10214000012811D002281CD0032836D127E0F02026
:1021500073490880C620488000208873C873002116
:102160003620FFF7FCFE29E0C6206D490880F020EC
:10217000488000208873C87360213620FFF7EFFE87
:102180001CE0F02066490880C62048800020887343
:102190007A20C873C0213620FFF7E1FE0EE0C6208A
:1021A0005F490880F02048807A2088730020C87337
:1021B000A0213620FFF7D3FE00E000BF00BF10BD16
:1021C00010B500F0E2F8FFF77AFFFFF793FF362033
:1021D000FFF7A2FE0020FFF7B0FE3A20FFF79CFEBB
:1021E0000520FFF7AAFEB220FFF796FE0C20FFF7AE
:1021F000A4FE0C20FFF7A1FE0020FFF79EFE332077
:10220000FFF79BFE3320FFF798FEB720FFF784FE11
:102210003520FFF792FEBB20FFF77EFE1720FFF769
:102220008CFEC020FFF778FE2C20FFF786FEC22030
:10223000FFF772FE0120FFF780FEC320FFF76CFE60
:102240001220FFF77AFEC420FFF766FE2020FFF77A
:1022500074FEC620FFF760FE0F20FFF76EFED02051
:10226000FFF75AFEA420FFF768FEA120FFF765FEE6
:10227000E020FFF751FED020FFF75FFE0420FFF7BC
:102280005CFE0D20FFF759FE1120FFF756FE1320CC
:10229000FFF753FE2B20FFF750FE3F20FFF74DFEC8
:1022A0005420FFF74AFE4C20FFF747FE1820FFF7A7
:1022B00044FE0D20FFF741FE0B20FFF73EFE1F20DE
:1022C000FFF73BFE2320FFF738FEE120FFF724FE57
:1022D000D020FFF732FE0420FFF72FFE0C20FFF77F
:1022E0002CFE1120FFF729FE1320FFF726FE2C20DD
:1022F000FFF723FE3F20FFF720FE4420FFF71DFEDF
:102300005120FFF71AFE2F20FFF717FE1F20FFF7BF
:1023100014FE1F20FFF711FE202005E0140C0140E1
:10232000400000201E000020FFF707FE2320FFF7DB
:1023300004FE2120FFF7F0FD1120FFF7EDFD29201D
:10234000FFF7EAFD0020FFF7E6FE4FF6FF70FFF70C
:1023500087FE10BD002100BF14E000F080021AB11A
:102360008022144B1A6003E08022124B1B1D1A605E
:102370002022104B1B1D1A601B1F1A604206100EF4
:102380004A1CD1B20829E8DB704708B501210420B6
:1023900000F0B8FBA020ADF8000003208DF802008B
:1023A00010208DF8030069460248103800F084F8C8
:1023B00008BD00001008014009488047094800474F
:1023C000FEE7FEE7FEE7FEE7FEE7FEE7FEE7FEE7E5
:1023D000FEE7FEE704480549054A064B7047000042
:1023E000FF020008F1000008980100209807002073
:1023F000980300209803002010B50446CA48844280
:1024000008D10121042000F097FB0021042000F0F6
:1024100093FB46E0C548844208D10121082000F022
:102420008BFB0021082000F087FB3AE0C048844283
:1024300008D10121102000F07FFB0021102000F0C6
:102440007BFB2EE0BB48844208D10121202000F014
:1024500073FB0021202000F06FFB22E0B64884428D
:1024600008D10121402000F067FB0021402000F04E
:1024700063FB16E0B148844208D10121802000F0BE
:102480005BFB0021802000F057FB0AE0AC4884424F
:1024900007D10121801500F04FFB0021A01500F0AD
:1024A0004BFB10BD10B50121084600F045FB002193
:1024B000012000F041FB10BD2DE9F041024600254E
:1024C0000026002000230024002791F803C00CF010
:1024D0000F0591F803C00CF0100CBCF1000F03D0F5
:1024E00091F802C04CEA050591F800C0BCF1000F5C
:1024F00031D0146800202BE04FF0010C0CFA00F3EF
:10250000B1F800C00CEA03069E4220D183004FF0D0
:102510000F0C0CFA03F7BC4305FA03FC4CEA040465
:1025200091F803C0BCF1280F06D14FF0010C0CFA52
:1025300000FCC2F814C00AE091F803C0BCF1480FD7
:1025400005D14FF0010C0CFA00FCC2F810C0401C81
:102550000828D1D31460B1F800C0BCF1FF0F34DDFE
:10256000546800202EE000F1080C4FF0010808FA32
:102570000CF3B1F800C00CEA03069E4221D183009F
:102580004FF00F0C0CFA03F7BC4305FA03FC4CEABE
:10259000040491F803C0BCF1280F05D100F1080C28
:1025A00008FA0CF8C2F8148091F803C0BCF1480F87
:1025B00007D100F1080C4FF0010808FA0CF8C2F836
:1025C0001080401C0828CED35460BDE8F0814FF63F
:1025D000FF710180022181700421C17070470246A1
:1025E000002093680B400BB1012000E000207047F1
:1025F0000146886880B2704702460020D3680B40CD
:102600000BB1012000E0002070470146C86880B28D
:10261000704701617047416170470AB1016100E094
:1026200041617047C16070474FF480320A43826154
:102630008161826182698269704702460020414B54
:1026400018684FF68073184040EA021008433D4B6B
:10265000186070473C49C8617047F0B50A460023CE
:1026600000240021002500F00046B6F1004F02D101
:10267000344EF16901E0334E7168C0F3034583B213
:1026800000F44016B6F5401F08D121F070612D4EC0
:10269000766826F070662B4F7E6012E000F480169C
:1026A000B6F5801F06D1032606FA05F4A14341F0D2
:1026B000706106E0460D360103FA06F6B14341F0BB
:1026C000706122B1460D360103FA06F6314300F07F
:1026D0000046B6F1004F02D11A4EF16101E0194EE9
:1026E0007160F0BD30B500228B071C0F0F2303FA79
:1026F00004F2144B08338C1053F824309343114CDC
:1027000008348D1044F8253023468C1053F82430BB
:102710008C07240F00FA04F423430A4C08348D106C
:1027200044F8253030BD000000080140000C014095
:10273000001001400014014000180140001C01403D
:1027400000200140000001400000204231490143C7
:10275000314A1160704770B5002100230F22C47800
:1027600004B32D4C246804F4E064C4F5E064210A49
:10277000C1F10403CA40447804FA03F18478144098
:1027800021430901254C0678A155047804F01F0562
:102790000124AC4005786D11AD0005F1E025C5F8C8
:1027A000004109E0047804F01F050124AC401C4DF1
:1027B0000678761145F8264070BD1A4A0A40024351
:1027C000154B1B1F1A60704739B1134A121D12684E
:1027D0000243114B1B1D1A6006E00F4A121D1268BE
:1027E00082430D4B1B1D1A607047042808D14FF01F
:1027F000E021096941F004014FF0E022116107E096
:102800004FF0E021096921F004014FF0E02211614D
:10281000704700000000FA050CED00E000E400E065
:1028200080E100E080FFFF1FDF48006840F001000A
:10283000DD49086008464068DC490840DA494860DC
:1028400008460068DA490840D74908600846006829
:1028500020F4802008600846406820F4FE004860AC
:102860004FF41F0088607047CF49096821F4803118
:10287000CD4A11601146096821F480211160B0F53C
:10288000803F03D0B0F5802F0ED106E0C64909681D
:1028900041F48031C44A116007E0C349096841F43A
:1028A000A021C14A116000E000BF00BF704710B511
:1028B00001460022002300204A11012A02D1BA4C0D
:1028C000236806E0022A02D1B74C236A01E0B64C25
:1028D000636A01F01F02012494401C400CB10120E6
:1028E00000E0002010BD38B5002000900024002535
:1028F00000BF3120FFF7DBFF05460098401C009029
:102900000098B0F5A06F01D0002DF2D03120FFF774
:10291000CEFF08B1012400E00024204638BD014666
:102920000020A14A106820F0F80040EAC1001060C1
:102930007047A04908607047024600209A4B5868CB
:1029400020F47C1042EA01031843974B586070470B
:1029500098490866704701460020934A506820F065
:1029600003000843506070478F48406800F00C0037
:102970007047014600208C4A506820F0F000084360
:102980005060704701460020874A506820F4E0609C
:1029900008435060704701460020834A506820F485
:1029A000605040EAC1005060704729B17E4A527AB7
:1029B00002437D4B5A7204E07B4A527A82437A4B3F
:1029C0005A7270477B49D831086070470146002031
:1029D000754A506820F44040084350607047002119
:1029E000714A20321170704A82F82010012802D0FA
:1029F00004280AD104E001216B4A2032117005E05D
:102A00000521694A2032117000E000BF00BF704705
:102A10006949086070476449096A0143624A116262
:102A20007047654944390860704730B5002100227D
:102A3000002400235C4D6D6805F00C0121B10429D0
:102A400005D0082923D105E05C4D056022E05B4DEF
:102A500005601FE0544D6D6805F47012524D6D68AD
:102A600005F48034022505EB92421CB9544D5543C0
:102A700005600BE04C4D6D6805F400351DB1504DFF
:102A80005543056002E04D4D5543056002E04B4D56
:102A9000056000BF00BF444D6D6805F0F0010909F5
:102AA000484D6B5C0568DD4045603F4D6D6805F441
:102AB000E061090A434D6B5C4568DD4085603A4D35
:102AC0006D6805F46051C90A3E4D6B5C4568DD4098
:102AD000C560354D6D6805F44041890B3A4D6B5C1E
:102AE000C568B5FBF3F5056130BD29B12E4A5269C1
:102AF00002432D4B5A6104E02B4A526982432A4B10
:102B00005A61704729B1284A92690243264B9A615B
:102B100004E0254A92698243234B9A61704729B1A8
:102B2000214AD2690243204BDA6104E01E4AD2698D
:102B300082431D4BDA61704729B11B4AD2680243B8
:102B4000194BDA6004E0184AD2688243164BDA6007
:102B5000704729B1144AD2680243134BDA6004E08B
:102B6000114AD2688243104BDA60704712494039EB
:102B7000086070470F49C86470470B49C8717047B7
:102B80000948406A40F08070074948627047014632
:102B90000020054A92680A400AB1012000E00020A6
:102BA0007047014988727047001002400000FFF82A
:102BB000FFFFF6FE000042428004424200127A000B
:102BC00000093D00240000203400002010B5044618
:102BD000ED48844209D101218803FFF7ADFF0021B0
:102BE0004FF48040FFF7A8FF32E0E848844209D163
:102BF00001214804FFF7ADFF00214FF40030FFF73B
:102C0000A8FF25E0E248844209D101218804FFF7AA
:102C1000A0FF00214FF48020FFF79BFF18E0DD4864
:102C2000844209D10121C804FFF793FF00214FF42A
:102C30000020FFF78EFF0BE0D748844208D1012126
:102C40000805FFF786FF00214FF48010FFF781FF92
:102C500010BD2DE9F04786B005460E460024A24679
:102C600000BFA14600272F462C8A4CF6FF70044077
:102C7000F08804432C82AC894EF6F3100440B088EF
:102C800031890843718908430443AC81AC8A4FF60B
:102C9000FF400440B0890443AC8201A8FFF7C5FEA1
:102CA000B948874202D1DDF810A001E0DDF80CA0A0
:102CB000A88900F4004040B10AEBCA0000EB0A10FA
:102CC00031684900B0FBF1F807E00AEBCA0000EBFD
:102CD0000A1031688900B0FBF1F86420B8FBF0F00D
:102CE00004012009642101FB1089A88900F4004037
:102CF00040B1322000EBC900B0FBF1F000F007005A
:102D0000044308E0322000EB09106421B0FBF1F02D
:102D100000F00F0004432C8106B0BDE8F0874FF4AB
:102D20001651016000218180C18001810C21418107
:102D300000218181704710B502460020108A4FF2B1
:102D4000FF0318400B884C8823438C882343CC888E
:102D500023431843108210BD0021018041808180EF
:102D6000C180704721B1828942F40052828104E01F
:102D700082894DF6FF731A4082817047F0B5034691
:102D800000240026002500201846C1F3421401F05B
:102D90001F06012707FA06F5012C01D10C3004E0CB
:102DA000022C01D1103000E014301AB107682F4313
:102DB000076002E00768AF430760F0BD1AB1838A7D
:102DC0000B43838202E0838A8B4383827047028AAB
:102DD0004FF6F0731A400282028A0A430282704759
:102DE00082894FF2FF731A40828182890A4382816D
:102DF000704721B1828942F00202828104E0828917
:102E00004FF6FD731A4082817047028A4FF6DF73D6
:102E10001A400282028A0A430282704721B1028A62
:102E200042F48042028204E0028A4BF6FF731A40A9
:102E300002827047C1F30802828070470146888889
:102E4000C0F308007047818941F00101818170471A
:102E5000028BD2B20283028B42EA012202837047C4
:102E6000028B02F47F420283028B0A430283704783
:102E700021B1828A42F02002828204E0828A4FF6E7
:102E8000DF731A408282704721B1828A42F01002B9
:102E9000828204E0828A4FF6EF731A408282704782
:102EA00021B1828A42F00802828204E0828A4FF6CF
:102EB000F7731A408282704721B1828942F400423E
:102EC000828103E08289C2F30E028281704721B1C0
:102ED000828A42F40062828204E0828A4FF2FF73A7
:102EE0001A4082827047828A4FF6FB731A408282B0
:102EF000828A0A438282704721B1828A42F00202AA
:102F0000828204E0828A4FF6FD731A408282704703
:102F10000246002013880B400BB1012000E0002086
:102F20007047CA430280704770B502460B460024C2
:102F3000002100250020C3F3421503F01F010126E4
:102F400006FA01F1012D02D19689314006E0022DE9
:102F500002D1168A314001E0968A31401C120126C6
:102F600006FA04F41688344011B10CB1012000E0D7
:102F7000002070BD10B5002200230A1201249440E5
:102F8000A3B2DC43048010BD00380140004400407F
:102F900000480040004C00400050004010B56FF069
:102FA0000400FFF722FC4C4800684C49B0FBF1F0EC
:102FB0004B4908700846007800EB4001C1EBC01097
:102FC0004FF6FF7101EAC0004649088010BD014676
:102FD000434A12784A434FF0E0235A6100229A6133
:102FE0001A46126942F001021A6100BF4FF0E02256
:102FF000106900F001021AB100F48032002AF5D005
:103000004FF0E022126922F001024FF0E0231A6132
:1030100000229A6170470146324A12884A434FF0B3
:10302000E0235A6100229A611A46126942F00102B5
:103030001A6100BF4FF0E022106900F001021AB1DE
:1030400000F48032002AF5D04FF0E022126922F01D
:1030500001024FF0E0231A6100229A61704770B5B7
:1030600004460D4600BF40211F48FFF751FF0028CE
:10307000F9D0E1B21C48FFF7DDFE204670BD10B567
:1030800086B00446012144F20400FFF73BFD4FF4F3
:103090000070ADF8140003208DF8160018208DF88C
:1030A000170005A91148FFF707FA01940020ADF8B1
:1030B0000800ADF80A00ADF80C00ADF810000820CB
:1030C000ADF80E0001A90848FFF7C3FD012106482D
:1030D000FFF748FE06B010BD0000002000127A0085
:1030E0003C0000203E000020003801400008014064
:1030F0000B4910B5A1F17C020A4CC2E93712372105
:1031000006E000EB104342F82130074B00FB034080
:103110000B1EA1F10101F4DC10BD0120E8E7000065
:10312000CC000020E119D666CD0D010010B5431C7E
:1031300002E010F8011B71B18107FAD14FF00132A2
:1031400002C88C1A8C4314EAC211F9D0C01A0A06BC
:1031500003D0C01E10BDC01A10BD0A0401D0801ECD
:1031600010BD0902FCD0401E10BD7047704770476B
:10317000754600F02BF8AE4605006946534620F030
:103180000700854618B020B5FFF724F9BDE82040B8
:103190004FF000064FF000074FF000084FF0000B13
:1031A00021F00701AC46ACE8C009ACE8C009ACE8C6
:1031B000C009ACE8C0098D46704710B50446AFF3AE
:1031C00000802046BDE81040FCF7DBBF0048704798
:1031D000340100207047000001491820ABBEFEE713
:1031E00026000200000000000000000000000000B7
:1031F00000000404040404040004000000140A0A8B
:103200000000000000000000000014143F140A3FFA
:103210000A0A000000041E1505060C14150F040010
:10322000000012150D0A142C2A1200000000040AD6
:103230000A1E1515093600000002020100000000F8
:1032400000000000002010080808080808102000EE
:10325000000204080808080808040200000000042E
:10326000150E0E150400000000000404041F0404E1
:103270000400000000000000000000000002020145
:1032800000000000001F000000000000000000001F
:1032900000000000000200000010080808040402FA
:1032A0000202010000000E1111111111110E000097
:1032B0000000040604040404040E000000000E11C3
:1032C00011080402011F000000000E11100C101064
:1032D000110E00000000080C0A0A091E0818000060
:1032E00000001F01010F1010110E000000000E0958
:1032F000010F1111110E000000001F090804040441
:103300000404000000000E11110E1111110E000036
:1033100000000E1111111E10120E0000000000001E
:103320000400000000040000000000000004000091
:10333000000404000020100804020408102000000B
:10334000000000001F00001F000000000002040831
:10335000102010080402000000000E1111080404DF
:103360000004000000000E111915151D011E0000BB
:10337000000004040C0A0A1E1233000000000F12A1
:10338000120E1212120F000000001E1101010101A5
:10339000110E000000000F1212121212120F000084
:1033A00000001F120A0E0A02121F000000001F1266
:1033B0000A0E0A020207000000001C120101391166
:1033C000120C000000003312121E12121233000001
:1033D00000001F0404040404041F000000003E0851
:1033E0000808080808090700000037120A060A0A38
:1033F000123700000000070202020202223F000012
:1034000000001B1B1B1B15151515000000003B12AF
:1034100016161A1A1217000000000E1111111111C0
:10342000110E000000000F12120E0202020700002F
:1034300000000E1111111117190E180000000F12C3
:10344000120E0A121237000000001E1101060810A9
:10345000110F000000001F1504040404040E0000F6
:103460000000331212121212120C0000000033126C
:10347000120A0A0C0404000000001515150E0A0AB1
:103480000A0A000000001B0A0A04040A0A1B0000C2
:1034900000001B0A0A040404040E000000001F09B7
:1034A00008040402121F0000001C040404040404A5
:1034B00004041C00000202020404080808100000B2
:1034C000000E08080808080808080E0000040A0092
:1034D00000000000000000000000000000000000EC
:1034E0000000003F00040000000000000000000099
:1034F00000000000000C121C123C0000000003023F
:10350000020E1212120E000000000000001C120237
:10351000021C000000001810101C1212123C0000C7
:1035200000000000000C121E021C00000000380405
:10353000041E0404041E000000000000003C120CE5
:10354000021E221C00000302020E1212123700009B
:103550000000040000060404040E0000000008003F
:10356000000C08080808080700000302023A0A0EC7
:10357000123700000000070404040404041F0000C4
:1035800000000000000F15151515000000000000D8
:10359000000F12121237000000000000000C12127F
:1035A000120C000000000000000F1212120E0207A1
:1035B00000000000001C1212121C10380000000055
:1035C000001B06020207000000000000001E020CA3
:1035D000101E000000000004040E04040418000083
:1035E00000000000001B1212123C0000000000004E
:1035F0000037120A0C040000000000000015150E30
:103600000A0A000000000000001B0A040A1B000058
:10361000000000000037120A0C0404030000000040
:10362000001E0804041E000000180808080408080A
:103630000808180008080808080808080808080802
:10364000000604040408040404040600022518000B
:10365000000000000000000000000000000000006A
:103660000000000000000000000000080808080832
:10367000080800001818000000486C241200000020
:1036800000000000000000000000002424247F123D
:1036900012127F12121200000000081C2A2A0A0CC3
:1036A0001828282A2A1C08080000002225151515AC
:1036B0002A585454542200000000000C1212120A1E
:1036C00076252911916E0000000606040300000013
:1036D0000000000000000000004020101008080852
:1036E00008080810102040000002040808101010FC
:1036F00010101008080402000000000008086B1CED
:103700001C6B080800000000000000000808080802
:103710007F0808080800000000000000000000000A
:103720000000000006060403000000000000000086
:10373000FE0000000000000000000000000000008B
:10374000000000000606000000008040402020101D
:10375000100808040402020000000018244242423B
:103760004242424224180000000000080E080808E7
:1037700008080808083E00000000003C42424220C1
:1037800020100804427E00000000003C4242201845
:1037900020404042221C0000000000203028242449
:1037A00022227E20207800000000007E0202021A01
:1037B00026404042221C0000000000382402021A69
:1037C00026424242241800000000007E22221010EF
:1037D00008080808080800000000003C4242422493
:1037E00018244242423C0000000000182442424299
:1037F00064584040241C000000000000000018181D
:103800000000000018180000000000000000000880
:103810000000000000080804000000402010080418
:1038200002040810204000000000000000007F009B
:1038300000007F00000000000000000204081020CB
:1038400040201008040200000000003C42424640B4
:1038500020101000181800000000001C225A5555B6
:1038600055552D42221C00000000000808181414B1
:10387000243C224242E700000000001F2222221EB8
:1038800022424242221F00000000007C424201010D
:1038900001010142221C00000000001F224242429E
:1038A00042424242221F00000000003F4212121E0C
:1038B00012120242423F00000000003F4212121E5C
:1038C00012120202020700000000003C2222010145
:1038D00001712122221C0000000000E74242424206
:1038E0007E42424242E700000000003E080808080D
:1038F00008080808083E00000000007C10101010A6
:10390000101010101010110F0000007722120A0E74
:103910000A121222227700000000000702020202AF
:1039200002020202427F000000000077363636367F
:103930002A2A2A2A2A6B0000000000E346464A4A47
:1039400052525262624700000000001C2241414175
:1039500041414141221C00000000003F42424242DE
:103960003E020202020700000000001C2241414109
:1039700041414D53321C60000000003F4242423E34
:103980001212222242C700000000007C42420204C0
:1039900018204042423E00000000007F490808080D
:1039A00008080808081C0000000000E742424242E4
:1039B00042424242423C0000000000E742422224D0
:1039C00024141418080800000000006B49494949F4
:1039D0005555362222220000000000E74224241818
:1039E0001818242442E70000000000772222141453
:1039F00008080808081C00000000007E21201010A4
:103A000008040442423F000000780808080808083B
:103A100008080808080878000000020204040808E2
:103A20000810102020204040001E10101010101010
:103A30001010101010101E0000384400000000008C
:103A40000000000000000000000000000000000076
:103A500000000000000000FF000608000000000059
:103A60000000000000000000000000000000003C1A
:103A70004278444242FC0000000000030202021AA5
:103A800026424242261A00000000000000000038D2
:103A900044020202443800000000006040404078C8
:103AA0004442424264D80000000000000000003C94
:103AB000427E0202423C0000000000F08808087EBE
:103AC00008080808083E0000000000000000007C14
:103AD00022221C023C42423C000000030202023A45
:103AE0004642424242E700000000000C0C00000E7B
:103AF00008080808083E00000000003030000038C8
:103B0000202020202020221E00000003020202723A
:103B1000120A1612227700000000000E080808089A
:103B200008080808083E0000000000000000007FB0
:103B30009292929292B70000000000000000003BB9
:103B40004642424242E70000000000000000003C04
:103B500042424242423C0000000000000000001BC4
:103B600026424242221E02070000000000000078A8
:103B700044424242447840E00000000000000077E8
:103B80004C040404041F0000000000000000007C3E
:103B900042023C40423E0000000000000008083E97
:103BA000080808080830000000000000000000635A
:103BB0004242424262DC000000000000000000E7D8
:103BC000422424140808000000000000000000EB5C
:103BD00049495555222200000000000000000076EF
:103BE00024181818246E000000000000000000E7F0
:103BF0004224241418080807000000000000007E7A
:103C000022100808447E000000C020202020201040
:103C1000202020202020C0001010101010101010A4
:103C200010101010101010100006080808080810D6
:103C300008080808080806000C32C200000000004E
:103C40000000000000000000C9EE000027FC140482
:103C500014A4811042084040104017FC2040E0E0CE
:103C6000215022482C4620400040DBDA1104112468
:103C7000112411241124FD241124112411241124B0
:103C800011241D24E124422402040404CAD00200A9
:103C9000010000007FFC0100010001003FF8210845
:103CA0002108210821082128211001000100C8ABAA
:103CB00000000000018002400430180860061FF96F
:103CC0000100010001003FF80100010001007FFE3A
:103CD000B6AF0000000000203E20007C0022002241
:103CE0007F221022102212221222224223423D82DF
:103CF000009CB5E70000010001001FF0610C4104C9
:103D000041047FFC4104410441047FFC01000102A5
:103D1000010201FCD7D3000000003FF80010006052
:103D20000080010000807FFE004000400020002055
:103D3000002018400780BCBC10201020102013FE6B
:103D4000FC201020102015FC18843088D04810501A
:103D50001020105051882606CAF5010001200110DC
:103D600001107FFC03800540054009201110210847
:103D700041048102010001000100D3D002000200D1
:103D8000FFFE040004000FF0081018102FF0481078
:103D900088100FF00810081008500820CFDE00002F
:103DA0007BF84A08520853F8620852084BF84A4414
:103DB0004A486A3052204210428843064200B9AB5A
:103DC0000080048004800840084010202010420831
:103DD000820604000440082010203FF0101000006C
:103DE000CBBE00003FF8000800087FE8000800088C
:103DF0001F8810881088108810881F881088002855
:103E00000010BBB600800080FC8004FC050449085B
:103E10002A401440104028A024A045108110020818
:103E200004040802D3AD00002080133C12240224B5
:103E30000224F2241224122412B413281220102077
:103E4000282047FE0000C4FA0900090011FC3204D2
:103E500054489950114812441444114010800200F3
:103E60005104511290120FF0B4BF00000020102036
:103E700013FE202026244A247A241224222423FC00
:103E80007C20002204227822003CC9AB0000000004
:103E900004000FF0102020207FFC20842084208448
:103EA00020843FF82000200220021FFECCEE0000FC
:103EB0000000204023FE204079FC220423FC220441
:103EC00023FC220423FC3A0465FA01980204B3E4BB
:103ED0000000010001007FFE022004100408080415
:103EE0003FFC044204400440044208421042607E09
:103EF000BED800000000207E3E804880488048FEFA
:103F000048827F8208820C8214FA128422802180E7
:103F100040FED0CE000000007F842208223022C064
:103F2000220222047FC8223022C222022204220856
:103F300022304040BBAD000000007FFE00000FF0CB
:103F400011101110111051125FF251125112511231
:103F50004FF240027FFCD4B2000000007FFE47E237
:103F60004812481247E24FF25012501251125112A9
:103F700042924472580A3FFCCDBC000000003FFE54
:103F8000440247F24C225362408243625E1A4182ED
:103F90004062430240C240223FFCC6AC00000040E9
:103FA0002040204020403FFE2000200020003FE035
:103FB000201020102010201040104010CFD40000FE
:103FC00000003FFC200420043FFC200420041FF8D4
:103FD00024441448144814480C5004407FFECABEC0
:103FE000000000003FFC0000000000007FFE008099
:103FF00008900888108810842084208240820780DE
:10400000B2CB0000002008207FFE002000783F880F
:104010001108089009207FFE018003400D30310C0B
:104020004002B5A500000010081004203FF821044C
:1040300021043FFC210421043FF801007FFE010020
:1040400001000100D6D000000100010001003FFC8A
:104050002104210421042104210421043FFC010046
:10406000010001000100D3A20000000008207FFE33
:104070000820092001003FF82108210821081FF429
:10408000014002200C10700ECEC40000010001009F
:1040900000803F7C08100810041004200220024019
:1040A0000180018002601C18E006D7DB00000000E0
:1040B000102011FE2202220249FC5800300013FE9B
:1040C0002528792401240D24722202A2BACF0000EF
:1040D0000000018002400430180860061FF800004C
:1040E0001FF8200420042004200420041FF8C1C16C
:1040F0000000010001007FFE00003FF820083FF8AB
:104100003FF8400647C24824082008221022603E9B
:10411000B6C80000000000803FFE44105FFC441061
:10412000441043F040005FF84408423041C043600F
:10413000BC1EB2E20000000067C2145205520552D4
:10414000C55225520552055215521752228222425B
:104150004442483ECAD4000000002014101417FE48
:1041600000120010601013F0109010901090149234
:1041700014EA1F0A0006B3CC0000000019FE720208
:10418000120212027DFC18001BFE3420502053FE48
:1041900010201020102013FED0F20000000000803C
:1041A0003FFE400047FC4208413040C05FFE4042B5
:1041B00040424044404840404440B5F700000000C1
:1041C00023FE122202FA0222E22212FE1272128A46
:1041D000128A128A16BA1A421202040EB9E20000BA
:1041E0000100010411080908091009207FFE04409C
:1041F000044004400440084208421042607CB0E69B
:104200000000000048FE4900490049007EFE41824E
:1042100041447944452845284510452846440382B1
:10422000C8A800001000100013FC7D04110419043C
:1042300018843488504850501020105010881304AF
:104240001402CBF9000000003F7C204020403E409B
:10425000227E2244224422443E84208420844084BE
:1042600041044204C6C100003FF8200820083FF87E
:10427000241022202FF8222022203FFC222042203E
:10428000442084200820C4BB04407FFC04401FF06D
:1042900010101FF010101FF00400FFFE11103FF867
:1042A000D116115011200100D0FD2080108010FE89
:1042B0000100FE0021FC20243C2424A024A024BCD6
:1042C00024A024A04560553E8A00D7AA20202020A3
:1042D0002020FDFC4020504093FEFC40108011FC4B
:1042E0001C04F0885050102010101010BFAA0000BD
:1042F0007FFC08200820082008200820FFFE082056
:104300000820082008201020102020204020D4B4AD
:10431000000027FE1420144085FC450445FC1504CC
:1043200015FC2524E42024A829242A2230A00040BA
:10433000D2BA0080204017FE11208120423C424426
:10434000166412942348E248223022202250228808
:104350000306BEA70FE0082008200FE00820082071
:104360000FE000007EFC428442847EFC4284428452
:104370007EFC4284CDF800007FFC400440044214DF
:1043800052944A54442444244A544A545294610452
:10439000400440144008D5BE1020082008207E208C
:1043A000003E04204420442025FC290429040F0455
:1043B000F104410401FC0104B0B4104010201020AD
:1043C00013FEFA02144410401BFE3088D0881108F6
:1043D00010D01020105050882304BCFC2010201056
:1043E0003B7C211441FE7A14A27C2710F97C251015
:1043F00025FE22102A10350028FE0000D0A3104010
:104400001020102011FEFC00108831043A0254885C
:104410005088905010501020105010881306D7BCB0
:1044200001404120212023FE022016201BFC1220E7
:10443000222023FCE2202220222023FE2200020050
:10444000B4A520202020782049FC91247D245524E7
:1044500055247DFC552454207C28542457FE4502C5
:104460008C00C3FE1110111017FC1110FC0013F882
:10447000120817F81A0833F8D04017FC10A01110D2
:1044800052082406B6C10020202011FC1020002074
:1044900003FEF002109410501110109013FE142817
:1044A000184410820302BACD04000E007800087C84
:1044B0000844FF44084418441C442A442A444844FD
:1044C000887C084408000800D1D5100008FE7F1041
:1044D0002220147C7F444454485452544454485439
:1044E00051544228442488423082D6B508400840BE
:1044F0000FFC1040104033F8320853F8920813F8BC
:10450000120813F8120812081FFE1000C8DD02007E
:1045100001007FFE400288241110228804400820F8
:104520003018DFF61010101010101FF01010D6A762
:104530000100010001007FFC0100010001003FF0CB
:104540001010082004400280010006C01830E00E60
:10455000B3D610201020102011FCFC20102013FED8
:104560001008180833FED00810881048100850288A
:104570002010B5E302000200020003FC020002006A
:104580003FF02010201020103FF00000248822442B
:1045900042448004CCAC010001007FFC0100028099
:1045A00004400A203118C0060100088848844812D7
:1045B000481287F00000CAFD082049202A20083E42
:1045C000FF442A44494488A41028FE28221042109F
:1045D000642818283444C282D7D6020001007FFE26
:1045E000400280041FE0004000800100FFFE010047
:1045F00001000100010005000200CDCB03F82208F4
:10460000120813F802080208F3F8124412281210D4
:10461000128813041204280047FE0000B3F60100BC
:10462000010021082108210821083FF801080100A4
:10463000010041044104410441047FFC0004C9EE2F
:104640000000000000001000000800080C7FFC04BF
:10465000401001C8A002186042301832231812C35B
:104660000014030004030C047FF0080F80080B40C3
:1046700078136018332018631818831C190308185E
:104680000300000300000000DBDA0000000000006F
:1046900004100C04180C04108C04108C04108C04EE
:1046A000108C04D08C3F108C04108C04108C0410DF
:1046B0008C04108C04108C04108C05F08C0E208C53
:1046C00078208C20408C00808C01000C02000C00B3
:1046D0000000CAD0000000000000003000001800F8
:1046E00000180800001C1FFFE00018000018200739
:1046F000FFF00418200418200418200418200418BF
:10470000200418200418200418200418200418E09D
:10471000041840001800001800000000D6D0000067
:104720000000000000000000000000180000180059
:104730000018000018003FFFFE3018063018063041
:1047400018063018063018063FFFFE30180600180D
:1047500000001800001800001800001800000000F9
:10476000000000000000CEC40000000000000000B7
:1047700000003800001C00000600FFFFFF060030AC
:104780000600300300600300600180C000C18000AB
:10479000E300003600001C0000770003C1E01E00AB
:1047A0003C60000700000000000000000000000066
:1047B000B2E2000000000000000000000000400025
:1047C0000321FF33398333118333019B33C19B337F
:1047D000719B33199B33019B33019B33119B33191D
:1047E000B333303033306C0330C6036383032E01A0
:1047F000BE000000000000000000CAD4000000005D
:1048000000000000000000004000D83000CE18007A
:10481000C21C00C001FFFF0000C0F800C01800C0AB
:1048200019FFC01818401818601918601B18611E6D
:1048300018311C1FB139F01910000F0000000000E2
:1048400000000000D7D600000000000600000003B2
:1048500000000000C0000001C0C0000107C000014E
:10486000FF00021FFE0007F01C0007C070000F00D1
:10487000E0000E03F0001C0FF0003C0F70003C0045
:10488000E0001800C0000000C0000000C0000000F0
:10489000600000002000000037000001FF00007FE2
:1048A000F80007F830001F8030000080300000C0A2
:1048B0003000006060000018E000000FC00000063B
:1048C000000000000000CCE5000000000000000037
:1048D000000000C0000000E0002001B800703FF8B8
:1048E0000061FFC000C3030001C60600038C060080
:1048F00003080C0006080C000E18183F1E101BF3CE
:104900001F903F0700803C1C0190707C019060FE6E
:1049100001A0C3F801A00FD803A008180360001875
:104920000340001803C0001803800018030000189B
:1049300000000018000000100000003000000030EF
:104940000000000000000000B2E2000000000000D3
:1049500000000000000000000000020C1008071F0B
:10496000F80403BFF00201BC300303EC3003015C28
:10497000600300D8600300D860038098620361B8C8
:10498000430771B14306313243063376C3063A64B6
:10499000C7063EECC0063E78C0063C3040067C7040
:1049A000000678E060067BFFF006F7C00006E40032
:1049B000000640000006000000060000007C000029
:1049C0008FF000007C0000000000CAD4000000004E
:1049D000000000000000000000003F0000007F8099
:1049E00000000180000000C0000000C0000000CEF8
:1049F000038000CFFFC000DD41800FFE0007FFFCF9
:104A0000000C00F000180FC03E19FF40F311BC600D
:104A100083307FE003B1FE20033380200370003039
:104A2000036000100360001807C0000C07C00004FA
:104A300007800002010000030000000100000000E8
:104A4000000000000000000000000000FFFFFFFF6A
:104A5000FFFFFFFFFFFFFFFFFFFFFFFFFFFFFFFF66
:104A6000FFFFFFFFFFFFFFFFFFFFBEF7FFFFDEFFC0
:104A700038C6928C8E6B6E6B107C96AD3CE7FFFF58
:104A8000FFFFFFFFFFFFFFFFFFFFFFFFFFFFFFFF36
:104A9000FFFFFFFFFFFFFFFFFFFFFFFFFFFFFFFF26
:104AA000FFFFFFFFFFFFFFFFFFFFFFFFFFFFFFFF16
:104AB000FFFFFFFFFFFFFFFFFFFF5DEF159D4F6350
:104AC0006C420A328829461925194521E8318E6B36
:104AD00038C6FFFFFFFFFFFFFFFFFFFFFFFFFFFFE6
:104AE000FFFFFFFFFFFFFFFFFFFFFFFFFFFFFFFFD6
:104AF000FFFFFFFFFFFFFFFFFFFFFFFFFFFFFFFFC6
:104B0000FFFFFFFFFFFFFFFF36A51053104B515370
:104B10000F4B6C3AE93167212519E410A3086200B4
:104B20008308CB529AD6FFFFFFFFFFFFFFFFFFFF77
:104B3000FFFFFFFFFFFFFFFFFFFFFFFFFFFFFFFF85
:104B4000FFFFFFFFFFFFFFFFFFFFFFFFFFFFFFFF75
:104B5000FFFFFFFF3CE77063B363B87CF56311436D
:104B60004D32EA2988212619051905190411041165
:104B7000E4108300A308728CFFFFFFFFFFFFFFFF1D
:104B8000FFFFFFFFFFFFFFFFFFFFFFFFFFFFFFFF35
:104B9000FFFFFFFFFFFFFFFFFFFFFFFFFFFFFFFF25
:104BA000FFFFDBDE4B3AF042356C544BB1322E2A1C
:104BB000EB21A9216719051904110411041104112D
:104BC00004110519E4104200AF73FFFFFFFFFFFF60
:104BD000FFFFFFFFFFFFFFFFFFFFFFFFFFFFFFFFE5
:104BE000FFFFFFFFFFFFFFFFFFFFFFFFFFFFFFFFD5
:104BF0005DEF09324C32104B8F324F2A2E2ACC19DE
:104C0000891989214719051904110411C410C41008
:104C1000041104110411E41042003184FFFFFFFF6E
:104C2000FFFFFFFFFFFFFFFFFFFFFFFFFFFFFFFF94
:104C3000FFFFFFFFFFFFFFFFFFFFFFFFFFFFFFFF84
:104C4000EC5247194C320B2AEC21EC210C22915BDF
:104C5000EE4A061126190419E410E410A72966216A
:104C6000A308051904110411E4108200F7BDFFFF29
:104C7000FFFFFFFFFFFFFFFFFFFFFFFFFFFFFFFF44
:104C8000FFFFFFFFFFFFFFFFFFFFFFFFFFFF35A558
:104C90008308882188218921AA218A216B42718C6D
:104CA000FFFF728C83080411C4082942FBDE5DEF0C
:104CB000EC5A83080411041104118308E831DFFF62
:104CC000FFFFFFFFFFFFFFFFFFFFFFFFFFFFFFFFF4
:104CD000FFFFFFFFFFFFFFFFFFFFFFFFBEF7C73133
:104CE000C4102519261947194719A8298A52284A94
:104CF00055ADFFFFE831A30805194D6B4D6BFFFF64
:104D00007DEF4521C410041104110411620076AD39
:104D1000FFFFFFFFFFFFFFFFFFFFFFFFFFFFFFFFA3
:104D2000FFFFFFFFFFFFFFFFFFFFFFFF96B56200E2
:104D30000411041905110519C4088B4AB6B55DEFB5
:104D4000F7BDFFFF8E6B62002942AA5A0842FFFF9F
:104D5000FFFFCC528308041104110411A308AD52C3
:104D6000FFFFFFFFFFFFFFFFFFFFFFFFFFFFFFFF53
:104D7000FFFF1CE7FFFFFFFFFFFFFFFF4E63620027
:104D8000041104110411E41062008E63FFFFFFFFA1
:104D9000FFFFFFFFCF730100F39C2C6396B5FFFF6D
:104DA000FFFF2D5B8300041104110411E41067213F
:104DB0003DEFFFFFFFFFFFFFFFFFFFFFF8BDB7B5B0
:104DC0009EEFCB52B394FFFFFFFFDFFFE831A30854
:104DD0000411041104110411A3084942FFF7FFF75D
:104DE000FFFFFFFF6A4A01007284FFFFFFFFFFF72A
:104DF000DFEF093AA308041104110411041105118D
:104E000018BEFFFFFFFFFFFFFFFFFFFFF07B620009
:104E1000E831C731410035A5FFFF5DEF4621C410E1
:104E20000411041104110411E410A308769DFFF786
:104E3000FFFFB7ADA308A308C7319EE7FFF7FFF751
:104E400076A5A308E410041104110411051105113D
:104E500035A5FFFFFFFFFFFFFFFFFFFFDBDEA729F9
:104E60008300C410C410C4101CE79EEF0511E410A9
:104E700004110411041104110419C408E510D16BC4
:104E8000D16BC5086400A50843002B32779DB3841D
:104E90002519C4100411041104110411251926093F
:104EA000359DFFFFFFFFFFFFFFFFFFFFFFFFAF731A
:104EB00062000419051982000D5B8E9B62100511BA
:104EC000041104110419E41085000511C439815A34
:104ED000407B229C43AC03A4839B82728249C2180C
:104EE000A400C500E410041904110519471967113D
:104EF000EC5ABEFFFFFFFFFFFFFFFFFFDFFFDBDE20
:104F0000C410E41004110511A41801C08388E40042
:104F100005190419C5084421438323D542FEE4FE44
:104F200027FF07FFA4FE64FE03FEA3FDE2FC42ECA4
:104F300083B32462E510C40804192619A81987212F
:104F40000090D3BCFFFFFFFFFFFFFFFFDFFFFFFF6E
:104F5000107C420005190511832801D044F8A348AC
:104F6000E400C508445A02EDE2FD02FE66FE74FF4D
:104F7000B8FF73FFE7F6A6F645F6A4F5C3FC62FC9E
:104F8000C2FCC2FCE3CBC449061188198701A49076
:104F900001F8EC9AFFFFFFFFFFFFFFFFFFFFFFFF9E
:104FA000BEF7E83183000509824001C023F885F08F
:104FB000A348A400445A02FD23CCC2DC04FE28FE10
:104FC00048F646F624F6E4F564FDE3FC62FCC2FC18
:104FD00002E402DCE2FCA47A48016701C47824F808
:104FE00002F884B07DE7FFFFFFFFFFFFFFFFFFFF39
:104FF000FFFFDBDE2519A300C43802E022D844F805
:10500000A6F8A4786300432183728339829B21F53B
:1050100061FD22FDE2FCA2FC42FC42FC42FC22AB10
:105020008341C392045226012519A49844F823F819
:1050300002F8A4D09EEFFFFFFFFFFFFFFFFFFFFF7F
:10504000FFFFFFFF9AD68729A50043B822F823E087
:1050500065F8E8F807C983484200A3008400632983
:10506000A27A62B3A2CB62D302BB828A8339A40044
:10507000E500E500E508C46064D844F824F823F8A6
:1050800002F88388DBC6FFFFFFFFFFFFFFFFFFFF84
:10509000FFFFFFFFFFFF3DE7505B083123E843F8C8
:1050A00044F065F809F9ABF989D10689A34842189B
:1050B0000200420061008200620062008300A320BF
:1050C000C450A58885D865F844F844F823F823F837
:1050D00003D08210C7295DEFFFFFFFFFFFFFFFFF37
:1050E000FFFFFFFFFFFFFFFFFFFF6C32A53802D875
:1050F00023F865F866F8A7F84AF90CFA4DFA4CEA75
:105100000BD2A9B968B147A927B107B907D1E7E818
:10511000C7F8A7F865F865F844F823F803F802D053
:10512000A3280509C408EC5AFFFFFFFFFFFFFFFF9C
:10513000FFFFFFFFFFFFFFFFFBDE0519C400A741D4
:10514000E6C003F886F8A7F887F886F8C7F829F9C3
:105150008AF9ABF9ABF98BF96AF929F908F9C7F8BB
:10516000A6F886F865F864F823F802F006B1252958
:10517000E400E41025192519149DFFFFFFFFFFFF30
:10518000FFFFFFFFFFFFFFFF96AD6200820835952E
:10519000BACE8BA244D025F887F8A7F8C7F8A7F8AD
:1051A00087F886F886F886F887F8A7F8A7F8A6F8AB
:1051B00085F865F864F824F064B80D93BBB6CF6346
:1051C00083080411E4106621493A5DEFFFFFFFFFF9
:1051D000FFFFFFFFFFFFFFFFD3944200E410BBCEB1
:1051E000FFFFBEE776B5CCAA07C145E045F846F813
:1051F00066F886F886F886F886F865F845F865F862
:1052000065E844D043A8018882903CD7FFEF5595CC
:1052100083080411041105194619B394FFFFFFFF19
:10522000FFFFFFFFFFFFFFFFB394410086215DDF1B
:10523000FFFFFFFFFFFFDFE77AC6D3B44EB32AC2FA
:1052400068D1E6E0A6E8A5E8A5E8E6D888C906A9F9
:1052500022A802A800A000C800D8F7E5FFE7F8AD33
:10526000C410E4100411E41005118B4AFFFFFFFF86
:10527000FFFFFFFFFFFFFFFF55A54100A7295DDFEF
:10528000FFF7FFFFFFFFFFFFFFFFFFFFFFEF7DDFE8
:10529000DBCE59CEF8CDD7CDF7C579CEFBBEABA2CC
:1052A00003F045F842D043E800F072D4FFDF39AE96
:1052B000E410E4100411E41005118729FFFFFFFF3B
:1052C000FFFFFFFFFFFFFFFF59CE830846211CD7DA
:1052D000FFF7FFFFFFFFFFFFFFFFFFFFFFFFFFFFE6
:1052E000FFFFFFFFFFFFFFFFFFFFFFFFFFEF8BBA97
:1052F00004F845F862E044F000F88EDBFFDFF8A523
:10530000C410E410E4100411E4102519FFFFFFFF9E
:10531000FFFFFFFFFFFFFFFFBEF78729830839B6B6
:10532000FFF7DFF7FFFFFFFFFFFFFFFFFFFFFFFFBD
:10533000FFFFFFFFFFFFFFFFFFFFFFFFBEE74ABAD0
:1053400003F845F864F844F800F86EE3FFD7F48CEE
:1053500083080411E410E410E4100519FFFFFFFFB7
:10536000FFFFFFFFFFFFFFFFFFFFEF7300007284EF
:10537000FFEFBEEFDFFFFFFFFFFFFFFFFFFFFFFFBE
:10538000FFFFFFFFFFFFFFFFFFFFFFFFDFE78BBA1E
:1053900003F845F845F823F800F8D3D4FFD74E5B5F
:1053A0002100293A55A58308C4102519FFFFFFFFE6
:1053B000FFFFFFFFFFFFFFFFFFFFFBDEA308E8315A
:1053C0009EDF9EE7BFEFFFFFFFFFFFFFFFFFFFFF37
:1053D000FFFFFFFFFFFFFFFFFFFFFFFFFFF751BCD6
:1053E00002E003F803F043E0ECC27ECFFCBE4621AE
:1053F0002100D394FFFF518400008729FFFFFFFFA6
:10540000FFFFFFFFFFFFFFFFFFFFFFFF51840000D3
:10541000F48CFFEF9EE7BFEFDFFFFFFFFFFFFFFF13
:10542000FFFFFFFFFFFFFFFFFFFFFFFFFFFF3DDF6E
:1054300055BD52BC72BCB7B55DC7FFDFF06B000055
:10544000093ABFF7FFFFFFFF149D55A5FFFFFFFFC0
:10545000FFFFFFFFFFFFFFFFFFFFFFFFFFFFAC4A64
:10546000A408BBBEDFE77EE7BEEFDFF7DFFFFFFF8D
:10547000FFFFFFFFFFFFFFFFFFFFFFFFDFFFDFF784
:10548000FFEFDFDFBFD79ED7DFDFD8A58308261168
:10549000DBD6FFFFFFFFFFFFFFFFFFFFFFFFFFFF69
:1054A000FFFFFFFFFFFFFFFFFFFFFFFF79EE8BDC3A
:1054B0002131A9213DCFBFDF7EDF9EE7BEEFBFEFE9
:1054C000DFF7DFF7DFF7DFF7DFF7BFEFBEEF9EE7CE
:1054D0007EDF5ED75ED7DFDF9AB626194208EDA3DE
:1054E000BFFFFFFFFFFFFFFFFFFFFFFFFFFFFFFF0C
:1054F000FFFFFFFFFFFFFFFFFFFF74DDC0DB00FECC
:1055000042EE024289217BB6DFDF7ED77EDF7EDF7F
:105510009EE79EE79EE79EE79EE77EDF7EDF5DD704
:105520005DD79EDFFFE7F8A50711E31802C560FD10
:10553000E6D3DBEEFFFFFFFFFFFFFFFFFFFFFFFFF5
:10554000FFFFFFFFFFFFFFFF9EF784BAC1FC42FE93
:1055500082FEA2FE8183452174745EC7DFDF7ED7A1
:105560005ED75DD75ED75ED75DD75DD75ED79EDF4E
:10557000FFE73DC7F1638408425226E629FF86FE15
:10558000E0F36AC3FFFFFFFFFFFFFFFFFFFFFFFF27
:10559000FFFFFFFFFFFFFFFF18DEC1D2A2FD22FECB
:1055A00042FE42FE62FEE2D4416A494253743BA687
:1055B0003EC7BFD7BFD7BFD7BFDFBFD73EC71AA62B
:1055C000F263A729824122B462FE83FEAAFE0FFF86
:1055D00067FD63BA3CEFFFFFFFFFFFFFFFFFFFFF29
:1055E000FFFFFFFFFFFFFFFF9AE680D221FDC2FD14
:1055F000E2F5C2F582F582FD62FD61DC219B846AE1
:10560000E96A2C63AF6311746E632C63895A045288
:10561000817AC2CBE2FC62FD82FDC2FDC2FDE4FDE7
:1056200024FD62CA1CE7FFFFFFFFFFFFFFFFFFFF34
:10563000FFFFFFFFFFFFFFFFFFFFB1CC81D2C0F3F1
:10564000C1FC02FD02FDE2FCC2FCC2FC81FC80FB4D
:10565000C0C9A48135AD59CE719C218100DAA1FB6E
:1056600082FCA2FC82FCA2FC02FD22FDE2FC00FC0A
:1056700060DA90CCFFFFFFFFFFFFFFFFFFFFFFFFA0
:10568000FFFFFFFFFFFFFFFFFFFFFFFF59DE0DC41E
:1056900006CBE4D203DB03DBE3DAC3D2A4C209B353
:1056A000D2BC9EF7FFFFFFFFFFFFFBE60EB4A6BADA
:1056B00083D2E3E202EB22EB22E303DBE4D26AC310
:1056C000B6D5FFFFFFFFFFFFFFFFFFFF08570008F2
:1056D000FC560008EC560008DC560008526F746156
:1056E00074696F6E3A32373000000000526F746197
:1056F00074696F6E3A31383000000000526F746187
:1057000074696F6E3A393000526F746174696F6EEC
:105710003A3000003457000800000020400000002C
:105720002C010008745700084000002058070000B2
:105730004801000800A24A04000000000000000028
:10574000010203040607080900F8E0071F00E0FF54
:105750001FF80000FFFF000000000000010203042A
:1057600001020304060708090204060800000000FD
:045770000000000035
:04000005080000F1FE
:00000001FF
