:100520001200037F007EF812045E7FE87E0312054E
:10053000797FE07E0712045E7FE87E031205797FF3
:0F0540001F7E0012045E7FE87E0312057980D4CF
:10057900E4FDFCC3ED9FEE6480F8EC6480985015AF
:10058900E4FBFA0BBB00010ABA03F8BBE8F50DBDA1
:0505990000010C80DEF2
:01059E00223A
:10059F00E4FDFCC3ED9FEE6480F8EC648098501589
:1005AF00E4FBFA0BBB00010AEB64014A70F50DBDC9
:0505BF0000010C80DECC
:0105C4002214
:0A0647004200000000420002FFFF25
:1005E4007E80EE60135F6004D2958002C295C2974C
:0805F400D297EEC313FE80EA6A
:0105FC0022DC
:070636007FEF12063D7FEB90
:0A063D00C292C2931205E4D2932288
:0806120012061A7F7012061A8D
:0A061A00D292C2931205E4D293229B
:1005FD00AD07AC06C293D292ECFF1205E4AF051223
:05060D0005E4D2932278
:08065B0012063DAF0502061A6C
:0906520090000BA3E0FF02063D3D
:08045E00900011EEF0A3EFF095
:10046600900005E024FFFB900004E034FFFA9000C2
:1004760007E024FFFE900006E034FF900019F0A389
:10048600CEF0E4FDFCFFFE1204D3C293D292E4FD4B
:10049600FCD3900005E09D900004E09C402CE4FB1A
:1004A600FAD3900007E09B900006E09A4015900072
:1004B60011E0FF1205E4A3E0FF1205E40BBB000107
:0C04C6000A80DE0DBD00010C80C7D2933F
:0104D2002207
:10054F00AB07AA068D828C83C006C007AE83AF822D
:10055F00900019EEF0A3EFF0D007D0061204D3905D
:0A056F000000E0FEA3E0FF0205FD1E
:10062400C2B37F147E00120579D2B37F147E000218
:02063400057946
:100003001206241206367F1412061A7FFE12063DCC
:100013001206367F1412061A7F8412063D7F4012A1
:10002300061A7F8512063D7FFF12061A7F86120687
:100033003D7FFF12061A7F8712063D7FFF12061AC5
:100043007F8812063D7F0A12061A7F8912063D7FBA
:100053002112061A7F8A12063DE4FF12061A7F8BCD
:1000630012063D7F8012061A7F8C12063D7F011215
:10007300061A7F8D12063D7F0112061A7F8E120625
:100083003D7FFF12061A7F8F12063D7FFF12061A6D
:100093007FB612063DE4FF12061A7F2012061A7F6E
:1000A3003612063D7F0812061A7F3A12063D7F0577
:1000B30012061A7F9012063D7F0812061A12061ABC
:1000C30012061A12061A7FBD12063D7F0612061A81
:1000D3007FBC12063DE4FF12061A7FFF12063D7F26
:1000E3006012061A7F0112061A7F0412061A7FC3D2
:1000F30012063D7F1312061A7FC412063D7F1312A8
:10010300061A7FC912063D7F2212061A7FBE120607
:100113003D7F1112061A7FE112063D7F1012061A67
:100123007F0E12061A7FDF12063D7F2112061A7F09
:100133000C12061A7F0212061A7FF012063D7F4543
:1001430012061A7F0912061A1F12061A12061A7FBE
:100153002612061A7F2A12061A7FF112063D7F43E2
:1001630012061A7F7012061A7F7212061A7F36124F
:10017300061A0F12061A7F6F12061A7FF212063D35
:100183007F4512061A7F0912061A1F12061A120653
:100193001A7F2612061A7F2A12061A7FF312063DC9
:1001A3007F4312061A7F7012061A7F7212061A7F95
:1001B3003612061A0F12061A7F6F12061A7FED12F5
:1001C300063D7F1B12061A7F0B12061A7FAE12061C
:1001D3003D7F7712061A7FCD12063D7F6312061A02
:1001E3007F7012063D7F0712061A12061A7F041249
:1001F300061A7F0E12061A0F12061A7F0912061A22
:100203007F0712061A0F12061A7F0312061A7FE8D7
:1002130012063D7F3412061A7F6212063D7F1812C2
:10022300061A7F0D12061A7F7112061A7FED120647
:10023300127F1812061A7F0F12061A7F7112061AFE
:100243007FEF1206127F6312063D7F1812061A7F94
:100253001112061A7F7112061A7FF11206127F1805
:1002630012061A7F1312061A7F7112061A7FF312EF
:1002730006127F6412063D7F2812061A0F12061A11
:100283007FF112061A7F0112061A7FF112061AE491
:10029300FF12061A7F0712061A7F6612063D7F3C7D
:1002A30012061AE4FF12061A7FCD12061A7F67128E
:1002B300061A7F4512061A12061A7F1012061AE44E
:1002C300FF12061A12061A12061A7F6712063DE477
:1002D300FF12061A7F3C12061AE4FF12061A1206D0
:1002E3001A12061A0F12061A7F5412061A7F1012D8
:1002F300061A7F3212061A7F9812061A7F741206A4
:100303003D7F1012061A7F8512061A7F8012061A85
:10031300E4FF12061A12061A7F4E12061AE4FF129F
:10032300061A7F9812063D7F3E12061A7F071206B1
:100333001A7F3512063D7F2112063D7F1112063DBD
:100343007F787E001205797F2912063DE4FF1203B0
:04035300E3D2B2221D
:1004D300900013EEF0A3EFF090000DA3E0FF1206DF
:1004E3003D900013E0FF12061AA3E0FF12061AEA7A
:1004F300FF12061AAF0312061A90000FA3E0FF12B1
:10050300063DECFF12061AAF0512061A900019E019
:0D051300FF12061AA3E0FF12061A0206529C
:1005C500AB07AA068D828C83C006C007AE83AF82B7
:0F05D500900019EEF0A3EFF0D007D0060204D388
:1003E30090000DE4F0A3742AF0A3E4F0A3742BF0BF
:1003F30090000BE4F0A3742CF0EF14601E14602F34
:1004030014604024037053900004E4F0A374F0F0EC
:10041300A3E4F0A374F0F07D08803A900004E4F0C4
:10042300A374F0F0A3E4F0A374F0F07D6880269049
:100433000004E4F0A374F0F0A3E4F0A374F0F07DFF
:10044300C88012900004E4F0A374F0F0A3E4F0A3D6
:0B04530074F0F07DA87F3612065B22DB
:03000000020357A1
:0C035700787FE4F6D8FD75810702039E54
:10036300020520E493A3F8E493A34003F68001F28B
:1003730008DFF48029E493A3F85407240CC8C3339B
:10038300C4540F4420C8834004F456800146F6DF6A
:10039300E4800B0102040810204080900647E47EAD
:1003A300019360BCA3FF543F30E509541FFEE4935F
:1003B300A360010ECF54C025E060A840B8E493A326
:1003C300FAE493A3F8E493A3C8C582C8CAC583CA51
:1003D300F0A3C8C582C8CAC583CADFE9DEE780BE09
:0106510000A8
:00000001FF
